:020000040800F2
:10000000F807002089010008910100089301000809
:100010009501000897010008990100080000000000
:100020000000000000000000000000009B0100082C
:100030009D010008000000009F010008A1010008C8
:10004000A3010008A3010008A3010008A301000800
:10005000A3010008A3010008A3010008A3010008F0
:10006000A3010008A3010008A3010008A3010008E0
:10007000A3010008A3010008A3010008A3010008D0
:10008000A3010008A3010008A3010008A3010008C0
:10009000A3010008A3010008A3010008A3010008B0
:1000A000A3010008A3010008A3010008A3010008A0
:1000B000A3010008A3010008A3010008A301000890
:1000C000A3010008A3010008A301000879050008A6
:1000D000A3010008A3010008A3010008A301000870
:1000E000A3010008A3010008A301000800F002F822
:1000F00000F03AF80AA090E8000C82448344AAF188
:100100000107DA4501D100F02FF8AFF2090EBAE885
:100110000F0013F0010F18BFFB1A43F0010318473B
:100120000007000020070000103A24BF78C878C1FB
:10013000FAD8520724BF30C830C144BF04680C60ED
:10014000704700000023002400250026103A28BF35
:1001500078C1FBD8520728BF30C148BF0B60704739
:100160001FB51FBD10B510BD00F031F81146FFF7E7
:10017000F7FF00F015FB00F04FF803B4FFF7F2FFB4
:1001800003BC00F057F800000948804709480047C1
:10019000FEE7FEE7FEE7FEE7FEE7FEE7FEE7FEE737
:1001A000FEE7FEE704480549054A064B7047000094
:1001B00041070008ED000008F8010020F8070020C2
:1001C000F8030020F8030020704770477047754619
:1001D00000F02CF8AE4605006946534620F00700B3
:1001E000854618B020B5FFF7DDFFBDE820404FF091
:1001F00000064FF000074FF000084FF0000B21F011
:100200000701AC46ACE8C009ACE8C009ACE8C009DD
:10021000ACE8C0098D46704710B50446AFF30080C6
:100220002046BDE81040FFF7A8BF00000048704717
:100230009801002001491820ABBEFEE7260002000D
:100240007047000030B5032872DA1029FCDA20B1BB
:1002500001282ED002282BD157E0082910DA414B73
:100260001B688D000F24AC40A3433E4C2360234603
:100270001B688C0002FA04F423433A4C236017E015
:10028000102915DAA1F10803D9B2364B1B1D1B68E2
:100290008D000F24AC40A343324C241D2360234621
:1002A0001B688C0002FA04F423432E4C241D2360A7
:1002B00055E0082910DA2C4B1B688D000F24AC4048
:1002C000A343294C236023461B688C0002FA04F4E4
:1002D0002343254C236017E0102915DAA1F1080308
:1002E000D9B2214B1B1D1B688D000F24AC40A343CA
:1002F0001D4C241D236023461B688C0002FA04F465
:100300002343194C241D236029E0082911DA174BD7
:100310001B688D000F24AC40A343144C236023467C
:100320001B688C0002FA04F42343104C236015E090
:1003300016E0102912DAA1F10803D9B20B4B5B6861
:100340008D000F24AC40A343084C636023465B68D8
:100350008C0002FA04F42343044C636000BF00BF26
:1003600030BD000000080140000C014000100140B9
:100370000146002021B1012907D002290FD109E04F
:10038000084A1268C2F3400009E0064A1268C2F344
:10039000404004E0034A1268C2F3406000BF00BF5F
:1003A000704700000010024020B1012809D0022847
:1003B00015D10DE00B49096821F00101094A1160CE
:1003C0000DE00849096821F48031064A116006E011
:1003D0000449096821F08071024A116000BF00BF22
:1003E000704700000010024020B1012809D0022807
:1003F00015D10DE00B49096841F00101094A11606E
:100400000DE00849096841F48031064A116006E0B0
:100410000449096841F08071024A116000BF00BFC1
:10042000704700000010024000B50020FFF7DCFF1D
:1004300000BF0020FFF79CFF0028FAD000221146E1
:10044000104600F051F8002000F068F80120FFF796
:10045000ABFF0220FFF7A8FF00BD000010B520B1E0
:10046000012815D0022839D125E0012A07D11D4BDA
:100470005B6901248C4023431A4C636107E032B965
:10048000184B5B6901248C40A343164C636126E042
:10049000012A07D1134BDB6901248C402343114C03
:1004A000E36107E032B90F4BDC6901238B409C43C9
:1004B0000C4BDC6113E0012A07D10A4B9C69012334
:1004C0008B401C43074B9C6107E032B9054B9B698D
:1004D00001248C40A343034CA36100E000BF00BF94
:1004E00010BD00000010024010B50B4B5B6843F6D6
:1004F000F074A343084C636023465B6843EA00132F
:10050000636023465B6843EA0123636023465B68BC
:1005100043EAC223636010BD0010024020B10128ED
:100520000ED0022824D117E01249496821F00101B8
:10053000104A51601146496821F00201516017E0EC
:100540000C49496841F001010A4A51601146496865
:1005500021F0020151600BE00649496821F00101D8
:10056000044A51601146496841F00201516000BFE0
:1005700000BF70470010024010B50948C06881B242
:1005800008480088401C80B2064A1080064A22F8BB
:1005900010100648006810B104480068804710BD7C
:1005A00000300140CE000020D000002000000020DC
:1005B0001A48006820F4006018490860084600687E
:1005C00020F4007008600846006820F08000086091
:1005D000084600684FF6C771084010490860084691
:1005E000006840F0080008600846006820F0040039
:1005F00008600846406840F04000486008460068CF
:1006000040F0020008600846006840F00100086001
:100610000846006840F04000086070470030014024
:100620000C4A526822F040020A4B5A601A46D060C7
:1006300000BF084A9268C2F3C012002AF9D1054AE5
:10064000D2680A80034A526842F04002014B5A6065
:10065000704700000030014010B500F001F810BDF7
:100660000CB50020019000903348006840F48030C1
:100670003149086000BF3048006800F40030009045
:100680000198401C0190009818B90198B0F5A06F2E
:10069000F1D12948006800F4003010B10120009029
:1006A00001E0002000900098012843D12348006811
:1006B00040F01000214908600846006820F007005B
:1006C00008600846006840F0020008601A48406868
:1006D000194948600846406848600846406840F448
:1006E000806048600846406820F47C1048600846F6
:1006F000406840F4E81048600846006840F08070A8
:10070000086000BF0C48006800F000700028F9D0B5
:100710000948406820F003000749486008464068DF
:1007200040F00200486000BF0348406800F00C0041
:100730000828F9D10CBD0000001002400020024042
:1007400010B51348006840F00100114908600846E0
:100750004068104908400E494860084600680E4944
:1007600008400B4908600846006820F480200860B3
:100770000846406820F4FE0048604FF41F0088607F
:10078000FFF76AFF4FF000600449086010BD0000E9
:10079000001002400000FFF8FFFFF6FE08ED00E049
:1007A0001FB5FFF741FE012202210846FFF756FE62
:1007B00001220C210220FFF751FE09220421002012
:1007C000FFF740FD092205210020FFF73BFD042231
:1007D00006210020FFF736FD092207210020FFF740
:1007E00031FDFFF7E5FE00240AA207CA01AB07C3EB
:1007F000002000900DE0002407E02146621CD4B2E6
:1008000001AA505C6946FFF70BFF01A8005D0028B4
:10081000F3D1F0E748454C4C4F20424F5348480035
:100820004008000800000020D00000002801000857
:1008300010090008D000002028070000440100082B
:1008400000000000000000000000000000000000A8
:100850000000000000000000000000000000000098
:100860000000000000000000000000000000000088
:100870000000000000000000000000000000000078
:100880000000000000000000000000000000000068
:100890000000000000000000000000000000000058
:1008A0000000000000000000000000000000000048
:1008B0000000000000000000000000000000000038
:1008C0000000000000000000000000000000000028
:1008D0000000000000000000000000000000000018
:1008E0000000000000000000000000000000000008
:1008F00000000000000000000000000000000000F8
:10090000000000000000000000000000FFFF0000E9
:040000050800018965
:00000001FF
