:020000040800F2
:100000007007002089010008910100089301000891
:100010009501000897010008990100080000000000
:100020000000000000000000000000009B0100082C
:100030009D010008000000009F010008A1010008C8
:10004000A3010008A3010008A3010008A301000800
:10005000A3010008A3010008A3010008A3010008F0
:10006000A3010008A3010008A3010008A3010008E0
:10007000A3010008A3010008A3010008A3010008D0
:10008000A3010008A3010008A3010008A3010008C0
:10009000A3010008A3010008A3010008A3010008B0
:1000A000A3010008A3010008A3010008A3010008A0
:1000B000A3010008A3010008A3010008A301000890
:1000C000A3010008A3010008A30100081D0D0008FA
:1000D000A3010008A3010008A3010008A301000870
:1000E000A3010008A3010008A301000800F002F822
:1000F00000F03AF80AA090E8000C82448344AAF188
:100100000107DA4501D100F02FF8AFF2090EBAE885
:100110000F0013F0010F18BFFB1A43F0010318473B
:100120009C0F0000BC0F0000103A24BF78C878C1B3
:10013000FAD8520724BF30C830C144BF04680C60ED
:10014000704700000023002400250026103A28BF35
:1001500078C1FBD8520728BF30C148BF0B60704739
:100160001FB51FBD10B510BD00F031F81146FFF7E7
:10017000F7FF00F02DFF00F04FF803B4FFF7F2FF98
:1001800003BC00F057F800000948804709480047C1
:10019000FEE7FEE7FEE7FEE7FEE7FEE7FEE7FEE737
:1001A000FEE7FEE704480549054A064B7047000094
:1001B000690F0008ED0000087001002070070020A2
:1001C0007003002070030020704770477047754629
:1001D00000F02CF8AE4605006946534620F00700B3
:1001E000854618B020B5FFF7DDFFBDE820404FF091
:1001F00000064FF000074FF000084FF0000BAC4630
:10020000ACE8C009ACE8C009ACE8C009ACE8C0097A
:1002100021F007018D46704710B50446AFF300800A
:100220002046BDE81040FFF7A8BF00000048704717
:10023000E800002001491820ABBEFEE726000200BE
:100240007047000082B08DF807008DF806108DF819
:1002500005209DF80700022800F3DD80FFE79DF8E8
:1002600006000F2800F3D780FFE79DF8070001463E
:10027000009148B1FFE70098012847D0FFE70098B8
:10028000022800F08580C5E09DF80600072818DCEC
:10029000FFE79DF8060081000F2000FA01F240F60A
:1002A0000001C4F201010868904308609DF8050050
:1002B0009DF80620920000FA02F2086810430860D8
:1002C00023E09DF806000F281DDCFFE79DF80600DF
:1002D00008388DF806009DF8060081000F2000FA0E
:1002E00001F240F60401C4F201010868904308607D
:1002F0009DF805009DF80620920000FA02F20868B9
:100300001043086000E0FFE7FFE783E09DF8060088
:10031000072818DCFFE79DF8060081000F2000FA8F
:1003200001F240F60041C4F2010108689043086000
:100330009DF805009DF80620920000FA02F2086878
:100340001043086023E09DF806000F281DDCFFE73E
:100350009DF8060008388DF806009DF8060081001B
:100360000F2000FA01F240F60441C4F201010868CE
:10037000904308609DF805009DF80620920000FA61
:1003800002F208681043086000E0FFE7FFE741E081
:100390009DF80600072818DCFFE79DF8060081009D
:1003A0000F2000FA01F241F20001C4F201010868D5
:1003B000904308609DF805009DF80620920000FA21
:1003C00002F208681043086023E09DF806000F2839
:1003D0001DDCFFE79DF8060008388DF806009DF843
:1003E000060081000F2000FA01F241F20401C4F27C
:1003F00001010868904308609DF805009DF80620FB
:10040000920000FA02F208681043086000E0FFE77B
:10041000FFE7FFE700E0FFE702B0704782B08DF82A
:1004200007008DF806108DF805209DF8070001469D
:10043000009140B1FFE70098012829D0FFE700981C
:1004400002284AD06EE09DF8050001280DD1FFE793
:100450009DF80610012000FA01F240F60C01C4F2EA
:10046000010108681043086011E09DF8050068B9B3
:10047000FFE79DF80610012000FA01F240F60C019A
:10048000C4F20101086890430860FFE7FFE749E014
:100490009DF8050001280DD1FFE79DF80610012009
:1004A00000FA01F240F60C41C4F201010868104361
:1004B000086011E09DF8050068B9FFE79DF8061097
:1004C000012000FA01F240F60C41C4F20101086873
:1004D00090430860FFE7FFE724E09DF8050001284E
:1004E0000DD1FFE79DF80610012000FA01F241F25C
:1004F0000C01C4F2010108681043086011E09DF886
:10050000050068B9FFE79DF80610012000FA01F226
:1005100041F20C01C4F20101086890430860FFE752
:10052000FFE7FFE702B0704782B08DF807000020B8
:100530008DF806009DF807000146009140B1FFE7E5
:10054000009801280ED0FFE70098022814D01DE083
:1005500041F20000C4F202000068C0F340008DF8D0
:10056000060013E041F20000C4F202000068C0F38C
:1005700040408DF8060009E041F20000C4F202009C
:100580000068C0F340608DF80600FFE79DF80600A4
:1005900002B0704782B08DF807009DF80700014651
:1005A000009140B1FFE7009801280DD0FFE70098C7
:1005B000022812D01AE041F20001C4F202010868D8
:1005C00020F00100086011E041F20001C4F20201D4
:1005D000086820F48030086008E041F20001C4F2AD
:1005E0000201086820F080700860FFE702B07047E1
:1005F00082B08DF807009DF807000146009140B1D8
:10060000FFE7009801280DD0FFE70098022812D0DC
:100610001AE041F20001C4F20201086840F0010052
:10062000086011E041F20001C4F20201086840F4E0
:100630008030086008E041F20001C4F2020108685D
:1006400040F080700860FFE702B0704780B582B06C
:100650000020FFF7CDFFFFE70020FFF765FF08B997
:10066000FFE7F9E7002201921046114600F094F8E6
:10067000019800F0B5F80120FFF78CFF0220FFF78A
:1006800089FF02B080BD000082B08DF807008DF8B0
:1006900006108DF805209DF807000146009140B135
:1006A000FFE70098012829D0FFE7009802284AD0E8
:1006B0006EE09DF8050001280DD1FFE79DF80610BA
:1006C000012000FA01F241F21401C4F202010868AB
:1006D0001043086011E09DF8050068B9FFE79DF838
:1006E0000610012000FA01F241F21401C4F20201E5
:1006F000086890430860FFE7FFE74AE09DF80500BF
:1007000001280DD1FFE79DF80610012000FA01F243
:1007100041F21C01C4F2020108681043086011E0B4
:100720009DF8050068B9FFE79DF80610012000FA62
:1007300001F241F21C01C4F2020108689043086012
:10074000FFE7FFE725E09DF8050001280DD1FFE751
:100750009DF80610012000FA01F241F21801C4F2DE
:10076000020108681043086011E09DF8050068B9AF
:10077000FFE79DF80610012000FA01F241F218018E
:10078000C4F20201086890430860FFE7FFE700E059
:10079000FFE702B07047000081B08DF803008DF8CC
:1007A00002108DF8012041F20401C4F20201086830
:1007B00043F6F072904308609DF80320086840EA11
:1007C000021008609DF80220086840EA02200860D4
:1007D0009DF80120086840EAC220086001B0704717
:1007E00082B08DF807009DF807000146009140B1E6
:1007F000FFE70098012811D0FFE7009802281AD0DF
:1008000026E041F20401C4F20201086820F0010070
:100810000860086820F00200086019E041F2040155
:10082000C4F20201086840F001000860086820F086
:10083000020008600CE041F20401C4F20201086801
:1008400020F001000860086840F002000860FFE73F
:1008500002B0704780B584B08DF80F00029100207F
:100860008DF807008DF806009DF80F00062804DBC0
:10087000FFE702208DF8070029E0029820B9FFE782
:1008800001208DF8070021E0029900200870072060
:100890000DF1060100F0ACF89DF8060040060028B6
:1008A00013D5FFE79DF8060000F00E019DF80F003C
:1008B000B0EB510F09D1FFE79DF80610072000F0BB
:1008C000D5F9029901200870FFE7FFE7FFE79DF8DF
:1008D000070004B080BD000080B5E22000F006F9FA
:1008E00080BD000080B588B00221029101220792EC
:1008F0000846FFF7C9FE0298079A0C21FFF7C4FECD
:1009000000200590072109220192FFF79BFC059822
:10091000062104220392FFF795FC019A0598052110
:100920000491FFF78FFC03990598079AFFF78AFC5B
:100930000598079A03210691FFF784FC039905980F
:10094000079AFFF76BFD00F021FA059A0699104609
:10095000FFF764FD00F074F80599084600F086F989
:100960000599079800F082F90298059900F07EF940
:100970000398059900F07AF90498059900F076F942
:1009800005980699079AFFF749FD08B080BD000059
:1009900080B584B003908DF80B1000208DF80A000C
:1009A000039820B9FFE700208DF80A001CE004211D
:1009B0000191002200921046FFF730FD40F26811CD
:1009C000C2F20001612000F00FFA03999DF80B209C
:1009D00040F24810C2F2000000F0B6F90098019908
:1009E0000122FFF71BFDFFE79DF80A0004B080BD60
:1009F00080B586B08DF8170004919DF8170000F0BF
:100A00001F008DF817000421039100220292104666
:100A1000FFF704FD9DF8170040F26811C2F20001D3
:100A2000019100F0E1F901980078049900F0DCF9F7
:100A3000029803990122FFF7F1FC06B080BD000087
:100A400080B586B0002005900821039100F00EF9D2
:100A500001203F2100F00AF90220019003210091BA
:100A600000F004F90099084600F000F9009904200C
:100A700000F0FCF80199052000F0F8F806200E219E
:100A8000029100F0F3F80299072000F0EFF80398C4
:100A9000059900F0EBF80599092000F0E7F80599B1
:100AA0001120049000F0E2F80599122000F0DEF821
:100AB0000599132000F0DAF80599142000F0D6F813
:100AC0000599152000F0D2F80599162000F0CEF80F
:100AD0000499172000F0CAF805991C2000F0C6F808
:100AE00005991D2000F0C2F806B080BD80B584B025
:100AF0008DF80F0004210291002201921046FFF7A9
:100B00008DFC9DF80F0040F26811C2F2000100F068
:100B10006BF9019802990122FFF780FC04B080BDB7
:100B200080B584B08DF80F008DF80E1000208DF880
:100B30000D008DF80C009DF80F007E2804D3FFE710
:100B400003208DF80D008CE09DF80E00062804DBD4
:100B5000FFE702208DF80D0082E0032100221046FD
:100B6000FFF75CFC9DF80F10052000F07FF89DF862
:100B70000E1001208840C1B2022000F077F89DF8E5
:100B80000E0001460291052853D80299DFE801F0D2
:100B900003101D2A374440F20001C2F200010A206E
:100BA000052200F08DF81120202100F05FF841E0CF
:100BB00040F20501C2F200010B20052200F080F88E
:100BC0001220202100F052F834E040F20A01C2F273
:100BD00000010C20052200F073F81320202100F002
:100BE00045F827E040F20F01C2F200010D20052276
:100BF00000F066F81420202100F038F81AE040F2E6
:100C00001401C2F200010E20052200F059F815204F
:100C1000202100F02BF80DE040F21901C2F2000192
:100C20000F20052200F04CF81620202100F01EF8BD
:100C300000E0FFE70020019003A9FFF7D9FE01982B
:100C40009DF80C1041F003018DF80C109DF80C106C
:100C500000F00CF8019803210122FFF7DFFBFFE70A
:100C6000FFE79DF80D0004B080BD000080B586B0A0
:100C70008DF817008DF816109DF8170001210491CA
:100C800061F35F108DF81700042103910022029296
:100C90001046FFF7C3FB9DF8170040F26811C2F23F
:100CA0000001019100F0A0F801999DF8160000F0F4
:100CB0009BF802980399049AFFF7B0FB06B080BD39
:100CC00080B586B08DF8170004918DF80F209DF83F
:100CD00017000121029161F35F108DF817000421C4
:100CE0000191002200921046FFF798FB9DF8170033
:100CF00040F26811C2F2000100F076F804989DF805
:100D00000F2040F24811C2F2000100F01DF80098D7
:100D10000199029AFFF782FB06B080BD80B500F012
:100D200091F902280FD1FFE740F26C10C2F20000E7
:100D3000006838B1FFE740F26C10C2F200000068B2
:100D40008047FFE7FFE780BD80B584B00390029144
:100D50008DF8072000208DF80600FFE79DF80600BB
:100D60009DF8071088420EDAFFE703989DF80620E9
:100D7000805C0299114400F037F89DF806000130BC
:100D80008DF80600EAE704B080BD000043F20001E0
:100D9000C4F2010108684FF6C77210400860086885
:100DA00040F018000860086820F002000860086839
:100DB00020F001000860086820F4006008600868FE
:100DC00020F080000860086840F40070086008683F
:100DD00040F480700860086840F00400086008680B
:100DE00040F040000860704782B08DF80700009125
:100DF0009DF8070043F20C01C4F201010870FFE7FF
:100E000043F20800C4F201000068C009C00708B13D
:100E1000FFE7F5E7FFE743F20800C4F201000068CE
:100E20004008C00708B9FFE7F5E743F20C00C4F239
:100E3000010000780099087002B0704780B500F09A
:100E400001F880BD84B000200390029041F20001BF
:100E5000C4F20201086840F480300860FFE741F204
:100E60000000C4F20200006800F400300290039811
:100E700001300390FFE702990020019039B9FFE7A4
:100E80000398B0F5A06018BF01200190FFE701981A
:100E9000C0070028E3D1FFE741F20000C4F20200DE
:100EA00000688003002803D5FFE70120029002E0DC
:100EB00000200290FFE70298012851D1FFE742F29B
:100EC0000001C4F20201086840F0100008600868E0
:100ED00020F007000860086840F00200086041F256
:100EE0000401C4F202010091086808600868086003
:100EF000086840F480600860086820F47C1008608E
:100F0000086840F4E810086041F20001C4F20201F0
:100F1000086840F080700860FFE741F20000C4F20A
:100F2000020000688001002801D4FFE7F5E741F2E4
:100F30000401C4F20201086820F003000860086898
:100F400040F002000860FFE741F20400C4F2020032
:100F5000006800F00C00082801D0FFE7F4E700E08B
:100F6000FFE704B07047000080B541F20002C4F210
:100F70000202106840F00100106041F20401C4F266
:100F8000020108680023CFF6FF03184008601068CC
:100F90004FF6FF73CFF6F66318401060106820F428
:100FA00080201060086820F4FE00086041F208010B
:100FB000C4F202014FF41F000860FFF73FFF4EF636
:100FC0000851CEF200014FF00060086080BD0000C3
:100FD00080B586B0002003900590FFF737FB022014
:100FE0000090042101220292FFF74EFB009A0D218E
:100FF00001911046FFF726F900980199029AFFF730
:101000000DFAFFF76FFC03992020FFF789FDFFE73A
:1010100000200DF11301FFF71DFCFFE79DF8130001
:1010200030B9FFE700200DF11301FFF713FCF5E7DE
:1010300040F26910C2F200000321FFF7A9FCFFF79C
:101040004BFCE5E781B000208DF8030040F21E0163
:10105000C2F2000191F9C80091F9C910884209DC77
:10106000FFE740F21E00C2F2000090F9C800013014
:1010700068B9FFE740F21E01C2F20001FF2081F8CB
:10108000C80081F8C90002208DF8030012E040F288
:101090001E01C2F2000191F9C80031F8100043F2BC
:1010A0000C02C4F20102106091F8C800013081F80E
:1010B000C800FFE79DF8030001B07047DC1000088E
:1010C00000000020E800000028010008C41100080A
:1010D000E8000020880600004401000822E7E7E756
:1010E000E77735F0D3E77735F0D3E77735F0D3E717
:1010F0007735F0D3E77735F0D3E700000000000044
:1011000000000000000000000000000000000000DF
:1011100000000000000000000000000000000000CF
:1011200000000000000000000000000000000000BF
:1011300000000000000000000000000000000000AF
:10114000000000000000000000000000000000009F
:10115000000000000000000000000000000000008F
:10116000000000000000000000000000000000007F
:10117000000000000000000000000000000000006F
:10118000000000000000000000000000000000005F
:10119000000000000000000000000000000000004F
:1011A000000000000000000000000000000000003F
:1011B000000000000000000000000000000000002F
:0411C0000000FFFF2D
:040000050800018965
:00000001FF
