:020000040800F2
:10000000D807002089010008910100089301000829
:100010009501000897010008990100080000000000
:100020000000000000000000000000009B0100082C
:100030009D010008000000009F010008A1010008C8
:10004000A3010008A3010008A3010008A301000800
:10005000A3010008A3010008A3010008A3010008F0
:10006000A3010008A3010008A3010008A3010008E0
:10007000A3010008A3010008A3010008A3010008D0
:10008000A3010008A3010008A3010008A3010008C0
:10009000A3010008A3010008A3010008A3010008B0
:1000A000A3010008A3010008A3010008A3010008A0
:1000B000A3010008A3010008A3010008A301000890
:1000C000A3010008A3010008A3010008B51500085A
:1000D000A301000869180008D518000831190008A4
:1000E000A3010008A3010008A301000800F002F822
:1000F00000F03AF80AA090E8000C82448344AAF188
:100100000107DA4501D100F02FF8AFF2090EBAE885
:100110000F0013F0010F18BFFB1A43F0010318473B
:10012000AC190000CC190000103A24BF78C878C17F
:10013000FAD8520724BF30C830C144BF04680C60ED
:10014000704700000023002400250026103A28BF35
:1001500078C1FBD8520728BF30C148BF0B60704739
:100160001FB51FBD10B510BD00F031F81146FFF7E7
:10017000F7FF01F00BFC00F04FF803B4FFF7F2FFBC
:1001800003BC00F057F800000948804709480047C1
:10019000FEE7FEE7FEE7FEE7FEE7FEE7FEE7FEE737
:1001A000FEE7FEE704480549054A064B7047000094
:1001B00001180008ED000008D8010020D807002031
:1001C000D8030020D8030020704770477047754659
:1001D00000F02CF8AE4605006946534620F00700B3
:1001E000854618B020B5FFF7DDFFBDE820404FF091
:1001F00000064FF000074FF000084FF0000BAC4630
:10020000ACE8C009ACE8C009ACE8C009ACE8C0097A
:1002100021F007018D46704710B50446AFF300800A
:100220002046BDE81040FFF7A8BF00000048704717
:100230001801002001491820ABBEFEE7260002008D
:100240007047000080B584B0022102910122019222
:10025000084600F045FD019A0298032100F040FD98
:10026000019A00210391104600F02CF8019A1046E3
:10027000114600F027F8019A0399084600F022F889
:10028000019A0398114600F01DF80198039A11464F
:1002900000F004F90199039A084600F0FFF8039A68
:1002A0001046114600F0FAF80199039A104600F042
:1002B000F5F8029803994CF2503200F0B9FA04B004
:1002C00080BD000082B08DF807008DF806108DF813
:1002D00005209DF80700022800F3DD80FFE79DF868
:1002E00006000F2800F3D780FFE79DF807000146BE
:1002F000009148B1FFE70098012847D0FFE7009838
:10030000022800F08580C5E09DF80600072818DC6B
:10031000FFE79DF8060081000F2000FA01F240F689
:100320000001C4F201010868904308609DF80500CF
:100330009DF80620920000FA02F208681043086057
:1003400023E09DF806000F281DDCFFE79DF806005E
:1003500008388DF806009DF8060081000F2000FA8D
:1003600001F240F60401C4F20101086890430860FC
:100370009DF805009DF80620920000FA02F2086838
:100380001043086000E0FFE7FFE783E09DF8060008
:10039000072818DCFFE79DF8060081000F2000FA0F
:1003A00001F240F60041C4F2010108689043086080
:1003B0009DF805009DF80620920000FA02F20868F8
:1003C0001043086023E09DF806000F281DDCFFE7BE
:1003D0009DF8060008388DF806009DF8060081009B
:1003E0000F2000FA01F240F60441C4F2010108684E
:1003F000904308609DF805009DF80620920000FAE1
:1004000002F208681043086000E0FFE7FFE741E000
:100410009DF80600072818DCFFE79DF8060081001C
:100420000F2000FA01F241F20001C4F20101086854
:10043000904308609DF805009DF80620920000FAA0
:1004400002F208681043086023E09DF806000F28B8
:100450001DDCFFE79DF8060008388DF806009DF8C2
:10046000060081000F2000FA01F241F20401C4F2FB
:1004700001010868904308609DF805009DF806207A
:10048000920000FA02F208681043086000E0FFE7FB
:10049000FFE7FFE700E0FFE702B0704782B08DF8AA
:1004A00007008DF806108DF805209DF8070001461D
:1004B000009140B1FFE70098012829D0FFE700989C
:1004C00002284AD06EE09DF8050001280DD1FFE713
:1004D0009DF80610012000FA01F240F60C01C4F26A
:1004E000010108681043086011E09DF8050068B933
:1004F000FFE79DF80610012000FA01F240F60C011A
:10050000C4F20101086890430860FFE7FFE749E093
:100510009DF8050001280DD1FFE79DF80610012088
:1005200000FA01F240F60C41C4F2010108681043E0
:10053000086011E09DF8050068B9FFE79DF8061016
:10054000012000FA01F240F60C41C4F201010868F2
:1005500090430860FFE7FFE724E09DF805000128CD
:100560000DD1FFE79DF80610012000FA01F241F2DB
:100570000C01C4F2010108681043086011E09DF805
:10058000050068B9FFE79DF80610012000FA01F2A6
:1005900041F20C01C4F20101086890430860FFE7D2
:1005A000FFE7FFE702B0704782B08DF807008DF8D3
:1005B00006109DF807000146009140B1FFE7009842
:1005C000012811D0FFE7009802281AD026E09DF8F4
:1005D0000610012000FA01F240F60C01C4F20101FC
:1005E00008685040086019E09DF80610012000FAE4
:1005F00001F240F60C41C4F2010108685040086065
:100600000CE09DF80610012000FA01F241F20C0105
:10061000C4F20101086850400860FFE702B070476B
:1006200080B58CB08DF82F008DF82E109DF82F001E
:10063000423801460A91112800F2A4800A99DFE8A5
:1006400001F02AA1A1A109A1A1A1A1A168A1A1A133
:10065000A1A14B8501210891002209920846FFF7CC
:100660001DFF0899099A1046FFF718FF089A099983
:100670001046FFF713FF089A09990846FFF70EFF87
:1006800009999DF82E004FF4FA72504382B202206D
:1006900000F07CF877E001200690002207921146D6
:1006A000FFF7FCFE079A10461146FFF7F7FE069A81
:1006B00010461146FFF7F2FE069A07981146FFF71B
:1006C000EDFE07999DF82E004FF4FA72504382B266
:1006D000022000F05BF856E0012004900022059211
:1006E0001146FFF7DBFE0499059A1046FFF7D6FE88
:1006F000049A10461146FFF7D1FE049A0599084660
:10070000FFF7CCFE0599022044F6206200F03EF887
:1007100039E001210291002203920846FFF7BEFE54
:10072000039A10461146FFF7B9FE029A0399104644
:10073000FFF7B4FE029A03981146FFF7AFFE039944
:10074000022044F6206200F021F81CE00120009015
:10075000002201921146FFF7A1FE0099019A10466E
:10076000FFF79CFE0099019A0846FFF797FE019A51
:1007700010461146FFF792FE019A0220114600F042
:1007800005F800E0FFE70CB080BD000082B08DF8F6
:1007900007008DF80610ADF804209DF8060001460C
:1007A0000091032834D80099DFE801F0020E1A26E0
:1007B000BDF804009DF8072040F23001C2F20001AC
:1007C00051F82210486324E0BDF804009DF807208A
:1007D00040F23001C2F2000151F82210886318E0A3
:1007E000BDF804009DF8072040F23001C2F200017C
:1007F00051F82210C8630CE0BDF804009DF80720F2
:1008000040F23001C2F2000151F82210086400E009
:10081000FFE79DF8071040F23000C2F2000050F8E8
:100820002110486940F00100486102B070470000A3
:1008300080B582B08DF807008DF80610ADF8042061
:100840009DF807100122104600F04AFA9DF80700B3
:1008500040F23001C2F2000151F82020106840F04F
:10086000800010609DF8070051F82020106820F0EB
:10087000400010609DF8070051F82020106820F01B
:10088000200010609DF8070051F82020106820F02B
:10089000100010609DF8070051F8202000209062A1
:1008A000BDF8040001389DF8072051F82210C862F5
:1008B0009DF8060001460091032800F24A81009944
:1008C000DFE801F00258A6F49DF8070030B9FFE711
:1008D000002109220846FFF7F5FC1FE09DF80700FC
:1008E000012806D1FFE7002006210922FFF7EAFCD4
:1008F00013E09DF80700022806D1FFE7012006213A
:100900000922FFF7DFFC07E09DF80700032801D16B
:10091000FFE700E0FFE7FFE7FFE7FFE79DF80700DD
:1009200040F23001C2F2000151F82020106A40F07C
:10093000010010629DF8070051F82020906940F0F6
:10094000080090619DF8070051F82020906920F080
:10095000700090619DF8070051F82020906940F0E8
:1009600060009061BDF804009DF8072051F8221046
:100970004863EFE09DF8070030B9FFE70020012150
:100980000922FFF79FFC1FE09DF80700012806D110
:10099000FFE7002007210922FFF794FC13E09DF8F0
:1009A0000700022806D1FFE7012007210922FFF7EF
:1009B00089FC07E09DF80700032801D1FFE700E06C
:1009C000FFE7FFE7FFE7FFE79DF8070040F2300190
:1009D000C2F2000151F82020906940F4006090615B
:1009E0009DF8070051F82020906920F4E0409061C4
:1009F0009DF8070051F82020906940F4C0409061B4
:100A0000BDF804009DF8072051F822108863A1E08A
:100A10009DF8070030B9FFE7002002210922FFF707
:100A200051FC1FE09DF80700012806D1FFE70120D7
:100A300000210922FFF746FC13E09DF80700022879
:100A400006D1FFE7012008210922FFF73BFC07E060
:100A50009DF80700032801D1FFE700E0FFE7FFE76B
:100A6000FFE7FFE79DF8070040F23001C2F2000106
:100A700051F82020D06940F00800D0619DF80700AF
:100A800051F82020D06920F07000D0619DF8070057
:100A900051F82020D06940F06000D061BDF804001A
:100AA0009DF8072051F82210C86353E09DF8070015
:100AB00030B9FFE7002003210922FFF703FC24E0FF
:100AC0009DF80700012806D1FFE701210922084609
:100AD000FFF7F8FB18E09DF80700022806D1FFE7B2
:100AE000012009221146FFF7EDFB0CE09DF80700FD
:100AF000032806D1FFE7002003210922FFF7E2FBCC
:100B000000E0FFE7FFE7FFE7FFE79DF8070040F29F
:100B10003001C2F2000151F82020D06940F4006099
:100B2000D0619DF8070051F82020D06920F4E04002
:100B3000D0619DF8070051F82020D06940F4C040F2
:100B4000D061BDF804009DF8072051F82210086418
:100B500000E0FFE79DF8071040F23000C2F200000D
:100B600050F82120516941F0010151619DF80710B1
:100B700050F82110086840F00100086002B080BD04
:100B800082B08DF8070000208DF806009DF8070060
:100B90000146009140B1FFE7009801280ED0FFE721
:100BA0000098022814D01DE041F20000C4F20200B7
:100BB0000068C0F340008DF8060013E041F2000029
:100BC000C4F202000068C0F340408DF8060009E05E
:100BD00041F20000C4F202000068C0F340608DF8EA
:100BE0000600FFE79DF8060002B0704782B08DF85E
:100BF00007009DF807000146009140B1FFE700980B
:100C000001280DD0FFE70098022812D01AE041F227
:100C10000001C4F20201086820F00100086011E040
:100C200041F20001C4F20201086820F4803008603B
:100C300008E041F20001C4F20201086820F080706F
:100C40000860FFE702B0704782B08DF807009DF89A
:100C500007000146009140B1FFE7009801280DD040
:100C6000FFE70098022812D01AE041F20001C4F216
:100C70000201086840F00100086011E041F2000143
:100C8000C4F20201086840F48030086008E041F2D4
:100C90000001C4F20201086840F080700860FFE7BC
:100CA00002B0704780B582B00020FFF7CDFFFFE7AC
:100CB0000020FFF765FF08B9FFE7F9E7002201927E
:100CC0001046114600F094F8019800F0B5F80120A4
:100CD000FFF78CFF0220FFF789FF02B080BD000004
:100CE00082B08DF807008DF806108DF805209DF86C
:100CF00007000146009140B1FFE70098012829D084
:100D0000FFE7009802284AD06EE09DF80500012810
:100D10000DD1FFE79DF80610012000FA01F241F223
:100D20001401C4F2020108681043086011E09DF844
:100D3000050068B9FFE79DF80610012000FA01F2EE
:100D400041F21401C4F20201086890430860FFE711
:100D5000FFE74AE09DF8050001280DD1FFE79DF867
:100D60000610012000FA01F241F21C01C4F2020156
:100D700008681043086011E09DF8050068B9FFE7B6
:100D80009DF80610012000FA01F241F21C01C4F2A4
:100D90000201086890430860FFE7FFE725E09DF83F
:100DA000050001280DD1FFE79DF80610012000FA8B
:100DB00001F241F21801C4F2020108681043086010
:100DC00011E09DF8050068B9FFE79DF806100120C5
:100DD00000FA01F241F21801C4F2020108689043DE
:100DE0000860FFE7FFE700E0FFE702B070470000A0
:100DF00081B08DF803008DF802108DF8012041F2CA
:100E00000401C4F20201086843F6F07290430860DE
:100E10009DF80320086840EA021008609DF802204F
:100E2000086840EA022008609DF80120086840EA4E
:100E3000C220086001B0704782B08DF807009DF8AD
:100E400007000146009140B1FFE70098012811D04A
:100E5000FFE7009802281AD026E041F20401C4F20C
:100E60000201086820F001000860086820F0020014
:100E7000086019E041F20401C4F20201086840F080
:100E800001000860086820F0020008600CE041F2F0
:100E90000401C4F20201086820F00100086008683B
:100EA00040F002000860FFE702B0704781B08DF8A3
:100EB00003009DF80300002858D1FFE740F222000C
:100EC000C2F20000B0F9000040F22401C2F20001B9
:100ED000B1F9001088420EDDFFE740F22200C2F2B5
:100EE0000000008840F22401C2F200010988401A83
:100EF000ADF8000039E040F22200C2F20000B0F983
:100F0000000040F22401C2F20001B1F90010884251
:100F10000FDAFFE740F22400C2F20000018840F23D
:100F20002200C2F200000088401A3230ADF8000002
:100F30001AE040F22200C2F20000B0F900000130D5
:100F400068B9FFE740F22400C2F20000B0F90000E7
:100F5000013020B9FFE70020ADF8000003E03220A7
:100F6000ADF80000FFE7FFE7FFE7BBE09DF80300F7
:100F7000012858D1FFE740F22600C2F20000B0F984
:100F8000000040F22801C2F20001B1F900108842CD
:100F90000EDDFFE740F22600C2F20000008840F2BA
:100FA0002801C2F200010988401AADF8000039E0BA
:100FB00040F22600C2F20000B0F9000040F2280121
:100FC000C2F20001B1F9001088420FDAFFE740F2E7
:100FD0002800C2F20000018840F22600C2F20000A0
:100FE0000088401A0230ADF800001AE040F22600F6
:100FF000C2F20000B0F90000013068B9FFE740F22A
:101000002800C2F20000B0F90000013020B9FFE76B
:101010000020ADF8000003E00220ADF80000FFE77B
:10102000FFE7FFE75DE09DF80300022858D1FFE7E6
:1010300040F22A00C2F20000B0F9000040F22C0198
:10104000C2F20001B1F9001088420EDDFFE740F264
:101050002A00C2F20000008840F22C01C2F2000116
:101060000988401AADF8000039E040F22A00C2F2C7
:101070000000B0F9000040F22C01C2F20001B1F909
:10108000001088420FDAFFE740F22C00C2F20000A5
:10109000018840F22A00C2F200000088401A0230A3
:1010A000ADF800001AE040F22A00C2F20000B0F9E8
:1010B0000000013068B9FFE740F22C00C2F20000E6
:1010C000B0F90000013020B9FFE70020ADF80000C2
:1010D00003E00220ADF80000FFE7FFE7FFE7FFE7CE
:1010E000FFE7FFE7BDF8000001B0704780B584B0AE
:1010F0008DF80F00029100208DF807008DF8060092
:101100009DF80F00062804DBFFE702208DF807009A
:1011100029E0029820B9FFE701208DF8070021E0BF
:1011200002990020087007200DF1060100F0ACF8CC
:101130009DF806004006002813D5FFE79DF806003D
:1011400000F00E019DF80F00B0EB510F09D1FFE741
:101150009DF80610072000F0D5F9029901200870CB
:10116000FFE7FFE7FFE79DF8070004B080BD000040
:1011700080B5E22000F006F980BD000080B588B09F
:1011800002210291012207920846FFF7A9FD029869
:10119000079A0C21FFF7A4FD0020059007210922E2
:1011A0000192FFF78FF80598062104220392FFF7BA
:1011B00089F8019A059805210491FFF783F80399AE
:1011C0000598079AFFF77EF80598079A032106917C
:1011D000FFF778F803990598079AFFF75FF900F091
:1011E00021FA059A06991046FFF758F900F074F8AD
:1011F0000599084600F086F90599079800F082F9EC
:101200000298059900F07EF90398059900F07AF9A3
:101210000498059900F076F905980699079AFFF762
:101220003DF908B080BD000080B584B003908DF812
:101230000B1000208DF80A00039820B9FFE700206A
:101240008DF80A001CE00421019100220092104652
:10125000FFF724F940F29811C2F20001612000F07A
:101260000FFA03999DF80B2040F27810C2F20000AB
:1012700000F0B6F9009801990122FFF70FF9FFE796
:101280009DF80A0004B080BD80B586B08DF81700C7
:1012900004919DF8170000F01F008DF8170004213D
:1012A0000391002202921046FFF7F8F89DF817000C
:1012B00040F29811C2F20001019100F0E1F90198A9
:1012C0000078049900F0DCF9029803990122FFF7F5
:1012D000E5F806B080BD000080B586B0002005901E
:1012E0000821039100F00EF901203F2100F00AF9D6
:1012F000022001900321009100F004F900990846B2
:1013000000F000F90099042000F0FCF80199052094
:1013100000F0F8F806200E21029100F0F3F802998F
:10132000072000F0EFF80398059900F0EBF8059915
:10133000092000F0E7F805991120049000F0E2F888
:101340000599122000F0DEF80599132000F0DAF874
:101350000599142000F0D6F80599152000F0D2F870
:101360000599162000F0CEF80499172000F0CAF86D
:1013700005991C2000F0C6F805991D2000F0C2F860
:1013800006B080BD80B584B08DF80F0004210291B5
:10139000002201921046FFF781F89DF80F0040F2FD
:1013A0009811C2F2000100F06BF901980299012234
:1013B000FFF774F804B080BD80B584B08DF80F00DD
:1013C0008DF80E1000208DF80D008DF80C009DF8A2
:1013D0000F007E2804D3FFE703208DF80D008CE07A
:1013E0009DF80E00062804DBFFE702208DF80D00B3
:1013F00082E0032100221046FFF750F89DF80F10FD
:10140000052000F07FF89DF80E1001208840C1B241
:10141000022000F077F89DF80E00014602910528A1
:1014200053D80299DFE801F003101D2A374440F237
:101430000301C2F200010A20052200F08DF81120FC
:10144000202100F05FF841E040F20801C2F2000103
:101450000B20052200F080F81220202100F052F825
:1014600034E040F20D01C2F200010C20052200F030
:1014700073F81320202100F045F827E040F2120114
:10148000C2F200010D20052200F066F81420202190
:1014900000F038F81AE040F21701C2F200010E2005
:1014A000052200F059F81520202100F02BF80DE05E
:1014B00040F21C01C2F200010F20052200F04CF89E
:1014C0001620202100F01EF800E0FFE70020019028
:1014D00003A9FFF7D9FE01989DF80C1041F0030114
:1014E0008DF80C109DF80C1000F00CF801980321F9
:1014F0000122FEF7D3FFFFE7FFE79DF80D0004B0E0
:1015000080BD000080B586B08DF817008DF81610EC
:101510009DF817000121049161F35F108DF8170009
:1015200004210391002202921046FEF7B7FF9DF8B6
:10153000170040F29811C2F20001019100F0A0F8EA
:1015400001999DF8160000F09BF802980399049AFF
:10155000FEF7A4FF06B080BD80B586B08DF81700F9
:1015600004918DF80F209DF817000121029161F37D
:101570005F108DF81700042101910022009210469F
:10158000FEF78CFF9DF8170040F29811C2F200019F
:1015900000F076F804989DF80F2040F27811C2F21E
:1015A000000100F01DF800980199029AFEF776FFFD
:1015B00006B080BD80B500F04DFA02280FD1FFE7DC
:1015C00040F2D010C2F20000006838B1FFE740F2EC
:1015D000D010C2F2000000688047FFE7FFE780BD3F
:1015E00080B584B0039002918DF8072000208DF81B
:1015F0000600FFE79DF806009DF8071088420EDA06
:10160000FFE703989DF80620805C0299114400F0E2
:1016100037F89DF8060001308DF80600EAE704B0BF
:1016200080BD000043F20001C4F2010108684FF6DA
:10163000C77210400860086840F018000860086829
:1016400020F002000860086820F0010008600868C7
:1016500020F400600860086820F0800008600868D6
:1016600040F400700860086840F480700860086802
:1016700040F004000860086840F0400008607047CF
:1016800082B08DF8070000919DF8070043F20C012D
:10169000C4F201010870FFE743F20800C4F2010040
:1016A0000068C009C00708B1FFE7F5E7FFE743F2AC
:1016B0000800C4F2010000684008C00708B9FFE74D
:1016C000F5E743F20C00C4F20100007800990870BD
:1016D00002B0704780B500F001F880BD84B00020F2
:1016E0000390029041F20001C4F20201086840F444
:1016F00080300860FFE741F20000C4F20200006899
:1017000000F400300290039801300390FFE7029943
:101710000020019039B9FFE70398B0F5A06018BF29
:1017200001200190FFE70198C0070028E3D1FFE7FF
:1017300041F20000C4F2020000688003002803D5D3
:10174000FFE70120029002E000200290FFE70298EC
:10175000012851D1FFE742F20001C4F202010868FA
:1017600040F010000860086820F007000860086872
:1017700040F00200086041F20401C4F2020100914D
:101780000868086008680860086840F480600860BD
:10179000086820F47C100860086840F4E8100860CD
:1017A00041F20001C4F20201086840F08070086054
:1017B000FFE741F20000C4F2020000688001002847
:1017C00001D4FFE7F5E741F20401C4F20201086821
:1017D00020F003000860086840F002000860FFE79E
:1017E00041F20400C4F20200006800F00C00082876
:1017F00001D0FFE7F4E700E0FFE704B07047000026
:1018000080B541F20002C4F20202106840F001000B
:10181000106041F20401C4F2020108680023CFF60F
:10182000FF031840086010684FF6FF73CFF6F663A9
:1018300018401060106820F480201060086820F4C0
:10184000FE00086041F20801C4F202014FF41F00DB
:101850000860FFF73FFF4EF60851CEF200014FF04F
:101860000060086080BD000080B540F24000C2F218
:101870000000006800684009C00748B3FFE7002087
:10188000FFF714FB312822DCFFE740F22201C2F20D
:101890000001B1F90000431C48F21F50C5F2EB10E3
:1018A00083FB0002100900EBD270322200FB1230E1
:1018B000088040F24000C2F2000000680079B1F9EF
:1018C000002040F29911C2F200018854FFE7FFE7BF
:1018D00080BD000080B540F24000C2F200004068C8
:1018E00000684009C00710B3FFE70120FFF7DEFAE8
:1018F00001281BDCFFE740F22601C2F20001B1F92A
:101900000000013000EBD07222F00102801A088042
:1019100040F24000C2F2000040680079B1F90020B6
:1019200040F2CB11C2F200018854FFE7FFE780BD0F
:1019300080B540F24000C2F20000806800684009B3
:10194000C00710B3FFE70220FFF7B0FA01281BDC45
:10195000FFE740F22A01C2F20001B1F900000130B4
:1019600000EBD07222F00102801A088040F24000A1
:10197000C2F2000080680079B1F9002040F2CD1178
:10198000C2F200018854FFE7FFE780BD80B586B052
:10199000002003900590FFF785F9FEF753FC022025
:1019A0000190042101220292FFF79AF90198029A0C
:1019B0000D21FEF787FCFFF7E1FB03992020FFF7DD
:1019C000FBFC03988DF81300FFE7FFE700200DF103
:1019D0001301FFF78BFBFFE79DF813000128F5D1FA
:1019E000FFE702200D21FEF7DFFD40F20000C2F20A
:1019F000000000900321FFF717FC00988078012871
:101A000007D1FFE740F20001C2F200010020487058
:101A100010E040F20000C2F200004078012808DB2C
:101A2000FFE740F20001C2F2000148780838487030
:101A3000FFE7FFE740F20001C2F2000108784978B1
:101A40000A31C9B2FEF7ECFD00208DF81300FFF754
:101A50008FFBBAE781B000208DF8030040F24C0103
:101A6000C2F2000191F9C80091F9C910884209DC5D
:101A7000FFE740F24C00C2F2000090F9C8000130CC
:101A800068B9FFE740F24C01C2F20001FF2081F883
:101A9000C80081F8C90002208DF8030012E040F26E
:101AA0004C01C2F2000191F9C80031F8100043F274
:101AB0000C02C4F20102106091F8C800013081F8F4
:101AC000C800FFE79DF8030001B07047EC1A00085A
:101AD000000000201801000028010008041C000874
:101AE00018010020C0060000440100085300002235
:101AF000E7E7E7E77735F0D3E77735F0D3E77735F2
:101B0000F0D3E77735F0D3E77735F0D3E700FFFF81
:101B1000FFFFFFFFFFFFFFFFFFFF0000000000408F
:101B20000004004000080040000C00400038014064
:101B30000044004000480040000000000000000099
:101B40000000000000000000000000000000000095
:101B50000000000000000000000000000000000085
:101B60000000000000000000000000000000000075
:101B70000000000000000000000000000000000065
:101B80000000000000000000000000000000000055
:101B90000000000000000000000000000000000045
:101BA0000000000000000000000000000000000035
:101BB0000000000000000000000000000000000025
:101BC0000000000000000000000000000000000015
:101BD0000000000000000000000000000000000005
:101BE00000000000000000000000000000000000F5
:101BF00000000000000000000000000000000000E5
:041C0000FFFF0000E2
:040000050800018965
:00000001FF
