:020000040800F2
:10000000C03300203D0200084502000847020008F6
:10001000490200084B0200084D02000800000000E1
:10002000000000000000000000000000A13F0008E8
:100030005102000800000000F13E0008C53F000822
:10004000570200085702000857020008570200082C
:100050005702000857020008913100084132000899
:100060004D32000859320008653200085702000876
:1000700057020008570200085702000857020008FC
:1000800057020008570200085702000857020008EC
:100090005702000857020008570200087132000892
:1000A00057020008570200085702000857020008CC
:1000B00057020008570200085702000857020008BC
:1000C00057020008570200085702000857020008AC
:1000D00057020008F93F0008254000085140000879
:1000E0009D31000857020008570200085702000817
:1000F000570200085702000857020008570200087C
:10010000570200080000000000000000570200082D
:10011000570200085702000857020008570200085B
:10012000570200085702000857020008570200084B
:1001300057020008570200080000000000000000FD
:10014000570200085702000857020008000000008C
:10015000000000000000000000000000000000009F
:10016000570200085702000857020008570200080B
:1001700057020008570200085702000857020008FB
:1001800057020008570200080000000000000000AD
:100190005702000800F002F800F03CF80AA090E8CE
:1001A000000C82448344AAF10107DA4501D100F032
:1001B00031F8AFF2090EBAE80F0013F0010F18BFC3
:1001C000FB1A43F001031847545D0000745D000002
:1001D000103A24BF78C878C1FAD8520724BF30C873
:1001E00030C144BF04680C60704700000023002445
:1001F00000250026103A28BF78C1FBD8520728BF37
:1002000030C148BF0B6070471FB505F03DFE1FBDF4
:1002100010B510BD00F0FDF8114603B404F0C4F8A9
:1002200003BCFFF7F1FF04F0C7F800F017F903B4BF
:10023000FFF7EEFF03BC00F01FF9000009488047FC
:1002400009480047FEE7FEE7FEE7FEE7FEE7FEE7B8
:10025000FEE7FEE7FEE7FEE704480549054A064BD0
:1002600070470000E53F000895010008C02D002000
:10027000C0330020C02F0020C02F0020032A40F2EE
:10028000308010F0030C00F0158011F8013BBCF138
:10029000020F624498BF11F801CB00F8013B38BF50
:1002A00011F8013BA2F1040298BF00F801CB38BF5E
:1002B00000F8013B11F0030300F05280083AC0F04F
:1002C000088051F8043B083A51F804CBA0E8081024
:1002D000F5E7121D5CBF51F8043B40F8043BAFF357
:1002E0000080D20724BF11F8013B11F801CB48BFB1
:1002F00011F8012B24BF00F8013B00F801CB48BFE7
:1003000000F8012B704702F0FF0343EA032242EAA0
:10031000024200F059B84FF000020429C0F01280E8
:1003200010F0030C00F05080CCF1040CBCF1020F73
:1003300018BF00F8012BA8BF20F8022BA1EB0C017D
:1003400000F042B85FEAC17C24BF00F8012B00F83E
:10035000012B48BF00F8012B70477047704770476A
:1003600010B5203AC0F00B80B1E81850A0E8185042
:10037000B1E81850A0E81850203ABFF4F5AF5FEA92
:10038000027C24BFB1E81850A0E8185044BF18C937
:1003900018C0BDE810405FEA827C24BF51F8043BDE
:1003A00040F8043B08BF7047D20728BF31F8023B32
:1003B00048BF11F8012B28BF20F8023B48BF00F8C6
:1003C000012B70474FF0000200B513469446964645
:1003D000203922BFA0E80C50A0E80C50B1F1200158
:1003E000BFF4F7AF090728BFA0E80C5048BF0CC006
:1003F0005DF804EB890028BF40F8042B08BF704764
:1004000048BF20F8022B11F0804F18BF00F8012BD5
:100410007047754600F02CF8AE4605006946534615
:1004200020F00700854618B020B5FFF715FFBDE89E
:1004300020404FF000064FF000074FF000084FF04B
:10044000000BAC46ACE8C009ACE8C009ACE8C00998
:10045000ACE8C00921F007018D46704710B504468D
:10046000AFF300802046BDE81040FFF7E0BE00007B
:10047000004870477000002001491820ABBEFEE71D
:10048000260002007047000084B040F20050C0F225
:100490000110039040F60250C0F20410029003A82D
:1004A00002F028FF02A802F025FF40F2902740F258
:1004B000D02545F6047645F60D7A0DF10704C2F213
:1004C0000007C2F200050FF284080FF29C09C0F683
:1004D0000006C0F6000A0FF2A40B0BE09DF807001F
:1004E000398800284FF0000008BF481C3880C82019
:1004F00004F0F4FD02200D21224602F06DFF388841
:100500000F28EBD100200521012202F0CDFF1020A1
:100510002946022202F092FD404603F04FF8484679
:1005200003F04CF828780028504608BF304603F006
:1005300045F8584603F042F868780028504608BF4E
:10054000304603F03BF800203880C7E757454C435E
:100550004F4D4520544F204D414E41474D454E543F
:10056000204D4F44450D0A004D4F544F52205445E5
:100570004D5020535441545553200900554C54526A
:1005800041534F4E49432053544154555320090081
:1005900082B040F2D00540F20E0600200DF10704B3
:1005A000C2F20005C2F200068DF8070004E000BFA9
:1005B0004FF4FA7004F092FD204601F0D7FB0328B7
:1005C000F6D09DF807004101695805EB40103170E5
:1005D000D0E901107170B070EAE7000084B04FF408
:1005E000FA7004F07BFD0FA0D0E9010140F2030591
:1005F00003910C4940F2D226C2F20005C2F2000675
:1006000001ACCDE9011000BF2878307068787070B7
:10061000A878B070204601F0F7FD4FF47A7004F02E
:100620005DFDF1E70000030000020000D20200209F
:1006300080B546F20C6CC4F2000C5CF80C3C014630
:1006400043F001004CF80C0C0B780D2B00F2738179
:10065000B1FA81F04009DFE813F00E007001B60135
:10066000FC01560042028802CE0218039C0062037D
:10067000E6002A01AC03DCF8102022F00102CCF8DD
:1006800010208B78012B00F0AC84002B41F070829D
:100690005CF8082C22F001024CF8082CCB78012BD6
:1006A00000F01A86002B41F06382DCF8002022F073
:1006B0000102CCF800200A79DCF8083062F300036C
:1006C000CCF808304B78012B01F0C180002B41F0B1
:1006D0004F82DCF83420D1E9023E92B2DCF83410CB
:1006E00042EA43121143CCF83410DCF834104FF6D0
:1006F000FF729143DCF8342041EA4E511143CCF8AB
:10070000341001F035BADCF8102022F01002CCF8D9
:1007100010208B78012B00F09083002B40F0C286D4
:100720005CF8082C22F010024CF8082CCB78012B36
:1007300000F0E785002B40F0B586DCF8002022F0C1
:100740001002CCF800200A79DCF8083062F30413B8
:10075000CCF808304B78012B01F09080002B40F052
:10076000A186DCF85420D1E9023E92B2DCF85410A4
:1007700042EA43121143CCF85410DCF854104FF6FF
:10078000FF729143DCF8542041EA4E51114300F0CE
:1007900087BEDCF8102022F40072CCF810208B7891
:1007A000012B00F07283002B40F096865CF8082C39
:1007B00022F400724CF8082CCB78012B00F0B7859E
:1007C000002B40F08986DCF8002022F40072CCF87F
:1007D00000200A79DCF8083002F0010223F40073EB
:1007E00043EA4222CCF808204B78012B01F05F80CD
:1007F000002B40F07186DCF87C20D1E9023E92B2F9
:10080000DCF87C1042EA43121143CCF87C10DCF88F
:100810007C104FF6FF729143DCF87C2041EA4E5188
:10082000114300F057BE8B78012B00F05A83002B48
:1008300040F06C865CF8082C22F400624CF8082C1E
:10084000CB78012B00F08D85002B40F05F86DCF823
:10085000002022F40062CCF800200A79DCF808308D
:1008600002F0010223F4006343EAC222CCF808201C
:100870004B78012B01F03480002B40F04786DCF8E8
:100880008C20D1E9023E92B2DCF88C1042EA43128D
:100890001143CCF88C10DCF88C104FF6FF729143AA
:1008A000DCF88C2041EA4E51114300F02DBE8B78CC
:1008B000012B00F04283002B40F04A865CF8082CA4
:1008C00022F480524CF8082CCB78012B00F0638581
:1008D000002B40F03D86DCF8002022F48052CCF85A
:1008E00000200A79DCF8083002F0010223F480537A
:1008F00043EA0232CCF808204B78012B01F0098042
:10090000002B40F02586DCF89420D1E9023E92B21B
:10091000DCF8941042EA43121143CCF89410DCF84E
:1009200094104FF6FF729143DCF8942041EA4E5147
:10093000114300F00BBE022080BDDCF8102022F035
:100940000202CCF810208B78012B00F07583002B6D
:1009500040F044865CF8082C22F002024CF8082C87
:10096000CB78012B00F03185002B40F03786DCF886
:10097000002022F00202CCF800200A79DCF80830CE
:1009800062F34103CCF808304B78012B00F0DA8792
:10099000002B40F02386DCF83C20D1E9023E92B2E5
:1009A000DCF83C1042EA43121143CCF83C10DCF86E
:1009B0003C104FF6FF729143DCF83C2041EA4E5167
:1009C000114300F009BEDCF8102022F00402CCF83C
:1009D00010208B78012B00F0DC82002B40F0D685B4
:1009E0005CF8082C22F004024CF8082CCB78012B80
:1009F00000F00185002B40F0C985DCF8002022F0D2
:100A00000402CCF800200A79DCF8083062F3820393
:100A1000CCF808304B78012B00F0AD87002B40F06C
:100A2000B585DCF84420D1E9023E92B2DCF84410EE
:100A300042EA43121143CCF84410DCF844104FF65C
:100A4000FF729143DCF8442041EA4E51114300F01B
:100A50009BBDDCF8102022F00802CCF810208B7827
:100A6000012B00F01183002B40F0CE855CF8082CA0
:100A700022F008024CF8082CCB78012B00F0D1842E
:100A8000002B40F0C185DCF8002022F00802CCF8F1
:100A900000200A79DCF8083062F3C303CCF8083090
:100AA0004B78012B00F08087002B40F0AD85DCF8FF
:100AB0004C20D1E9023E92B2DCF84C1042EA4312DB
:100AC0001143CCF84C10DCF84C104FF6FF729143F8
:100AD000DCF84C2041EA4E51114300F093BDDCF8A4
:100AE000102022F02002CCF810208B78012B00F08F
:100AF000F382002B40F032865CF8082C22F02002B2
:100B00004CF8082CCB78012B00F09D85002B40F091
:100B10002586DCF8002022F02002CCF800200A799B
:100B2000DCF8083062F34513CCF808304B78012B21
:100B300000F05387002B40F01186DCF85C20D1E9EF
:100B4000023E92B2DCF85C1042EA43121143CCF848
:100B50005C10DCF85C104FF6FF729143DCF85C200F
:100B600041EA4E51114300F0F7BDDCF8102022F0AD
:100B70004002CCF810208B78012B00F0D582002B9E
:100B800040F002865CF8082C22F040024CF8082C59
:100B9000CB78012B00F06D85002B40F0F585DCF85B
:100BA000002022F04002CCF800200A79DCF808305E
:100BB00062F38613CCF808304B78012B00F02687BF
:100BC000002B40F0E185DCF86420D1E9023E92B2CE
:100BD000DCF8641042EA43121143CCF86410DCF8EC
:100BE00064104FF6FF729143DCF8642041EA4E51E5
:100BF000114300F0C7BDDCF8102022F08002CCF8D1
:100C000010208B78012B00F0B782002B40F0168566
:100C10005CF8082C22F080024CF8082CCB78012BD1
:100C200000F01584002B40F00985DCF8002022F04C
:100C30008002CCF800200A79DCF8083002F00102CA
:100C400023F0800343EAC212CCF808204B78012B32
:100C500000F0F586002B40F0F184DCF86C20D1E93F
:100C6000023E92B2DCF86C1042EA43121143CCF817
:100C70006C10DCF86C104FF6FF729143DCF86C20BE
:100C800041EA4E51114300F0D7BCDCF8102022F4A9
:100C90008072CCF810208B78012B00F09982002B09
:100CA00040F08C855CF8082C22F480724CF8082CFB
:100CB000CB78012B00F0F384002B40F07F85DCF82B
:100CC000002022F48072CCF800200A79DCF8083089
:100CD00002F0010223F4807343EA0222CCF80820D8
:100CE0004B78012B00F0C486002B40F06785DCF8C0
:100CF0007420D1E9023E92B2DCF8741042EA431249
:100D00001143CCF87410DCF874104FF6FF72914365
:100D1000DCF8742041EA4E51114300F04DBDDCF87F
:100D2000102022F48062CCF810208B78012B00F088
:100D30007B82002B40F05C855CF8082C22F48062FA
:100D40004CF8082CCB78012B00F0C384002B40F02A
:100D50004F85DCF8002022F48062CCF800200A796C
:100D6000DCF8083002F0010223F4806343EA8222B7
:100D7000CCF808204B78012B00F09386002B40F034
:100D80003785DCF88420D1E9023E92B2DCF8841089
:100D900042EA43121143CCF88410DCF884104FF679
:100DA000FF729143DCF8842041EA4E51114300F078
:100DB0001DBD8B78012B00F06382002B40F03A853B
:100DC0005CF8082C22F400524CF8082CCB78012B4C
:100DD00000F09984002B40F02D85DCF8002022F4EF
:100DE0000052CCF800200A79DCF8083002F0010249
:100DF00023F4005343EA4232CCF808204B78012B0D
:100E000000F06886002B40F01585DCF89C20D1E9C5
:100E1000023E92B2DCF89C1042EA43121143CCF835
:100E20009C10DCF89C104FF6FF729143DCF89C207C
:100E300041EA4E51114300F0FBBCDCF8002042F0C7
:100E40001002CCF80020CB78012B00F01A83002B85
:100E500040F02883DCF8002022F01002CCF80020BB
:100E60000A79DCF8083062F30413CCF808304B78C8
:100E7000012B00F04886002B40F01483DCF854204E
:100E8000896892B242EA41110AE3DCF8002042F498
:100E90000072CCF80020CB78012B00F00883002BE7
:100EA00040F01A83DCF8002022F40072CCF8002015
:100EB0000A79DCF8083002F0010223F4007343EAF7
:100EC0004222CCF808204B78012B00F02586002B1D
:100ED00040F00283DCF87C20896892B242EA41113A
:100EE000F8E2DCF8002042F40062CCF80020CB7875
:100EF000012B00F0F682002B40F00883DCF8002084
:100F000022F40062CCF800200A79DCF8083002F004
:100F1000010223F4006343EAC222CCF808204B7894
:100F2000012B00F00286002B40F0F082DCF88C20D0
:100F3000896892B242EA4111E6E2DCF8002042F40C
:100F40008052CCF80020CB78012B00F0EC82002BF3
:100F500040F0FE82DCF8002022F48052CCF8002021
:100F60000A79DCF8083002F0010223F4805343EAE6
:100F70000232CCF808204B78012B00F0DF85002BE3
:100F800040F0E682DCF89420896892B242EA41118E
:100F9000DCE2DCF8002042F00402CCF80020CB7840
:100FA000012B00F0E282002B40F0F082DCF8002000
:100FB00022F00402CCF800200A79DCF8083062F351
:100FC0008203CCF808304B78012B00F0C085002B51
:100FD00040F0DC82DCF84420896892B242EA411198
:100FE000D2E2DCF8002042F00102CCF80020CB78FD
:100FF000012B00F0D082002B40F0BA85DCF80020F5
:1010000022F00102CCF800200A79DCF8083062F303
:101010000003CCF808304B78012B00F0A185002BA1
:1010200040F0A685DCF83420896892B242EA41118A
:10103000CCF8341000F09CBDDCF8002042F0020235
:10104000CCF80020CB78012B00F0B782002B40F0C9
:10105000C582DCF8002022F00202CCF800200A79D8
:10106000DCF8083062F34103CCF808304B78012BF0
:1010700000F08B85002B40F0B182DCF83C208968C1
:1010800092B242EA4111A7E2DCF8002042F00802E5
:10109000CCF80020CB78012B00F0A582002B40F08B
:1010A000B382DCF8002022F00802CCF800200A7994
:1010B000DCF8083062F3C303CCF808304B78012B1E
:1010C00000F06C85002B40F09F82DCF84C20896892
:1010D00092B242EA411195E2DCF8002042F020028F
:1010E000CCF80020CB78012B00F02783002B40F0B8
:1010F0003583DCF8002022F02002CCF800200A79A9
:10110000DCF8083062F34513CCF808304B78012B3B
:1011100000F04D85002B40F02183DCF85C208968CD
:1011200092B242EA411117E3DCF8002042F040029B
:10113000CCF80020CB78012B00F01583002B40F079
:101140002383DCF8002022F04002CCF800200A794A
:10115000DCF8083062F38613CCF808304B78012BAA
:1011600000F02E85002B40F00F83DCF864208968A6
:1011700092B242EA411105E3DCF8002042F080021D
:10118000CCF80020CB78012B00F04382002B40F0FC
:101190005582DCF8002022F08002CCF800200A7989
:1011A000DCF8083002F0010223F0800343EAC212A7
:1011B000CCF808204B78012B00F00A85002B40F07A
:1011C0003D82DCF86C20896892B242EA411133E238
:1011D000DCF8002042F48072CCF80020CB78012BA0
:1011E00000F0D782002B40F0E982DCF8002022F4E6
:1011F0008072CCF800200A79DCF8083002F0010295
:1012000023F4807343EA0222CCF808204B78012BA8
:1012100000F0E784002B40F0D182DCF8742089686C
:1012200092B242EA4111C7E2DCF8002042F4806247
:10123000CCF80020CB78012B00F0C582002B40F0C9
:10124000D782DCF8002022F48062CCF800200A79F2
:10125000DCF8083002F0010223F4806343EA8222C2
:10126000CCF808204B78012B00F0C484002B40F010
:10127000BF82DCF88420896892B242EA4111B5E26B
:10128000DCF8002042F40052CCF80020CB78012B8F
:1012900000F0BB82002B40F0CD82DCF8002022F46D
:1012A0000052CCF800200A79DCF8083002F0010284
:1012B00023F4005343EA4232CCF808204B78012B48
:1012C00000F0A184002B40F0B582DCF89C208968F6
:1012D00092B242EA4111ABE2DCF8002042F0010296
:1012E000CCF800200A79DCF8083062F30003CCF86F
:1012F0000830D1E902215205CCF83420490500F02C
:1013000035BCDCF8002042F01002CCF800200A794D
:10131000DCF8083062F30413CCF80830D1E902217C
:1013200052054905CCF85420CCF85810BAE0DCF846
:10133000002042F40072CCF800200A79DCF8083072
:1013400002F0010223F4007343EA4222CCF80820A1
:10135000D1E9022152054905CCF87C20CCF8801057
:10136000BAE0DCF8002042F40062CCF800200A79F0
:10137000DCF8083002F0010223F4006343EAC222E1
:10138000CCF80820D1E9022152054905CCF88C207F
:10139000CCF89010BAE0DCF8002042F48052CCF88F
:1013A00000200A79DCF8083002F0010223F48053AF
:1013B00043EA0232CCF80820D1E90221520549055E
:1013C000CCF89420CCF89810C2E0DCF8002042F071
:1013D0000202CCF800200A79DCF8083062F34103FD
:1013E000CCF80830D1E9022152054905CCF83C205F
:1013F000CCF84010F2E0DCF8002042F00402CCF817
:1014000000200A79DCF8083062F38203CCF8083057
:10141000D1E9022152054905CCF84420CCF8481006
:10142000B4E0DCF8002042F00802CCF800200A7991
:10143000DCF8083062F3C303CCF80830D1E90221AC
:1014400052054905CCF84C20CCF85010DCE0DCF813
:10145000002042F08002CCF800200A79DCF8083045
:1014600002F0010223F0800343EAC212CCF8082004
:10147000D1E9022152054905CCF86C20CCF8701056
:10148000DCE0DCF8002042F01002CCF800200A7901
:10149000DCF8083062F30413CCF808308968490599
:1014A000CCF85410DCF8101041F0100164E3DCF8C3
:1014B000002042F40072CCF800200A79DCF80830F1
:1014C00002F0010223F4007343EA4222CCF8082020
:1014D00089684905CCF87C10DCF8101041F40071E3
:1014E0004AE3DCF8002042F40062CCF800200A79DC
:1014F000DCF8083002F0010223F4006343EAC22260
:10150000CCF8082089684905CCF88C105CF80C1CD4
:1015100021F001014CF80C1CDCF8101041F40061C2
:10152000CCF8101080BDDCF8002042F48052CCF8DA
:1015300000200A79DCF8083002F0010223F480531D
:1015400043EA0232CCF8082089684905CCF89410A7
:101550005CF80C1C21F001014CF80C1CDCF810109C
:1015600041F48051CCF8101080BDDCF8002042F02E
:101570000402CCF800200A79DCF8083062F3820318
:10158000CCF8083089684905CCF84410DCF8101014
:1015900041F00401F0E2DCF8002042F00102CCF856
:1015A00000200A79DCF8083062F30003CCF8083038
:1015B00089684905CCF83410D8E2DCF8002042F004
:1015C0000202CCF800200A79DCF8083062F341030B
:1015D000CCF8083089684905CCF83C10DCF81010CC
:1015E00041F00201C8E2DCF8002042F00802CCF829
:1015F00000200A79DCF8083062F3C303CCF8083025
:1016000089684905CCF84C10DCF8101041F008014D
:10161000B2E2DCF8002042F08002CCF800200A7927
:10162000DCF8083002F0010223F0800343EAC21222
:10163000CCF8082089684905CCF86C10DCF810104B
:1016400041F0800198E2DCF8002042F02002CCF862
:1016500000200A79DCF8083062F34513CCF8083032
:10166000D1E9022152054905CCF85C20CCF8601084
:1016700074E0DCF8002042F04002CCF800200A7947
:10168000DCF8083062F38613CCF80830D1E9022187
:1016900052054905CCF86420CCF8681074E0DCF8F9
:1016A000002042F48072CCF800200A79DCF808307F
:1016B00002F0010223F4807343EA0222CCF80820EE
:1016C000D1E9022152054905CCF87420CCF87810F4
:1016D00074E0DCF8002042F48062CCF800200A7943
:1016E000DCF8083002F0010223F4806343EA82222E
:1016F000CCF80820D1E9022152054905CCF8842014
:10170000CCF8881074E0DCF8002042F40052CCF8E9
:1017100000200A79DCF8083002F0010223F40053BB
:1017200043EA4232CCF80820D1E9022152054905AA
:10173000CCF89C20CCF8A0107CE0DCF8002042F033
:101740002002CCF800200A79DCF8083062F3451357
:10175000CCF8083089684905CCF85C10DCF810102A
:1017600041F0200108E2DCF8002042F04002CCF811
:1017700000200A79DCF8083062F38613CCF80830D0
:1017800089684905CCF86410DCF8101041F040017C
:10179000F2E1DCF8002042F48072CCF800200A79F3
:1017A000DCF8083002F0010223F4807343EA0222DD
:1017B000CCF8082089684905CCF87410DCF81010C2
:1017C00041F48071D8E1DCF8002042F48062CCF86A
:1017D00000200A79DCF8083002F0010223F480636B
:1017E00043EA8222CCF8082089684905CCF88410A5
:1017F0005CF80C1C21F001014CF80C1CDCF81010FA
:1018000041F48061CCF8101080BDDCF8002042F477
:101810000052CCF800200A79DCF8083002F001020E
:1018200023F4005343EA4232CCF808208968490582
:10183000CCF89C105CF80C1C21F001014CF80C1C3D
:10184000DCF8101041F40051CCF8101080BDDCF829
:101850003420D1E9023E92B2DCF8381042EA431259
:101860001143CCF83810DCF834104FF6FF72914376
:10187000DCF8382041EA4E51114377E1DCF854207E
:10188000D1E9023E92B2DCF8581042EA4312114309
:10189000CCF85810DCF854104FF6FF729143DCF886
:1018A000582041EA4E511143CCF85810FAE5DCF8C3
:1018B0007C20D1E9023E92B2DCF8801042EA431269
:1018C0001143CCF88010DCF87C104FF6FF72914386
:1018D000DCF8802041EA4E511143CCF88010FBE542
:1018E000DCF88C20D1E9023E92B2DCF8901042EA9A
:1018F00043121143CCF89010DCF88C104FF6FF72B5
:101900009143DCF8902041EA4E511143CCF89010FD
:10191000FCE5DCF89420D1E9023E92B2DCF89810A4
:1019200042EA43121143CCF89810DCF894104FF6B9
:10193000FF729143DCF8982041EA4E511143CCF8F4
:10194000981005E6DCF83C20D1E9023E92B2DCF8C2
:10195000401042EA43121143CCF84010DCF83C102E
:101960004FF6FF729143DCF8402041EA4E5111439B
:10197000CCF8401032E6DCF84420D1E9023E92B2C5
:10198000DCF8481042EA43121143CCF84810DCF866
:1019900044104FF6FF729143DCF8482041EA4E5163
:1019A0001143CCF84810F1E5DCF84C20D1E9023EB7
:1019B00092B2DCF8501042EA43121143CCF85010B6
:1019C000DCF84C104FF6FF729143DCF8502041EAEE
:1019D0004E511143CCF8501016E6DCF85C20D1E9EA
:1019E000023E92B2DCF8601042EA43121143CCF896
:1019F0006010DCF85C104FF6FF729143DCF8602059
:101A000041EA4E511143CCF86010A7E6DCF864209F
:101A1000D1E9023E92B2DCF8681042EA4312114367
:101A2000CCF86810DCF864104FF6FF729143DCF8D4
:101A3000682041EA4E511143CCF86810A4E6DCF866
:101A40006C20D1E9023E92B2DCF8701042EA4312F7
:101A50001143CCF87010DCF86C104FF6FF72914314
:101A6000DCF8702041EA4E511143CCF87010E5E5E6
:101A7000DCF87420D1E9023E92B2DCF8781042EA38
:101A800043121143CCF87810DCF874104FF6FF7253
:101A90009143DCF8782041EA4E511143CCF878109C
:101AA0008CE6DCF88420D1E9023E92B2DCF88810A2
:101AB00042EA43121143CCF88810DCF884104FF648
:101AC000FF729143DCF8882041EA4E511143CCF873
:101AD00088108DE6DCF89C20D1E9023E92B2DCF859
:101AE000A01042EA43121143CCF8A010DCF89C107D
:101AF0004FF6FF729143DCF8A02041EA4E511143AA
:101B0000CCF8A01096E6DCF85420896892B242EA3C
:101B10004111CCF85810C5E4DCF87C20896892B2F9
:101B200042EA4111CCF88010D6E4DCF88C208968B8
:101B300092B242EA4111CCF89010E7E4DCF894202C
:101B4000896892B242EA4111CCF8981000E5DCF8BD
:101B50004420896892B242EA4111CCF8481015E558
:101B6000DCF83420896892B242EA4111CCF838108E
:101B7000DCF8101041F00101CCF810105CF80C1CDE
:101B800021F001014CF80C1C80BDDCF83C20896878
:101B900092B242EA4111CCF840101FE5DCF84C202B
:101BA000896892B242EA4111CCF850102CE5DCF879
:101BB0005C20896892B242EA4111CCF86010CDE510
:101BC000DCF864208968C2EA4151CCF86810DBE592
:101BD000DCF86C20896892B242EA4111CCF87010AE
:101BE0002CE5DCF87420896892B242EA4111CCF805
:101BF0007810E3E5DCF88420896892B242EA41116A
:101C0000CCF88810F4E5DCF89C20896892B242EAAE
:101C10004111CCF8A0100DE680B546F21442C4F292
:101C2000000252F8143C014643F0010042F8140C43
:101C300052F8100CC007FBD052F8143CB1FA81F0F6
:101C4000400923F0020342F8143C00BF52F8103C54
:101C50009B07FBD44B7952F814CC03F0010E2CF403
:101C6000803343EA0E4342F8143C91F802C052F824
:101C7000143C6CF3451342F8143C91F803C052F83D
:101C8000143C6CF3861342F8143C91F801C052F8EE
:101C9000143C6CF3041342F8143C91F800C052F861
:101CA000143C6CF3C30342F8143C0B7952F814CC87
:101CB00003F0010E2CF0800343EACE1342F8143CEB
:101CC000D2F870319BB2C2F8703191F806C052F868
:101CD000143C6CF3820342F8143C8968936861F306
:101CE0001D039360116821F480611160116821F473
:101CF00000711160116821F400411160116821F434
:101D000080711160116821F004011160116821F0E7
:101D100020011160116821F002011160116821F0A9
:101D200010011160116821F008011160116821F0A3
:101D300040011160116821F400611160116821F403
:101D400000311160116821F001011160116821F466
:101D50008031116052F8141C21F0010142F8141C6A
:101D600052F8101CC907FBD180BD000070B546F2C7
:101D7000B4514FF6586EC4F20001CFF6FF7E51F811
:101D80000E204FF65C6C9207CFF6FF7C04D151F821
:101D90000C20920700F036820A68120A027051F88D
:101DA0000E20B0FA80F092074FEA501000F0128136
:101DB00040F2D0034FF4FF52C2F2000311E0240EB0
:101DC0000E6802EAD6061E4446F8254051F80E4039
:101DD00044F0200441F80E4051F80E40A40700F0F2
:101DE000F9800C6804F00F04013C072CEED8DFE802
:101DF00004F03B3F4A5D7697C0044C680D68E4B23E
:101E000002EAD5055C514C68C4F307240D6802EA68
:101E1000D5051D446C604C68C4F307440D6802EAA4
:101E2000D5051D44AC604C680D68240E02EAD5054A
:101E30001D44EC608C680D68E4B202EAD5051D44CF
:101E40002C618C68C4F307240D6802EAD5051D4493
:101E50006C618C68C4F307440D6802EAD5051D4423
:101E6000AC618C680725AAE74C680025E4B2A7E7B7
:101E70004C680D68E4B202EAD5055C514C68012556
:101E8000C4F307249CE74C680D68E4B202EAD50568
:101E90005C514C68C4F307240D6802EAD5051D4463
:101EA0006C604C680225C4F3074489E74C680D68F0
:101EB000E4B202EAD5055C514C68C4F307240D680E
:101EC00002EAD5051D446C604C68C4F307440D68F4
:101ED00002EAD5051D44AC604C6803256FE74C68E9
:101EE0000D68E4B202EAD5055C514C68C4F30724DE
:101EF0000D6802EAD5051D446C604C68C4F30744C4
:101F00000D6802EAD5051D44AC604C680D68240ECE
:101F100002EAD5051D44EC608C680425E4B24FE765
:101F20004C680D68E4B202EAD5055C514C68C4F314
:101F300007240D6802EAD5051D446C604C68C4F3A3
:101F400007440D6802EAD5051D44AC604C680D6875
:101F5000240E02EAD5051D44EC608C680D68E4B2DD
:101F600002EAD5051D442C618C680525C4F30724BD
:101F700026E74C680D68E4B202EAD5055C514C686E
:101F8000C4F307240D6802EAD5051D446C604C6853
:101F9000C4F307440D6802EAD5051D44AC604C68E3
:101FA0000D68240E02EAD5051D44EC608C680D68AE
:101FB000E4B202EAD5051D442C618C68C4F3072401
:101FC0000D6802EAD5051D446C618C680625C4F3D2
:101FD0000744F5E651F80C20920708BF70BD40F2A7
:101FE000D0034FF4FF52C2F2000311E0340E0E6929
:101FF00002EAD6061E4446F8254051F80C6046F029
:10200000200641F80C6051F80C60B60700F0F9802A
:102010000E6906F00F06751E072DEED8DFE805F0F5
:102020003B3F4A5D7697C0044E690D69F6B202EAFD
:10203000D5055E514E69C6F307260D6902EAD5053E
:102040001D446E604E69C6F307460D6902EAD50568
:102050001D44AE604E690D69360E02EAD5051D4479
:10206000EE608E690D69F6B202EAD5051D442E6157
:102070008E69C6F307260D6902EAD5051D446E6117
:102080008E69C6F307460D6902EAD5051D44AE61A7
:102090008E690725AAE74E690025F4B2A7E74E69C5
:1020A0000D69F6B202EAD5055E514E690125C6F307
:1020B00007249CE74E690D69F6B202EAD5055E5128
:1020C0004E69C6F307260D6902EAD5051D446E6008
:1020D0004E690225C6F3074489E74E690D69F6B2D9
:1020E00002EAD5055E514E69C6F307260D6902EA7C
:1020F000D5051D446E604E69C6F307460D6902EAB8
:10210000D5051D44AE604E6903256FE74E690D6924
:10211000F6B202EAD5055E514E69C6F307260D698F
:1021200002EAD5051D446E604E69C6F307460D6987
:1021300002EAD5051D44AE604E690D69360E02EA0D
:10214000D5051D44EE608E690425F4B24FE74E6953
:102150000D69F6B202EAD5055E514E69C6F307264F
:102160000D6902EAD5051D446E604E69C6F3074647
:102170000D6902EAD5051D44AE604E690D69360E43
:1021800002EAD5051D44EE608E690D69F6B202EAD9
:10219000D5051D442E618E690525C6F3072426E763
:1021A0004E690D69F6B202EAD5055E514E69C6F375
:1021B00007260D6902EAD5051D446E604E69C6F317
:1021C00007460D6902EAD5051D44AE604E690D69EA
:1021D000360E02EAD5051D44EE608E690D69F6B231
:1021E00002EAD5051D442E618E69C6F307260D69E6
:1021F00002EAD5051D446E618E690625C6F30744C3
:10220000F5E670BD032070BD80B546F2885E4FF6DE
:102210008063C4F2000ECFF6FF735EF803108446AD
:1022200041F001014EF803105EF8031041F4807193
:102230004EF803105EF8031041F480304EF80300AE
:102240005EF80300BCFA8CF140014FEA51101ED435
:102250005EF8031009012ED45EF80310C90058BFC0
:1022600080BD9CF80010012900F09280002940F008
:10227000AB80DEF8181021F00401CEF81810DCF85D
:102280000410DEF8183049056FF35F5399E09CF8AD
:102290000010012925D000293FD15EF8081C21F04B
:1022A00004014EF8081CDCF804105EF8083C4905EF
:1022B0006FF35F532EE09CF80010012900F0B58009
:1022C000002940F0CE80DEF8081021F00401CEF89D
:1022D0000810DCF80410DEF8083049056FF35F538E
:1022E000BCE05EF8081C4FF6FF7241F004014EF8A6
:1022F000081C5EF8081CC0F21F026FF35F514EF815
:10230000081CDCF804105EF8083C073A02EAC10138
:102310006FF3D40319434EF8081C9CF801100129EF
:1023200029D071BB5EF8081C21F002014EF8081C90
:102330009CF802105EF8042C61F303024EF8042CA2
:102340009CF802100139072900F25182DFE811F0F0
:102350000800D200E800090135016B01AC01F80169
:10236000DCF808100978DEF8002022F0FF021144A2
:10237000CEF8001005E05EF8081C41F002014EF8AE
:10238000081C5EF8081C41F001014EF8081C80BDD5
:10239000DEF818104FF6FF7241F00401CEF8181065
:1023A000DEF81810C0F21F026FF35F51CEF818105C
:1023B000DCF80410DEF81830073A02EAC1016FF3C6
:1023C000D4031943CEF818109CF80110012900F02D
:1023D0007780002940F07A80DEF8181021F00201A1
:1023E000CEF818109CF80210DEF81C2061F30302EE
:1023F000CEF81C209CF802100139072900F2F58460
:10240000DFE811F00800F7010D022E025A029002D7
:10241000D1021D03DCF808100978DEF8202022F034
:10242000FF021144CEF8201050E0DEF808104FF6FD
:10243000FF7241F00401CEF80810DEF80810C0F277
:102440001F026FF35F51CEF80810DCF80410DEF8BD
:102450000830073A02EAC1016FF3D4031943CEF8FA
:1024600008109CF80110012937D000293BD1DEF873
:10247000081021F00201CEF808109CF80210DEF8D6
:102480000C2061F30302CEF80C209CF802100139F5
:10249000072900F2AD84DFE811F0080029033F03AB
:1024A00060038C03C20303045004DCF808100978AD
:1024B000DEF8102022F0FF021144CEF8101012E0D6
:1024C000DEF8181041F00201CEF81810DEF81810EE
:1024D00041F00101CEF8181080BDDEF8081041F07F
:1024E0000201CEF80810DEF8081041F00101CEF824
:1024F000081080BDDCF808100978DEF8002022F012
:10250000FF021144CEF80010DCF808104978DEF81C
:10251000002022F47F4242EA0121CEF8001030E789
:10252000DCF808100978DEF8002022F0FF021144E0
:10253000CEF80010DCF808104978DEF8002022F40C
:102540007F4242EA0121CEF80010DCF808108978B9
:10255000DEF8002022F47F0242EA0141CEF80010AA
:102560000FE7DCF808100978DEF8002022F0FF02FF
:102570001144CEF80010DCF808104978DEF800208D
:1025800022F47F4242EA0121CEF80010DCF8081064
:102590008978DEF8002022F47F0242EA0141CEF879
:1025A0000010DCF80810C978DEF8002022F07F4225
:1025B00042EA0161CEF80010E3E6DCF80810097881
:1025C000DEF8002022F0FF021144CEF80010DCF803
:1025D00008104978DEF8002022F47F4242EA012107
:1025E000CEF80010DCF808108978DEF8002022F41C
:1025F0007F0242EA0141CEF80010DCF80810C978E9
:10260000DEF8002022F07F4242EA0161CEF800109D
:10261000DCF808100979DEF8042022F0FF021144EA
:10262000CEF80410ADE6DCF808100978DEF80020DA
:1026300022F0FF021144CEF80010DCF808104978AF
:10264000DEF8002022F47F4242EA0121CEF8001099
:10265000DCF808108978DEF8002022F47F0242EAD4
:102660000141CEF80010DCF80810C978DEF800202F
:1026700022F07F4242EA0161CEF80010DCF8081037
:102680000979DEF8042022F0FF021144CEF804108C
:10269000DCF808104979DEF8042022F47F4242EA8F
:1026A0000121CEF804106CE6DCF808100978DEF899
:1026B000002022F0FF021144CEF80010DCF80810D0
:1026C0004978DEF8002022F47F4242EA0121CEF868
:1026D0000010DCF808108978DEF8002022F47F0270
:1026E00042EA0141CEF80010DCF80810C978DEF8A3
:1026F000002022F07F4242EA0161CEF80010DCF8AF
:1027000008100979DEF8042022F0FF021144CEF807
:102710000410DCF808104979DEF8042022F47F4226
:1027200042EA0121CEF80410DCF808108979DEF8BD
:10273000042022F47F0242EA0141CEF8041020E690
:10274000DCF808100978DEF8002022F0FF021144BE
:10275000CEF80010DCF808104978DEF8002022F4EA
:102760007F4242EA0121CEF80010DCF80810897897
:10277000DEF8002022F47F0242EA0141CEF8001088
:10278000DCF80810C978DEF8002022F07F4242EA27
:102790000161CEF80010DCF808100979DEF8042099
:1027A00022F0FF021144CEF80410DCF80810497939
:1027B000DEF8042022F47F4242EA0121CEF8041020
:1027C000DCF808108979DEF8042022F47F0242EA5E
:1027D0000141CEF80410DCF80810C979DEF80420B5
:1027E00022F07F4242EA0161CEF80410C9E50220DE
:1027F000C7E5DCF808100978DEF8202022F0FF0297
:102800001144CEF82010DCF808104978DEF82020BA
:1028100022F47F4242EA0121CEF8201056E6DCF88D
:1028200008100978DEF8202022F0FF021144CEF8CB
:102830002010DCF808104978DEF8202022F47F42CE
:1028400042EA0121CEF82010DCF808108978DEF881
:10285000202022F47F0242EA0141CEF8201035E622
:10286000DCF808100978DEF8202022F0FF0211447D
:10287000CEF82010DCF808104978DEF8202022F489
:102880007F4242EA0121CEF82010DCF80810897856
:10289000DEF8202022F47F0242EA0141CEF8201027
:1028A000DCF80810C978DEF8202022F07F4242EAE6
:1028B0000161CEF8201009E6DCF808100978DEF88E
:1028C000202022F0FF021144CEF82010DCF808107E
:1028D0004978DEF8202022F47F4242EA0121CEF836
:1028E0002010DCF808108978DEF8202022F47F021E
:1028F00042EA0141CEF82010DCF80810C978DEF871
:10290000202022F07F4242EA0161CEF82010DCF85C
:1029100008100979DEF8242022F0FF021144CEF8D5
:102920002410D3E5DCF808100978DEF8202022F026
:10293000FF021144CEF82010DCF808104978DEF8C8
:10294000202022F47F4242EA0121CEF82010DCF858
:1029500008108978DEF8202022F47F0242EA014143
:10296000CEF82010DCF80810C978DEF8202022F01C
:102970007F4242EA0161CEF82010DCF808100979A4
:10298000DEF8242022F0FF021144CEF82410DCF8F7
:1029900008104979DEF8242022F47F4242EA01211E
:1029A000CEF8241092E5DCF808100978DEF8202033
:1029B00022F0FF021144CEF82010DCF8081049780C
:1029C000DEF8202022F47F4242EA0121CEF82010D6
:1029D000DCF808108978DEF8202022F47F0242EA31
:1029E0000141CEF82010DCF80810C978DEF820206C
:1029F00022F07F4242EA0161CEF82010DCF8081094
:102A00000979DEF8242022F0FF021144CEF82410C8
:102A1000DCF808104979DEF8242022F47F4242EAEB
:102A20000121CEF82410DCF808108979DEF8242082
:102A300022F47F0242EA0141CEF8241046E5DCF898
:102A400008100978DEF8202022F0FF021144CEF8A9
:102A50002010DCF808104978DEF8202022F47F42AC
:102A600042EA0121CEF82010DCF808108978DEF85F
:102A7000202022F47F0242EA0141CEF82010DCF847
:102A80000810C978DEF8202022F07F4242EA016176
:102A9000CEF82010DCF808100979DEF8242022F0A6
:102AA000FF021144CEF82410DCF808104979DEF852
:102AB000242022F47F4242EA0121CEF82410DCF8DF
:102AC00008108979DEF8242022F47F0242EA0141CD
:102AD000CEF82410DCF80810C979DEF8242022F0A2
:102AE0007F4242EA0161CEF82410EFE4DCF80810DE
:102AF0000978DEF8102022F0FF021144CEF8101001
:102B0000DCF808104978DEF8102022F47F4242EA0F
:102B10000121CEF81010E6E4DCF808100978DEF8A0
:102B2000102022F0FF021144CEF81010DCF808103B
:102B30004978DEF8102022F47F4242EA0121CEF8E3
:102B40001010DCF808108978DEF8102022F47F02DB
:102B500042EA0141CEF81010C5E4DCF8081009780B
:102B6000DEF8102022F0FF021144CEF81010DCF83D
:102B700008104978DEF8102022F47F4242EA012151
:102B8000CEF81010DCF808108978DEF8102022F456
:102B90007F0242EA0141CEF81010DCF80810C97833
:102BA000DEF8102022F07F4242EA0161CEF81010D8
:102BB00099E4DCF808100978DEF8102022F0FF0212
:102BC0001144CEF81010DCF808104978DEF8102017
:102BD00022F47F4242EA0121CEF81010DCF80810FE
:102BE0008978DEF8102022F47F0242EA0141CEF813
:102BF0001010DCF80810C978DEF8102022F07F42AF
:102C000042EA0161CEF81010DCF808100979DEF80C
:102C1000142022F0FF021144CEF8141063E4DCF813
:102C200008100978DEF8102022F0FF021144CEF8D7
:102C30001010DCF808104978DEF8102022F47F42EA
:102C400042EA0121CEF81010DCF808108978DEF88D
:102C5000102022F47F0242EA0141CEF81010DCF885
:102C60000810C978DEF8102022F07F4242EA0161A4
:102C7000CEF81010DCF808100979DEF8142022F0E4
:102C8000FF021144CEF81410DCF808104979DEF880
:102C9000142022F47F4242EA0121CEF8141022E4EB
:102CA000DCF808100978DEF8102022F0FF02114449
:102CB000CEF81010DCF808104978DEF8102022F465
:102CC0007F4242EA0121CEF81010DCF80810897822
:102CD000DEF8102022F47F0242EA0141CEF8101003
:102CE000DCF80810C978DEF8102022F07F4242EAB2
:102CF0000161CEF81010DCF808100979DEF8142014
:102D000022F0FF021144CEF81410DCF808104979C3
:102D1000DEF8142022F47F4242EA0121CEF814109A
:102D2000DCF808108979DEF8142022F47F0242EAE8
:102D30000141CEF81410FFF7D6BBDCF80810097873
:102D4000DEF8102022F0FF021144CEF81010DCF85B
:102D500008104978DEF8102022F47F4242EA01216F
:102D6000CEF81010DCF808108978DEF8102022F474
:102D70007F0242EA0141CEF81010DCF80810C97851
:102D8000DEF8102022F07F4242EA0161CEF81010F6
:102D9000DCF808100979DEF8142022F0FF02114453
:102DA000CEF81410DCF808104979DEF8142022F46B
:102DB0007F4242EA0121CEF81410DCF8081089792C
:102DC000DEF8142022F47F0242EA0141CEF814100A
:102DD000DCF80810C979DEF8142022F07F4242EABC
:102DE0000161CEF81410FFF77EBB0220FFF76EBB27
:102DF0000220FFF778BB000010B58AB040F6010052
:102E0000C0F2023000F58071CDE9080109A800F098
:102E100071FA08A800F06EFA0120092109220124A4
:102E200000F000FB01200821092200F0FBFA00203D
:102E3000C0F2011005900020ADF818004FF4E0201A
:102E40008DF81A40079008A0C268D0E90110CDE9BA
:102E500003020548CDE9010101A8FDF7E9FB05A83A
:102E6000FEF7DAFE0AB010BD00000101000000000C
:102E7000000100000000000080B540F25C00C2F2DA
:102E8000000000F037FA40F26400C2F2000000F0E7
:102E900031FA40F26000C2F2000000F02BFA40F27A
:102EA0006800C2F2000000F025FA02200021002292
:102EB00000F0FAFA02200321002200F0F5FA0220C5
:102EC0000121002200F0F0FA02200221002200F08D
:102ED000EBFA0020002100F017FF02200021BDE8DE
:102EE000804000F011BF000080B500F04FFD0220CF
:102EF0000121012200F0D8FA02200321012200F072
:102F0000D3FA02200021002200F0CEFA0220022192
:102F10000022BDE8804000F0C7BA000080B500F094
:102F200035FD02200221012200F0BEFA022000211C
:102F3000012200F0B9FA02200121002200F0B4FAC7
:102F4000022003210022BDE8804000F0ADBA00005D
:102F500080B500F01BFD02200121002200F0A4FA40
:102F600002200221002200F09FFA02200321012208
:102F700000F09AFA022000210122BDE8804000F012
:102F800093BA000080B500F001FD02200321002269
:102F900000F08AFA02200021002200F085FA0220C7
:102FA0000121012200F080FA022002210122BDE865
:102FB000804000F079BA000080B5002000F0E6FC07
:102FC00002200021002200F06FFA022003210022DB
:102FD00000F06AFA02200121002200F065FA0220C6
:102FE00002210022BDE8804000F05EBA70B582B0D8
:102FF0000C460546012601200021A0220023009650
:1030000000F0F8FA012000F03BFB0120294600F017
:10301000E5FA01200021A0220123009600F0EAFA3F
:10302000012000F02DFB0120214600F0CBFA012009
:1030300002B0BDE8704000F033BB00002DE9F0475E
:1030400082B04FF00008CDF8048002B392460D46DE
:10305000064642F20F7942F21077002406E000BFE4
:1030600001340136544505F1010510D2F0B229466C
:10307000FFF7BCFFCDF8048001984845F0D800BFA9
:103080000198013001900198B842F9D3E8E702B005
:10309000BDE8F087B0B582B00C4605464FF0020C93
:1030A00001200021A0220023CDF800C000F0A2FAE8
:1030B000012000F0E5FA0120294600F08FFA0120F6
:1030C000214600F08BFA012002B0BDE8B04000F0CC
:1030D000E7BA00002DE9F04782B04FF00008CDF8C4
:1030E000048002B314468A46064642F20F7942F241
:1030F0001077002505E000BF0135A54206F1010665
:1031000011D01AF80510F0B2FFF7C4FFCDF8048013
:1031100001984845F0D800BF01980130019001980E
:10312000B842F9D3E8E702B0BDE8F08740F2010405
:10313000C2F200044FF4FA7001F0D0FF10202146D3
:103140000222FFF7C7FFF5E780B50020112100F04C
:1031500001FF0220162100F0FDFE40F21500C2F230
:10316000000000F0C7F840F21100C2F2000000F0C9
:10317000C1F800200921042200F054F900200A219E
:10318000042200F04FF90120BDE8804000F09EBA13
:1031900040F29420C2F200000068004710B540F2EF
:1031A0001444C4F201042068400518D420680005C6
:1031B0001ED42068C00424D4206880042AD4206847
:1031C000400430D42068000458BF10BD40F2942061
:1031D000C2F20000C06B80474FF400402BE040F289
:1031E0009420C2F20000806A80474FF4806022E0A1
:1031F00040F29420C2F20000C06A80474FF40060A1
:1032000019E040F29420C2F20000006B80474FF4B6
:10321000805010E040F29420C2F20000406B8047E2
:103220004FF4005007E040F29420C2F20000806B9F
:1032300080474FF4804021680843206010BD0000A3
:1032400040F29420C2F200004068004740F294200F
:10325000C2F200008068004740F29420C2F20000F1
:10326000C068004740F29420C2F2000000690047A5
:1032700010B540F21444C4F201042068800615D44D
:10328000206840061AD4206800061FD42068C005B4
:1032900024D42068800558BF10BD40F29420C2F2AB
:1032A0000000406A80474FF400701FE040F2942015
:1032B000C2F2000040698047202017E040F29420CD
:1032C000C2F200008069804740200FE040F2942065
:1032D000C2F20000C0698047802007E040F29420DD
:1032E000C2F20000006A80474FF4807021680843F2
:1032F000206010BD70B5002846D00378072B84BF2E
:10330000022070BD42780F2A84BF032070BDC478AC
:10331000032C84BF052070BD8178072947D226A0E1
:1033200050F823C04FEA420EDCF80000032303FAF2
:103330000EF301F00305984305FA0EF52843CCF887
:10334000000008294FF000001DD8012505FA01F6FC
:1033500016F0660F6FEA030318D0DCF80800184077
:1033600004F0030303FA0EF31843CCF80800DCF86A
:10337000040005FA02F3C1F3800198439140084329
:10338000CCF80400002070BD012070BD40F2111285
:10339000164208BF70BDDCF80C00C1F38101184073
:1033A00001FA0EF10843CCF80C00002070BD08298A
:1033B0001CBF042070BDB2E70000004800040048B4
:1033C00000080048000C00480010004800140048A5
:1033D00000180048001C0048002A04BF0120704764
:1033E000072884BF022070470F2984BF032070473D
:1033F00004A353F820000069C84000F001001070D9
:103400000020704700000048000400480008004801
:10341000000C004800100048001400480018004844
:10342000001C0048072884BF022070470F2984BF72
:10343000032070470F2A84BF0720704712A353F858
:10344000200007290ED8D0F820C089000F238B4018
:1034500002F00F022CEA030302FA01F119430162A0
:10346000002070476FF01F03D0F824C003EB8101E8
:103470000F238B4002F00F022CEA030302FA01F142
:1034800019434162002070470000004800040048D2
:1034900000080048000C00480010004800140048D4
:1034A00000180048001C0048072884BF022070470D
:1034B0000F2984BF03207047012A84BF062070476C
:1034C00008A353F820000123D0F814C08B4002F069
:1034D00001022CEA030302FA01F1194341610020C1
:1034E000704700BF00000048000400480008004882
:1034F000000C004800100048001400480018004864
:10350000001C004840F20001C2F200010870704740
:1035100040F20001C2F200010978FF291EBF0170CC
:1035200040F20000C2F20000FF210170704700006D
:1035300080B540F24800C2F20000FFF7DBFE40F227
:103540004000C2F20000FFF7D5FE0220042107224E
:10355000FFF768FF022005210722FFF763FF40F213
:103560004C00C2F20000FFF7C5FE40F24400C2F278
:103570000000FFF7BFFE01200A210722FFF752FFDC
:1035800001200B210722FFF74DFF40F22C00C2F271
:10359000000000F049FA40F23600C2F2000000F0EC
:1035A00043FA43F20551C0F60001002000F024FA6E
:1035B00001202021BDE8804000F0C4B9014602206E
:1035C00000F008BA45F6A462C0F6000252F82000E6
:1035D00082695207FCD5406A0870704745F6B062B0
:1035E000C0F6000252F82000816200BF8169C9075D
:1035F000FCD0704710B545F6BC6C0129C0F6000C34
:1036000009D001BB5CF820E05EF8041F21F40061E2
:10361000CEF8001012E05CF820E040F2FF345EF8D3
:10362000041F41F40061CEF80010DEF80010A14341
:10363000CEF8001040F2FE7101EA4202DEF80010FE
:103640001143CEF800100299012B07D063B95CF842
:103650002020536823F48063536005E05CF8202049
:10366000536843F4806353605CF82000426822F49E
:103670007F024260426842EA0141416010BD0000A1
:10368000022884BF0120704745F6C861C0F60001DA
:1036900051F82000416841F400514160002070471A
:1036A000022884BF0120704745F6D461C0F60001AE
:1036B00051F82000416841F48041416081698906E8
:1036C000FCD52021C161002070470000022884BF82
:1036D0000120704745F6E061C0F6000151F8201066
:1036E000002008600A6842F444320A6040F613720F
:1036F000C1F2420248600A6188600A6842F0010231
:103700000A60704740F22002C2F2000252F8211013
:1037100002220B6902FA00F023EA000008617047F8
:1037200040F22001C2F2000151F82000016921F0AD
:10373000010101617047000040F22001C2F2000166
:1037400051F82000016821F001010160704700007C
:1037500040F22001C2F2000151F82000016841F05E
:10376000010101607047000003280BD8DFE800F07A
:10377000020C141C40F22000C2F2000050F821009C
:10378000343018E01060704740F22000C2F20000B0
:1037900050F8210038300EE040F22000C2F2000064
:1037A00050F821003C3006E040F22000C2F2000058
:1037B00050F82100403000681060704740F220034C
:1037C000C2F2000353F821100130096921FA00F018
:1037D00000F001001070704740F22002C2F20002B7
:1037E00052F82000007C00F00100087070470000D3
:1037F000F0B581B040F22007C2F200070C4657F83E
:10380000211005460868CA6840F0080008600220D8
:10381000A84022EA000020F00100C86028462146A6
:10382000002200F049F8032D2DD8DFE805F0020B47
:10383000111B57F82400012200F118016FF0FF0559
:10384000012319E057F82400102300F118010FE0BC
:1038500057F824004FF4807300F11C0101226FF02F
:10386000FF0509E057F824004FF4805300F11C01D4
:103870004FF480726FF47F450E682E4032430A6029
:10388000016A1943016257F82400072149F65602DC
:10389000C0E90A1201B0F0BD40F22002C2F20002FB
:1038A00052F82000C162704740F22002C2F20002CA
:1038B00052F8200041627047022A19D0012A2BD009
:1038C000002A18BF704740F22003C2F2000353F8E9
:1038D00021108000421C4FF0010C0B6A0CFA02F21E
:1038E00003301A430CFA00F022EA00000862704725
:1038F00040F22003C2F20003800053F82110421C62
:103900004FF0010C03300CFA02F20B6A0CFA00F0D3
:10391000104318430862704740F22003C2F20003CC
:10392000800053F82110421C4FF0010C03300CFAB8
:1039300002F20B6A0CFA00F0104323EA000008625E
:103940007047000002280ED0012815D000281CBFA7
:10395000012070474EF20010CEF2000002681143C1
:103960000160002070474EF20010CEF20000826825
:1039700011438160002070474EF20010CEF200002B
:1039800042681143416000207047000010B50446B2
:10399000002818BF0538C2B20220002100F084FAC6
:1039A000002000212246BDE8104000F07DBA000052
:1039B00040F25002C2F2000252F82030996252F8EE
:1039C000200000BFC1694906FCD5016A41F04001F1
:1039D0000162704770B50C460978002908BF70BDB8
:1039E00005460026C9B22846FFF7E2FF0136F0B2CD
:1039F000215C0029F6D170BD002908BF704740F254
:103A0000DC2240F2E023C2F20002C2F200030128ED
:103A100008BF134640F2D822C2F20002002818BFA5
:103A20001A4611607047000080B5417840F2500E90
:103A3000C2F2000E11B14FF0010C0FE001784FF00F
:103A4000000C5EF821100B6823F080530B600178A6
:103A50005EF821100B6823F480530B608378012BF0
:103A60000CD0F3B903785EF82330196821F40041D3
:103A7000196041F20023C0F27A030AE001785EF88F
:103A800021100B6843F400430B6042F20043C0F284
:103A9000F403C1880278B3FBF1F15EF82220D16013
:103AA00001E04FF0020CC378022B09D0012B15D096
:103AB0001BBB01785EF821100A6822F480621AE0CC
:103AC00001785EF821100A6842F480620A60017889
:103AD0005EF821100A6842F400720CE001785EF88A
:103AE00021100A6842F480620A6001785EF82110B1
:103AF0000A6822F400720A6001E04FF0030C0178BA
:103B00005EF821104A6822F480124A600379022B81
:103B100008D0032B0DD101785EF821104A6822F4F9
:103B2000002205E001785EF821104A6842F4002284
:103B30004A604379032B0AD8DFE803F0020C1A210C
:103B400001785EF821104A6822F4805208E04FF0B4
:103B5000040C22E001785EF821104A6842F4805299
:103B60004A6001785EF821104A6822F4005213E09E
:103B700001785EF821104A6822F4805205E001784D
:103B80005EF821104A6842F480524A6001785EF87B
:103B900021104A6842F400524A60037A032B12D87B
:103BA000DFE803F00214232B01785EF821100A6885
:103BB00022F020020A6001785EF821100A6822F0E3
:103BC00080020A6020E04FF0030C1DE001785EF8EF
:103BD00021100A6842F020020A6001785EF8211084
:103BE0000A6842F080020A600EE001785EF8211057
:103BF0000A6842F080020A6006E001785EF821104F
:103C00000A6842F020020A6001785EF821100A6812
:103C100042F004020A6001785EF821100A6842F05E
:103C200008020A6000785EF82010086840F001027F
:103C300060460A6080BD000082B04FF4FA7001F067
:103C40004DFA40F2030540F20E0600200DF1070484
:103C5000C2F20005C2F2000601278DF8070002E05B
:103C6000642001F03BFA2046FFF752FC9DF8070064
:103C70002B2809D0FF280FD02D2808D1697831B121
:103C80006878143807E000BF6978642901D128708A
:103C900002E0687814306870B078A978884207D15B
:103CA00030782978884203D1707869788842D7D0F3
:103CB0002878423811280DD8DFE800F0110C0C0CE0
:103CC000150C0C0C0C0C1A0C0C0C0C0C1E09FFF730
:103CD00073F9AF70A878B07028883080C0E7687832
:103CE000FFF702F9F6E7A87850B1FFF765F9F1E7B9
:103CF0001E20FFF72DF9EDE71E20FFF743F9E9E756
:103D00006878FFF70BF9E5E7022884BF01207047C8
:103D1000032984BF0220704770B545F6EC62C0F6F7
:103D2000000252F820404FF08443660106F11C0265
:103D30000125D55006F118020025D55006F11402D0
:103D4000D55006F11002D5500722A2624CF24F3234
:103D50000329E26200F29E80DFE801F002121822DD
:103D600002283DD0012844D0002847D140F2060067
:103D7000C2F20000FFF7BEFA0020002101223BE062
:103D8000012817D002281AD1012014E0022845D0BA
:103D9000012846D0002849D100200221012243E019
:103DA000022853D0012854D0002857D103200621DF
:103DB000012251E0022007210222FFF733FB40F2EB
:103DC0000C30C4F2002031180122C1F80421203047
:103DD0004FF0380C4FF4DC226FF4E04318214DE033
:103DE00040F20A00C2F20000FFF784FA0120062127
:103DF00001E0012004210222FFF714FB40F20C3005
:103E0000C4F2002031180122C1F8F4204FF0340C24
:103E10004FF4DC626FF0700318212FE003200E21B5
:103E200001E0022008210222FFF7FCFA40F20C30E8
:103E3000C4F2002031180122C1F8142180304FF063
:103E40003C0C4FF4DC626FF0700316E003200F218E
:103E500001E0012001210222FFF7E4FA40F20C30D8
:103E6000C4F2002031180122C1F82421A0304FF003
:103E7000400C4FF4DC226FF4E0431C210125355047
:103E80006058184060506058104360504CF25030F9
:103E900044F80C00606940F001006061206840F067
:103EA00001002060002070BD022884BF01207047FF
:103EB000032984BF02207047642A84BF032070470F
:103EC00045F6F86C0329C0F6000C07D85CF82030E2
:103ED00003EB81014FF4FA735A434A635CF8200004
:103EE000416941F00101416100207047000000007C
:103EF000EFF30980BFF36F8F154B1A681EF0100F98
:103F000008BF20ED108A20E9F04F10602DE909006C
:103F10004FF0100080F31188BFF34F8FBFF36F8F06
:103F200001F0DAF94FF0000080F31188BDE80900D4
:103F300019680868B0E8F04F1EF0100F08BFB0EC29
:103F4000108A80F30988BFF36F8F704700BF00BFEE
:103F50003005002002280ED0012816D0002818BFF6
:103F6000704741F21402C4F2020201201368884033
:103F700018431060704741F21402C4F2020201209B
:103F80009368884018439060704741F21402C4F26D
:103F900002020120536888401843506070470000B7
:103FA000074B19680868B0E8F04F80F30988BFF341
:103FB0006F8F4FF0000080F31188704700BF00BF83
:103FC0003005002080B54EF21000CEF200000068EF
:103FD00001F0D8FC012808BF80BDBDE8804001F099
:103FE000F7B900004EF68850CEF20000016841F4A7
:103FF000700101607047000010B540F2D82043F610
:104000001804C2F20000C4F201040168E0688847A5
:10401000A06840F05800A060206840F018002060C0
:1040200010BD000010B540F2D82044F21844C2F28E
:104030000000C4F200040168E0688847A06840F00E
:104040005800A060206840F01800206010BD0000FB
:1040500010B540F2D82044F61804C2F20000C4F2B1
:1040600000040168E0688847A06840F05800A0603C
:10407000206840F01800206010BD000040F2E424E9
:1040800040F2010740F2030AC2F200044DF6DD558A
:104090004FF6FE66C2F200074FF0FE084FF012091D
:1040A000C2F2000A4FF0010B05E000BF87F8018063
:1040B0000A2001F013F800F001F9322001F00EF8A7
:1040C000204600F039F82088A842F1D0B042EDD067
:1040D000312887F8019002D88AF802B0E8E79AF808
:1040E000000053281CBF00208AF80200E0E700000F
:1040F00010B582B0044601AA00200121FFF734FB6D
:10410000019838B14CF60931C8F63D51A0FB0101C8
:10411000480901E04FF6FE6020800120FFF700FB18
:1041200002B010BD024600200121FFF747BB00008E
:1041300001460120FFF750BB70B540F2E725C2F2FF
:10414000000504462846FFF7F3FF40F2E626C2F2D8
:1041500000063046FFF7E6FF2978307849B101289C
:1041600013D12046FFF7C4FF00200121FFF7CAFA50
:104170000EE0012818BF70BD2046FFF7B9FF0020F0
:104180000121BDE87040FFF7BDBA4DF6DD5020803B
:104190000120BDE87040FFF7C3BA000080B582B0CF
:1041A00040F60200C0F20110019001A8FFF7A2F84A
:1041B00040F20260C0F2021000906846FFF79AF8E1
:1041C000022006210222FFF72DF900200121FFF72E
:1041D0000FFB02B080BD000080B5012049F64041D0
:1041E000FFF75AFB01200021FFF75EFB0120FFF7DC
:1041F00097FA00200121FFF785FA0120BDE88040F1
:10420000FFF7A6BAB0B582B000250220082100222F
:104210008DF80750FFF748F90120FFF78DFA0120CC
:104220000021FFF741FB01200221FFF735FB0120B0
:10423000FFF776FA0120FFF78BFA0DF10701012055
:10424000FFF7CAFA9DF8070050B90DF1070400BF47
:1042500001202146FFF7C0FA9DF807000028F7D09B
:104260000220082101228DF80750FFF71DF90120D7
:104270000C21FFF711FB0120FFF752FA0120FFF795
:1042800067FA0DF107010120FFF7A6FA9DF8070074
:1042900050B90DF1070400BF01202146FFF79CFA39
:1042A0009DF807000028F7D000208DF807000220B5
:1042B00008210022FFF7F8F802B0B0BD80B5FFF783
:1042C000A1FFBDE88040FFF787BF000010B504469E
:1042D00000F0F6F8002808BF10BD00F067F830B114
:1042E00020684FF0FF31BDE8104001F025BA10BD45
:1042F00010B50446006800F0C5FE216840F278421F
:104300000020C2F2000200BF52F82030994204D0CF
:104310000130052808BF10BDF6E7002142F8201043
:1043200010BD000070B540F2E82140F27846044626
:104330000025C2F20001C2F20006056056F8250011
:1043400038B10135052D01F15001F7D1206870B960
:1043500006E0012001F060F846F82500206030B941
:1043600000F0AEF818B1012001F04AF820600020FA
:1043700080F311882068002818BF012070BD00005C
:1043800010B5044600F09CF8002808BF10BD00F0EE
:104390000DF838B12068002100220023BDE810404C
:1043A00001F0C4B810BD000070470000EFF30580B5
:1043B000B0FA80F040097047B0B588B000201121F4
:1043C000FFF7C8FD00201221FFF7C4FD00201321D4
:1043D000FFF7C0FD00201421FFF7BCFD02200021E3
:1043E000FFF7B8FD022001210125FFF7B3FD0220F0
:1043F0000221FFF7AFFD01200E21FFF7ABFD0220E8
:104400001221FFF7A7FD02201921FFF7A3FDFEF7F8
:10441000F3FCFEF731FDFFF7C1FEFFF789F8FEF769
:1044200093FE07A8019043F63940C0F60000002132
:1044300050220023009501F049FA06A8019040F2AD
:104440008940C0F60000002150220023009501F0B1
:104450003DFA05A8019040F2DD50C0F600000021B1
:1044600050220023009501F031FA04A8019040F297
:104470009150C0F60000002150220023009501F069
:1044800025FA0420009044F27D0003ACC0F6000041
:10449000002150220023019401F018FA43F22D105C
:1044A00002ACC0F6000000215022002300950194C8
:1044B00001F00CFA00F0BEFE002008B0B0BD000014
:1044C00080B501F05FFA0238B0FA80F0400980BD93
:1044D000F0B581B00D4642F6AC5140F23056C2F212
:1044E0000001C2F200060F6831680446081D00F0A2
:1044F000FBFC601C18D1BDB142F68450C2F2000032
:104500004168326891608A683368DA6032688B6823
:1045100004325A60326804328A6031684861016846
:104520000131016001B0F0BD3068E41944600BD383
:1045300040F24050C2F2000000683168043101B01E
:10454000BDE8F04000F012BD40F23850C2F2000069
:1045500000683168043100F009FD42F65050C2F2A3
:10456000000001688C4238BF046001B0F0BD00005B
:104570002DE9F041044600F021FD42F6A810C2F2F8
:104580000000016840F2305501310160C2F20005BF
:10459000296842F67858C2F2000849B1D8F80000FC
:1045A00060B92868E16AC06A884298BF2C6005E05B
:1045B0002C600068012801D100F0B0F942F6B41077
:1045C000C2F200000168271D01310160616442F6FA
:1045D000B811C2F20001E06A0A68904288BF086020
:1045E00040F2485100EB8000C2F2000101EB800272
:1045F00053689E68E6609E68A36077609F60626112
:1046000051F82020013241F8202000F0E7FCD8F8D2
:104610000000002818BF2868BDE8F08170B582B09E
:1046200000F0CCFC42F6B056C2F20006306830BB57
:1046300042F6F444C2F20004204600F087FC42F641
:104640000855C2F20005284600F080FC40F23450C4
:10465000C2F20000046040F24450C2F2000040F296
:104660008C4240F2DC4305600025C2F20002C2F237
:10467000000305201021009500F006FF306002B015
:10468000BDE8704000F0AABCF0B581B042F6AC15B0
:10469000C2F200052868E0B142F6985642F6A81723
:1046A000C2F20006C2F2000700F088FCF068C4689D
:1046B000201D00F019FC386801383860286801387E
:1046C000286000F08BFC204600F052F82868002893
:1046D000EAD101B0F0BD0000026C002A08BF7047AB
:1046E000D0E902C31344C360634524BF0368C360B9
:1046F000C36808461946FBF7C1BD000070B5866B5C
:10470000036C0446DBB115460AB3E0681A46FBF7B2
:10471000B5FDE168206C2268091A9142E16003D27C
:10472000A16840420844E060A81EB0FA80F0400949
:104730003146002E18BF01210840361A14E02068C7
:1047400090B9A06801F0DCF90020A0600CE060687E
:104750001A46FBF793FD216CD4E90102084490420C
:10476000606001D320686060701CA06370BD0000B1
:1047700010B5044690F85900012805D0002818BF4C
:1047800010BD206B00F038FC2046BDE8104000F062
:1047900033BC0000416A00290FBF0020006B006895
:1047A000C0F138007047000040F23451C2F20001FD
:1047B00009680A68B2FA82F35B090360002A0EBF37
:1047C0000020C8680068704740F6A810C2F20000D8
:1047D000C21D22F0070210F0070CA0EB020318BF65
:1047E000104642F67C52C2F200020021C2E90001EA
:1047F0004FF40052BCF1000F18BF03F50052024401
:10480000083A40F23C5322F00702C2F200031A6059
:10481000C2E90011111A1A68C0E9002142F64C5091
:10482000C2F20000016042F64450C2F20000016092
:10483000704700004EF60454CEF200044FF080554D
:10484000FFF722FF2560BFF34F8FBFF36F8FF7E7AE
:10485000002808BF70474FF0000C00210022002301
:10486000C0F800C0C0F808C0C0F80CC000F05EBEC0
:10487000B0B5049D002914BF2A602D60C5E90F0161
:10488000284601211C4600F01DFE85F84C40B0BDB5
:104890002DE9F0470A9C8246206B16460F46DDE95B
:1048A00008599100A5229846FBF72DFD206B00EBDF
:1048B0008600A0F1040020F0070687B1781E04F1FD
:1048C0003301012210F8013F01F8013F03781BB1C9
:1048D000102A02F10102F5D3002084F84300201DC4
:1048E000372D28BF3725E562E56400F03BFB04F176
:1048F000180000F037FBC5F138002461A061304694
:1049000051464246646200F0DBFAB9F1000F2060C4
:1049100018BFC9F80040BDE8F0870000B0B540F20C
:1049200048550024C2F20005281900F00FFB14348A
:10493000B4F58C6FF8D142F61C54C2F20004204644
:1049400000F004FB42F63055C2F20005284600F0A4
:10495000FDFA42F66450C2F2000000F0F7FA42F6A7
:104960009850C2F2000000F0F1FA42F68450C2F210
:10497000000000F0EBFA40F23850C2F20000046090
:1049800040F24050C2F200000560B0BD80B542F672
:104990007C52C2F2000200BF114612688242FBD371
:1049A000D1F804C001EB0C03834203D1406860449A
:1049B00048600846D0F804E000EB0E03934201D0B3
:1049C000026010E040F23C53C2F20003D3F800C092
:1049D000624506D00B6852681B687244C0E9003219
:1049E00001E0C0F800C0814218BF086080BD00002F
:1049F00080B58C46014641F804CF9445006108D942
:104A00009A4201D29C4511D240F23450C2F20000C9
:104A100007E08069D21A824208D240F24450C2F2C2
:104A20000000006800F0A2FA002080BD012080BDD7
:104A300010B5044600F0C2FAA06BB0FA80F0440949
:104A400000F0CCFA204610BD10B5044600F0B6FACE
:104A5000A06BE16B401AB0FA80F0440900F0BEFA96
:104A6000204610BD08480068006880F308884FF0B1
:104A7000000080F3148862B661B6BFF34F8FBFF3B6
:104A80006F8F00DF00BF00BF08ED00E070B540F29F
:104A90003452C2F2000212680646D2680D46D4684B
:104AA000201D00F021FA94F82800410704D400F0FA
:104AB000FE0084F8280004E0204631462A4600F033
:104AC000C3F8216A2046BDE8704008472DE9F0414F
:104AD00086B042F6B054C2F20004206802A9002257
:104AE00000F0A4FD00286BD00DF1040802AD06E033
:104AF00020682946002200F099FD002860D0029825
:104B0000B0F1FF3F06DCDDE90320059990470298EC
:104B10000028EDD4049E706910B1301D00F0E4F956
:104B2000404600F0C3F8029901390829E0D8074649
:104B3000DFE801F014142C053E14142C050096F83F
:104B40002800039940F0010086F82800B16139443B
:104B500030463A463B46FFF74BFFC9E796F8280038
:104B6000039BB16940F0010086F8280019443046E3
:104B70003A46FFF73DFF0028BAD096F828004107D3
:104B80000BD400F0FE0086F828000DE096F828000F
:104B900000F0FE0086F82800AAE70398B1693A46BB
:104BA0000144304600F050F8316A304688479FE7AC
:104BB00096F828008107EBD4304600F01DFA97E7FD
:104BC00006B0BDE8F081000070B582B00E46044624
:104BD00000F07AFB01A800F069F8019919B101F021
:104BE0008BF802B070BD05464EB9A54207D301F05F
:104BF00083F820462946FFF749FF02B070BD4EB149
:104C000040F24450C2F2000000680068B0FA80F040
:104C1000420900E0002242F6B050C2F200000068F3
:104C2000611B00F037FA01F067F80028D9D14EF681
:104C30000450CEF200004FF080510160BFF34F8F5F
:104C4000BFF36F8F02B070BD70B5054680690E4628
:104C50000144284633461446FFF7CAFE002808BF21
:104C600070BD00BFA869296A064428468847A8691C
:104C70002246811928463346FFF7BAFE0028F1D1B3
:104C800070BD000040F23850C2F2000001680968AF
:104C900019B10068C068006801E04FF0FF3042F6CB
:104CA0005051C2F2000108607047000070B5044620
:104CB00000F07CFE40F22C56C2F200063168054638
:104CC000884203D200F008F8012000E000202060B4
:104CD0002846356070BD000010B540F23454C2F271
:104CE00000042068016849B1C0684FF0FF310068D6
:104CF000FFF7CCFE206801680029F5D140F244514D
:104D0000C2F200010A680860226010BD81B0002074
:104D100000904FF0100080F31188BFF36F8FBFF346
:104D20004F8F00BF00980028FCD001B070470000F2
:104D300082B001AC2046FFF737FD0199FFF744FF31
:104D4000FFF7C4FEF6E70000F0B581B0044600F0BE
:104D500035F994F94560012E0FDB04F1240500BFFD
:104D6000286850B1284600F057FF002818BF00F00F
:104D7000DBF9701E46B2002EF2DCFF2684F8456097
:104D800000F02CF900F01AF994F94470012F0EDBB1
:104D900004F11005286850B1284600F03DFF0028B6
:104DA00018BF00F0C1F9781E47B2002FF2DC84F87A
:104DB000446001B0BDE8F04000F010B92DE9F043C7
:104DC00081B0044600F080FA40F23C56C2F2000680
:104DD0003068002808BFFFF7F7FC3CB104F007007B
:104DE000A0F11101A14203D2002456E0002454E0B6
:104DF000201A00F1100101294FF000044DDB42F6AA
:104E00004458C2F20008D8F80090494545D842F607
:104E10007C50C2F2000007683D4655F8042F8A42D4
:104E200011D2386858B100BF38463F683D4655F842
:104E3000042F8A4207D23B68002BF5D103E042F6EB
:104E40007C50C2F2000033689F4225D004683B6862
:104E5000521A112A036004D3781842602960FFF7C0
:104E600095FD42F64C512868C2F200010B68A9EB8F
:104E700000029A42C8F8002038BF0A6040F00040A3
:104E800042F658512860C2F200010A680020083436
:104E90003860501C086000E0002400F02DFF204620
:104EA00001B0BDE8F083000040F23050C2F20000D3
:104EB000016819B101680A6D01320A65006870471E
:104EC000034644F60D50C0F600004FF0807C21F000
:104ED000010103E903106FF0020043F8240CA3F171
:104EE000440043F8202C7047D0E901230169936006
:104EF0004B68D0F808C08342CCF8042001D1826806
:104F00004A6000220261086801380860086870473A
:104F100042F6FC23C2F20003036042F6BC10C2F268
:104F200000000860502010607047000042F698436F
:104F3000C2F20003036042F65830C2F2000008607B
:104F40005020106070470000704700004FF0FF31A4
:104F5000024642F8081F00214260C0E903220160B6
:104F600070470000002101617047000080B5D1F852
:104F700000C01CF1010207D000F108039E465B68E7
:104F80001A686245FAD901E0D0F810E0DEF8042092
:104F90004A609160C1F808E0CEF804100861016829
:104FA0000131016080BD0000DFF80C00016841F4B0
:104FB00070010160704700BF88ED00E04FF0100005
:104FC00080F31188BFF36F8FBFF34F8F40F26C00F7
:104FD000C2F20000016801310160704740F26C00CC
:104FE000C2F2000001680139016018BF704700205B
:104FF00080F3118870470000B0B550B1044650F8F6
:10500000040CB0F1FF3FC8BFB0BDA4F1080529688A
:1050100001B1B0BD20F0004044F8040C00F054F998
:1050200042F64451C2F2000154F8040C0A681044DC
:1050300008602846FFF7AAFC42F65C50C2F2000066
:10504000016801310160BDE8B04000F055BE0000CC
:105050004EF21000CEF2000000210160816040F2AB
:105060001C01C2F20001096844F6D352C1F2620287
:10507000A1FB02124FF0FF3101EB921141600721B9
:105080000160704790F84610002908BFFFF7B4BFD1
:105090007047000070B515460E460446FFF78EFFB8
:1050A00094F84400FF2804BF002084F8440094F8DA
:1050B0004500FF2804BF002084F84500FFF78EFF5D
:1050C000A06B28B904F1240031462A4600F044F8C8
:1050D0002046BDE87040FFF737BE000010B540B174
:1050E000044600F0F1F820460021FFF7F1F900F046
:1050F00003FE4EF60450CEF200004FF080510160E6
:10510000BFF34F8FBFF36F8F10BD000042F65451B5
:10511000C2F200010968016042F6AC51C2F200011E
:10512000096841607047000042F6B850C2F20000C2
:10513000012101607047000010B50C4640F230516B
:10514000C2F2000109681831FFF710FF2046012163
:10515000BDE81040FFF7BCB910B540F2305CC2F2B8
:10516000000C86464068DCF80030002AD86183686D
:10517000DCF800402362DCF80030846803F1180397
:105180006360DCF8003003F118038360DCF8000092
:10519000C0F828E0DEF80030084603F1010318BF2C
:1051A0004FF0FF301146CEF80030BDE81040FFF759
:1051B0008FB9000070B5E8B1C26C0446C06A8A427B
:1051C00038BF0A46904208BF70BD216D012911D138
:1051D000A169E26200295CBFC2F13801A16140F21D
:1051E0004856616900EB8000C2F2000606EB8000C1
:1051F000814200D070BD251D2846FFF775FE42F69E
:10520000B811C2F20001E06A0A68904288BF0860E3
:1052100000EB800006EB80014A689368E3609368C6
:10522000A2605D609560616156F82010013146F81A
:10523000201070BDB0B586B0002505A804A903AA4A
:10524000CDE90455FFF764FEDDE90320059CCDE9B7
:10525000005044F63500C0F6000019A10023029466
:1052600000F066FB42F64851C2F20001086000B34C
:1052700000F0D6FD01281CD14FF0100080F31188FA
:10528000BFF36F8FBFF34F8F42F65050C2F2000052
:105290004FF0FF31016042F67850C2F20000012168
:1052A000016042F6AC50C2F200000021016000F043
:1052B00069F845F61870C0F60000006806B0B0BD89
:1052C00049444C450000000042F6B010C2F2000014
:1052D000016801310160704710B542F6B010C2F2AA
:1052E0000000006830B142F6B850C2F2000001215F
:1052F000016010BD42F6B850C2F20000002140F239
:1053000030540160C2F200042068006B0168B1F102
:10531000A53F0BD14168B1F1A53F07D18168B1F13B
:10532000A53F03D1C068B0F1A53F04D02068216833
:105330003431FFF709FE42F6B810C2F200000168EE
:1053400040F24853013101EB8102C2F2000303EB4A
:105350008202083252F81C3C143A002BA1F10101E0
:10536000F8D052F8043C5B68934242F8043C02D106
:105370005B6842F8043C52F8042CD2682260016059
:1053800010BD000010B54EF62054CEF20004206887
:1053900040F47F002060206840F07F402060FFF7ED
:1053A00057FE40F26C00C2F2000000210160FFF7DE
:1053B000FBFDD4F8140240F04040C4F81402FFF79B
:1053C00051FBFFF789FFFFF7A1FC002010BD000093
:1053D00080B54FF0100080F31188BFF36F8FBFF3DB
:1053E0004F8F00F0E9FA30B14EF60450CEF20000D3
:1053F0004FF080510160002080F3118880BD0000D3
:1054000010B502460120002100F018F80446FFF70D
:105410001FFA204610BD000010B582B00B4684462E
:10542000012000210022CDF800C000F02DF8044634
:10543000FFF70EFA204602B010BD0000F0B581B0B3
:10544000F8B105460E46A0FB0101D1B906FB05F0F7
:1054500010F1510F15D850301446FFF7AFFC074636
:1054600000284FF000000AD007F1500287F84600EC
:105470002846314623460097FFF7FAF9384601B02F
:10548000F0BD002001B0F0BDB0B582B01D460028CF
:105490004FF0000318BF002D02D1184602B0B0BD76
:1054A00011B90AB10023F8E711B10AB90023F4E7F2
:1054B000069B012485F846400095FFF7D9F92B4655
:1054C000EBE7000070B528B30446C06B10B30D467F
:1054D000216C0026A0FB010131BBFFF76FFD2068A6
:1054E000D4E90F12A66302FB0103013901FB02019B
:1054F000C4E90103FF20E16084F8440084F845001A
:1055000004F110004DB1FFF721FD04F12400FFF775
:105510001DFD06E00026304670BD016809B100F0AF
:105520007BFBFFF75BFD0126304670BD2DE9F04F98
:1055300083B01D46884604460292FFF73FFDA06BEC
:10554000022D56D0E16B884253D304F110074FF07F
:10555000000A6E460DF108094FF0000B0298002872
:1055600058D0BBF1000F04D13046FFF7CFFD4FF00C
:10557000010BFFF733FDFFF7A7FEFFF71FFD94F8C0
:105580004400FF2808BF84F844A094F84500FF2891
:1055900008BF84F845A0FFF721FD3046494600F0DA
:1055A00065F9D0BB2046FFF74FFAA8B102993846FB
:1055B000FFF7C2FD2046FFF7C7FB00F09DFB80B957
:1055C0004EF60450CEF200004FF080510160BFF360
:1055D0004F8FBFF36F8F04E02046FFF7B5FB00F05D
:1055E0008BFBFFF7EBFCA06B022D02D0E16B884236
:1055F000B4D2204641462A46FFF780F854F8240FDB
:1056000010B1204600F008FBFFF7E8FC012003B0D2
:10561000BDE8F08FFFF7E2FC04E02046FFF794FBC3
:1056200000F06AFB002003B0BDE8F08F2DE9F04FD9
:1056300083B0894604460292FFF7C0FCD4F838B024
:10564000BBF1000F13D020464946FFF745F8ABF1F8
:105650000100A06354F8100F10B1204600F0DCFAEE
:105660000124FFF7BBFC204603B0BDE8F08F04F136
:10567000240800256F4602AE4FF0000A11E000BF7B
:105680002046FFF761FB00F037FB2046FFF7D0F91B
:1056900000284ED1FFF792FCD4F838B0BBF1000FD0
:1056A000D1D10298002842D0BAF1000F04D1384677
:1056B000FFF72CFD4FF0010AFFF790FCFFF704FE07
:1056C000FFF77CFC94F84400FF2808BF84F844509E
:1056D00094F84500FF2808BF84F84550FFF77EFC8A
:1056E0003846314600F0C2F80028C9D12046FFF7FD
:1056F0009FF9B0B102994046FFF71EFD2046FFF723
:1057000023FB00F0F9FA0028C4D14EF60450CEF283
:1057100000004FF080510160BFF34F8FBFF36F8FD8
:10572000B8E72046FFF710FB00F0E6FAB2E70024E6
:1057300097E7002497E700002DE9F04F83B0044677
:105740000291FFF73BFCA06B70B10138A0632068A9
:1057500010B9FFF7A9FBA06054F8100F10B1204654
:1057600000F05AFA012478E004F1240900256E467D
:1057700002AF4FF0805B4FF0000A4FF000080EE0E0
:105780002046FFF7E1FA00F0B7FA2046FFF750F99C
:10579000002853D1FFF712FCA06B0028D5D1029846
:1057A000002859D0BAF1000F04D13046FFF7AEFC03
:1057B0004FF0010AFFF712FCFFF786FDFFF7FEFB33
:1057C00094F84400FF2808BF84F8445094F845003A
:1057D000FF2808BF84F84550FFF700FC30463946E3
:1057E00000F044F80028CBD12046FFF721F9F8B1AA
:1057F000206838B9FFF7E2FBA06800F0B9F98046ED
:10580000FFF7ECFB02994846FFF796FC2046FFF7AE
:105810009BFA00F071FA0028BCD14EF60450CEF28B
:105820000000C0F800B0BFF34F8FBFF36F8FB1E738
:105830002046FFF789FA00F05FFAABE7B8F1000FF6
:1058400011D0FFF7BBFB2046FEF7A4FFA16802467C
:1058500008461146FFF7AEFC0024FFF7BFFB2046C9
:1058600003B0BDE8F08F0024F9E70000B0B50C46A6
:105870000546FFF7A3FB42F6AC50C2F200000168F8
:105880002068421C0FD042F654536A68C2F20003EB
:10589000D3F800C0914208D32B689C4505D0002066
:1058A000206001240EE000240CE0891A884206D909
:1058B000401A20602846FFF729FC002402E000205F
:1058C00020600124FFF78AFB2046B0BD2DE9F04F90
:1058D00083B007469000984615468946FFF76EFA52
:1058E00008B306465C20FFF769FAC8B1DDE90CBAD7
:1058F0005C210446FAF70FFD0020266384F8590066
:10590000384649462A464346CDE900BA0294FEF796
:10591000BFFF2046FEF72CFE012003B0BDE8F08F4C
:105920003046FFF769FB4FF0FF3003B0BDE8F08F62
:105930002DE9F04784B00D9DEDB10E9EDEB10F460E
:105940000446DDF830A030465C2198469146FAF7CF
:10595000E2FC0220356386F8590003A8CDE900A0D7
:10596000204639464A4643460296FEF791FF3046A6
:10597000FEF7FEFD01E000200390039804B0BDE8AF
:10598000F087000042F67850C2F20000006800285C
:1059900004BF0120704742F6B010C2F20000006858
:1059A000B0FA80F0400940007047000042F6AC5069
:1059B000C2F20000006870472DE9F04742F6B010CF
:1059C000C2F20000006848B142F66050C2F2000026
:1059D0000168013101600020BDE8F08742F6AC505B
:1059E000C2F20000016840F2385911F1010AC2F216
:1059F0000009C0F800A012D340F24051C2F20001E9
:105A0000D9F800000A68C9F80020086042F654502E
:105A1000C2F20000016801310160FFF733F942F67C
:105A2000505CC2F2000CDCF80000824502D200207B
:105A3000BDE8F087D9F800000068002854D042F68D
:105A4000B81E40F248534FF00008C2F2000EC2F2F6
:105A5000000320E0C0F82880316801393160C66A4F
:105A6000DEF800108E4206EB860188BFCEF800609B
:105A700003EB81046568AE68C660AE6885607260DD
:105A8000AA60446153F82100013043F82100D9F89D
:105A90000000006840B3D9F80000C068C068024642
:105AA00052F8046FB24526D3D0E902714669B96055
:105AB0007168C56891426F6001D1C1687160C0F8BA
:105AC0001480316801393160866A002EC7D0D0E970
:105AD000071500F118078D607568046ABD426160A2
