:020000040800F2
:10000000A03300203D020008450200084702000816
:10001000490200084B0200084D02000800000000E1
:10002000000000000000000000000000213E000869
:100030005102000800000000713D0008453E000824
:10004000570200085702000857020008570200082C
:100050005702000857020008713100083D320008BD
:100060004932000855320008613200085702000882
:1000700057020008570200085702000857020008FC
:1000800057020008570200085702000857020008EC
:100090005702000857020008570200086D32000896
:1000A00057020008570200085702000857020008CC
:1000B00057020008570200085702000857020008BC
:1000C00057020008570200085702000857020008AC
:1000D00057020008793E000857020008570200083E
:1000E0007D31000857020008570200085702000837
:1000F000570200085702000857020008570200087C
:10010000570200080000000000000000570200082D
:10011000570200085702000857020008570200085B
:10012000570200085702000857020008570200084B
:1001300057020008570200080000000000000000FD
:10014000570200085702000857020008000000008C
:10015000000000000000000000000000000000009F
:10016000570200085702000857020008570200080B
:1001700057020008570200085702000857020008FB
:1001800057020008570200080000000000000000AD
:100190005702000800F002F800F03CF80AA090E8CE
:1001A000000C82448344AAF10107DA4501D100F032
:1001B00031F8AFF2090EBAE80F0013F0010F18BFC3
:1001C000FB1A43F001031847205E0000405E000068
:1001D000103A24BF78C878C1FAD8520724BF30C873
:1001E00030C144BF04680C60704700000023002445
:1001F00000250026103A28BF78C1FBD8520728BF37
:1002000030C148BF0B6070471FB505F0B9FE1FBD78
:1002100010B510BD00F0FDF8114603B403F0EEFF79
:1002200003BCFFF7F1FF03F0EBFF00F017F903B495
:10023000FFF7EEFF03BC00F01FF9000009488047FC
:1002400009480047FEE7FEE7FEE7FEE7FEE7FEE7B8
:10025000FEE7FEE7FEE7FEE704480549054A064BD0
:1002600070470000653E000895010008A02D0020A1
:10027000A0330020A02F0020A02F0020032A40F24E
:10028000308010F0030C00F0158011F8013BBCF138
:10029000020F624498BF11F801CB00F8013B38BF50
:1002A00011F8013BA2F1040298BF00F801CB38BF5E
:1002B00000F8013B11F0030300F05280083AC0F04F
:1002C000088051F8043B083A51F804CBA0E8081024
:1002D000F5E7121D5CBF51F8043B40F8043BAFF357
:1002E0000080D20724BF11F8013B11F801CB48BFB1
:1002F00011F8012B24BF00F8013B00F801CB48BFE7
:1003000000F8012B704702F0FF0343EA032242EAA0
:10031000024200F059B84FF000020429C0F01280E8
:1003200010F0030C00F05080CCF1040CBCF1020F73
:1003300018BF00F8012BA8BF20F8022BA1EB0C017D
:1003400000F042B85FEAC17C24BF00F8012B00F83E
:10035000012B48BF00F8012B70477047704770476A
:1003600010B5203AC0F00B80B1E81850A0E8185042
:10037000B1E81850A0E81850203ABFF4F5AF5FEA92
:10038000027C24BFB1E81850A0E8185044BF18C937
:1003900018C0BDE810405FEA827C24BF51F8043BDE
:1003A00040F8043B08BF7047D20728BF31F8023B32
:1003B00048BF11F8012B28BF20F8023B48BF00F8C6
:1003C000012B70474FF0000200B513469446964645
:1003D000203922BFA0E80C50A0E80C50B1F1200158
:1003E000BFF4F7AF090728BFA0E80C5048BF0CC006
:1003F0005DF804EB890028BF40F8042B08BF704764
:1004000048BF20F8022B11F0804F18BF00F8012BD5
:100410007047754600F02CF8AE4605006946534615
:1004200020F00700854618B020B5FFF715FFBDE89E
:1004300020404FF000064FF000074FF000084FF04B
:10044000000BAC46ACE8C009ACE8C009ACE8C00998
:10045000ACE8C00921F007018D46704710B504468D
:10046000AFF300802046BDE81040FFF7E0BE00007B
:10047000004870475000002001491820ABBEFEE73D
:10048000260002007047000084B040F20050C0F225
:100490000110039040F60250C0F20410029003A82D
:1004A00002F032FF02A802F02FFF40F28416C2F2DF
:1004B00000060DF10704B51C0BE000BF9DF8070016
:1004C00000284FF0000008BF781C3080C82004F0DE
:1004D00023FD02200D21224602F07CFF37880F2FDA
:1004E000ECD1002005210122002702F0C3FF1020DB
:1004F0002946022202F05CFD3780DFE782B040F23D
:10050000B01540F2B43600200DF10704C2F2000528
:10051000C2F200068DF80700204601F009FC03280E
:1005200009D100BF4FF4FA7004F0F6FC204601F048
:10053000FFFB0328F6D09DF807004101695805EB41
:1005400040103170D0E901107170B070EAE700001E
:1005500084B04FF4FA7004F0DFFC0FA0D0E9010181
:1005600040F2000503910C4940F2AC36C2F200059E
:10057000C2F2000601ACCDE9011000BFA8783070CE
:10058000E87870702879B070204601F01FFE4FF4B3
:100590007A7004F0C1FCF1E70000030000020000E3
:1005A000AC03002080B546F20C6CC4F2000C5CF881
:1005B0000C3C014643F001004CF80C0C0B780D2B61
:1005C00000F27381B1FA81F04009DFE813F00E0008
:1005D0007001B601FC01560042028802CE021803E7
:1005E0009C006203E6002A01AC03DCF8102022F034
:1005F0000102CCF810208B78012B00F0AC84002B8A
:1006000041F070825CF8082C22F001024CF8082CB2
:10061000CB78012B00F01A86002B41F06382DCF8C6
:10062000002022F00102CCF800200A79DCF8083022
:1006300062F30003CCF808304B78012B01F0C18045
:10064000002B41F04F82DCF83420D1E9023E92B217
:10065000DCF8341042EA43121143CCF83410DCF8D1
:1006600034104FF6FF729143DCF8342041EA4E51CA
:100670001143CCF8341001F035BADCF8102022F028
:100680001002CCF810208B78012B00F09083002B07
:1006900040F0C2865CF8082C22F010024CF8082CBE
:1006A000CB78012B00F0E785002B40F0B586DCF815
:1006B000002022F01002CCF800200A79DCF8083083
:1006C00062F30413CCF808304B78012B01F09080D2
:1006D000002B40F0A186DCF85420D1E9023E92B212
:1006E000DCF8541042EA43121143CCF85410DCF801
:1006F00054104FF6FF729143DCF8542041EA4E51FA
:10070000114300F087BEDCF8102022F40072CCF810
:1007100010208B78012B00F07283002B40F096861E
:100720005CF8082C22F400724CF8082CCB78012BD2
:1007300000F0B785002B40F08986DCF8002022F419
:100740000072CCF800200A79DCF8083002F00102CF
:1007500023F4007343EA4222CCF808204B78012BA3
:1007600001F05F80002B40F07186DCF87C20D1E93D
:10077000023E92B2DCF87C1042EA43121143CCF8FC
:100780007C10DCF87C104FF6FF729143DCF87C2083
:1007900041EA4E51114300F057BE8B78012B00F017
:1007A0005A83002B40F06C865CF8082C22F400621F
:1007B0004CF8082CCB78012B00F08D85002B40F0F5
:1007C0005F86DCF8002022F40062CCF800200A7971
:1007D000DCF8083002F0010223F4006343EAC2228D
:1007E000CCF808204B78012B01F03480002B40F02E
:1007F0004786DCF88C20D1E9023E92B2DCF88C10FE
:1008000042EA43121143CCF88C10DCF88C104FF6FE
:10081000FF729143DCF88C2041EA4E51114300F005
:100820002DBE8B78012B00F04283002B40F04A86CE
:100830005CF8082C22F480524CF8082CCB78012B61
:1008400000F06385002B40F03D86DCF8002022F4A8
:100850008052CCF800200A79DCF8083002F001025E
:1008600023F4805343EA0232CCF808204B78012B62
:1008700001F00980002B40F02586DCF89420D1E9B6
:10088000023E92B2DCF8941042EA43121143CCF8D3
:100890009410DCF894104FF6FF729143DCF894202A
:1008A00041EA4E51114300F00BBE022080BDDCF83E
:1008B000102022F00202CCF810208B78012B00F0DF
:1008C0007583002B40F044865CF8082C22F002026D
:1008D0004CF8082CCB78012B00F03185002B40F030
:1008E0003786DCF8002022F00202CCF800200A79DA
:1008F000DCF8083062F34103CCF808304B78012B68
:1009000000F0DA87002B40F02386DCF83C20D1E9A8
:10091000023E92B2DCF83C1042EA43121143CCF89A
:100920003C10DCF83C104FF6FF729143DCF83C20A1
:1009300041EA4E51114300F009BEDCF8102022F0CC
:100940000402CCF810208B78012B00F0DC82002B05
:1009500040F0D6855CF8082C22F004024CF8082CF4
:10096000CB78012B00F00185002B40F0C985DCF825
:10097000002022F00402CCF800200A79DCF80830CC
:1009800062F38203CCF808304B78012B00F0AD877E
:10099000002B40F0B585DCF84420D1E9023E92B24C
:1009A000DCF8441042EA43121143CCF84410DCF85E
:1009B00044104FF6FF729143DCF8442041EA4E5157
:1009C000114300F09BBDDCF8102022F00802CCF8A7
:1009D00010208B78012B00F01183002B40F0CE8586
:1009E0005CF8082C22F008024CF8082CCB78012B7C
:1009F00000F0D184002B40F0C185DCF8002022F00B
:100A00000802CCF800200A79DCF8083062F3C3034E
:100A1000CCF808304B78012B00F08087002B40F099
:100A2000AD85DCF84C20D1E9023E92B2DCF84C10E6
:100A300042EA43121143CCF84C10DCF84C104FF64C
:100A4000FF729143DCF84C2041EA4E51114300F013
:100A500093BDDCF8102022F02002CCF810208B7817
:100A6000012B00F0F382002B40F032865CF8082C5A
:100A700022F020024CF8082CCB78012B00F09D8549
:100A8000002B40F02586DCF8002022F02002CCF874
:100A900000200A79DCF8083062F34513CCF80830FE
:100AA0004B78012B00F05387002B40F01186DCF8C7
:100AB0005C20D1E9023E92B2DCF85C1042EA4312BB
:100AC0001143CCF85C10DCF85C104FF6FF729143D8
:100AD000DCF85C2041EA4E51114300F0F7BDDCF830
:100AE000102022F04002CCF810208B78012B00F06F
:100AF000D582002B40F002865CF8082C22F04002E0
:100B00004CF8082CCB78012B00F06D85002B40F0C1
:100B1000F585DCF8002022F04002CCF800200A79AC
:100B2000DCF8083062F38613CCF808304B78012BE0
:100B300000F02687002B40F0E185DCF86420D1E945
:100B4000023E92B2DCF8641042EA43121143CCF840
:100B50006410DCF864104FF6FF729143DCF86420F7
:100B600041EA4E51114300F0C7BDDCF8102022F0DD
:100B70008002CCF810208B78012B00F0B782002B7C
:100B800040F016855CF8082C22F080024CF8082C06
:100B9000CB78012B00F01584002B40F00985DCF8A0
:100BA000002022F08002CCF800200A79DCF808301E
:100BB00002F0010223F0800343EAC212CCF80820BD
:100BC0004B78012B00F0F586002B40F0F184DCF827
:100BD0006C20D1E9023E92B2DCF86C1042EA43127A
:100BE0001143CCF86C10DCF86C104FF6FF72914397
:100BF000DCF86C2041EA4E51114300F0D7BCDCF820
:100C0000102022F48072CCF810208B78012B00F099
:100C10009982002B40F08C855CF8082C22F48072BD
:100C20004CF8082CCB78012B00F0F384002B40F01B
:100C30007F85DCF8002022F48072CCF800200A794D
:100C4000DCF8083002F0010223F4807343EA022248
:100C5000CCF808204B78012B00F0C486002B40F024
:100C60006785DCF87420D1E9023E92B2DCF874109A
:100C700042EA43121143CCF87410DCF874104FF6BA
:100C8000FF729143DCF8742041EA4E51114300F0A9
:100C90004DBDDCF8102022F48062CCF810208B7857
:100CA000012B00F07B82002B40F05C855CF8082C67
:100CB00022F480624CF8082CCB78012B00F0C3841E
:100CC000002B40F04F85DCF8002022F48062CCF845
:100CD00000200A79DCF8083002F0010223F4806376
:100CE00043EA8222CCF808204B78012B00F093864F
:100CF000002B40F03785DCF88420D1E9023E92B227
:100D0000DCF8841042EA43121143CCF88410DCF87A
:100D100084104FF6FF729143DCF8842041EA4E5173
:100D2000114300F01DBD8B78012B00F06382002B76
:100D300040F03A855CF8082C22F400524CF8082C5C
:100D4000CB78012B00F09984002B40F02D85DCF846
:100D5000002022F40052CCF800200A79DCF8083098
:100D600002F0010223F4005343EA4232CCF8082097
:100D70004B78012B00F06886002B40F01585DCF8DD
:100D80009C20D1E9023E92B2DCF89C1042EA431268
:100D90001143CCF89C10DCF89C104FF6FF72914385
:100DA000DCF89C2041EA4E51114300F0FBBCDCF81A
:100DB000002042F01002CCF80020CB78012B00F08C
:100DC0001A83002B40F02883DCF8002022F0100268
:100DD000CCF800200A79DCF8083062F30413CCF870
:100DE00008304B78012B00F04886002B40F014832C
:100DF000DCF85420896892B242EA41110AE3DCF837
:100E0000002042F40072CCF80020CB78012B00F0D7
:100E10000883002B40F01A83DCF8002022F40072D3
:100E2000CCF800200A79DCF8083002F0010223F443
:100E3000007343EA4222CCF808204B78012B00F0E3
:100E40002586002B40F00283DCF87C20896892B272
:100E500042EA4111F8E2DCF8002042F40062CCF8EA
:100E60000020CB78012B00F0F682002B40F00883A5
:100E7000DCF8002022F40062CCF800200A79DCF8CB
:100E8000083002F0010223F4006343EAC222CCF8E6
:100E900008204B78012B00F00286002B40F0F082F6
:100EA000DCF88C20896892B242EA4111E6E2DCF873
:100EB000002042F48052CCF80020CB78012B00F0C7
:100EC000EC82002B40F0FE82DCF8002022F48052FD
:100ED000CCF800200A79DCF8083002F0010223F493
:100EE000805343EA0232CCF808204B78012B00F003
:100EF000DF85002B40F0E682DCF89420896892B20E
:100F000042EA4111DCE2DCF8002042F00402CCF8B5
:100F10000020CB78012B00F0E282002B40F0F08221
:100F2000DCF8002022F00402CCF800200A79DCF87A
:100F3000083062F38203CCF808304B78012B00F0C4
:100F4000C085002B40F0DC82DCF84420896892B236
:100F500042EA4111D2E2DCF8002042F00102CCF872
:100F60000020CB78012B00F0D082002B40F0BA8516
:100F7000DCF8002022F00102CCF800200A79DCF82D
:100F8000083062F30003CCF808304B78012B00F0F6
:100F9000A185002B40F0A685DCF83420896892B248
:100FA00042EA4111CCF8341000F09CBDDCF800207E
:100FB00042F00202CCF80020CB78012B00F0B7827F
:100FC000002B40F0C582DCF8002022F00202CCF8B1
:100FD00000200A79DCF8083062F34103CCF80830CD
:100FE0004B78012B00F08B85002B40F0B182DCF8B0
:100FF0003C20896892B242EA4111A7E2DCF8002065
:1010000042F00802CCF80020CB78012B00F0A5823A
:10101000002B40F0B382DCF8002022F00802CCF86C
:1010200000200A79DCF8083062F3C303CCF80830FA
:101030004B78012B00F06C85002B40F09F82DCF890
:101040004C20896892B242EA411195E2DCF8002016
:1010500042F02002CCF80020CB78012B00F027834F
:10106000002B40F03583DCF8002022F02002CCF881
:1010700000200A79DCF8083062F34513CCF8083018
:101080004B78012B00F04D85002B40F02183DCF8DC
:101090005C20896892B242EA411117E3DCF8002033
:1010A00042F04002CCF80020CB78012B00F01583F1
:1010B000002B40F02383DCF8002022F04002CCF823
:1010C00000200A79DCF8083062F38613CCF8083087
:1010D0004B78012B00F02E85002B40F00F83DCF8BD
:1010E0006420896892B242EA411105E3DCF80020ED
:1010F00042F08002CCF80020CB78012B00F0438234
:10110000002B40F05582DCF8002022F08002CCF861
:1011100000200A79DCF8083002F0010223F0800395
:1011200043EAC212CCF808204B78012B00F00A8564
:10113000002B40F03D82DCF86C20896892B242EAD4
:10114000411133E2DCF8002042F48072CCF8002038
:10115000CB78012B00F0D782002B40F0E982DCF83D
:10116000002022F48072CCF800200A79DCF80830E4
:1011700002F0010223F4807343EA0222CCF8082033
:101180004B78012B00F0E784002B40F0D182DCF893
:101190007420896892B242EA4111C7E2DCF800206B
:1011A00042F48062CCF80020CB78012B00F0C5829D
:1011B000002B40F0D782DCF8002022F48062CCF8CB
:1011C00000200A79DCF8083002F0010223F4806381
:1011D00043EA8222CCF808204B78012B00F0C4842B
:1011E000002B40F0BF82DCF88420896892B242EA8A
:1011F0004111B5E2DCF8002042F40052CCF80020A6
:10120000CB78012B00F0BB82002B40F0CD82DCF8C4
:10121000002022F40052CCF800200A79DCF80830D3
:1012200002F0010223F4005343EA4232CCF80820D2
:101230004B78012B00F0A184002B40F0B582DCF844
:101240009C20896892B242EA4111ABE2DCF80020AE
:1012500042F00102CCF800200A79DCF8083062F391
:101260000003CCF80830D1E902215205CCF8342033
:10127000490500F035BCDCF8002042F01002CCF843
:1012800000200A79DCF8083062F30413CCF8083047
:10129000D1E9022152054905CCF85420CCF8581068
:1012A000BAE0DCF8002042F40072CCF800200A79A1
:1012B000DCF8083002F0010223F4007343EA422212
:1012C000CCF80820D1E9022152054905CCF87C2050
:1012D000CCF88010BAE0DCF8002042F40062CCF8D0
:1012E00000200A79DCF8083002F0010223F40063E0
:1012F00043EAC222CCF80820D1E90221520549056F
:10130000CCF88C20CCF89010BAE0DCF8002042F445
:101310008052CCF800200A79DCF8083002F0010293
:1013200023F4805343EA0232CCF80820D1E90221A9
:1013300052054905CCF89420CCF89810C2E0DCF8AE
:10134000002042F00202CCF800200A79DCF80830D4
:1013500062F34103CCF80830D1E902215205490576
:10136000CCF83C20CCF84010F2E0DCF8002042F051
:101370000402CCF800200A79DCF8083062F382031A
:10138000CCF80830D1E9022152054905CCF84420B7
:10139000CCF84810B4E0DCF8002042F00802CCF8A9
:1013A00000200A79DCF8083062F3C303CCF8083077
:1013B000D1E9022152054905CCF84C20CCF8501057
:1013C000DCE0DCF8002042F08002CCF800200A7952
:1013D000DCF8083002F0010223F0800343EAC21275
:1013E000CCF80820D1E9022152054905CCF86C203F
:1013F000CCF87010DCE0DCF8002042F01002CCF8F1
:1014000000200A79DCF8083062F30413CCF80830C5
:1014100089684905CCF85410DCF8101041F010012F
:1014200064E3DCF8002042F40072CCF800200A7972
:10143000DCF8083002F0010223F4007343EA422290
:10144000CCF8082089684905CCF87C10DCF810102D
:1014500041F400714AE3DCF8002042F40062CCF869
:1014600000200A79DCF8083002F0010223F400635E
:1014700043EAC222CCF8082089684905CCF88C10D0
:101480005CF80C1C21F001014CF80C1CDCF810106D
:1014900041F40061CCF8101080BDDCF8002042F46B
:1014A0008052CCF800200A79DCF8083002F0010202
:1014B00023F4805343EA0232CCF8082089684905B6
:1014C000CCF894105CF80C1C21F001014CF80C1CB9
:1014D000DCF8101041F48051CCF8101080BDDCF81D
:1014E000002042F00402CCF800200A79DCF8083031
:1014F00062F38203CCF8083089684905CCF84410BF
:10150000DCF8101041F00401F0E2DCF8002042F0B9
:101510000102CCF800200A79DCF8083062F30003FD
:10152000CCF8083089684905CCF83410D8E2DCF8EA
:10153000002042F00202CCF800200A79DCF80830E2
:1015400062F34103CCF8083089684905CCF83C10B7
:10155000DCF8101041F00201C8E2DCF8002042F093
:101560000802CCF800200A79DCF8083062F3C303E3
:10157000CCF8083089684905CCF84C10DCF810101C
:1015800041F00801B2E2DCF8002042F08002CCF821
:1015900000200A79DCF8083002F0010223F0800311
:1015A00043EAC212CCF8082089684905CCF86C10CF
:1015B000DCF8101041F0800198E2DCF8002042F0E5
:1015C0002002CCF800200A79DCF8083062F34513D9
:1015D000CCF80830D1E9022152054905CCF85C204D
:1015E000CCF8601074E0DCF8002042F04002CCF847
:1015F00000200A79DCF8083062F38613CCF8083052
:10160000D1E9022152054905CCF86420CCF86810D4
:1016100074E0DCF8002042F48072CCF800200A79F3
:10162000DCF8083002F0010223F4807343EA02225E
:10163000CCF80820D1E9022152054905CCF87420E4
:10164000CCF8781074E0DCF8002042F48062CCF82A
:1016500000200A79DCF8083002F0010223F48063EC
:1016600043EA8222CCF80820D1E90221520549053B
:10167000CCF88420CCF8881074E0DCF8002042F428
:101680000052CCF800200A79DCF8083002F00102A0
:1016900023F4005343EA4232CCF80820D1E9022176
:1016A00052054905CCF89C20CCF8A0107CE0DCF871
:1016B000002042F02002CCF800200A79DCF8083043
:1016C00062F34513CCF8083089684905CCF85C1002
:1016D000DCF8101041F0200108E2DCF8002042F0B4
:1016E0004002CCF800200A79DCF8083062F3861357
:1016F000CCF8083089684905CCF86410DCF8101083
:1017000041F04001F2E1DCF8002042F48072CCF8B4
:1017100000200A79DCF8083002F0010223F480731B
:1017200043EA0222CCF8082089684905CCF87410F5
:10173000DCF8101041F48071D8E1DCF8002042F4AC
:101740008062CCF800200A79DCF8083002F001024F
:1017500023F4806343EA8222CCF808208968490593
:10176000CCF884105CF80C1C21F001014CF80C1C26
:10177000DCF8101041F48061CCF8101080BDDCF86A
:10178000002042F40052CCF800200A79DCF808303E
:1017900002F0010223F4005343EA4232CCF808205D
:1017A00089684905CCF89C105CF80C1C21F00101FB
:1017B0004CF80C1CDCF8101041F40051CCF810105F
:1017C00080BDDCF83420D1E9023E92B2DCF838105A
:1017D00042EA43121143CCF83810DCF834104FF6CB
:1017E000FF729143DCF8382041EA4E51114377E112
:1017F000DCF85420D1E9023E92B2DCF8581042EAFB
:1018000043121143CCF85810DCF854104FF6FF7215
:101810009143DCF8582041EA4E511143CCF858105E
:10182000FAE5DCF87C20D1E9023E92B2DCF88010C7
:1018300042EA43121143CCF88010DCF87C104FF6DA
:10184000FF729143DCF8802041EA4E511143CCF8FD
:101850008010FBE5DCF88C20D1E9023E92B2DCF886
:10186000901042EA43121143CCF89010DCF88C102F
:101870004FF6FF729143DCF8902041EA4E5111433C
:10188000CCF89010FCE5DCF89420D1E9023E92B24D
:10189000DCF8981042EA43121143CCF89810DCF8B7
:1018A00094104FF6FF729143DCF8982041EA4E51B4
:1018B0001143CCF8981005E6DCF83C20D1E9023E53
:1018C00092B2DCF8401042EA43121143CCF84010C7
:1018D000DCF83C104FF6FF729143DCF8402041EAFF
:1018E0004E511143CCF8401032E6DCF84420D1E9E7
:1018F000023E92B2DCF8481042EA43121143CCF89F
:101900004810DCF844104FF6FF729143DCF8482091
:1019100041EA4E511143CCF84810F1E5DCF84C2077
:10192000D1E9023E92B2DCF8501042EA4312114370
:10193000CCF85010DCF84C104FF6FF729143DCF8F5
:10194000502041EA4E511143CCF8501016E6DCF815
:101950005C20D1E9023E92B2DCF8601042EA431208
:101960001143CCF86010DCF85C104FF6FF72914325
:10197000DCF8602041EA4E511143CCF86010A7E634
:10198000DCF86420D1E9023E92B2DCF8681042EA49
:1019900043121143CCF86810DCF864104FF6FF7264
:1019A0009143DCF8682041EA4E511143CCF86810AD
:1019B000A4E6DCF86C20D1E9023E92B2DCF87010AB
:1019C00042EA43121143CCF87010DCF86C104FF669
:1019D000FF729143DCF8702041EA4E511143CCF87C
:1019E0007010E5E5DCF87420D1E9023E92B2DCF833
:1019F000781042EA43121143CCF87810DCF87410E6
:101A00004FF6FF729143DCF8782041EA4E511143C2
:101A1000CCF878108CE6DCF88420D1E9023E92B252
:101A2000DCF8881042EA43121143CCF88810DCF845
:101A300084104FF6FF729143DCF8882041EA4E5142
:101A40001143CCF888108DE6DCF89C20D1E9023EE9
:101A500092B2DCF8A01042EA43121143CCF8A01075
:101A6000DCF89C104FF6FF729143DCF8A02041EAAD
:101A70004E511143CCF8A01096E6DCF8542089684A
:101A800092B242EA4111CCF85810C5E4DCF87C204F
:101A9000896892B242EA4111CCF88010D6E4DCF8B1
:101AA0008C20896892B242EA4111CCF89010E7E4A8
:101AB000DCF89420896892B242EA4111CCF898107F
:101AC00000E5DCF84420896892B242EA4111CCF882
:101AD000481015E5DCF83420896892B242EA4111D9
:101AE000CCF83810DCF8101041F00101CCF81010DF
:101AF0005CF80C1C21F001014CF80C1C80BDDCF8DA
:101B00003C20896892B242EA4111CCF840101FE5AE
:101B1000DCF84C20896892B242EA4111CCF85010AE
:101B20002CE5DCF85C20896892B242EA4111CCF8DD
:101B30006010CDE5DCF864208968C2EA4151CCF838
:101B40006810DBE5DCF86C20896892B242EA41114A
:101B5000CCF870102CE5DCF87420896892B242EA67
:101B60004111CCF87810E3E5DCF88420896892B262
:101B700042EA4111CCF88810F4E5DCF89C20896831
:101B800092B242EA4111CCF8A0100DE680B546F2BF
:101B90001442C4F2000252F8143C014643F0010022
:101BA00042F8140C52F8100CC00704BF52F8100C85
:101BB0005FEAC07007D152F8100CC00703D152F889
:101BC000100CC007EED052F8143CB1FA81F0400975
:101BD00023F0020342F8143C52F8103C9B0744BF28
:101BE00052F8103C5FEA837307D552F8103C9B070C
:101BF00003D552F8103C9B07EED44B7952F814CC25
:101C000003F0010E2CF4803343EA0E4342F8143CF7
:101C100091F802C052F8143C6CF3451342F8143C9E
:101C200091F803C052F8143C6CF3861342F8143C4C
:101C300091F801C052F8143C6CF3041342F8143CC0
:101C400091F800C052F8143C6CF3C30342F8143C02
:101C50000B7952F814CC03F0010E2CF0800343EA08
:101C6000CE1342F8143CD2F870319BB2C2F87031F6
:101C700091F806C052F8143C6CF3820342F8143C0D
:101C80008968936861F31D039360116821F4806192
:101C90001160116821F400711160116821F4004194
:101CA0001160116821F480711160116821F0040144
:101CB0001160116821F020011160116821F002010A
:101CC0001160116821F010011160116821F0080104
:101CD0001160116821F040011160116821F4006168
:101CE0001160116821F400311160116821F00101C7
:101CF0001160116821F48031116052F8141C21F038
:101D0000010142F8141C04E052F8101CC90708BF76
:101D100080BD52F8101CC90708D052F8101CC90722
:101D20001CBF52F8101C5FEAC171EDD180BD0000EC
:101D300070B546F2B4514FF6586EC4F20001CFF6BA
:101D4000FF7E51F80E204FF65C6C9207CFF6FF7CB9
:101D500004D151F80C20920700F036820A68120A6A
:101D6000027051F80E20B0FA80F092074FEA50103E
:101D700000F0128140F2B0134FF4FF52C2F20003A0
:101D800011E0240E0E6802EAD6061E4446F82540ED
:101D900051F80E4044F0200441F80E4051F80E4036
:101DA000A40700F0F9800C6804F00F04013C072C34
:101DB000EED8DFE804F03B3F4A5D7697C0044C68FC
:101DC0000D68E4B202EAD5055C514C68C4F30724FF
:101DD0000D6802EAD5051D446C604C68C4F30744E5
:101DE0000D6802EAD5051D44AC604C680D68240EF0
:101DF00002EAD5051D44EC608C680D68E4B202EA85
:101E0000D5051D442C618C68C4F307240D6802EAD3
:101E1000D5051D446C618C68C4F307440D6802EA63
:101E2000D5051D44AC618C680725AAE74C680025E0
:101E3000E4B2A7E74C680D68E4B202EAD5055C514C
:101E40004C680125C4F307249CE74C680D68E4B294
:101E500002EAD5055C514C68C4F307240D6802EA18
:101E6000D5051D446C604C680225C4F3074489E71E
:101E70004C680D68E4B202EAD5055C514C68C4F3C5
:101E800007240D6802EAD5051D446C604C68C4F354
:101E900007440D6802EAD5051D44AC604C68032573
:101EA0006FE74C680D68E4B202EAD5055C514C68F6
:101EB000C4F307240D6802EAD5051D446C604C6824
:101EC000C4F307440D6802EAD5051D44AC604C68B4
:101ED0000D68240E02EAD5051D44EC608C680425CB
:101EE000E4B24FE74C680D68E4B202EAD5055C51F4
:101EF0004C68C4F307240D6802EAD5051D446C60E4
:101F00004C68C4F307440D6802EAD5051D44AC6073
:101F10004C680D68240E02EAD5051D44EC608C68FF
:101F20000D68E4B202EAD5051D442C618C680525D4
:101F3000C4F3072426E74C680D68E4B202EAD5052D
:101F40005C514C68C4F307240D6802EAD5051D44B2
:101F50006C604C68C4F307440D6802EAD5051D4463
:101F6000AC604C680D68240E02EAD5051D44EC6097
:101F70008C680D68E4B202EAD5051D442C618C68BA
:101F8000C4F307240D6802EAD5051D446C618C6812
:101F90000625C4F30744F5E651F80C20920708BF64
:101FA00070BD40F2B0134FF4FF52C2F2000311E0D3
:101FB000340E0E6902EAD6061E4446F8254051F852
:101FC0000C6046F0200641F80C6051F80C60B60732
:101FD00000F0F9800E6906F00F06751E072DEED889
:101FE000DFE805F03B3F4A5D7697C0044E690D6916
:101FF000F6B202EAD5055E514E69C6F307260D69B1
:1020000002EAD5051D446E604E69C6F307460D69A8
:1020100002EAD5051D44AE604E690D69360E02EA2E
:10202000D5051D44EE608E690D69F6B202EAD5054C
:102030001D442E618E69C6F307260D6902EAD50597
:102040001D446E618E69C6F307460D6902EAD50527
:102050001D44AE618E690725AAE74E690025F4B2DA
:10206000A7E74E690D69F6B202EAD5055E514E69E1
:102070000125C6F307249CE74E690D69F6B202EA12
:10208000D5055E514E69C6F307260D6902EAD505EE
:102090001D446E604E690225C6F3074489E74E6908
:1020A0000D69F6B202EAD5055E514E69C6F3072600
:1020B0000D6902EAD5051D446E604E69C6F30746F8
:1020C0000D6902EAD5051D44AE604E6903256FE730
:1020D0004E690D69F6B202EAD5055E514E69C6F346
:1020E00007260D6902EAD5051D446E604E69C6F3E8
:1020F00007460D6902EAD5051D44AE604E690D69BB
:10210000360E02EAD5051D44EE608E690425F4B250
:102110004FE74E690D69F6B202EAD5055E514E6988
:10212000C6F307260D6902EAD5051D446E604E69A7
:10213000C6F307460D6902EAD5051D44AE604E6937
:102140000D69360E02EAD5051D44EE608E690D69F3
:10215000F6B202EAD5051D442E618E690525C6F347
:10216000072426E74E690D69F6B202EAD5055E51ED
:102170004E69C6F307260D6902EAD5051D446E6057
:102180004E69C6F307460D6902EAD5051D44AE60E7
:102190004E690D69360E02EAD5051D44EE608E6962
:1021A0000D69F6B202EAD5051D442E618E69C6F3AB
:1021B00007260D6902EAD5051D446E618E69062564
:1021C000C6F30744F5E670BD032070BD80B546F246
:1021D000885E4FF68063C4F2000ECFF6FF735EF8A0
:1021E0000310844641F001014EF803105EF803101D
:1021F00041F480714EF803105EF8031041F4803012
:102200004EF803005EF80300BCFA8CF140014FEA7F
:1022100051101ED45EF8031009012ED45EF803108D
:10222000C90058BF80BD9CF80010012900F09080C3
:10223000002940F0A980DEF8181021F00401CEF842
:102240001810DCF80410DEF8183049056FF35F53FE
:1022500097E09CF80010012925D000293FD15EF8B5
:10226000081C21F004014EF8081CDCF804105EF88C
:10227000083C49056FF35F532EE09CF800100129DC
:1022800000F0B180002940F0CA80DEF8081021F08B
:102290000401CEF80810DCF80410DEF80830490517
:1022A0006FF35F53B8E05EF8081C4FF6FF7241F021
:1022B00004014EF8081C5EF8081CC0F21F026FF300
:1022C0005F514EF8081CDCF804105EF8083C073A31
:1022D00002EAC1016FF3D40319434EF8081C9CF8BD
:1022E0000110012927D061BB5EF8081C21F0020112
:1022F0004EF8081C9CF802105EF8042C61F30302EF
:102300004EF8042C9CF802100139072900F24D8286
:10231000DFE811F00800CC00E000FF0031016501AA
:10232000A401EE01DCF808100978DEF8002022F0A4
:10233000FF02114416E15EF8081C41F002014EF85C
:10234000081C5EF8081C41F001014EF8081C80BD15
:10235000DEF818104FF6FF7241F00401CEF81810A5
:10236000DEF81810C0F21F026FF35F51CEF818109C
:10237000DCF80410DEF81830073A02EAC1016FF306
:10238000D4031943CEF818109CF80110012900F06D
:102390007380002940F07680DEF8181021F00201E9
:1023A000CEF818109CF80210DEF81C2061F303022E
:1023B000CEF81C209CF802100139072900F2FB849A
:1023C000DFE811F00800FB010F022E026002940208
:1023D000D3021D03DCF808100978DEF8202022F073
:1023E000FF02114445E2DEF808104FF6FF7241F09B
:1023F0000401CEF80810DEF80810C0F21F026FF3D7
:102400005F51CEF80810DCF80410DEF80830073A07
:1024100002EAC1016FF3D4031943CEF808109CF807
:102420000110012935D0002939D1DEF8081021F03A
:102430000201CEF808109CF80210DEF80C2061F3BF
:102440000302CEF80C209CF802100139072900F293
:10245000BA84DFE811F008003103450364039603F2
:10246000CA0309045304DCF808100978DEF81020C8
:1024700022F0FF0211447BE3DEF8181041F0020164
:10248000CEF81810DEF8181041F00101CEF818103F
:1024900080BDDEF8081041F00201CEF80810DEF829
:1024A000081041F00101CEF8081080BDDCF80810DA
:1024B0000978DEF8002022F0FF021144CEF8001067
:1024C000DCF808104978DEF8002022F47F4242EA66
:1024D000012147E0DCF808100978DEF8002022F03E
:1024E000FF021144CEF80010DCF808104978DEF83D
:1024F000002022F47F4242EA0121CEF80010DCF8ED
:1025000008108978DEF8002022F47F0242EA0141B7
:1025100028E0DCF808100978DEF8002022F0FF023D
:102520001144CEF80010DCF808104978DEF80020DD
:1025300022F47F4242EA0121CEF80010DCF80810B4
:102540008978DEF8002022F47F0242EA0141CEF8C9
:102550000010DCF80810C978DEF8002022F07F4275
:1025600042EA0161CEF800105EF8081C41F001015A
:102570004EF8081C80BDDCF808100978DEF8002051
:1025800022F0FF021144CEF80010DCF80810497860
:10259000DEF8002022F47F4242EA0121CEF800104A
:1025A000DCF808108978DEF8002022F47F0242EA85
:1025B0000141CEF80010DCF80810C978DEF80020E0
:1025C00022F07F4242EA0161CEF80010DCF80810E8
:1025D0000979DEF8042022F0FF021144DCE0DCF887
:1025E00008100978DEF8002022F0FF021144CEF82E
:1025F0000010DCF808104978DEF8002022F47F4251
:1026000042EA0121CEF80010DCF808108978DEF8E3
:10261000002022F47F0242EA0141CEF80010DCF8EB
:102620000810C978DEF8002022F07F4242EA0161FA
:10263000CEF80010DCF808100979DEF8042022F04A
:10264000FF021144CEF80410DCF808104979DEF8D6
:10265000042022F47F4242EA01219DE0DCF80810C8
:102660000978DEF8002022F0FF021144CEF80010B5
:10267000DCF808104978DEF8002022F47F4242EAB4
:102680000121CEF80010DCF808108978DEF800206F
:1026900022F47F0242EA0141CEF80010DCF8081073
:1026A000C978DEF8002022F07F4242EA0161CEF8CC
:1026B0000010DCF808100979DEF8042022F0FF028F
:1026C0001144CEF80410DCF808104979DEF8042033
:1026D00022F47F4242EA0121CEF80410DCF808100F
:1026E0008979DEF8042022F47F0242EA014153E0B6
:1026F000DCF808100978DEF8002022F0FF0211440F
:10270000CEF80010DCF808104978DEF8002022F43A
:102710007F4242EA0121CEF80010DCF808108978E7
:10272000DEF8002022F47F0242EA0141CEF80010D8
:10273000DCF80810C978DEF8002022F07F4242EA77
:102740000161CEF80010DCF808100979DEF80420E9
:1027500022F0FF021144CEF80410DCF80810497989
:10276000DEF8042022F47F4242EA0121CEF8041070
:10277000DCF808108979DEF8042022F47F0242EAAE
:102780000141CEF80410DCF80810C979DEF8042005
:1027900022F07F4242EA0161CEF804105EF8081C84
:1027A00041F001014EF8081C80BD02205EF8081CB3
:1027B00041F001014EF8081C80BDDCF808100978D2
:1027C000DEF8202022F0FF021144CEF82010DCF8C1
:1027D00008104978DEF8202022F47F4242EA0121E5
:1027E00047E0DCF808100978DEF8202022F0FF022C
:1027F0001144CEF82010DCF808104978DEF82020CB
:1028000022F47F4242EA0121CEF82010DCF80810C1
:102810008978DEF8202022F47F0242EA014128E094
:10282000DCF808100978DEF8202022F0FF021144BD
:10283000CEF82010DCF808104978DEF8202022F4C9
:102840007F4242EA0121CEF82010DCF80810897896
:10285000DEF8202022F47F0242EA0141CEF8201067
:10286000DCF80810C978DEF8202022F07F4242EA26
:102870000161CEF82010DEF8181041F00101CEF809
:10288000181080BDDCF808100978DEF8202022F04E
:10289000FF021144CEF82010DCF808104978DEF869
:1028A000202022F47F4242EA0121CEF82010DCF8F9
:1028B00008108978DEF8202022F47F0242EA0141E4
:1028C000CEF82010DCF80810C978DEF8202022F0BD
:1028D0007F4242EA0161CEF82010DCF80810097945
:1028E000DEF8242022F0FF021144DCE0DCF80810BE
:1028F0000978DEF8202022F0FF021144CEF82010E3
:10290000DCF808104978DEF8202022F47F4242EA01
:102910000121CEF82010DCF808108978DEF820209C
:1029200022F47F0242EA0141CEF82010DCF80810C0
:10293000C978DEF8202022F07F4242EA0161CEF819
:102940002010DCF808100979DEF8242022F0FF02BC
:102950001144CEF82410DCF808104979DEF8242060
:1029600022F47F4242EA01219DE0DCF80810097858
:10297000DEF8202022F0FF021144CEF82010DCF80F
:1029800008104978DEF8202022F47F4242EA012133
:10299000CEF82010DCF808108978DEF8202022F428
:1029A0007F0242EA0141CEF82010DCF80810C97815
:1029B000DEF8202022F07F4242EA0161CEF82010AA
:1029C000DCF808100979DEF8242022F0FF02114417
:1029D000CEF82410DCF808104979DEF8242022F41F
:1029E0007F4242EA0121CEF82410DCF808108979F0
:1029F000DEF8242022F47F0242EA014153E0DCF8B1
:102A000008100978DEF8202022F0FF021144CEF8E9
:102A10002010DCF808104978DEF8202022F47F42EC
:102A200042EA0121CEF82010DCF808108978DEF89F
:102A3000202022F47F0242EA0141CEF82010DCF887
:102A40000810C978DEF8202022F07F4242EA0161B6
:102A5000CEF82010DCF808100979DEF8242022F0E6
:102A6000FF021144CEF82410DCF808104979DEF892
:102A7000242022F47F4242EA0121CEF82410DCF81F
:102A800008108979DEF8242022F47F0242EA01410D
:102A9000CEF82410DCF80810C979DEF8242022F0E2
:102AA0007F4242EA0161CEF82410DEF8181041F0AE
:102AB0000101CEF8181080BDDCF808100978DEF8A6
:102AC000102022F0FF021144CEF81010DCF808109C
:102AD0004978DEF8102022F47F4242EA012147E0E3
:102AE000DCF808100978DEF8102022F0FF0211440B
:102AF000CEF81010DCF808104978DEF8102022F427
:102B00007F4242EA0121CEF81010DCF808108978E3
:102B1000DEF8102022F47F0242EA014128E0DCF8CE
:102B200008100978DEF8102022F0FF021144CEF8D8
:102B30001010DCF808104978DEF8102022F47F42EB
:102B400042EA0121CEF81010DCF808108978DEF88E
:102B5000102022F47F0242EA0141CEF81010DCF886
:102B60000810C978DEF8102022F07F4242EA0161A5
:102B7000CEF81010DEF8081041F00101CEF8081070
:102B800080BDDCF808100978DEF8102022F0FF0282
:102B90001144CEF81010DCF808104978DEF8102047
:102BA00022F47F4242EA0121CEF81010DCF808102E
:102BB0008978DEF8102022F47F0242EA0141CEF843
:102BC0001010DCF80810C978DEF8102022F07F42DF
:102BD00042EA0161CEF81010DCF808100979DEF83D
:102BE000142022F0FF021144DCE0DCF80810097820
:102BF000DEF8102022F0FF021144CEF81010DCF8AD
:102C000008104978DEF8102022F47F4242EA0121C0
:102C1000CEF81010DCF808108978DEF8102022F4C5
:102C20007F0242EA0141CEF81010DCF80810C978A2
:102C3000DEF8102022F07F4242EA0161CEF8101047
:102C4000DCF808100979DEF8142022F0FF021144A4
:102C5000CEF81410DCF808104979DEF8142022F4BC
:102C60007F4242EA01219DE0DCF808100978DEF895
:102C7000102022F0FF021144CEF81010DCF80810EA
:102C80004978DEF8102022F47F4242EA0121CEF892
:102C90001010DCF808108978DEF8102022F47F028A
:102CA00042EA0141CEF81010DCF80810C978DEF8CD
:102CB000102022F07F4242EA0161CEF81010DCF8C9
:102CC00008100979DEF8142022F0FF021144CEF832
:102CD0001410DCF808104979DEF8142022F47F4241
:102CE00042EA0121CEF81410DCF808108979DEF8E8
:102CF000142022F47F0242EA014153E0DCF808107C
:102D00000978DEF8102022F0FF021144CEF81010EE
:102D1000DCF808104978DEF8102022F47F4242EAFD
:102D20000121CEF81010DCF808108978DEF81020A8
:102D300022F47F0242EA0141CEF81010DCF80810BC
:102D4000C978DEF8102022F07F4242EA0161CEF815
:102D50001010DCF808100979DEF8142022F0FF02C8
:102D60001144CEF81410DCF808104979DEF814206C
:102D700022F47F4242EA0121CEF81410DCF8081058
:102D80008979DEF8142022F47F0242EA0141CEF86C
:102D90001410DCF80810C979DEF8142022F07F4204
:102DA00042EA0161CEF81410DEF8081041F001018A
:102DB000CEF8081080BD0220DEF8181041F00101A5
:102DC000CEF8181080BD0220DEF8081041F0010195
:102DD000CEF8081080BD000010B540F20D04C2F21C
:102DE0000004204600F090FA04F1080000F08CFA8C
:102DF000201D00F089FA04F10C0000F085FA022091
:102E00000021002200F036FB02200321002200F006
:102E100031FB02200121002200F02CFB02200221C4
:102E2000002200F027FB0020002100F083FE02209A
:102E30000021BDE8104000F07DBE000010B5044642
:102E400000200021224600F047FF002C18BF053C5F
:102E5000E2B20220002100F03FFF02200121012206
:102E600000F008FB02200321012200F003FB0220F6
:102E70000021002200F0FEFA022002210022BDE81B
:102E8000104000F0F7BA000010B5044602200221FD
:102E9000012200F0EFFA02200021012200F0EAFAFC
:102EA00000200021224600F017FF002C18BF053C2F
:102EB000E2B20220002100F00FFF022001210022D7
:102EC00000F0D8FA022003210022BDE8104000F0F3
:102ED000D1BA000010B5044600200021224600F0BF
:102EE000FBFE002C18BF053CE2B20220002100F0DE
:102EF000F3FE02200121002200F0BCFA0220022190
:102F0000002200F0B7FA02200321012200F0B2FAF9
:102F1000022000210122BDE8104000F0ABBA000001
:102F200010B5044600200021224600F0D5FE002CFA
:102F300018BF053CE2B20220002100F0CDFE0220C5
:102F40000321002200F096FA02200021002200F066
:102F500091FA02200121012200F08CFA02200221C4
:102F60000122BDE8104000F085BA000080B50020C5
:102F70000021002200F0B0FE02200021002200F01B
:102F8000ABFE02200021002200F074FA022003218F
:102F9000002200F06FFA02200121002200F06AFAFC
:102FA000022002210022BDE8804000F063BA000048
:102FB0002DE9F04F83B04FF00008002ACDF80880CB
:102FC0004FD092460D4606464FF0010942F20F7768
:102FD00042F2107B002405E001340136544505F12E
:102FE00001053ED201200021A0220023CDF800904F
:102FF00000F0CAFA012000F017FBF1B2012000F046
:10300000ABFA01200021A0220123CDF8009000F0AE
:10301000BBFA012000F008FB0120294600F086FAE7
:10302000012000F011FBCDF808800298B842D3D8F7
:1030300002980130029002985845CDD20298013092
:1030400002900298B842C7D80298013002900298C4
:10305000B842C1D802980130029002985845E7D38F
:10306000BAE703B0BDE8F08F2DE9F04F83B0064614
:103070000020002A029048D093468A464FF0020969
:1030800042F20F7542F210744FF0000806E000BFE4
:1030900008F10108D84506F1010636D01AF8087083
:1030A00001200021A0220023CDF8009000F06CFA4E
:1030B000012000F0B9FAF1B2012000F04DFA012030
:1030C000394600F049FA012000F0BEFA00200290D3
:1030D0000298A842DCD800BF029801300290029802
:1030E000A042D5D20298013002900298A842CFD8CF
:1030F0000298013002900298A842C9D80298013083
:1031000002900298A042E7D3C2E703B0BDE8F08F77
:1031100040F20004C2F20004102021460222FFF710
:10312000A3FF4FF4FA7001F0F7FEF5E710B50020A9
:10313000112100F04FFE0220162100F04BFE40F25C
:103140003004C2F20004201D00F0DEF8204600F03A
:10315000DBF800200921042200F056F900200A21A2
:10316000042200F051F90120BDE8104000F08CBAB3
:1031700040F27030C2F200000068004710B540F223
:103180001444C4F20104206840051BD420680005E3
:1031900024D42068C0042DD42068800436D420684C
:1031A00040043FD42068000458BF10BD40F2703086
:1031B000C2F20000C06B80474FF400402168084312
:1031C000206010BD40F27030C2F20000806A80477B
:1031D0004FF4806021680843206010BD40F27030D9
:1031E000C2F20000C06A80474FF4006021680843C3
:1031F000206010BD40F27030C2F20000006B8047CA
:103200004FF4805021680843206010BD40F27030B8
:10321000C2F20000406B80474FF400502168084321
:10322000206010BD40F27030C2F20000806B804719
:103230004FF4804021680843206010BD40F2703098
:10324000C2F200004068004740F27030C2F2000055
:103250008068004740F27030C2F20000C06800474A
:1032600040F27030C2F200000069004710B540F231
:103270001444C4F201042068800618D42068400673
:1032800020D42068000628D42068C00530D42068E7
:10329000800558BF10BD40F27030C2F20000406A95
:1032A00080474FF4007021680843206010BD40F251
:1032B0007030C2F200004069804720202168084336
:1032C000206010BD40F27030C2F20000806980477B
:1032D000402021680843206010BD40F27030C2F2E7
:1032E0000000C0698047802021680843206010BD2D
:1032F00040F27030C2F20000006A80474FF48070E4
:1033000021680843206010BD70B5002849D00378BB
:10331000072B84BF022070BD42780F2A84BF032090
:1033200070BDC478032C84BF052070BD8178072947
:103330004AD245F6C470C0F6000050F823C04FEAE8
:10334000420EDCF80000032303FA0EF301F003053C
:10335000984305FA0EF52843CCF8000008294FF0F1
:1033600000001DD8012505FA01F616F0660F6FEA78
:10337000030318D0DCF80800184004F0030303FA34
:103380000EF31843CCF80800DCF8040005FA02F349
:10339000C1F38001984391400843CCF80400002019
:1033A00070BD012070BD40F21112164208BF70BD01
:1033B000DCF80C00C1F38101184001FA0EF108435A
:1033C000CCF80C00002070BD08291CBF042070BD83
:1033D000AFE70000002A04BF01207047072884BF20
:1033E000022070470F2984BF0320704745F6C4733D
:1033F000C0F6000353F820000069C84000F0010047
:103400001070002070470000072884BF022070471A
:103410000F2984BF032070470F2A84BF07207047FD
:1034200045F6C473C0F6000353F8200007290ED8F0
:10343000D0F820C089000F238B4002F00F022CEA45
:10344000030302FA01F119430162002070476FF093
:103450001F03D0F824C003EB81010F238B4002F03F
:103460000F022CEA030302FA01F119434162002022
:1034700070470000072884BF022070470F2984BFCF
:1034800003207047012A84BF0620704745F6C473A5
:10349000C0F6000353F820000123D0F814C08B407D
:1034A00002F001022CEA030302FA01F1194341611F
:1034B0000020704740F23801C2F2000108707047E6
:1034C00040F23801C2F200010978FF291EBF0170E5
:1034D00040F23800C2F20000FF2101707047000086
:1034E00010B540F21E04C2F200042046FFF70CFFA4
:1034F000201DFFF709FF022004210722FFF784FFA8
:10350000022005210722FFF77FFF04F1080000F0E9
:10351000E5F943F2B540C0F6000000F0D7F901200C
:103520002021BDE8104000F0ADB9000045F69C72C6
:10353000C0F6000252F820008269520709D482695D
:1035400052075CBF82695FEA427202D48269520705
:10355000F2D5406A0870704745F69C72C0F60002CA
:1035600052F82000816203E08169C90718BF7047E3
:103570008169C90706D18169C90704BF81695FEA0A
:10358000C171F1D07047000080B501290DD049BB51
:1035900045F69C71C0F6000151F820C05CF8041F8C
:1035A00021F40061CCF8001017E045F69C71C0F6DC
:1035B000000151F820C05CF8041F41F40061CCF810
:1035C0000010DCF800E040F2FF312EEA0101CCF8F7
:1035D000001040F2FE7101EA4202DCF800101143D3
:1035E000CCF80010029945F69C72C0F6000243B177
:1035F000012B0DD152F82000426842F480624260F3
:1036000008E052F82000426822F48062426001E043
:1036100052F82000426822F47F024260426842EA87
:103620000141416080BD0000022884BF0120704735
:1036300045F69C71C0F6000151F82000416841F444
:103640000051416000207047022884BF012070476C
:1036500045F69C71C0F6000151F82000416841F424
:10366000804141608169890609D4816989065CBF0E
:1036700081695FEA816102D481698906F2D52021DE
:10368000C161002070470000022884BF01207047FC
:1036900045F69C71C0F6000151F82010002008602A
:1036A0000A6842F444320A6040F61372C1F24202E0
:1036B00048600A6188600A6842F001020A60704747
:1036C00040F24002C2F2000252F8211002220B69BD
:1036D00002FA00F023EA00000861704740F240015E
:1036E000C2F2000151F82000016921F001010161DD
:1036F0007047000040F24001C2F2000151F8200082
:10370000016821F0010101607047000040F24001B2
:10371000C2F2000151F82000016841F0010101608E
:103720007047000003280DD8DFE800F0020E1822D1
:1037300040F24000C2F2000050F82100343000682E
:10374000106070471060704740F24000C2F2000005
:1037500050F82100383000681060704740F2400097
:10376000C2F2000050F821003C3000681060704741
:1037700040F24000C2F2000050F8210040300068E2
:103780001060704740F24003C2F2000353F821106A
:103790000130096921FA00F000F001001070704753
:1037A00040F24002C2F2000252F82000007C00F019
:1037B000010008707047000010B540F24002C2F2EC
:1037C000000252F821104FF0010E0A68CB6842F057
:1037D0000802D1F820C00A600222824023EA0202D5
:1037E00022F00102CA608200531C0EFA03F3033276
:1037F00043EA0C030EFA02F223EA020203280A62E9
:103800002AD8DFE800F0020B101901F118004FF080
:10381000010E6FF0FF034FF0010C15E001F11800ED
:103820004FF0100C0CE001F11C004FF4807C4FF0C5
:10383000010E6FF0FF0307E001F11C004FF4805C04
:103840004FF4807E6FF47F430468234043EA0E0305
:10385000036042EA0C000862072049F65602C1E9FB
:103860000A0210BD40F24002C2F2000252F82000EB
:10387000C162704740F24002C2F2000252F82000DA
:103880004162704702280ED0012815D000281CBFC5
:10389000012070474EF20010CEF200000268114382
:1038A0000160002070474EF20010CEF200008268E6
:1038B00011438160002070474EF20010CEF20000EC
:1038C00042681143416000207047000000281EBF7D
:1038D00040F2B031C2F200010860704780B5864600
:1038E000007843F60002C4F2010268B101209EF89C
:1038F0000130012B15D063BB136841F2002C23F477
:103900000043C0F27A0C13E0106820F08050106081
:10391000106820F48050106000209EF80130012BC8
:10392000E9D1136842F2004C43F40043C0F2F40CB6
:103930001360BEF80630BCFBF3F3D3609EF8023090
:10394000022B0BD0012B11D0CBB9136823F4806369
:1039500013E002209EF80230022BF3D1136843F4E7
:1039600080631360136843F4007306E0136843F444
:1039700080631360136823F40073136000E0032076
:10398000536823F4801353609EF80330022B05D054
:10399000032B07D1536823F4002302E0536843F458
:1039A000002353609EF80430032B07D8DFE803F0B0
:1039B000020D1A1E516821F4805109E004209EF87E
:1039C000081003291ED9032034E0516841F48051C6
:1039D0005160516821F4005353609EF80810032988
:1039E00010D9F0E7516821F4805102E0516841F4A8
:1039F00080515160516841F4005353609EF80810A3
:103A00000329E0D8DFE801F0020A0E12116821F064
:103A100020011160116821F080010AE0116841F075
:103A200020011160116841F0800102E0116841F04D
:103A300020011160116841F004011160116841F02A
:103A400008011160116841F00101116080BD0000A2
:103A500082B04FF4FA7001F05FFA40F2000540F2D4
:103A6000B43600200DF10704C2F20005C2F20006D0
:103A700001278DF8070002E0462001F04DFA2046AC
:103A8000FFF71EFD9DF807002B2817D0FF2807D051
:103A90002D2816D1E978A1B1E8781438E87000BF74
:103AA000B0782979884211D13078A97888420DD12F
:103AB0007078E9788842DFD008E000BFE9786429AF
:103AC0002CD1A870B07829798842EDD0A8784238F6
:103AD00011280DD8DFE800F0110C0C0C150C0C0CA3
:103AE0000C0C1A0C0C0C0C0C1E09FFF73FFA2F7172
:103AF0002879B07068883080BEE7E878FFF79EF9D3
:103B0000F6E7287990B1FFF731FAF1E71E20FFF7C9
:103B1000E1F9EDE71E20FFF703FAE9E7E878143052
:103B2000E870B07829798842BED0CFE7E878FFF70F
:103B3000ABF9DDE7022884BF01207047032984BF69
:103B40000220704770B545F6A872C0F6000252F820
:103B500020404FF08443660106F11C020125D55038
:103B600006F118020025D55006F11402D55006F1D1
:103B70001002D5500722A2624CF24F320329E262B2
:103B800000F29F80DFE801F00212182202283DD0E7
:103B9000012845D0002848D140F20500C2F20000BB
:103BA000FFF7B2FB0020002101223CE0012817D0E2
:103BB00002281AD1012014E0022846D0012847D05B
:103BC00000284AD100200221012244E0022854D0DA
:103BD000012855D0002858D103200621012252E0A7
:103BE000022007210222FFF70FFC40F20C30C4F242
:103BF000002031180122C1F8042120304FF0380C88
:103C00004FF4DC226FF4E04318214EE040F205004F
:103C1000C2F200000430FFF777FB0120062101E02B
:103C2000012004210222FFF7EFFB40F20C30C4F226
:103C3000002031180122C1F8F4204FF0340C4FF469
:103C4000DC626FF0700318212FE003200E2101E0E9
:103C5000022008210222FFF7D7FB40F20C30C4F209
:103C6000002031180122C1F8142180304FF03C0CA3
:103C70004FF4DC626FF0700316E003200F2101E0C7
:103C8000012001210222FFF7BFFB40F20C30C4F2F9
:103C9000002031180122C1F82421A0304FF0400C3F
:103CA0004FF4DC226FF4E0431C21012535506058AD
:103CB000184060506058104360504CF2503044F847
:103CC0000C00606940F001006061206840F0010074
:103CD0002060002070BD0000022884BF01207047D2
:103CE000032984BF02207047642A84BF03207047E1
:103CF00003290ED8DFE801F002141F2A45F6A87345
:103D0000C0F600034FF4FA7153F8200051434163A9
:103D100026E045F6A871C0F6000151F820001FE02A
:103D200045F6A873C0F600034FF4FA7153F820006B
:103D30005143816314E045F6A873C0F600034FF4C5
:103D4000FA7153F820005143C16309E045F6A873A6
:103D5000C0F600034FF4FA7153F820005143016498
:103D6000416941F0010141610020704700000000FD
:103D7000EFF30980BFF36F8F154B1A681EF0100F19
:103D800008BF20ED108A20E9F04F10602DE90900EE
:103D90004FF0100080F31188BFF34F8FBFF36F8F88
:103DA00001F008FA4FF0000080F31188BDE8090027
:103DB00019680868B0E8F04F1EF0100F08BFB0ECAB
:103DC000108A80F30988BFF36F8F704700BF00BF70
:103DD0000006002002280ED0012816D0002818BFA7
:103DE000704741F21402C4F20202012013688840B5
:103DF00018431060704741F21402C4F2020201201D
:103E00009368884018439060704741F21402C4F2EE
:103E10000202012053688840184350607047000038
:103E2000074B19680868B0E8F04F80F30988BFF3C2
:103E30006F8F4FF0000080F31188704700BF00BF04
:103E40000006002080B54EF21000CEF2000000689F
:103E500001F038FE012808BF80BDBDE8804001F0B8
:103E60003BBA00004EF68850CEF20000016841F4E3
:103E7000700101607047000010B540F2B03043F6A9
:103E80001804C2F20000C4F201040168E068884727
:103E9000A06840F05800A060206840F01800206042
:103EA00010BD000040F2B83440F20007C2F2000436
:103EB0004DF6DD554FF6FE66C2F200074FF0FE08E4
:103EC0004FF012094FF0010A4FF0000B05E000BF60
:103ED00087F801800A2001F01FF800F0E7F832208F
:103EE00001F01AF8204600F013F82088A842F1D01B
:103EF000B042EDD0312887F8019002D887F804A0AD
:103F0000E8E7B878532818BF87F804B0E2E7000064
:103F1000B0B582B040F2B005C2F200050446691D9A
:103F20000120FFF73DFCAA1D00200121FFF72AFC1C
:103F30006979A87981B101281FD101AA0020012146
:103F4000FFF7F0FB0198E0B14CF60931C8F63D519E
:103F5000A0FB0101480916E001281FD16A46002094
:103F60000121FFF7DFFB0098D0B14CF60931C8F60C
:103F70003D51A0FB0101480914E04DF6DD502080C1
:103F800009E04FF6FE6020800120FFF7A7FB00202C
:103F90000121FFF795FB0120FFF7A0FB02B0B0BDA8
:103FA0004FF6FE6020800120FFF798FB00200121E2
:103FB000FFF786FB02B0B0BD80B582B040F60200CC
:103FC000C0F20110019001A8FFF79EF940F20260D3
:103FD000C0F2021000906846FFF796F90220062111
:103FE0000222FFF711FA00200121FFF7E5FB02B0E2
:103FF00080BD0000B0B582B000250220082100225B
:104000008DF80750FFF736FA0120FFF773FB012008
:104010000021FFF72FFC01200221FFF723FC0120E4
:10402000FFF75CFB0120FFF771FB0DF10701012099
:10403000FFF7B6FB9DF8070050B90DF1070400BF6C
:1040400001202146FFF7ACFB9DF807000028F7D0C0
:104050000220082101228DF80750FFF70BFA0120FA
:104060000C21FFF7FFFB0120FFF738FB0120FFF7D2
:104070004DFB0DF107010120FFF792FB9DF80700B2
:1040800050B90DF1070400BF01202146FFF788FB5E
:104090009DF807000028F7D000208DF807000220C7
:1040A00008210022FFF7E6F902B0B0BD80B5FFF7A6
:1040B000A1FF012049F64041FFF7D4FB0120002178
:1040C000FFF7D8FB0120FFF709FB00200121FFF7D4
:1040D000F7FA0120BDE88040FFF718BB10B5044691
:1040E00001F0F0FC022818BF10BDEFF3058000B10D
:1040F00010BD20684FF0FF31BDE8104001F01EBB3D
:1041000010B50446006800F0D7FE40F24C50C2F2F1
:10411000000021680268914217D0024652F8043F1D
:1041200099420FD0024652F8083F99420AD00246FF
:1041300052F80C3F994205D050F8102F9142024698
:1041400018BF10BD0020106010BD02460020106096
:1041500010BD0000B0B50446002040F24C51206074
:10416000C2F200010A687AB10D4655F8040F68B131
:104170000D4655F8080F58B10D4655F80C0F48B1CB
:1041800051F8100FA8B904200D4604E0012002E008
:10419000022000E0032040F2BC3100EB8000C2F2BC
:1041A000000101EB0011012001F0E8F82860206017
:1041B00038B901F087FC022803D1012001F0A4F8EE
:1041C0002060002080F311882068002818BF01209B
:1041D000B0BD000010B5044601F074FC022818BF01
:1041E00010BDEFF3058000B110BD20680021002252
:1041F0000023BDE8104001F03BB90000704700000B
:104200002DE9F0418EB0002011210026FFF7E2FDDC
:1042100000201221FFF7DEFD00201321FFF7DAFD59
:1042200000201421FFF7D6FD02200021FFF7D2FD68
:10423000022001210124FFF7CDFD02200221FFF71A
:10424000C9FD01200E21FFF7C5FD02201921FFF74E
:10425000C1FD40F60100C0F2023000F580710DADE5
:10426000CDE90C012846FFF74FF80DF13008404624
:10427000FFF74AF8012009210922FFF7C5F80120BC
:1042800008210922FFF7C0F80020C0F201100990B0
:104290004FF4E020ADF828608DF82A400B9045F6E9
:1042A000B470C0F60000D0E90012D0E9020305AFF7
:1042B000CDE907033846CDE90512FCF773F909AEDD
:1042C0003046FDF763FCFEF787FDFFF775FEFFF74D
:1042D00007F9FEF72BFF43F65120C0F6000000213E
:1042E000502200230094019701F00CFB40F289401A
:1042F000C0F600000021502200230094019601F036
:1043000001FB40F25150C0F6000000215022002372
:104310000094019501F0F6FA40F2FD40C0F600006D
:104320000021502200230094CDF8048001F0EAFA25
:104330000420009043F6A56004AFC0F60000002101
:1043400050220023019701F0DDFA43F2111003AF70
:10435000C0F600000021502200230094019701F0D4
:10436000D1FA00F0B7FE00200EB0BDE8F0810000E9
:104370002DE9F04140F2D40640F20067C2F2000697
:10438000C2F200070D46D6F8108039680446081DB1
:1043900000F084FC601C17D1B5B1386839683A6800
:1043A0003B68D7F800C056F84C5F7468A768846013
:1043B000CF60A068111D4160181DA060681CCCF87A
:1043C00014603060BDE8F081386814EB0804446084
:1043D00006D3B06939680431BDE8F04100F09EBCF5
:1043E00070693968043100F099FCF06A844238BF82
:1043F000F462BDE8F08100002DE9F04381B004468D
:1044000000F0C6FC40F2D406C2F20006B06840F2EA
:1044100000680130B060C2F20008D8F8000040F235
:104420000465C2F2000560B1F068002840F009811F
:10443000D8F80000E16AC06A884298BFC8F8004016
:10444000FFE0C8F80040B068012840F0FA80284634
:1044500000F054FC05F1140000F050FC05F12800B8
:1044600000F04CFC05F13C0000F048FC05F1500068
:1044700000F044FC05F1640000F040FC05F1780018
:1044800000F03CFC05F18C0000F038FC05F1A000C8
:1044900000F034FC05F1B40000F030FC05F1C80078
:1044A00000F02CFC05F1DC0000F028FC05F1F00028
:1044B00000F024FC05F5827000F020FC05F58C70FE
:1044C00000F01CFC05F5967000F018FC05F5A070D6
:1044D00000F014FC05F5AA7000F010FC05F5B470AE
:1044E00000F00CFC05F5BE7000F008FC05F5C87086
:1044F00000F004FC05F5D27000F000FC05F5DC705E
:1045000000F0FCFB05F5E67000F0F8FB05F5F07037
:1045100000F0F4FB05F5FA7000F0F0FB05F5027011
:1045200000F0ECFB05F5077000F0E8FB05F50C70FA
:1045300000F0E4FB05F5117000F0E0FB05F51670E6
:1045400000F0DCFB05F51B7000F0D8FB05F52070D2
:1045500000F0D4FB05F5257000F0D0FB05F52A70BE
:1045600000F0CCFB05F52F7000F0C8FB05F53470AA
:1045700000F0C4FB05F5397000F0C0FB05F53E7096
:1045800000F0BCFB05F5437000F0B8FB05F5487082
:1045900000F0B4FB05F54D7000F0B0FB05F552706E
:1045A00000F0ACFB05F5577000F0A8FB05F55C705A
:1045B00000F0A4FB05F5617000F0A0FB05F5667046
:1045C00000F09CFB05F56B7000F098FB05F5707032
:1045D00000F094FB05F5757000F090FB05F57A701E
:1045E00000F08CFB05F57F7000F088FB05F582601C
:1045F00000F084FB05F2244000F080FB05F58760A5
:1046000000F07CFB05F24C4000F078FB40F288198A
:10461000C2F20009484600F071FB09F11407384660
:1046200000F06CFB06F1600000F068FB06F138005A
:1046300000F064FB06F14C0000F060FBC6F814903B
:10464000B7613068F169421CE06A32608842626496
:1046500088BFF06100EB800005EB80014A68271DF0
:104660009368E3609368A2605F609760616155F84A
:104670002010013145F8201000F09AFBF068002866
:1046800018BFD8F8000001B0BDE8F08340F2D405AF
:104690004EF60456C2F20005CEF200064FF08057E7
:1046A000686848B91EE000BF206B00F08FFB204611
:1046B00000F08CFB6868A8B100F06AFB686CC46805
:1046C000201D00F0EBFAA8680138A860686801387E
:1046D000686000F06DFB94F859000128E7D00028CD
:1046E000E2D0E7E73760BFF34F8FBFF36F8F6868A3
:1046F0000028E1D1F6E7000008480068006880F370
:1047000008884FF0000080F3148862B661B6BFF3EA
:104710004F8FBFF36F8F00DF00BF00BF08ED00E0D9
:104720002DE9F047804601F0DDF940F2481AC2F267
:10473000000ADAF81010814688420ED30020C8F82B
:1047400000004846CAF81090BDE8F08700F0FE006F
:1047500086F82800316A30468847DAF80800016890
:1047600011B3C068C6680468371D384600F096FA71
:1047700096F828004107E9D5B069E1430519884258
:10478000756036610AD800BF316A30468847B06923
:10479000E9430544884275603661F5D9DAF80C00C2
:1047A000394600F0BBFAD5E7DAF80C10CAE9021076
:1047B0000120C8F800004846CAF81090BDE8F0870C
:1047C00081B0002000904FF0100080F31188BFF3FB
:1047D0006F8FBFF34F8F00BF009830B9009820B99A
:1047E000009810B900980028F6D001B0704700007A
:1047F00086B040F2481BC2F2000B0DF108090DF122
:10480000040800BFDBF8080006681EB1C068D0F8D5
:1048100000A001E04FF0000A00F0C4FC4846FFF79A
:104820007FFF029911B101F0DFFA54E005464EB363
:10483000AA4527D801F0D8FADBF80800C068C66896
:10484000371D384600F02AFA96F8280041070BD4A5
:1048500000F0FE003AE000BFA5EB0A0181422FD331
:10486000316A30468847A246B06900EB0A04AC4280
:1048700074603661F0D9554501D25445F0D2DBF869
:1048800008001FE00EB1002205E0DBF80C00006814
:10489000B0FA80F04209DBF80000AAEB050100F055
:1048A00013FB01F0A1FAB0B94EF60450CEF20000AD
:1048B0004FF080510160BFF34F8FBFF36F8F0AE05D
:1048C000DBF80C00394600F029FA01E086F82800F0
:1048D000316A30468847DBF800004946002200F084
:1048E00087FE00283FF48EAF0298B0F1FF3F06DC50
:1048F000DDE903200599904702980028EBD4049E37
:10490000706910B1301D00F0C9F94046FFF708FF8B
:10491000029901390829DED80746DFE801F00505CC
:104920001B223F05051B220096F82810039AB06948
:1049300041F0010386F828308318354645F8043FD6
:10494000BB42366121D9974201D2934236D2DBF87D
:1049500008001FE096F8280000F0FE0086F8280006
:10496000B9E796F8280040F00101039886F828106E
:10497000C2193146B06141F8042FBA42366115D9E7
:10498000DBF8080000F0CAF9A5E7BA1A824215D28E
:10499000DBF80C00294600F0C1F99CE796F82800E6
:1049A0008107D9D4304600F011FA94E700283FF48B
:1049B00092AFDBF80C0000F0B1F98CE74A0703D4A2
:1049C00001F0FE0082E700BF0399014408E000BF48
:1049D000791A814210D3316A30468847B06921463E
:1049E0000C18BC4274603661F2D98F4201D28C42FD
:1049F000F1D2DBF8080001E0DBF80C00294600F0FA
:104A00008DF965E7F0B581B0044600F0C1F994F97D
:104A10004560012E0FDB04F1240500BF286850B16A
:104A2000284601F077F9002818BF00F0B5FA701E8B
:104A300046B2002EF2DCFF2684F8456000F0B8F99B
:104A400000F0A6F994F94470012F0EDB04F1100573
:104A5000286850B1284601F05DF9002818BF00F021
:104A60009BFA781E47B2002FF2DC84F8446001B054
:104A7000BDE8F04000F09CB92DE9F041044600F09B
:104A800091FB40F2B805C2F20005286860B184B31A
:104A900004F00700A0F11101A14230D2002401F07E
:104AA000A3F92046BDE8F08140F66420C2F2000080
:104AB000C21D22F0070210F00701A0EB020318BF8D
:104AC000104600224FF40057C5E90502002918BF1F
:104AD00003F50057C119083921F007012960C1E920
:104AE00000222A68091AC0E90021C5E90111002C39
:104AF000CED1002401F078F92046BDE8F081201ADB
:104B000000F1100101294FF0000469DBD5F804C061
:104B1000614565D8284650F8143F984658F8044F28
:104B20008C4222D21E68F6B174688C4248D2326838
:104B3000002A45D054688C424AD21768002F47D0CB
:104B40007C688C4265D23B68002B62D05C688C42EA
:104B500002D21E68002EE7D103F1040838462F6800
:104B6000BB4205D13BE005F114002F68BB4236D0B3
:104B7000D0F800E01E68621A112A066055D35C184E
:104B80006260C8F8001005F1140100BF0868A04277
:104B90000AD20168A14228D20868A04204D2016862
:104BA0000646A142F2D301E00E4601467068321873
:104BB000A2421FD0606822188A4222D0216031E0D0
:104BC00006F10408184633462F68BB42D0D106E0F0
:104BD00002F10408304613462F68BB42C8D10024B6
:104BE00001F002F92046BDE8F081064670683218EF
:104BF000A242DFD1626834461044706022188A42B3
:104C0000DCD1B9420DD0D1E900121044C4E9001042
:104C100008E007F1040810463B462F68BB42A7D1C5
:104C2000DDE72760A64218BF3460D8F80000AA6804
:104C3000ACEB000140F000409142696038BFA960D0
:104C4000C8F80000E96800200EF108041860481C4C
:104C5000E86001F0C9F82046BDE8F08140F200604C
:104C6000C2F20000016819B101680A6D01320A65DB
:104C700000687047034644F2C170C0F600004FF070
:104C8000807C21F0010103E903106FF0020043F87A
:104C9000240CA3F1440043F8202C7047D0E90132E2
:104CA00001699A60D1F804C082688445536008BFE6
:104CB0004A6000220261086801380860086870478D
:104CC00042F6A433C2F20003036042F66420C2F24B
:104CD00000000860502010607047000042F640530A
:104CE000C2F20003036042F60040C2F20000086016
:104CF0005020106070470000704700004FF0FF31F7
:104D0000024642F8081F00214260C0E90322016008
:104D100070470000002101617047000010B5D1F814
:104D200000C01CF1010213D000F10804626813688E
:104D3000634511D853681C68644510D85A681468D4
:104D400064450ED854682368A6466345EED90AE048
:104D50000269D2F804E006E09646224603E09E4649
:104D600001E096461A46C1F804E0CEF808108A60C1
:104D70005160086101680131016010BDDFF80C006D
:104D8000016841F470010160704700BF88ED00E0E8
:104D90004FF0100080F31188BFF36F8FBFF34F8F78
:104DA00040F24C00C2F2000001680131016070471E
:104DB00040F24C00C2F2000001680139016018BFE6
:104DC0007047002080F3118870470000B0B528B10B
:104DD000044650F8040CB0F1FF3F00DDB0BDA4F173
:104DE00008052968002918BFB0BD20F0004044F82C
:104DF000040C00F0D7F940F2B80CC2F2000C54F8E1
:104E0000041CDCF804200A44CCF804200CF1140241
:104E10001368AB420AD21A68AA421AD21368AB428C
:104E200004D21A681C46AA42F2D301E014461A467C
:104E30006368E018A84211D06818904214D1DCF8D9
:104E40000000824210D0D2E900200844C5E90020C9
:104E50000BE01C466368E018A842EDD119442546D2
:104E6000616068189042EAD02A60AC4218BF2560A1
:104E7000DCF810000130CCF81000BDE8B04000F0C4
:104E8000B3BF00004EF21000CEF20000002101601E
:104E9000816040F23C01C2F20001096844F6D3523D
:104EA000C1F26202A1FB02124FF0FF3101EB92113D
:104EB000416007210160704790F84610002908BF43
:104EC000FFF784BF7047000070B515460E460446D4
:104ED000FFF75EFF94F84400FF2804BF002084F829
:104EE000440094F84500FF2804BF002084F84500E2
:104EF000FFF75EFFA06B20B12046BDE87040FFF7D2
:104F000081BD04F1240031462A4600F05DF82046B8
:104F1000BDE87040FFF776BDF0B581B028B340F230
:104F2000D405C2F200050446286A40F2006601304A
:104F30002862C2F200062F6930680430FFF7AEFE27
:104F40003068E419446005D3A86931680431FFF77B
:104F5000E5FE08E0686931680431FFF7DFFEE86AC2
:104F6000844238BFEC6200F03FFF4EF60450CEF2B0
:104F700000004FF080510160BFF34F8FBFF36F8F80
:104F800001B0F0BD40F2D401C2F200014A6B0260F0
:104F9000096941607047000040F2D400C2F200008D
:104FA000012141627047000010B50C4640F20061DB
:104FB000C2F2000109681831FFF7B0FE2046012156
:104FC000BDE81040FFF7D4B9F0B581B040F20065FC
:104FD000C2F2000543682E68F3619E682C68266261
:104FE0002E689C6806F1180666602E680C4606F16D
:104FF00018069E602B689862036803F10101016046
:105000003AB14FF0FF30114601B0BDE8F040FFF774
:10501000AFB940F2D406C2F20006376928680430FE
:10502000FFF73CFE2868E419446007D3B06929689B
:10503000043101B0BDE8F040FFF770BE7069296827
:105040000431FFF76BFEF06A844238BFF46201B0AE
:10505000F0BD000070B5E8B1C26C0446C06A8A4277
:1050600038BF0A46904208BF70BD216D012911D199
:10507000A169E26200295CBFC2F13801A16140F27E
:105080000466616900EB8000C2F2000606EB800056
:10509000814200D070BD251D2846FFF7FFFD40F27C
:1050A000D401C2F20001E06ACA69904288BFC861B7
:1050B00000EB800006EB80014A689368E360936828
:1050C000A2605D609560616156F82010013146F87C
:1050D000201070BD70B584B0002603A802A901AAF3
:1050E000CDE90266FFF7ECFD029DCDB3039CBCB396
:1050F000019E20465C21FBF70EF90220256384F80F
:105100005900B1002846A522FBF7FDF8206B00EB03
:105110008600043820F0070544F24940C4F24C50A0
:105120006063002084F8380084F84300E062E064A3
:10513000201DFFF7EFFD04F11800FFF7EBFD38200D
:1051400044F28D612461A061C0F60001284600226E
:105150006462FFF78FFD20602046FFF74DF9264679
:1051600040F2D404C2F20004A662A6B100F0BCFE74
:10517000012810D14FF0100080F31188BFF36F8F1A
:10518000BFF34F8F4FF0FF30E0620120E06000205E
:10519000206100F069F845F6E470C0F60000006890
:1051A00004B070BD40F2D400C2F20000016A0131C7
:1051B00001627047B0B540F2D404C2F20004206A24
:1051C00010B101206062B0BD002040F20065606255
:1051D000C2F200052868006B0168B1F1A53F0BD150
:1051E0004168B1F1A53F07D18168B1F1A53F03D175
:1051F000C068B0F1A53F04D0286829683431FFF7B2
:105200007BFDE06940F2046100EB8002C2F2000124
:1052100001EB8202143A00BF536983B913685BB98A
:1052200052F8143C53B952F8283C0438002BA2F130
:105230005002F1D0013002E0013800E0023800EB0A
:10524000800201EB820252F8041F4968131D994243
:10525000116003D0C9682960E061B0BD4968116080
:10526000C9682960E061B0BDB0B582B04EF6205487
:10527000CEF20004206840F47F002060206840F0F7
:105280007F402060FFF7FEFD40F24C00C2F20000BC
:1052900000250560FFF772FDD4F8140240F040408D
:1052A000C4F81402FFF728FAFFF784FF01954FF0C6
:1052B000100080F31188BFF36F8FBFF34F8F00BFD3
:1052C000019830B9019820B9019810B901980028C7
:1052D000F6D0002002B0B0BD80B54FF0100080F3D2
:1052E0001188BFF36F8FBFF34F8F00F001FC30B117
:1052F0004EF60450CEF200004FF0805101600020C5
:1053000080F3118880BD000070B506465020FFF77D
:10531000B3FB4FF0000578B3044680F846500060B8
:105320000120C4E90F05FFF733FD2068D4E90F120F
:10533000A56302FB0103013901FB0201C4E901037A
:10534000FF20E16084F8440084F8450004F1100077
:10535000FFF7D4FC04F12400FFF7D0FCFFF728FD91
:10536000204600210022002384F84C602560C4E917
:10537000025500F07DF82546284670BD70B54FF007
:10538000000581B3064601200C4681F846000960FD
:10539000C1E90F05FFF7FCFC2068D4E90F12A563F3
:1053A00002FB0103013901FB0201C4E90103FF20F3
:1053B000E16084F8440084F8450004F11000FFF730
:1053C0009DFC04F12400FFF799FCFFF7F1FC204657
:1053D00000210022002384F84C602560C4E90255B6
:1053E00000F046F82546284670BD000070B51C4602
:1053F00000284FF0000318BF002C01D1184670BDE3
:1054000001B90AB919B112B90023184670BD0123B8
:10541000002984F8463014BF22602460A0FB0123D9
:10542000049EE0632164EBB9FFF7B2FC2068D4E985
:105430000F12002502FB0103013901FB0201A563E4
:10544000C4E90103FF20E16084F8440084F84500CA
:1054500004F11000FFF752FC04F12400FFF74EFCAA
:10546000FFF7A6FC234684F84C60184670BD000088
:105470002DE9F04F85B099461546019104460492F6
:10548000FFF786FCA06BB9F1020F63D0E16B884295
:1054900060D3002D58D004F1100702AE04AD4FF0D8
:1054A000000B00BFBBF1000F04D13046FFF76AFDCF
:1054B0004FF0010BFFF77CFCFFF774FEFFF768FC71
:1054C00094F84400FF2804BF002084F8440094F8B6
:1054D0004500FF2804BF002084F84500FFF768FC62
:1054E0003046294600F0DCF9002877D1FFF750FC60
:1054F000D4F83880D4F83CA0FFF75AFCD04515D139
:1055000004993846FFF750FD2046FFF77BFA00F07C
:105510006BFC80B94EF60450CEF200004FF0805183
:105520000160BFF34F8FBFF36F8F04E02046FFF79A
:1055300069FA00F059FCFFF72BFCA06BE16B884285
:1055400008D304980028ADD1FFF732FC002005B045
:10555000BDE8F08FA56B226CEAB1B9F1000F22D043
:10556000E0680199FAF78AFEE168206C2268091A5E
:105570009142E16003D2A16840420844E060A9F191
:105580000200B0FA80F040092946002D18BF012121
:1055900008402D1A14E0206890B9A06800F02CFB98
:1055A0000020A0600CE060680199FAF767FE216CAA
:1055B000D4E9010208449042606001D32068606031
:1055C000681CA06354F8240F10B1204600F0A2FB21
:1055D000FFF7EEFB012005B0BDE8F08F2046FFF796
:1055E00011FA00F001FC002005B0BDE8F08F0000CA
:1055F0002DE9F04F85B01546894604460492FFF721
:10560000C7FBD4F838B0BBF1000F1DD0226C52B1EB
:10561000D4E902308118E160994224BF2168E16039
:105620004846FAF72BFEABF10100A06354F8100FC7
:1056300000281CBF204600F06DFB0126FFF7B8FBD9
:10564000304605B0BDE8F08F002D4FF00006F5D0D4
:1056500004F1240002AF0DF110084FF0000A019090
:10566000BAF1000F04D13846FFF78CFC4FF0010A65
:10567000FFF79EFBFFF796FDFFF78AFB94F84400C7
:10568000FF2808BF84F8446094F84500FF2808BF4D
:1056900084F84560FFF78CFB3846414600F000F97E
:1056A00060B12046FFF7AEF900F09EFBFFF770FBFC
:1056B000A56BFFF77DFB4DBB3AE000BFFFF768FB32
:1056C000A56BFFF775FB65B12046FFF79BF900F06E
:1056D0008BFBFFF75DFBD4F838B0BBF1000F1DD09A
:1056E00094E704990198FFF75FFC2046FFF78AF9D9
:1056F00000F07AFB50B94EF60450CEF200004FF0A5
:1057000080510160BFF34F8FBFF36F8FFFF740FBF6
:10571000D4F838B0BBF1000F7FF478AF04980028BC
:105720009ED10026FFF744FB304605B0BDE8F08F60
:105730000026304605B0BDE8F08F00002DE9F04F9F
:1057400085B00D4604460491FFF722FBA06BA0B183
:105750000138A063206810B9FFF780FAA06054F800
:10576000100F00281CBF204600F0D4FA0125FFF7D7
:105770001FFB284605B0BDE8F08F002D4FF0000557
:10578000F5D004F1240802AF0DF1100900204FF00C
:10579000000A0190BAF1000F04D13846FFF7F2FB7E
:1057A0004FF0010AFFF704FBFFF7FCFCFFF7F0FAEC
:1057B00094F84400FF2808BF84F8445094F845004A
:1057C000FF2808BF84F84550FFF7F2FA38464946EB
:1057D00000F066F860B12046FFF714F900F004FB12
:1057E000FFF7D6FAA66BFFF7E3FA9EBB3CE000BFDB
:1057F000FFF7CEFAD4F838B0FFF7DAFABBF1000FB2
:1058000009D02046FFF7FEF800F0EEFAFFF7C0FAE5
:10581000A06B28B39CE7206838B9FFF7B9FAA068F5
:1058200000F022FA0190FFF7C3FA04994046FFF70F
:10583000BBFB2046FFF7E6F800F0D6FA50B94EF66B
:105840000450CEF200004FF080510160BFF34F8F43
:10585000BFF36F8FFFF79CFAA06B00287FF478AF3F
:105860000498002896D113E0019840B1FFF790FA10
:10587000606A48B1206B0068C0F1380105E000257E
:10588000284605B0BDE8F08F0021A068FFF7E2FBD5
:105890000025FFF78DFA284605B0BDE8F08F00001F
:1058A000B0B50C460546FFF773FA40F2D40CC2F2CD
:1058B000000CDCF810202168481C1ED06B68DCF856
:1058C00034E09A4202D3286886450FD1D01A81422B
:1058D0000CD9081A2060DCF8340000242860DCF8B9
:1058E00010006860FFF764FA2046B0BD0020206019
:1058F0000124FFF75DFA2046B0BD0024FFF758FAF7
:105900002046B0BD2DE9F04F81B095008246284673
:10591000994690460F46FFF7AFF8002864D004463A
:105920005C20FFF7A9F800285BD0DDF828B05C21E7
:105930000646FAF7F0FC0020346386F8590020464A
:105940002946A522FAF7DFFC306B00EB8800A0F1B6
:10595000040020F00708F7B1002000BF3A5C3118BE
:1059600081F834203A5C9AB13A18537881F835308E
:1059700053786BB1937881F83630937843B1D3780C
:1059800004300F2881F8373002D8D1780029E5D1CA
:10599000002086F84300301DBBF1370F28BF4FF0C1
:1059A000370BC6F82CB0C6F84CB0FFF7B3F906F1C8
:1059B0001800FFF7AFF9CBF138003661B06140460F
:1059C00051464A467662FFF755F90B9930603046EA
:1059D000002918BF0E60FEF70FFD012001B0BDE8E1
:1059E000F08F2046FFF7F2F94FF0FF3001B0BDE82D
:1059F000F08F00002DE9F04F81B00B9E8246002E03
:105A00004FF000005AD00C9D002D57D00F46DDF806
:105A100028B028465C2199461446FAF77CFC0220FF
:105A20002E6385F85900A1003046A522FAF76BFCD9
:105A3000286B00EB8400A0F1040020F00708F7B108
:105A4000002000BF3A5C291881F834203A5C9AB1F2
:105A50003A18537881F8353053786BB1937881F8E0
:105A60003630937843B1D37804300F2881F837303B
:105A700002D8D1780029E5D1002085F84300281DFF
:105A8000BBF1370F28BF4FF0370BC5F82CB0C5F866
:105A90004CB0FFF73FF905F11800FFF73BF9CBF1E8
:105AA00038002D61A861404651464A466D62FFF7B5
:105AB000E1F828602846FEF79FFC284601B0BDE8C3
:105AC000F08F000040F2D400C2F20000C16800294B
:105AD0000FBF0120006AB0FA80F0400918BF4000F3
