:020000040800F2
:10000000103200203D0200084502000847020008A7
:10001000490200084B0200084D02000800000000E1
:1000200000000000000000000000000091390008FE
:100030005102000800000000E1380008B53900084E
:10004000570200085702000857020008570200082C
:100050005702000857020008312D0008B12D000892
:10006000BD2D0008C92D0008D52D00085702000835
:1000700057020008570200085702000857020008FC
:1000800057020008570200085702000857020008EC
:10009000570200085702000857020008E12D000827
:1000A00057020008570200085702000857020008CC
:1000B00057020008570200085702000857020008BC
:1000C00057020008570200085702000857020008AC
:1000D00057020008E9390008153A0008413A0008BB
:1000E0003D2D00085702000857020008570200087B
:1000F000570200085702000857020008570200087C
:10010000570200080000000000000000570200082D
:10011000570200085702000857020008570200085B
:10012000570200085702000857020008570200084B
:1001300057020008570200080000000000000000FD
:10014000570200085702000857020008000000008C
:10015000000000000000000000000000000000009F
:10016000570200085702000857020008570200080B
:1001700057020008570200085702000857020008FB
:1001800057020008570200080000000000000000AD
:100190005702000800F002F800F03CF80AA090E8CE
:1001A000000C82448344AAF10107DA4501D100F032
:1001B00031F8AFF2090EBAE80F0013F0010F18BFC3
:1001C000FB1A43F001031847CC590000EC5900001A
:1001D000103A24BF78C878C1FAD8520724BF30C873
:1001E00030C144BF04680C60704700000023002445
:1001F00000250026103A28BF78C1FBD8520728BF37
:1002000030C148BF0B6070471FB505F091FC1FBDA2
:1002100010B510BD00F0FDF8114603B403F0BCFDAD
:1002200003BCFFF7F1FF03F0B9FD00F017F903B4C9
:10023000FFF7EEFF03BC00F01FF9000009488047FC
:1002400009480047FEE7FEE7FEE7FEE7FEE7FEE7B8
:10025000FEE7FEE7FEE7FEE704480549054A064BD0
:1002600070470000D539000895010008102C0020C7
:1002700010320020102E0020102E0020032A40F201
:10028000308010F0030C00F0158011F8013BBCF138
:10029000020F624498BF11F801CB00F8013B38BF50
:1002A00011F8013BA2F1040298BF00F801CB38BF5E
:1002B00000F8013B11F0030300F05280083AC0F04F
:1002C000088051F8043B083A51F804CBA0E8081024
:1002D000F5E7121D5CBF51F8043B40F8043BAFF357
:1002E0000080D20724BF11F8013B11F801CB48BFB1
:1002F00011F8012B24BF00F8013B00F801CB48BFE7
:1003000000F8012B704702F0FF0343EA032242EAA0
:10031000024200F059B84FF000020429C0F01280E8
:1003200010F0030C00F05080CCF1040CBCF1020F73
:1003300018BF00F8012BA8BF20F8022BA1EB0C017D
:1003400000F042B85FEAC17C24BF00F8012B00F83E
:10035000012B48BF00F8012B70477047704770476A
:1003600010B5203AC0F00B80B1E81850A0E8185042
:10037000B1E81850A0E81850203ABFF4F5AF5FEA92
:10038000027C24BFB1E81850A0E8185044BF18C937
:1003900018C0BDE810405FEA827C24BF51F8043BDE
:1003A00040F8043B08BF7047D20728BF31F8023B32
:1003B00048BF11F8012B28BF20F8023B48BF00F8C6
:1003C000012B70474FF0000200B513469446964645
:1003D000203922BFA0E80C50A0E80C50B1F1200158
:1003E000BFF4F7AF090728BFA0E80C5048BF0CC006
:1003F0005DF804EB890028BF40F8042B08BF704764
:1004000048BF20F8022B11F0804F18BF00F8012BD5
:100410007047754600F02CF8AE4605006946534615
:1004200020F00700854618B020B5FFF715FFBDE89E
:1004300020404FF000064FF000074FF000084FF04B
:10044000000BAC46ACE8C009ACE8C009ACE8C00998
:10045000ACE8C00921F007018D46704710B504468D
:10046000AFF300802046BDE81040FFF7E0BE00007B
:10047000004870477000002001491820ABBEFEE71D
:10048000260002007047000084B040F20050C0F225
:100490000110039040F60250C0F20410029003A82D
:1004A00002F0CEFC02A802F0CBFC40F2D40740F2EE
:1004B000211A40F2D80640F2341B0DF10705C2F2B2
:1004C0000007C2F2000A0024C2F20006C2F2000BCA
:1004D00029E000BF0020052100228AF8004002F038
:1004E00053FD40F23010C2F20000006804F0B6FA8A
:1004F000306804F0B3FADBF8000004F0AFFA40F221
:100500001810C2F20000006804F0A8FA3C809DF8C0
:100510000700398800284FF0000008BF481C3880C9
:10052000C82004F0C3F902200D212A4602F0E6FC9F
:1005300038880F28EBD19AF800000028CAD1012092
:100540008AF8000000200521012202F01DFD40F282
:100550003010C2F20000006804F00EFB3068B146B3
:1005600004F00AFBDBF80000D84604F005FB40F27B
:100570001810C2F20000006804F0FEFA40F21C14E9
:10058000C2F2000410202146022202F011FB12A048
:1005900002F076FD17A002F073FD45F6843B21784A
:1005A000C0F6000B5846FC2917A208BF10465A296E
:1005B0001BA108BF084602F063FD1EA002F060FD0B
:1005C0006078FE280CBF20A0584602F059FD4E4628
:1005D000C34600249AE700BF57454C434F4D452082
:1005E000544F204D414E41474D454E54204D4F44B0
:1005F000450D0A004D4F544F522054454D50205345
:10060000544154555320090053454E534F525F4EA9
:100610004F54524553504F4E44494E47200D090008
:1006200054454D505F4F56455248454154200D09A1
:1006300000000000554C545241534F4E4943205343
:10064000544154555320090055535F4E4F54524561
:1006500053504F4E44494E470D09000084B04FF4AB
:10066000FA7004F023F90FA0D0E9010140F203056C
:1006700003910C4940F21E16C2F20005C2F20006B8
:1006800001ACCDE9011000BF287830706878707037
:10069000A878B070204601F09FFB4FF47A7004F008
:1006A00005F9F1E700000300000200001E01002030
:1006B00080B546F20C6CC4F2000C5CF80C3C0146B0
:1006C00043F001004CF80C0C0B780D2B00F27381F9
:1006D000B1FA81F04009DFE813F00E007001B601B5
:1006E000FC01560042028802CE0218039C006203FD
:1006F000E6002A01AC03DCF8102022F00102CCF85D
:1007000010208B78012B00F0AC84002B41F070821C
:100710005CF8082C22F001024CF8082CCB78012B55
:1007200000F01A86002B41F06382DCF8002022F0F2
:100730000102CCF800200A79DCF8083062F30003EB
:10074000CCF808304B78012B01F0C180002B41F030
:100750004F82DCF83420D1E9023E92B2DCF834104A
:1007600042EA43121143CCF83410DCF834104FF64F
:10077000FF729143DCF8342041EA4E511143CCF82A
:10078000341001F035BADCF8102022F01002CCF859
:1007900010208B78012B00F09083002B40F0C28654
:1007A0005CF8082C22F010024CF8082CCB78012BB6
:1007B00000F0E785002B40F0B586DCF8002022F041
:1007C0001002CCF800200A79DCF8083062F3041338
:1007D000CCF808304B78012B01F09080002B40F0D2
:1007E000A186DCF85420D1E9023E92B2DCF8541024
:1007F00042EA43121143CCF85410DCF854104FF67F
:10080000FF729143DCF8542041EA4E51114300F04D
:1008100087BEDCF8102022F40072CCF810208B7810
:10082000012B00F07283002B40F096865CF8082CB8
:1008300022F400724CF8082CCB78012B00F0B7851D
:10084000002B40F08986DCF8002022F40072CCF8FE
:1008500000200A79DCF8083002F0010223F400736A
:1008600043EA4222CCF808204B78012B01F05F804C
:10087000002B40F07186DCF87C20D1E9023E92B278
:10088000DCF87C1042EA43121143CCF87C10DCF80F
:100890007C104FF6FF729143DCF87C2041EA4E5108
:1008A000114300F057BE8B78012B00F05A83002BC8
:1008B00040F06C865CF8082C22F400624CF8082C9E
:1008C000CB78012B00F08D85002B40F05F86DCF8A3
:1008D000002022F40062CCF800200A79DCF808300D
:1008E00002F0010223F4006343EAC222CCF808209C
:1008F0004B78012B01F03480002B40F04786DCF868
:100900008C20D1E9023E92B2DCF88C1042EA43120C
:100910001143CCF88C10DCF88C104FF6FF72914329
:10092000DCF88C2041EA4E51114300F02DBE8B784B
:10093000012B00F04283002B40F04A865CF8082C23
:1009400022F480524CF8082CCB78012B00F0638500
:10095000002B40F03D86DCF8002022F48052CCF8D9
:1009600000200A79DCF8083002F0010223F48053F9
:1009700043EA0232CCF808204B78012B01F00980C1
:10098000002B40F02586DCF89420D1E9023E92B29B
:10099000DCF8941042EA43121143CCF89410DCF8CE
:1009A00094104FF6FF729143DCF8942041EA4E51C7
:1009B000114300F00BBE022080BDDCF8102022F0B5
:1009C0000202CCF810208B78012B00F07583002BED
:1009D00040F044865CF8082C22F002024CF8082C07
:1009E000CB78012B00F03185002B40F03786DCF806
:1009F000002022F00202CCF800200A79DCF808304E
:100A000062F34103CCF808304B78012B00F0DA8711
:100A1000002B40F02386DCF83C20D1E9023E92B264
:100A2000DCF83C1042EA43121143CCF83C10DCF8ED
:100A30003C104FF6FF729143DCF83C2041EA4E51E6
:100A4000114300F009BEDCF8102022F00402CCF8BB
:100A500010208B78012B00F0DC82002B40F0D68533
:100A60005CF8082C22F004024CF8082CCB78012BFF
:100A700000F00185002B40F0C985DCF8002022F051
:100A80000402CCF800200A79DCF8083062F3820313
:100A9000CCF808304B78012B00F0AD87002B40F0EC
:100AA000B585DCF84420D1E9023E92B2DCF844106E
:100AB00042EA43121143CCF84410DCF844104FF6DC
:100AC000FF729143DCF8442041EA4E51114300F09B
:100AD0009BBDDCF8102022F00802CCF810208B78A7
:100AE000012B00F01183002B40F0CE855CF8082C20
:100AF00022F008024CF8082CCB78012B00F0D184AE
:100B0000002B40F0C185DCF8002022F00802CCF870
:100B100000200A79DCF8083062F3C303CCF808300F
:100B20004B78012B00F08087002B40F0AD85DCF87E
:100B30004C20D1E9023E92B2DCF84C1042EA43125A
:100B40001143CCF84C10DCF84C104FF6FF72914377
:100B5000DCF84C2041EA4E51114300F093BDDCF823
:100B6000102022F02002CCF810208B78012B00F00E
:100B7000F382002B40F032865CF8082C22F0200231
:100B80004CF8082CCB78012B00F09D85002B40F011
:100B90002586DCF8002022F02002CCF800200A791B
:100BA000DCF8083062F34513CCF808304B78012BA1
:100BB00000F05387002B40F01186DCF85C20D1E96F
:100BC000023E92B2DCF85C1042EA43121143CCF8C8
:100BD0005C10DCF85C104FF6FF729143DCF85C208F
:100BE00041EA4E51114300F0F7BDDCF8102022F02D
:100BF0004002CCF810208B78012B00F0D582002B1E
:100C000040F002865CF8082C22F040024CF8082CD8
:100C1000CB78012B00F06D85002B40F0F585DCF8DA
:100C2000002022F04002CCF800200A79DCF80830DD
:100C300062F38613CCF808304B78012B00F026873E
:100C4000002B40F0E185DCF86420D1E9023E92B24D
:100C5000DCF8641042EA43121143CCF86410DCF86B
:100C600064104FF6FF729143DCF8642041EA4E5164
:100C7000114300F0C7BDDCF8102022F08002CCF850
:100C800010208B78012B00F0B782002B40F01685E6
:100C90005CF8082C22F080024CF8082CCB78012B51
:100CA00000F01584002B40F00985DCF8002022F0CC
:100CB0008002CCF800200A79DCF8083002F001024A
:100CC00023F0800343EAC212CCF808204B78012BB2
:100CD00000F0F586002B40F0F184DCF86C20D1E9BF
:100CE000023E92B2DCF86C1042EA43121143CCF897
:100CF0006C10DCF86C104FF6FF729143DCF86C203E
:100D000041EA4E51114300F0D7BCDCF8102022F428
:100D10008072CCF810208B78012B00F09982002B88
:100D200040F08C855CF8082C22F480724CF8082C7A
:100D3000CB78012B00F0F384002B40F07F85DCF8AA
:100D4000002022F48072CCF800200A79DCF8083008
:100D500002F0010223F4807343EA0222CCF8082057
:100D60004B78012B00F0C486002B40F06785DCF83F
:100D70007420D1E9023E92B2DCF8741042EA4312C8
:100D80001143CCF87410DCF874104FF6FF729143E5
:100D9000DCF8742041EA4E51114300F04DBDDCF8FF
:100DA000102022F48062CCF810208B78012B00F008
:100DB0007B82002B40F05C855CF8082C22F480627A
:100DC0004CF8082CCB78012B00F0C384002B40F0AA
:100DD0004F85DCF8002022F48062CCF800200A79EC
:100DE000DCF8083002F0010223F4806343EA822237
:100DF000CCF808204B78012B00F09386002B40F0B4
:100E00003785DCF88420D1E9023E92B2DCF8841008
:100E100042EA43121143CCF88410DCF884104FF6F8
:100E2000FF729143DCF8842041EA4E51114300F0F7
:100E30001DBD8B78012B00F06382002B40F03A85BA
:100E40005CF8082C22F400524CF8082CCB78012BCB
:100E500000F09984002B40F02D85DCF8002022F46E
:100E60000052CCF800200A79DCF8083002F00102C8
:100E700023F4005343EA4232CCF808204B78012B8C
:100E800000F06886002B40F01585DCF89C20D1E945
:100E9000023E92B2DCF89C1042EA43121143CCF8B5
:100EA0009C10DCF89C104FF6FF729143DCF89C20FC
:100EB00041EA4E51114300F0FBBCDCF8002042F047
:100EC0001002CCF80020CB78012B00F01A83002B05
:100ED00040F02883DCF8002022F01002CCF800203B
:100EE0000A79DCF8083062F30413CCF808304B7848
:100EF000012B00F04886002B40F01483DCF85420CE
:100F0000896892B242EA41110AE3DCF8002042F417
:100F10000072CCF80020CB78012B00F00883002B66
:100F200040F01A83DCF8002022F40072CCF8002094
:100F30000A79DCF8083002F0010223F4007343EA76
:100F40004222CCF808204B78012B00F02586002B9C
:100F500040F00283DCF87C20896892B242EA4111B9
:100F6000F8E2DCF8002042F40062CCF80020CB78F4
:100F7000012B00F0F682002B40F00883DCF8002003
:100F800022F40062CCF800200A79DCF8083002F084
:100F9000010223F4006343EAC222CCF808204B7814
:100FA000012B00F00286002B40F0F082DCF88C2050
:100FB000896892B242EA4111E6E2DCF8002042F48C
:100FC0008052CCF80020CB78012B00F0EC82002B73
:100FD00040F0FE82DCF8002022F48052CCF80020A1
:100FE0000A79DCF8083002F0010223F4805343EA66
:100FF0000232CCF808204B78012B00F0DF85002B63
:1010000040F0E682DCF89420896892B242EA41110D
:10101000DCE2DCF8002042F00402CCF80020CB78BF
:10102000012B00F0E282002B40F0F082DCF800207F
:1010300022F00402CCF800200A79DCF8083062F3D0
:101040008203CCF808304B78012B00F0C085002BD0
:1010500040F0DC82DCF84420896892B242EA411117
:10106000D2E2DCF8002042F00102CCF80020CB787C
:10107000012B00F0D082002B40F0BA85DCF8002074
:1010800022F00102CCF800200A79DCF8083062F383
:101090000003CCF808304B78012B00F0A185002B21
:1010A00040F0A685DCF83420896892B242EA41110A
:1010B000CCF8341000F09CBDDCF8002042F00202B5
:1010C000CCF80020CB78012B00F0B782002B40F049
:1010D000C582DCF8002022F00202CCF800200A7958
:1010E000DCF8083062F34103CCF808304B78012B70
:1010F00000F08B85002B40F0B182DCF83C20896841
:1011000092B242EA4111A7E2DCF8002042F0080264
:10111000CCF80020CB78012B00F0A582002B40F00A
:10112000B382DCF8002022F00802CCF800200A7913
:10113000DCF8083062F3C303CCF808304B78012B9D
:1011400000F06C85002B40F09F82DCF84C20896811
:1011500092B242EA411195E2DCF8002042F020020E
:10116000CCF80020CB78012B00F02783002B40F037
:101170003583DCF8002022F02002CCF800200A7928
:10118000DCF8083062F34513CCF808304B78012BBB
:1011900000F04D85002B40F02183DCF85C2089684D
:1011A00092B242EA411117E3DCF8002042F040021B
:1011B000CCF80020CB78012B00F01583002B40F0F9
:1011C0002383DCF8002022F04002CCF800200A79CA
:1011D000DCF8083062F38613CCF808304B78012B2A
:1011E00000F02E85002B40F00F83DCF86420896826
:1011F00092B242EA411105E3DCF8002042F080029D
:10120000CCF80020CB78012B00F04382002B40F07B
:101210005582DCF8002022F08002CCF800200A7908
:10122000DCF8083002F0010223F0800343EAC21226
:10123000CCF808204B78012B00F00A85002B40F0F9
:101240003D82DCF86C20896892B242EA411133E2B7
:10125000DCF8002042F48072CCF80020CB78012B1F
:1012600000F0D782002B40F0E982DCF8002022F465
:101270008072CCF800200A79DCF8083002F0010214
:1012800023F4807343EA0222CCF808204B78012B28
:1012900000F0E784002B40F0D182DCF874208968EC
:1012A00092B242EA4111C7E2DCF8002042F48062C7
:1012B000CCF80020CB78012B00F0C582002B40F049
:1012C000D782DCF8002022F48062CCF800200A7972
:1012D000DCF8083002F0010223F4806343EA822242
:1012E000CCF808204B78012B00F0C484002B40F090
:1012F000BF82DCF88420896892B242EA4111B5E2EB
:10130000DCF8002042F40052CCF80020CB78012B0E
:1013100000F0BB82002B40F0CD82DCF8002022F4EC
:101320000052CCF800200A79DCF8083002F0010203
:1013300023F4005343EA4232CCF808204B78012BC7
:1013400000F0A184002B40F0B582DCF89C20896875
:1013500092B242EA4111ABE2DCF8002042F0010215
:10136000CCF800200A79DCF8083062F30003CCF8EE
:101370000830D1E902215205CCF83420490500F0AB
:1013800035BCDCF8002042F01002CCF800200A79CD
:10139000DCF8083062F30413CCF80830D1E90221FC
:1013A00052054905CCF85420CCF85810BAE0DCF8C6
:1013B000002042F40072CCF800200A79DCF80830F2
:1013C00002F0010223F4007343EA4222CCF8082021
:1013D000D1E9022152054905CCF87C20CCF88010D7
:1013E000BAE0DCF8002042F40062CCF800200A7970
:1013F000DCF8083002F0010223F4006343EAC22261
:10140000CCF80820D1E9022152054905CCF88C20FE
:10141000CCF89010BAE0DCF8002042F48052CCF80E
:1014200000200A79DCF8083002F0010223F480532E
:1014300043EA0232CCF80820D1E9022152054905DD
:10144000CCF89420CCF89810C2E0DCF8002042F0F0
:101450000202CCF800200A79DCF8083062F341037C
:10146000CCF80830D1E9022152054905CCF83C20DE
:10147000CCF84010F2E0DCF8002042F00402CCF896
:1014800000200A79DCF8083062F38203CCF80830D7
:10149000D1E9022152054905CCF84420CCF8481086
:1014A000B4E0DCF8002042F00802CCF800200A7911
:1014B000DCF8083062F3C303CCF80830D1E902212C
:1014C00052054905CCF84C20CCF85010DCE0DCF893
:1014D000002042F08002CCF800200A79DCF80830C5
:1014E00002F0010223F0800343EAC212CCF8082084
:1014F000D1E9022152054905CCF86C20CCF87010D6
:10150000DCE0DCF8002042F01002CCF800200A7980
:10151000DCF8083062F30413CCF808308968490518
:10152000CCF85410DCF8101041F0100164E3DCF842
:10153000002042F40072CCF800200A79DCF8083070
:1015400002F0010223F4007343EA4222CCF808209F
:1015500089684905CCF87C10DCF8101041F4007162
:101560004AE3DCF8002042F40062CCF800200A795B
:10157000DCF8083002F0010223F4006343EAC222DF
:10158000CCF8082089684905CCF88C105CF80C1C54
:1015900021F001014CF80C1CDCF8101041F4006142
:1015A000CCF8101080BDDCF8002042F48052CCF85A
:1015B00000200A79DCF8083002F0010223F480539D
:1015C00043EA0232CCF8082089684905CCF8941027
:1015D0005CF80C1C21F001014CF80C1CDCF810101C
:1015E00041F48051CCF8101080BDDCF8002042F0AE
:1015F0000402CCF800200A79DCF8083062F3820398
:10160000CCF8083089684905CCF84410DCF8101093
:1016100041F00401F0E2DCF8002042F00102CCF8D5
:1016200000200A79DCF8083062F30003CCF80830B7
:1016300089684905CCF83410D8E2DCF8002042F083
:101640000202CCF800200A79DCF8083062F341038A
:10165000CCF8083089684905CCF83C10DCF810104B
:1016600041F00201C8E2DCF8002042F00802CCF8A8
:1016700000200A79DCF8083062F3C303CCF80830A4
:1016800089684905CCF84C10DCF8101041F00801CD
:10169000B2E2DCF8002042F08002CCF800200A79A7
:1016A000DCF8083002F0010223F0800343EAC212A2
:1016B000CCF8082089684905CCF86C10DCF81010CB
:1016C00041F0800198E2DCF8002042F02002CCF8E2
:1016D00000200A79DCF8083062F34513CCF80830B2
:1016E000D1E9022152054905CCF85C20CCF8601004
:1016F00074E0DCF8002042F04002CCF800200A79C7
:10170000DCF8083062F38613CCF80830D1E9022106
:1017100052054905CCF86420CCF8681074E0DCF878
:10172000002042F48072CCF800200A79DCF80830FE
:1017300002F0010223F4807343EA0222CCF808206D
:10174000D1E9022152054905CCF87420CCF8781073
:1017500074E0DCF8002042F48062CCF800200A79C2
:10176000DCF8083002F0010223F4806343EA8222AD
:10177000CCF80820D1E9022152054905CCF8842093
:10178000CCF8881074E0DCF8002042F40052CCF869
:1017900000200A79DCF8083002F0010223F400533B
:1017A00043EA4232CCF80820D1E90221520549052A
:1017B000CCF89C20CCF8A0107CE0DCF8002042F0B3
:1017C0002002CCF800200A79DCF8083062F34513D7
:1017D000CCF8083089684905CCF85C10DCF81010AA
:1017E00041F0200108E2DCF8002042F04002CCF891
:1017F00000200A79DCF8083062F38613CCF8083050
:1018000089684905CCF86410DCF8101041F04001FB
:10181000F2E1DCF8002042F48072CCF800200A7972
:10182000DCF8083002F0010223F4807343EA02225C
:10183000CCF8082089684905CCF87410DCF8101041
:1018400041F48071D8E1DCF8002042F48062CCF8E9
:1018500000200A79DCF8083002F0010223F48063EA
:1018600043EA8222CCF8082089684905CCF8841024
:101870005CF80C1C21F001014CF80C1CDCF8101079
:1018800041F48061CCF8101080BDDCF8002042F4F7
:101890000052CCF800200A79DCF8083002F001028E
:1018A00023F4005343EA4232CCF808208968490502
:1018B000CCF89C105CF80C1C21F001014CF80C1CBD
:1018C000DCF8101041F40051CCF8101080BDDCF8A9
:1018D0003420D1E9023E92B2DCF8381042EA4312D9
:1018E0001143CCF83810DCF834104FF6FF729143F6
:1018F000DCF8382041EA4E51114377E1DCF85420FE
:10190000D1E9023E92B2DCF8581042EA4312114388
:10191000CCF85810DCF854104FF6FF729143DCF805
:10192000582041EA4E511143CCF85810FAE5DCF842
:101930007C20D1E9023E92B2DCF8801042EA4312E8
:101940001143CCF88010DCF87C104FF6FF72914305
:10195000DCF8802041EA4E511143CCF88010FBE5C1
:10196000DCF88C20D1E9023E92B2DCF8901042EA19
:1019700043121143CCF89010DCF88C104FF6FF7234
:101980009143DCF8902041EA4E511143CCF890107D
:10199000FCE5DCF89420D1E9023E92B2DCF8981024
:1019A00042EA43121143CCF89810DCF894104FF639
:1019B000FF729143DCF8982041EA4E511143CCF874
:1019C000981005E6DCF83C20D1E9023E92B2DCF842
:1019D000401042EA43121143CCF84010DCF83C10AE
:1019E0004FF6FF729143DCF8402041EA4E5111431B
:1019F000CCF8401032E6DCF84420D1E9023E92B245
:101A0000DCF8481042EA43121143CCF84810DCF8E5
:101A100044104FF6FF729143DCF8482041EA4E51E2
:101A20001143CCF84810F1E5DCF84C20D1E9023E36
:101A300092B2DCF8501042EA43121143CCF8501035
:101A4000DCF84C104FF6FF729143DCF8502041EA6D
:101A50004E511143CCF8501016E6DCF85C20D1E969
:101A6000023E92B2DCF8601042EA43121143CCF815
:101A70006010DCF85C104FF6FF729143DCF86020D8
:101A800041EA4E511143CCF86010A7E6DCF864201F
:101A9000D1E9023E92B2DCF8681042EA43121143E7
:101AA000CCF86810DCF864104FF6FF729143DCF854
:101AB000682041EA4E511143CCF86810A4E6DCF8E6
:101AC0006C20D1E9023E92B2DCF8701042EA431277
:101AD0001143CCF87010DCF86C104FF6FF72914394
:101AE000DCF8702041EA4E511143CCF87010E5E566
:101AF000DCF87420D1E9023E92B2DCF8781042EAB8
:101B000043121143CCF87810DCF874104FF6FF72D2
:101B10009143DCF8782041EA4E511143CCF878101B
:101B20008CE6DCF88420D1E9023E92B2DCF8881021
:101B300042EA43121143CCF88810DCF884104FF6C7
:101B4000FF729143DCF8882041EA4E511143CCF8F2
:101B500088108DE6DCF89C20D1E9023E92B2DCF8D8
:101B6000A01042EA43121143CCF8A010DCF89C10FC
:101B70004FF6FF729143DCF8A02041EA4E51114329
:101B8000CCF8A01096E6DCF85420896892B242EABC
:101B90004111CCF85810C5E4DCF87C20896892B279
:101BA00042EA4111CCF88010D6E4DCF88C20896838
:101BB00092B242EA4111CCF89010E7E4DCF89420AC
:101BC000896892B242EA4111CCF8981000E5DCF83D
:101BD0004420896892B242EA4111CCF8481015E5D8
:101BE000DCF83420896892B242EA4111CCF838100E
:101BF000DCF8101041F00101CCF810105CF80C1C5E
:101C000021F001014CF80C1C80BDDCF83C208968F7
:101C100092B242EA4111CCF840101FE5DCF84C20AA
:101C2000896892B242EA4111CCF850102CE5DCF8F8
:101C30005C20896892B242EA4111CCF86010CDE58F
:101C4000DCF864208968C2EA4151CCF86810DBE511
:101C5000DCF86C20896892B242EA4111CCF870102D
:101C60002CE5DCF87420896892B242EA4111CCF884
:101C70007810E3E5DCF88420896892B242EA4111E9
:101C8000CCF88810F4E5DCF89C20896892B242EA2E
:101C90004111CCF8A0100DE646F21441C4F2000147
:101CA00051F8142C42F0010241F8142C51F8102C78
:101CB000D207FBD051F8142C22F0020241F8142C68
:101CC00051F8102C9207FBD4427951F8143C02F0E1
:101CD000010223F4803343EA024241F8142C827853
:101CE00051F8143C62F3451341F8143CC27851F8A2
:101CF000143C62F3861341F8143C427851F8143CCA
:101D000062F3041341F8143C027851F8143C62F376
:101D1000C30341F8143C027951F8143C02F001026B
:101D200023F0800343EAC21241F8142CD1F8702149
:101D300092B2C1F87021827951F8143C62F38203A7
:101D400041F8143C80688A6860F31D028A60086864
:101D500020F480600860086820F40070086008685B
:101D600020F400400860086820F48070086008686B
:101D700020F004000860086820F02000086008686F
:101D800020F002000860086820F010000860086871
:101D900020F008000860086820F04000086008682B
:101DA00020F400600860086820F4003008600868CB
:101DB00020F001000860086820F48030086051F8C5
:101DC000140C20F0010041F8140C00BF51F8100C65
:101DD000C007FBD10020704780B546F2885E4FF601
:101DE0008063C4F2000ECFF6FF735EF803108446E2
:101DF00041F001014EF803105EF8031041F48071C8
:101E00004EF803105EF8031041F480304EF80300E2
:101E10005EF80300BCFA8CF140014FEA51101FD468
:101E20005EF80310090130D45EF80310C90058BFF2
:101E300080BD9CF80030012B00F09580002B40F015
:101E4000AE80DEF8181021F00401CEF81810DCF88E
:101E50000410DEF818206FF35F5242EA41539CE011
:101E60009CF80030012B27D0002B41D15EF8081CD4
:101E700021F004014EF8081CDCF804105EF8083C60
:101E80006FF35F5343EA415330E09CF80030012B7D
:101E900000F0B680002B40F0CF80DEF8081021F073
:101EA0000401CEF80810DCF80410DEF808206FF307
:101EB0005F5242EA4153BDE05EF8081C4FF6FF72E4
:101EC00041F004014EF8081C5EF8081CC0F21F0225
:101ED0006FF35F514EF8081CDCF804105EF8083C04
:101EE000073A02EAC1016FF3D4030B444EF8083CF1
:101EF0009CF80130012B29D073BB5EF8081C21F03F
:101F000002014EF8081C9CF802105EF8042C61F3E4
:101F100003024EF8042C9CF802104B1E072B00F213
:101F20005182DFE813F00800D200E8000901350112
:101F30006B01AC01F801DCF808100978DEF800202C
:101F400022F0FF021144CEF8001005E05EF8081CF4
:101F500041F002014EF8081C5EF8081C41F0010136
:101F60004EF8081C80BDDEF818104FF6FF7341F0E4
:101F70000401CEF81810DEF81810C0F21F036FF33A
:101F80005F51CEF81810DCF80410DEF81820073B7B
:101F900003EAC1016FF3D4025318CEF818309CF84D
:101FA0000130012B00F07780002B40F07A80DEF8C2
:101FB000181021F00201CEF818109CF80210DEF87B
:101FC0001C2061F30302CEF81C209CF802104B1E6B
:101FD000072B00F2F584DFE813F00800F7010D028B
:101FE0002E025A029002D1021D03DCF80810097873
:101FF000DEF8202022F0FF021144CEF8201050E03D
:10200000DEF808104FF6FF7341F00401CEF8081017
:10201000DEF80810C0F21F036FF35F51CEF808100E
:10202000DCF80410DEF80820073B03EAC1016FF377
:10203000D4025318CEF808309CF80130012B37D069
:10204000002B3BD1DEF8081021F00201CEF8081079
:102050009CF80210DEF80C2061F30302CEF80C208D
:102060009CF802104B1E072B00F2AD84DFE813F042
:10207000080029033F0360038C03C20303045004D8
:10208000DCF808100978DEF8102022F0FF02114475
:10209000CEF8101012E0DEF8181041F00201CEF870
:1020A0001810DEF8181041F00101CEF8181080BDAC
:1020B000DEF8081041F00201CEF80810DEF8081032
:1020C00041F00101CEF8081080BDDCF80810097855
:1020D000DEF8002022F0FF021144CEF80010DCF8F8
:1020E00008104978DEF8002022F47F4242EA0121FC
:1020F000CEF8001030E7DCF808100978DEF8002090
:1021000022F0FF021144CEF80010DCF808104978E4
:10211000DEF8002022F47F4242EA0121CEF80010CE
:10212000DCF808108978DEF8002022F47F0242EA09
:102130000141CEF800100FE7DCF808100978DEF84E
:10214000002022F0FF021144CEF80010DCF8081045
:102150004978DEF8002022F47F4242EA0121CEF8DD
:102160000010DCF808108978DEF8002022F47F02E5
:1021700042EA0141CEF80010DCF80810C978DEF818
:10218000002022F07F4242EA0161CEF80010E3E62F
:10219000DCF808100978DEF8002022F0FF02114474
:1021A000CEF80010DCF808104978DEF8002022F4A0
:1021B0007F4242EA0121CEF80010DCF8081089784D
:1021C000DEF8002022F47F0242EA0141CEF800103E
:1021D000DCF80810C978DEF8002022F07F4242EADD
:1021E0000161CEF80010DCF808100979DEF804204F
:1021F00022F0FF021144CEF80410ADE6DCF808101E
:102200000978DEF8002022F0FF021144CEF8001019
:10221000DCF808104978DEF8002022F47F4242EA18
:102220000121CEF80010DCF808108978DEF80020D3
:1022300022F47F0242EA0141CEF80010DCF80810D7
:10224000C978DEF8002022F07F4242EA0161CEF830
:102250000010DCF808100979DEF8042022F0FF02F3
:102260001144CEF80410DCF808104979DEF8042097
:1022700022F47F4242EA0121CEF804106CE6DCF839
:1022800008100978DEF8002022F0FF021144CEF891
:102290000010DCF808104978DEF8002022F47F42B4
:1022A00042EA0121CEF80010DCF808108978DEF847
:1022B000002022F47F0242EA0141CEF80010DCF84F
:1022C0000810C978DEF8002022F07F4242EA01615E
:1022D000CEF80010DCF808100979DEF8042022F0AE
:1022E000FF021144CEF80410DCF808104979DEF83A
:1022F000042022F47F4242EA0121CEF80410DCF8E7
:1023000008108979DEF8042022F47F0242EA0141B4
:10231000CEF8041020E6DCF808100978DEF800207A
:1023200022F0FF021144CEF80010DCF808104978C2
:10233000DEF8002022F47F4242EA0121CEF80010AC
:10234000DCF808108978DEF8002022F47F0242EAE7
:102350000141CEF80010DCF80810C978DEF8002042
:1023600022F07F4242EA0161CEF80010DCF808104A
:102370000979DEF8042022F0FF021144CEF804109F
:10238000DCF808104979DEF8042022F47F4242EAA2
:102390000121CEF80410DCF808108979DEF8042059
:1023A00022F47F0242EA0141CEF80410DCF8081062
:1023B000C979DEF8042022F07F4242EA0161CEF8BA
:1023C0000410C9E50220C7E5DCF808100978DEF83A
:1023D000202022F0FF021144CEF82010DCF8081073
:1023E0004978DEF8202022F47F4242EA0121CEF82B
:1023F000201056E6DCF808100978DEF8202022F0DC
:10240000FF021144CEF82010DCF808104978DEF8FD
:10241000202022F47F4242EA0121CEF82010DCF88D
:1024200008108978DEF8202022F47F0242EA014178
:10243000CEF8201035E6DCF808100978DEF8202008
:1024400022F0FF021144CEF82010DCF80810497881
:10245000DEF8202022F47F4242EA0121CEF820104B
:10246000DCF808108978DEF8202022F47F0242EAA6
:102470000141CEF82010DCF80810C978DEF82020E1
:1024800022F07F4242EA0161CEF8201009E6DCF832
:1024900008100978DEF8202022F0FF021144CEF85F
:1024A0002010DCF808104978DEF8202022F47F4262
:1024B00042EA0121CEF82010DCF808108978DEF815
:1024C000202022F47F0242EA0141CEF82010DCF8FD
:1024D0000810C978DEF8202022F07F4242EA01612C
:1024E000CEF82010DCF808100979DEF8242022F05C
:1024F000FF021144CEF82410D3E5DCF80810097867
:10250000DEF8202022F0FF021144CEF82010DCF883
:1025100008104978DEF8202022F47F4242EA0121A7
:10252000CEF82010DCF808108978DEF8202022F49C
:102530007F0242EA0141CEF82010DCF80810C97889
:10254000DEF8202022F07F4242EA0161CEF820101E
:10255000DCF808100979DEF8242022F0FF0211448B
:10256000CEF82410DCF808104979DEF8242022F493
:102570007F4242EA0121CEF8241092E5DCF80810EF
:102580000978DEF8202022F0FF021144CEF8201056
:10259000DCF808104978DEF8202022F47F4242EA75
:1025A0000121CEF82010DCF808108978DEF8202010
:1025B00022F47F0242EA0141CEF82010DCF8081034
:1025C000C978DEF8202022F07F4242EA0161CEF88D
:1025D0002010DCF808100979DEF8242022F0FF0230
:1025E0001144CEF82410DCF808104979DEF82420D4
:1025F00022F47F4242EA0121CEF82410DCF80810D0
:102600008979DEF8242022F47F0242EA0141CEF8E3
:10261000241046E5DCF808100978DEF8202022F0C6
:10262000FF021144CEF82010DCF808104978DEF8DB
:10263000202022F47F4242EA0121CEF82010DCF86B
:1026400008108978DEF8202022F47F0242EA014156
:10265000CEF82010DCF80810C978DEF8202022F02F
:102660007F4242EA0161CEF82010DCF808100979B7
:10267000DEF8242022F0FF021144CEF82410DCF80A
:1026800008104979DEF8242022F47F4242EA012131
:10269000CEF82410DCF808108979DEF8242022F422
:1026A0007F0242EA0141CEF82410DCF80810C97913
:1026B000DEF8242022F07F4242EA0161CEF82410A5
:1026C000EFE4DCF808100978DEF8102022F0FF02B1
:1026D0001144CEF81010DCF808104978DEF810200C
:1026E00022F47F4242EA0121CEF81010E6E4DCF841
:1026F00008100978DEF8102022F0FF021144CEF80D
:102700001010DCF808104978DEF8102022F47F421F
:1027100042EA0121CEF81010DCF808108978DEF8C2
:10272000102022F47F0242EA0141CEF81010C5E4E5
:10273000DCF808100978DEF8102022F0FF021144BE
:10274000CEF81010DCF808104978DEF8102022F4DA
:102750007F4242EA0121CEF81010DCF80810897897
:10276000DEF8102022F47F0242EA0141CEF8101078
:10277000DCF80810C978DEF8102022F07F4242EA27
:102780000161CEF8101099E4DCF808100978DEF841
:10279000102022F0FF021144CEF81010DCF80810CF
:1027A0004978DEF8102022F47F4242EA0121CEF877
:1027B0001010DCF808108978DEF8102022F47F026F
:1027C00042EA0141CEF81010DCF80810C978DEF8B2
:1027D000102022F07F4242EA0161CEF81010DCF8AE
:1027E00008100979DEF8142022F0FF021144CEF817
:1027F000141063E4DCF808100978DEF8102022F0E9
:10280000FF021144CEF81010DCF808104978DEF809
:10281000102022F47F4242EA0121CEF81010DCF8A9
:1028200008108978DEF8102022F47F0242EA014184
:10283000CEF81010DCF80810C978DEF8102022F06D
:102840007F4242EA0161CEF81010DCF808100979E5
:10285000DEF8142022F0FF021144CEF81410DCF848
:1028600008104979DEF8142022F47F4242EA01215F
:10287000CEF8141022E4DCF808100978DEF81020F5
:1028800022F0FF021144CEF81010DCF8081049784D
:10289000DEF8102022F47F4242EA0121CEF8101027
:1028A000DCF808108978DEF8102022F47F0242EA72
:1028B0000141CEF81010DCF80810C978DEF81020BD
:1028C00022F07F4242EA0161CEF81010DCF80810D5
:1028D0000979DEF8142022F0FF021144CEF814101A
:1028E000DCF808104979DEF8142022F47F4242EA2D
:1028F0000121CEF81410DCF808108979DEF81420D4
:1029000022F47F0242EA0141CEF81410FFF7D6BB51
:10291000DCF808100978DEF8102022F0FF021144DC
:10292000CEF81010DCF808104978DEF8102022F4F8
:102930007F4242EA0121CEF81010DCF808108978B5
:10294000DEF8102022F47F0242EA0141CEF8101096
:10295000DCF80810C978DEF8102022F07F4242EA45
:102960000161CEF81010DCF808100979DEF81420A7
:1029700022F0FF021144CEF81410DCF80810497957
:10298000DEF8142022F47F4242EA0121CEF814102E
:10299000DCF808108979DEF8142022F47F0242EA7C
:1029A0000141CEF81410DCF80810C979DEF81420C3
:1029B00022F07F4242EA0161CEF81410FFF77EBB9D
:1029C0000220FFF76EBB0220FFF778BB80B540F214
:1029D0005C00C2F2000000F033FA40F26400C2F280
:1029E000000000F02DFA40F26000C2F2000000F09A
:1029F00027FA40F26800C2F2000000F021FA02203B
:102A00000021002200F0C0FA02200321002200F081
:102A1000BBFA02200121002200F0B6FA02200221B6
:102A2000002200F0B1FA0020002100F083FE022015
:102A30000021BDE8804000F07DBE000010B50446D6
:102A4000002818BF0538C2B20220002100F024FF80
:102A500000200021224600F01FFF02200121012258
:102A600000F092FA02200321012200F08DFA0220E8
:102A70000021002200F088FA022002210022BDE895
:102A8000104000F081BA000010B50446002818BFBD
:102A90000538C2B20220002100F0FEFE0020002115
:102AA000224600F0F9FE02200221012200F06CFA19
:102AB00002200021012200F067FA022001210022F9
:102AC00000F062FA022003210022BDE8104000F06D
:102AD0005BBA000010B50446002818BF0538C2B222
:102AE0000220002100F0D8FE00200021224600F044
:102AF000D3FE02200121002200F046FA022002212A
:102B0000002200F041FA02200321012200F03CFAE9
:102B1000022000210122BDE8104000F035BA00007B
:102B200010B50446002818BF0538C2B202200021A3
:102B300000F0B2FE00200021224600F0ADFE02208F
:102B40000321002200F020FA02200021002200F0E0
:102B50001BFA02200121012200F016FA02200221B4
:102B60000122BDE8104000F00FBA000080B502203D
:102B70000021002200F090FE00200021002200F041
:102B80008BFE02200021002200F0FEF9022003212A
:102B9000002200F0F9F902200121002200F0F4F9EE
:102BA000022002210022BDE8804000F0EDB90000C3
:102BB0002DE9F04F83B04FF00008002ACDF80880CF
:102BC0003DD092460D4606464FF0010B42F20F797A
:102BD00042F21074002705E001370136574505F130
:102BE00001052CD201200021A0220023CDF800B045
:102BF00000F062FA012000F0A5FAF1B2012000F025
:102C00004FFA01200021A0220123CDF800B000F0EE
:102C100053FA012000F096FA0120294600F034FA18
:102C2000012000F09FFACDF8088002984845D3D8DB
:102C30000298013002900298A042F9D3CCE703B089
:102C4000BDE8F08F2DE9F04F83B0064600200290DA
:102C5000AAB314468B464FF0020942F20F7A42F2B1
:102C600010754FF0000805E008F10108A04506F1D5
:102C7000010624D01BF8087001200021A0220023A7
:102C8000CDF8009000F018FA012000F05BFAF1B2E4
:102C9000012000F005FA0120394600F001FA012078
:102CA00000F060FA0020029002985045DCD800BF86
:102CB0000298013002900298A842F9D3D4E703B0F9
:102CC000BDE8F08F4FF4FA7001F0F0FD40F201041E
:102CD000C2F20004102021460222FFF7B3FF4FF496
:102CE000FA7001F0E3FDF5E780B50020112100F056
:102CF00029FE0220162100F025FE40F21500C2F246
:102D0000000000F09DF840F21100C2F2000000F057
:102D100097F800200921042200F00AF900200A2176
:102D2000042200F005F90120BDE8804000F030BA2F
:102D300040F2DC00C2F2000000680047B0B540F28B
:102D40001444C4F201042068400540F2DC00C2F2E1
:102D5000000013D42168090514D42168C90415D4CE
:102D60002168890416D42168490417D4216809040C
:102D700058BFB0BD3C304FF4004512E028304FF44E
:102D800080650EE02C304FF400650AE030304FF4DF
:102D9000805506E034304FF4005502E038304FF4EF
:102DA000804500688047206828432060B0BD00004F
:102DB00040F2DC00C2F200004068004740F2DC0054
:102DC000C2F200008068004740F2DC00C2F200005E
:102DD000C068004740F2DC00C2F200000069004712
:102DE000B0B540F21444C4F201042068800640F2F9
:102DF000DC00C2F2000010D42168490610D421681A
:102E0000090610D42168C90510D42168890558BF66
:102E1000B0BD24304FF400750BE01430202508E0DD
:102E20001830402505E01C30802502E020304FF4AA
:102E3000807500688047206828432060B0BD00008E
:102E400070B5002847D00278072A84BF022070BDE1
:102E500043780F2B84BF032070BDC178032984BF42
:102E6000052070BD90F802E0BEF1070F04D3BEF15B
:102E7000080F1CBF042070BD45F66430C0F600008A
:102E800050F822204FEA430C1068032404FA0CF592
:102E90000EF00304A84304FA0CF420431060BEF1C2
:102EA000080F4FF0000028D8012404FA0EF616F09F
:102EB000660F6FEA050510D0906801F00301284005
:102EC00001FA0CF10843906052F8040F04FA03F180
:102ED00088439C460AE0012070BD40F211110E4269
:102EE00008BF70BD52F80C0F0324284004EA9E016D
:102EF00001FA0CF108431060002070BD002A04BFE5
:102F000001207047072884BF022070470F2984BF23
:102F10000320704745F66433C0F6000353F82000E1
:102F20000069C84000F001001070002070470000E8
:102F3000072884BF022070470F2984BF03207047F1
:102F40000F2A84BF0720704780B545F66433C0F66A
:102F5000000353F820E06FF01F0303EB81030829FF
:102F600038BF8B004FF0240138BF20215EF801C02C
:102F70000F20984002F00F022CEA00009A40104304
:102F80004EF80100002080BD072884BF0220704752
:102F90000F2984BF03207047012A84BF0620704791
:102FA00045F66433C0F6000353F820000123D0F83F
:102FB00014C08B4002F001022CEA030302FA01F173
:102FC000194341610020704740F20001C2F2000144
:102FD0000870704740F20001C2F200010978FF2931
:102FE0001EBF017040F20000C2F20000FF2101701C
:102FF0007047000080B540F24800C2F20000FFF7C1
:103000001FFF40F24000C2F20000FFF719FF02204C
:1030100004210722FFF78CFF022005210722FFF77A
:1030200087FF40F24C00C2F20000FFF709FF40F2B8
:103030004400C2F20000FFF703FF01200A2107222B
:10304000FFF776FF01200B210722FFF771FF40F207
:103050002C00C2F2000000F0F3F940F23600C2F298
:10306000000000F0EDF942F6C971C0F60001002041
:1030700000F0CEF901202021BDE8804000F082B9A7
:103080000146022000F0A2B945F64C32C0F600021B
:1030900052F8200082695207FCD5406A08707047D8
:1030A00045F64C32C0F6000252F82000816200BFA3
:1030B0008169C907FCD0704710B545F64C3C012921
:1030C000C0F6000C09D001BB5CF820E05EF8041FDC
:1030D00021F40061CEF8001012E05CF820E040F22C
:1030E000FF345EF8041F41F40061CEF80010DEF8F2
:1030F0000010A143CEF8001040F2FE7101EA420236
:10310000DEF800101143CEF800100299012B07D011
:1031100063B95CF82020536823F48063536005E0B2
:103120005CF82020536843F4806353605CF820000F
:10313000426822F47F024260426842EA01414160F3
:1031400010BD0000022884BF0120704745F64C31B5
:10315000C0F6000151F82000416841F4005141607F
:1031600000207047022884BF0120704745F64C318B
:10317000C0F6000151F82000416841F480414160EF
:1031800081698906FCD52021C161002070470000BB
:10319000022884BF0120704745F64C31C0F600017B
:1031A00051F82010002008600A6842F444320A6096
:1031B00040F61372C1F2420248600A6188600A68F0
:1031C00042F001020A60704740F22002C2F200029F
:1031D00052F8211002220B6902FA00F023EA0000E3
:1031E0000861704740F22001C2F2000151F820004E
:1031F000016921F0010101617047000040F22001E6
:10320000C2F2000151F82000016821F001010160C3
:103210007047000040F22001C2F2000151F8200086
:10322000016841F0010101607047000003280BD8DC
:10323000DFE800F0020C141C40F22000C2F2000093
:1032400050F82100343018E01060704740F2200040
:10325000C2F2000050F8210038300EE040F22000A9
:10326000C2F2000050F821003C3006E040F220009D
:10327000C2F2000050F82100403000681060704732
:1032800040F22003C2F2000353F821100130096913
:1032900021FA00F000F001001070704740F22002A7
:1032A000C2F2000252F82000007C00F00100087019
:1032B0007047000010B540F22002C2F2000252F83E
:1032C00021106FF001030A68D1F80CE042F0080207
:1032D0000A60022282405A4002EA0E02CA6082005C
:1032E000D1F820C0531C4FF0010E0EFA03F3033245
:1032F00043EA0C030EFA02F223EA020203280A62EE
:103300002AD8DFE800F0020B101901F118004FF085
:10331000010E6FF0FF034FF0010C15E001F11800F2
:103320004FF0100C0CE001F11C004FF4807C4FF0CA
:10333000010E6FF0FF0307E001F11C004FF4805C09
:103340004FF4807E6FF47F430468234043EA0E030A
:10335000036042EA0C000862072049F65602C1E900
:103360000A0210BD40F22002C2F2000252F8200010
:10337000C162704740F22002C2F2000252F82000FF
:103380004162704702280ED0012815D000281CBFCA
:10339000012070474EF20010CEF200000268114387
:1033A0000160002070474EF20010CEF200008268EB
:1033B00011438160002070474EF20010CEF20000F1
:1033C00042681143416000207047000010B591F839
:1033D00000E0BEF1000F08BF10BD40F2500C002409
:1033E000C2F2000C5CF82030C3F828E05CF8203012
:1033F000DA695206FCD51A6A013442F040021A62B8
:10340000E2B211F802E0BEF1000FEBD110BD0000F6
:10341000002908BF704740F2281240F22C13C2F274
:103420000002C2F20003012808BF134640F2241232
:10343000C2F20002002818BF1A461160704700004F
:1034400080B5417840F2500EC2F2000E11B14FF03B
:10345000010C0FE001784FF0000C5EF821100B68B2
:1034600023F080530B6001785EF821100B6823F481
:1034700080530B608378012B0CD0F3B903785EF88E
:103480002330196821F40041196041F20023C0F291
:103490007A030AE001785EF821100B6843F40043D8
:1034A0000B6042F20043C0F2F403C1880278B3FB20
:1034B000F1F15EF82220D16001E04FF0020CC378F8
:1034C000022B09D0012B15D01BBB01785EF821100F
:1034D0000A6822F480621AE001785EF821100A6816
:1034E00042F480620A6001785EF821100A6842F4B2
:1034F00000720CE001785EF821100A6842F48062E4
:103500000A6001785EF821100A6822F400720A60ED
:1035100001E04FF0030C01785EF821104A6822F4B4
:1035200080124A600379022B08D0032B0DD1017859
:103530005EF821104A6822F4002205E001785EF866
:1035400021104A6842F400224A604379032B0AD8CA
:10355000DFE803F0020C1A2101785EF821104A68B6
:1035600022F4805208E04FF0040C22E001785EF86B
:1035700021104A6842F480524A6001785EF82110B6
:103580004A6822F4005213E001785EF821104A687C
:1035900022F4805205E001785EF821104A6842F476
:1035A00080524A6001785EF821104A6842F4005265
:1035B0004A60037A032B12D8DFE803F00214232BAE
:1035C00001785EF821100A6822F020020A60017872
:1035D0005EF821100A6822F080020A6020E04FF0B5
:1035E000030C1DE001785EF821100A6842F0200209
:1035F0000A6001785EF821100A6842F080020A60D1
:103600000EE001785EF821100A6842F080020A603C
:1036100006E001785EF821100A6842F020020A6094
:1036200001785EF821100A6842F004020A6001780D
:103630005EF821100A6842F008020A6000785EF81D
:103640002010086840F0010260460A6080BD00005A
:1036500082B04FF4FA7001F029F940F2030540F20C
:103660000E0600200DF10704C2F20005C2F20006AA
:1036700001278DF8070002E0642001F017F92046C9
:10368000FFF7A8FC9DF807002B280DD0FF2818D0C5
:103690002D2811D1697811B16878143810E0FF280D
:1036A0000FD02B2808D100BF6978642906D1FF28E4
:1036B00018BF287005E000BF287002E06878143059
:1036C0006870B078A978884208D130782978884223
:1036D00004D1707869788842CED000BF287842380B
:1036E00011280DD8DFE800F0110C0C0C150C0C0C97
:1036F0000C0C1A0C0C0C0C0C1E09FFF737FAAF70EF
:10370000A878B07028883080B6E76878FFF796F917
:10371000F6E7A87850B1FFF729FAF1E71E20FFF786
:10372000D9F9EDE71E20FFF7FBF9E9E76878FFF725
:10373000ABF9E5E7022884BF01207047032984BF65
:1037400002207047F0B581B045F65832C0F600024D
:1037500052F820401026C4F2002606EB4412012342
:10376000D36000236701936053600722F351A26284
:103770004CF24F320329E26200F28380DFE801F06D
:10378000020F252C01282ED080BB40F20600C2F289
:103790000000FFF755FB0020002101222FE038B187
:1037A00007210222012814BF01200220FFF7C0FBDD
:1037B000F0190121C0F8001406F5477138204FF4C4
:1037C000DC226FF4E043182650E0012826D040BBED
:1037D00000200221012227E0012833D0A8BB0320CA
:1037E0000621012234E00120042107E040F20A0012
:1037F000C2F20000FFF724FB012006210222FFF79E
:1038000097FBF0190121C0F8F01306F53F71342041
:103810004FF4DC626FF07003182627E002200821C5
:1038200001E003200E210222FFF782FBF0190121A3
:10383000C0F8101406F55F713C204FF4DC626FF0A5
:10384000700312E00120012101E003200F21022278
:10385000FFF76EFBF0190121C0F8201406F567711F
:1038600040204FF4DC226FF4E0431C2601257D50FC
:10387000A1591940A151A1591143A1514CF2503104
:103880002150606940F001006061206840F0010053
:103890002060002001B0F0BD022884BF01207047E5
:1038A000032984BF02207047642A84BF0320704725
:1038B00045F6583C0329C0F6000C07D85CF82030C8
:1038C00003EB81014FF4FA735A434A635CF820001A
:1038D000416941F001014161002070470000000092
:1038E000EFF30980BFF36F8F154B1A681EF0100FAE
:1038F00008BF20ED108A20E9F04F10602DE9090083
:103900004FF0100080F31188BFF34F8FBFF36F8F1C
:1039100001F0ECF94FF0000080F31188BDE80900D8
:1039200019680868B0E8F04F1EF0100F08BFB0EC3F
:10393000108A80F30988BFF36F8F704700BF00BF04
:103940008403002002280ED0012816D0002818BFBA
:10395000704741F21402C4F2020201201368884049
:1039600018431060704741F21402C4F202020120B1
:103970009368884018439060704741F21402C4F283
:1039800002020120536888401843506070470000CD
:10399000074B19680868B0E8F04F80F30988BFF357
:1039A0006F8F4FF0000080F31188704700BF00BF99
:1039B0008403002080B54EF21000CEF200000068B3
:1039C00001F0FAFD012808BF80BDBDE8804001F08C
:1039D00015BA00004EF68850CEF20000016841F49E
:1039E000700101607047000010B540F2241043F6EA
:1039F0001804C2F20000C4F201040168E0688847BC
:103A0000A06840F05800A060206840F018002060D6
:103A100010BD000010B540F2241044F21844C2F268
:103A20000000C4F200040168E0688847A06840F024
:103A30005800A060206840F01800206010BD000011
:103A400010B540F2241044F61804C2F20000C4F28B
:103A500000040168E0688847A06840F05800A06052
:103A6000206840F01800206010BD000040F23814BB
:103A700040F2010740F2030AC2F200044DF6DD55A0
:103A80004FF6FE66C2F200074FF0FE084FF0120933
:103A9000C2F2000A4FF0010B05E000BF87F8018079
:103AA0000A2000F003FF00F0F3F8322000F0FEFEE1
:103AB000204600F015F82088A842F1D0B042EDD0A1
:103AC000312887F8019002D88AF802B0E8E79AF81E
:103AD000000053281CBF00208AF80200E0E7000025
:103AE00070B582B040F23B15C2F2000504460120D9
:103AF0002946FFF7D3FB40F23A16C2F20006002037
:103B000001213246FFF7BCFB29783078F1B101285A
:103B10003CD101AA00200121FFF788FB01984CF657
:103B20000931C8F63D51A0FB0112510900284FF0A0
:103B3000010004BF4FF6FE61CFF6FF712180FFF751
:103B400051FB00200121FFF73FFB22E0012823D198
:103B50006A4600200121FFF769FB00984CF6093105
:103B6000C8F63D51A0FB0112510900284FF0010099
:103B700004BF4FF6FE61CFF6FF712180FFF732FBE5
:103B800000200121FFF720FB02B070BD4DF6DD5093
:103B900020800120FFF726FB02B070BD80B582B007
:103BA00040F60200C0F20110019001A8FFF748F9A9
:103BB00040F20260C0F2021000906846FFF740F940
:103BC000022006210222FFF7B3F900200121FFF7AE
:103BD00071FB02B080BD0000B0B582B000250220AC
:103BE000082100228DF80750FFF7CEF90120FFF7DA
:103BF00005FB01200021FFF7BDFB01200221FFF79B
:103C0000B1FB0120FFF7EEFA0120FFF703FB0DF1F6
:103C100007010120FFF742FB9DF8070050B90DF1A5
:103C2000070400BF01202146FFF738FB9DF807007D
:103C30000028F7D00220082101228DF80750FFF755
:103C4000A3F901200C21FFF78DFB0120FFF7CAFA31
:103C50000120FFF7DFFA0DF107010120FFF71EFB3E
:103C60009DF8070050B90DF1070400BF012021465F
:103C7000FFF714FB9DF807000028F7D000208DF80F
:103C80000700022008210022FFF77EF902B0B0BD34
:103C900080B5FFF7A1FF012049F64041FFF762FB25
:103CA00001200021FFF766FB0120FFF79BFA0020AF
:103CB0000121FFF789FA0120BDE88040FFF7AABA89
:103CC00010B5044601F078FC022818BF10BDEFF3D0
:103CD000058000B110BD20684FF0FF31BDE81040F5
:103CE00001F0C6BA10B50446006800F0B3FD2168C3
:103CF00040F2CC220020C2F2000203E0013005288D
:103D000008BF10BD52F820309942F7D1002142F887
:103D1000201010BD70B540F23C1140F2CC26044694
:103D20000025C2F20001C2F20006056056F8250027
:103D300028B10135052D01F15001F7D105E0012031
:103D400001F088F846F825002060206838B901F0B5
:103D500033FC022803D1012001F068F82060002024
:103D600080F311882068002818BF012070BD000072
:103D700010B5044601F020FC022818BF10BDEFF377
:103D8000058000B110BD2068002100220023BDE89D
:103D9000104001F01FB9000070470000B0B58CB0B2
:103DA000002011210025FFF7CDFD00201221FFF793
:103DB000C9FD00201321FFF7C5FD00201421FFF7E6
:103DC000C1FD02200021FFF7BDFD022001210124D9
:103DD000FFF7B8FD02200221FFF7B4FD01200E21FC
:103DE000FFF7B0FD02201221FFF7ACFD02201921E0
:103DF000FFF7A8FD40F60100C0F2023000F5807127
:103E0000CDE90A010BA8FFF71BF80AA8FFF718F87D
:103E1000012009210922FFF78BF80120082109223E
:103E2000FFF786F80020C0F201104FF4E021079060
:103E300009914FF48071CDE9030503A8ADF8205036
:103E40008DF8224006950591FCF732FC07A8FDF796
:103E500023FFFEF7BBFDFFF7A1FEFFF7CBF8FEF750
:103E600043FF40F23010C2F20000019043F2516073
:103E7000C0F60000002150220023009401F0DEFA79
:103E800040F2D000C2F20000019040F28940C0F63A
:103E90000000002150220023009401F0CFFA40F2EC
:103EA000D800C2F20000019040F25D60C0F6000050
:103EB000002150220023009401F0C0FA042040F2B7
:103EC0003415009043F66D20C2F20005C0F60000E4
:103ED000002150220023019501F0B0FA40F218159C
:103EE00042F6C540C2F20005C0F600000021502293
:103EF00000230094019501F0A1FA00F0F3FD0020E9
:103F00000CB0B0BDF0B581B00D4642F6004140F2B4
:103F10008436C2F20001C2F200060F68316804461E
:103F2000081D00F099FB601C18D1BDB142F6D830D5
:103F3000C2F200004168326891608A683368DA60D2
:103F400032688B6804325A60326804328A603168A1
:103F5000486101680131016001B0F0BD3068E419C9
:103F600044600BD340F29430C2F200000068316824
:103F7000043101B0BDE8F04000F0AEBB40F28C303F
:103F8000C2F2000000683168043100F0A5FB42F67F
:103F9000A430C2F2000001688C4238BF046001B056
:103FA000F0BD00002DE9F047044600F0CBFB42F2E3
:103FB000FC70C2F20000016840F2843701310160F8
:103FC000C2F20007396842F6CC3A40F29C36C2F29F
:103FD000000AC2F2000651B1DAF8000000283ED112
:103FE0003868E16AC06A884298BF3C6037E03C604C
:103FF0000068012833D10025701900F05DFB1435ED
:10400000B5F58C6FF8D142F67038C2F20008404620
:1040100000F052FB42F68439C2F20009484600F033
:104020004BFB42F6B830C2F2000000F045FB42F60E
:10403000EC30C2F2000000F03FFB42F6D830C2F292
:10404000000000F039FB40F28C30C2F20000C0F8F2
:10405000008040F29430C2F20000C0F8009042F6B6
:104060000800C2F200000168251D01310160616491
:1040700042F60C01C2F20001E06A0A68904288BF71
:10408000086000EB800006EB80014A68616193687C
:10409000A260E360936895605D6056F8201001317E
:1040A00046F8201000F05EFBDAF80000002818BF88
:1040B0003868BDE8F087000042F600054EF6045867
:1040C00042F6EC3642F2FC77C2F20005CEF200086E
:1040D0004FF08059C2F20006C2F2000706E000BFAE
:1040E000206B00F04DFB204600F04AFB2868A8B189
:1040F00000F028FBF068C468201D00F0ADFA3868B5
:104100000138386028680138286000F02BFB94F8EB
:1041100059000128E7D00028E2D0E7E7C8F800906E
:10412000BFF34F8FBFF36F8FE0E7000008480068D0
:10413000006880F308884FF0000080F3148862B6AE
:1041400061B6BFF34F8FBFF36F8F00DF00BF00007A
:1041500008ED00E02DE9F04381B040F28838C2F26A
:104160000008D8F800200546D2680E46D46804F14D
:104170000409484600F070FA94F8280041070CD46E
:1041800000F0FE0084F828001FE000BF711B814290
:1041900013D3216A204688473D46A0692461471908
:1041A000B7426760F2D9B54201D9AF42F1D2D8F82F
:1041B0000000494600F090FA07E040F29830C2F261
:1041C00000000068494600F087FA216A204601B0E5
:1041D000BDE8F0430847000081B0002000904FF098
:1041E000100080F31188BFF36F8FBFF34F8F00BFB4
:1041F00000980028FCD001B07047000084B040F265
:10420000883440F2803940F2983A42F6044BC2F2C8
:104210000004C2F20009C2F2000AC2F2000BE84632
:104220002068076817B1C068066800E0002600F043
:1042300055FD01F0D5F9D9F800100546884209D29C
:104240002068016891B1C0684FF0FF310068FFF746
:1042500081FFF5E7C9F8005097B1AE4210D801F0E0
:1042600069FB30462946FFF775FF29E0DAF80010B0
:10427000CAF800002160C9F8005001F05BFB1FE0A4
:104280000FB1002205E0DAF800000068B0FA80F013
:104290004209DBF80000711B00F0E4FA01F04AFB70
:1042A00070B94EF60450CEF200004FF0805101601C
:1042B000BFF34F8FBFF36F8F02E0206800F00CFA5E
:1042C000DBF800004146002200F03AFF0028A7D0AA
:1042D0000098B0F1FF3F03DCDDE90120039990472E
:1042E00000980028ECD4029D686910B1281D00F0E8
:1042F000B3F901F075F9D9F80010064688420ED2DC
:104300002068016831B1C0684FF0FF310068FFF7E5
:1043100021FFF5E7DAF80010CAF8000021600098E4
:10432000C9F8006001380828CAD8DFE800F00505A0
:104330001A214905051A210095F82800019AA96952
:1043400040F0010385F828308B182F4647F8043FCA
:10435000B3422D6124D9964201D2934229D22068DA
:1043600023E095F8280000F0FE0085F82800A7E774
:1043700095F828002D6140F00101019885F828107A
:104380008219294641F8042FB242A8613FF695AF41
:1043900000283FF495AFDAF8000000F09DF98FE7B0
:1043A000B21A8A4205D2DAF80000394600F094F9D0
:1043B00086E742070CD400F0FE0085F8280032E0C2
:1043C00095F828008107CED4284600F0D9F977E780
:1043D0000198C146D846D346084406E0301A8842C0
:1043E00015D3296A284688475046A9692D6101EBF3
:1043F000000AB245C5F804A0F0D9864201D2824530
:10440000EFD22068394600F067F9DA4605E0DBF8BC
:1044100000003946DA4600F05FF9C346C84640F26C
:104420008039C2F20009296A2846884748E7000017
:10443000F0B581B0044600F085F994F94560012E8D
:104440000FDB04F1240500BF286850B1284601F0B5
:1044500005FA002818BF00F07BFA70B2013E01286F
:10446000F2DCFF2684F8456000F07CF900F06AF980
:1044700094F94470012F0EDB04F11005286850B147
:10448000284601F0EBF9002818BF00F061FA78B275
:10449000013F0128F2DC84F8446001B0BDE8F0403F
:1044A00000F060B970B5044600F018FC40F2903698
:1044B000C2F20006306842F6983CC2F2000C58B1D5
:1044C000C4B304F007001138A04226BF24F007004F
:1044D00000F1100300232EE040F2FC70C2F2000055
:1044E000C31D23F0070310F00702A0EB030518BF5C
:1044F000184642F6D033C2F200030021C3E900019E
:104500004FF40053002A18BF05F50053C21822F0DB
:104510000702A2F10803336042E90211191AC0E947
:10452000003142F6A030C2F200000160CCF8001069
:10453000002CC6D10023012B4FF0000468DBDCF80F
:104540000000834264D842F6D030C2F20000056811
:104550006C689C420FD22A684AB100BF5468284652
:1045600015469C4207D22A68002AF7D103E042F69A
:10457000D030C2F2000031688D421FD0D0F800E088
:104580002968E21A112A016025D342F6D034E818CE
:10459000C2F2000442606B60234624688442FBD36D
:1045A0005A689918814203D14068104458601846EF
:1045B00042688118A14203D0214608E0002427E088
:1045C00031688C4203D0D4E9001632444260834201
:1045D000016018BF186042F6A0306968DCF800205E
:1045E000C2F200000368511A9942CCF8001038BF9B
:1045F00001600021296042F6AC316868C2F2000116
:104600000A6840F000400EF108046860501C086021
:1046100001F090F9204670BD40F28430C2F20000F3
:10462000016819B101680A6D01320A6500687047B6
:10463000034644F2D910C0F600004FF0807C21F010
:10464000010103E903106FF0020043F8240CA3F109
:10465000440043F8202C7047D0E9013201699A6088
:10466000D1F804C082688445536008BF4A600022C4
:1046700002610868013808600868704742F6501304
:10468000C2F20003036042F61000C2F200000860AC
:10469000502010607047000042F6EC23C2F2000385
:1046A000036042F6AC10C2F20000086050201060B7
:1046B00070470000704700004FF0FF31024642F89B
:1046C000081F00214260C0E903220160704700001A
:1046D000002101617047000080B5D1F800C01CF1D5
:1046E000010207D000F108039E465B681A68624524
:1046F000FAD901E0D0F810E0DEF8042008614A6041
:104700009160C1F808E0CEF8041001680131016041
:1047100080BD0000D0F800C0436808619A684B6013
:104720008A609A68996051600CF1010101607047DC
:10473000DFF80C00016841F470010160704700006F
:1047400088ED00E04FF0100080F31188BFF36F8F09
:10475000BFF34F8F40F26C00C2F2000001680131DC
:104760000160704740F26C00C2F20000016801393C
:10477000016018BF7047002080F311887047000067
:10478000B0B528B1044650F8040CB0F1FF3F00DD8D
:10479000B0BDA4F108052968002918BFB0BD20F0FC
:1047A000004044F8040C00F099FA42F69831C2F245
:1047B000000154F8040C0A681044086042F6D03135
:1047C000C2F2000108460968A942FBD34268831877
:1047D000AB4204D154F8043C05461A4442606A686E
:1047E000AB188B4201D00B460AE040F29033C2F284
:1047F00000031B68994203D0D1E90034A118696015
:10480000A8422B6018BF056042F6B030C2F200002B
:10481000016801310160BDE8B04001F08BB80000D3
:104820004EF21000CEF2000000210160816040F2E3
:104830001C01C2F20001096844F6D352C1F26202BF
:10484000A1FB02124FF0FF3101EB921141600721F1
:104850000160704790F84610002918BF7047FFF7B5
:104860008FBF000070B515460E460446FFF76AFF7D
:1048700094F84400FF2804BF002084F8440094F812
:104880004500FF2804BF002084F84500FFF76AFFB9
:10489000A06B28B904F1240031462A4600F070F8D4
:1048A0002046BDE87040FFF7C3BD000070B5A8B357
:1048B000044642F60400C2F20000016840F284356A
:1048C0000131016042F60040C2F20000C2F2000570
:1048D000066828680430FFF7BFFE2868A419446002
:1048E00009D340F29430C2F2000000682968043114
:1048F000FFF7F2FE10E040F28C30C2F200000068D8
:1049000029680431FFF7E8FE42F6A430C2F2000045
:1049100001688C4238BF046001F00CF84EF6045078
:10492000CEF200004FF080510160BFF34F8FBFF314
:104930006F8F70BD42F6A831C2F2000109680160B4
:1049400042F60041C2F20001096841607047000070
:1049500042F60C40C2F200000121016070470000E5
:1049600010B50C4640F28431C2F2000109681831DA
:10497000FFF7B2FE20460121BDE81040FFF7C2BAA2
:1049800010B540F2843CC2F2000C86464068DCF868
:104990000030002AD8618368DCF800402362DCF82C
:1049A0000030846803F118036360DCF8003003F121
:1049B00018038360DCF80000C0F828E0DEF800305F
:1049C000084603F1010318BF4FF0FF301146CEF83F
:1049D0000030BDE81040FFF795BA000070B5E8B1AF
:1049E000C26C0446C06A8A4288BF1146884208BF2A
:1049F00070BD226D012A11D1A269E162002A5CBF5B
:104A0000C1F13801A16140F29C36616900EB800080
:104A1000C2F2000606EB8000814200D070BD251D69
:104A20002846FFF719FE42F60C01C2F20001E06AC7
:104A30000A68904288BF086000EB800006EB8001A6
:104A40004A6861619368A260E360936895605D6005
:104A500056F82010013146F8201070BD70B504469C
:104A600040F28436C2F20006002C306818BFA04223
:104A700000D170BDFFF766FE606942F6D831C2F220
:104A80000001884203D0BDE87040FFF76BBEA06A0A
:104A90000028F8D1251D2846FFF7DEFD42F60C015F
:104AA000C2F20001E06A0A6840F29C3C904288BF72
:104AB000086000EB8000C2F2000C0CEB800253682F
:104AC00062619968A360E16099689D604D605CF8DF
:104AD000201001314CF820103068BDE87040FFF71D
:104AE00041BE0000B0B586B0002505A804A903AA00
:104AF000CDE90455FFF7C2FDDDE90320059CCDE9B2
:104B0000005044F2B900C0F6000019A1002302943D
:104B100000F0FEFC42F69C31C2F20001086000B3D6
:104B200000F0AAFF01281CD14FF0100080F311887B
:104B3000BFF36F8FBFF34F8F42F6A430C2F2000075
:104B40004FF0FF31016042F6CC30C2F2000001218B
:104B5000016042F60040C2F200000021016000F056
:104B60001BF945F69030C0F60000006806B0B0BDF5
:104B700049444C4500000000F0B581B00446FFF701
:104B8000E1FD40F28437002CC2F2000708BF3C6808
:104B9000261D3046FFF760FDA06A18B104F1180029
:104BA000FFF75AFD42F6D835C2F2000528463146D5
:104BB000FFF7B0FD94F85800012804BF002084F8E6
:104BC0005800FFF7CFFD42F6CC36C2F2000630683F
:104BD000A8B1FFF7B7FD40F28C30C2F200000168C7
:104BE000096819B10068C068006801E04FF0FF3043
:104BF00042F6A431C2F200010860FFF7B3FD386845
:104C0000844201D001B0F0BD306860B14EF604506E
:104C1000CEF200004FF080510160BFF34F8FBFF321
:104C20006F8F01B0F0BD42F2FC71C2F20001286842
:104C30000968884203D10020386001B0F0BD42F617
:104C40000400C2F20000006828B142F60C40C2F233
:104C5000000001213FE042F60C40C2F200000021BA
:104C600001603868006B0168B1F1A53F0BD1416864
:104C7000B1F1A53F07D18168B1F1A53F03D1C0686B
:104C8000B0F1A53F04D0386839683431FFF712FD20
:104C900042F60C00C2F20000026840F29C33511C44
:104CA00002EB8202C2F2000303EB820202F1180659
:104CB00056F8183C0139002BA6F11406F8D03368D9
:104CC00032465B6842F8043B9A4201D15A6832602E
:104CD0003268D2683A60016001B0F0BD42F604006B
:104CE000C2F20000016801310160704710B542F660
:104CF0000400C2F20000006830B142F60C40C2F27B
:104D000000000121016010BD42F60C40C2F200001B
:104D1000002140F284340160C2F200042068006B7C
:104D20000168B1F1A53F0BD14168B1F1A53F07D1B1
:104D30008168B1F1A53F03D1C068B0F1A53F04D0AF
:104D4000206821683431FFF7B5FC42F60C0CC2F242
:104D5000000CDCF8001040F29C3301EB8102C2F23F
:104D6000000303EB820202F11800013150F8183CF5
:104D70001438002BA1F10101F8D0036802465B68EA
:104D800042F8043B9A4201D15A6802600068C06848
:104D90002060CCF8001010BDB0B582B04EF62054A3
:104DA000CEF20004206840F47F002060206840F0CC
:104DB0007F402060FFF734FD40F26C00C2F200003B
:104DC00000250560FFF7B4FCD4F8140240F0404021
:104DD000C4F81402FFF7AAF9FFF788FF01954FF016
:104DE000100080F31188BFF36F8FBFF34F8F00BFA8
:104DF00001980028FCD0002002B0B0BD80B54FF073
:104E0000100080F31188BFF36F8FBFF34F8F00F056
:104E1000EDFB30B14EF60450CEF200004FF0805161
:104E20000160002080F3118880BD0000B0B502460B
:104E300001200021002500F049F8044640B1204639
:104E40000021002200232560C4E9025500F0C2F8C9
:104E50002046B0BD70B54FF0000699B3054601205D
:104E60000C4681F846000960C1E90F06FFF76AFCAD
:104E70002068D4E90F12A66302FB0103013901FB8C
:104E80000201C4E90103FF20E16084F8440084F8D2
:104E9000450004F11000FFF70FFC04F12400FFF7B8
:104EA0000BFCFFF75FFC84F84C504CB100202060F5
:104EB000C4E90200204600210022002300F08AF805
:104EC000204670BD0024002CF0D1F9E72DE9F04117
:104ED000E0B307460C46A0FB0101B9BB04FB07F099
:104EE00010F1510F32D850309046FFF7DBFA4FF0F7
:104EF000000640B3054680F84660002C18BF5030CD
:104F00002860C5E90F74FFF71DFC2868D5E90F126A
:104F1000AE6302FB0103013901FB0201C5E9010394
:104F2000FF20E96085F8440085F8450005F1100090
:104F3000FFF7C2FB05F12400FFF7BEFBFFF712FCF1
:104F40002E4685F84C803046BDE8F0810020BDE853
:104F5000F081000070B51C4600284FF0000318BF18
:104F6000002C01D1184670BD01B90AB911B10AB9B6
:104F7000002070BDA0FB01350123049E002984F8A8
:104F8000463008BF22462260E0632164EDB9FFF796
:104F9000D9FB2068D4E90F12002502FB0103013977
:104FA00001FB0201A563C4E90103FF20E16084F86D
:104FB000440084F8450004F11000FFF77DFB04F184
:104FC0002400FFF779FBFFF7CDFB234684F84C6004
:104FD000184670BD2DE9F04F85B01D46019104467D
:104FE0000492FFF7AFFBA06B022D5CD0E16B88420F
:104FF00059D304F11007012002AE4FF0000A0DF161
:10500000100900BF0499002973D0C00702D03046B0
:10501000FFF790FCFFF7A6FBFFF760FEFFF792FBA0
:1050200094F84400FF2808BF84F844A094F8450091
:10503000FF2808BF84F845A0FFF794FB3046494697
:1050400000F0C8F9002857D1FFF77CFBD4F838B03E
:10505000D4F83C80FFF786FBC34515D10499384648
:10506000FFF77EFC2046FFF7E3F900F063FC80B910
:105070004EF60450CEF200004FF080510160BFF3B5
:105080004F8FBFF36F8F04E02046FFF7D1F900F098
:1050900051FCFFF757FBA06B022D04D0E16B884257
:1050A0004FF00000AED2A66B226CD2B16DB3E068B7
:1050B0000199FBF7E3F8E168206C2268091A914234
:1050C000E16003D2A16840420844E060A81EB0FA43
:1050D00080F040093146002E18BF01210840361AE1
:1050E00020E02068F0B9A06800F02CFB0020A06050
:1050F00018E0FFF737FB04E02046FFF799F900F0CE
:1051000019FC002005B0BDE8F08F60680199FBF73D
:10511000B5F8216CD4E9010208449042606001D3E3
:1051200020686060701CA06354F8240F10B1204602
:1051300000F094FBFFF716FB012005B0BDE8F08FEF
:105140002DE9F04F85B0054600F1100A243002AF7A
:105150000DF110094FF000080191049200900BE04E
:105160002846FFF765F900F0E5FBFFF7EBFAAC6BBB
:10517000FFF7F8FA002C76D0FFF7E4FAD5F838B04C
:10518000BBF1000F1CD02A6C5AB1D5E902101044B3
:10519000E860884224BF2868E860E9680198FBF766
:1051A0006DF8ABF10100A863286910B1504600F01A
:1051B00055FBFFF7D7FA00200126A8B954E000BF3D
:1051C000049850B1B8F1000F02D13846FFF7B2FB96
:1051D0004FF00108012038B946E0FFF7C3FA002676
:1051E0000020002840D000BFFFF7BCFAFFF776FD93
:1051F000FFF7A8FA95F84400FF2804BF002085F8BF
:10520000440095F84500FF2804BF002085F84500BC
:10521000FFF7A8FA3846494600F0DCF800289FD18D
:10522000FFF790FAAC6BFFF79DFA2CB12846FFF719
:10523000FFF800F07FFB9FE704990098FFF790FBD1
:105240002846FFF7F5F800F075FB002894D14EF6DC
:105250000450CEF200004FF080510160BFF34F8F39
:10526000BFF36F8F88E70026304605B0BDE8F08FAA
:105270002DE9F04F87B0044600F11008243001906A
:10528000002000260DF1100B06AD029000200691C3
:1052900003900BE02046FFF7CBF800F04BFBFFF745
:1052A00051FAA76BFFF75EFA002F78D0FFF74AFAA2
:1052B000A06B98B10138A063206810B9FFF7ACF972
:1052C000A060D8F8000010B1404600F0C7FAFFF720
:1052D00049FA4FF0010A0020A0B976E0069848B1DB
:1052E000039810B95846FFF725FB012003900120D1
:1052F00040B96AE0FFF736FA00204FF0000A0028B4
:1053000063D000BFFFF72EFAFFF7E8FCFFF71AFAA9
:1053100094F84400FF2808BF84F8446094F84500DE
:10532000FF2808BF84F84560FFF71CFA5846294655
:1053300000F050F80028ADD1FFF704FAD4F8389007
:10534000FFF710FAB9F1000F06D02046FFF770F80A
:1053500000F0F0FA0026A9E72068002638B9FFF728
:10536000F1F9A06800F026FA0290FFF7FBF9069920
:105370000198FFF7F5FA2046FFF75AF800F0DAFA3D
:1053800000287FF493AF4EF60450CEF200004FF0A9
:1053900080510160BFF34F8FBFF36F8F86E7029894
:1053A00040B1FFF7CFF9606A38B1206B0068C0F1F7
:1053B000380103E04FF0000A07E00021A068FFF782
:1053C0000DFBFFF7CFF94FF0000A504607B0BDE8DC
:1053D000F08F000070B50C460546FFF7B3F942F6B2
:1053E000004EC2F2000EDEF8002021684B1C0FD0E8
:1053F00042F6A83CC2F2000CD5E90003DCF80060DC
:10540000864207D09A4205D300202060012411E093
:1054100000240FE0D21A914209D9881A2060DCF8E2
:10542000000000242860DEF80000686002E0002030
:1054300020600124FFF796F9204670BD2DE9F04F5A
:1054400081B0950081462846984692460F46FFF760
:1054500029F890B104465C20FFF724F850B15C2194
:105460000646FAF758FF346356B94FF0FF3001B0E3
:10547000BDE8F08F2046FFF783F90026002EF4D018
:105480000021306BDDF828B086F859102946A52296
:10549000FAF739FF306B00EB8A00A0F1040020F02E
:1054A000070477B106F13400002100BF7A5C425452
:1054B0007A5C1AB10F2901F10101F7D1002086F8B9
:1054C0004300301DBBF1370F28BF4FF0370BC6F834
:1054D0002CB0C6F84CB0FFF7FBF806F11800FFF748
:1054E000F7F8CBF13800B0612046494642463661B4
:1054F0007662FFF79DF80B9930603046002918BF9F
:105500000E60FEF74FFD012001B0BDE8F08F0000F6
:105510002DE9F047DDF824A08146BAF1000F4FF0E5
:10552000000047D00A9D002D08BFBDE8F0870F4658
:10553000089E28465C2198461446FAF7ECFE0220A5
:1055400085F85900A1005046A522C5F830A0FAF709
:10555000DAFE286B00EB8400A0F1040020F00704C1
:105560006FB105F1340000217A5C42547A5C1AB1C3
:105570000F2901F10101F7D1002085F84300281D12
:10558000372E28BF3726EE62EE64FFF7A1F805F14B
:105590001800FFF79DF8C6F13800A861204649467B
:1055A00042462D616D62FFF743F828602846FEF7FA
:1055B000F9FC2846BDE8F08742F6CC30C2F2000084
:1055C0000068002804BF0120704742F60400C2F2C0
:1055D00000000068B0FA80F0400940007047000009
:1055E00042F60040C2F20000006870472DE9F04723
:1055F00042F60400C2F20000006838B142F6B4304E
:10560000C2F2000001680131016033E042F600405F
:10561000C2F20000016840F28C3942F6A43C11F15C
:10562000010AC2F20009C2F2000CC0F800A01DD3AA
:1056300040F29433C2F20003D9F800001F68C9F8A1
:105640000070186042F6A830C2F20000036801330F
:105650000360D9F80000006820B1D9F80000C068E4
:10566000006801E04FF0FF30CCF80000DCF80000EB
:10567000824502D20020BDE8F087D9F8000000681A
:10568000002853D042F60C0E40F29C304FF0000838
:10569000C2F2000EC2F200001CE000BFE66ADEF8B3
:1056A00000108E4206EB860188BFCEF8006000EB4A
:1056B0008102536862619E68A360E6609E689D6097
:1056C000756050F82120013240F82120D9F80010EF
:1056D000096859B3D9F80040E468E468254655F8EC
:1056E000046FB24529D3D4E9023766699F607268B6
:1056F000E768AA427B6008BF7760C4F8148032680C
:10570000013A3260A66A002EC8D0D4E9072304F11A
:10571000180193607368276A8B427A6008BF7760CC
:10572000C4F82880316801393160B7E74FF0FF30A5
:10573000CCF800000020BDE8F0870020CCF8006025
:10574000BDE8F087B0B598B30446C06AD4E9132128
:10575000013990424FF00000216508BFB0BD31BB58
:10576000251D2846FEF778FFE06C40F29C3CC0F116
:105770003801A16142F60C01E062C2F200010A6840
:10578000C2F2000C904288BF086000EB80000CEB76
:105790008002536862619968A360E16099689D60C6
:1057A0004D605CF8201001314CF820100120B0BD94
:1057B0000020B0BDF0B581B000B340F28437C2F232
:1057C00000070446C06A3968C96A884219D2A169CB
:1057D000002904D43968C96AC1F13801A16140F2D5
:1057E0009C36616900EB8000C2F2000606EB800087
:1057F00081420FD03868C06AE0622BE0002001B01F
:10580000F0BDE16C3868C26A0020914238BF0120C7
:1058100001B0F0BD251D2846FEF71EFF386842F690
:105820000C01C06AC2F20001E0620A68904288BFBF
:10583000086000EB800006EB80014A6861619368B4
:10584000A260E360936895605D6056F820100131B6
:1058500046F82010012001B0F0BD000080B5C068FE
:10586000C068D0E90713826A8B60036AD2F804E04B
:1058700000F1180C59600021E64508BF53608162B1
:1058800011680139116042F60401C2F20001096891
:1058900071B142F6B832C2F20002516882628B687E
:1058A000C16103628B68C1F808C0C3F804C02CE072
:1058B000D0E9021342698B60C368D2F804E000F1BA
:1058C000040C59600021E64508BF5360416111682E
:1058D00042F60C0301391160C2F20003C26A196872
:1058E0008A4288BF1A6002EB820140F29C32C2F207
:1058F000000202EB8102516842618B688160C360E3
:105900008B68C1F808C0C3F804C011680131116088
:1059100040F28431C2F20001C06A0968C96A884253
:1059200091BF002042F60C41C2F20001012088BF65
:10593000086080BD2DE9F04F81B0FEF703FF42F60D
:105940000400C2F20000016801390160006800280B
:1059500040F08C8042F2FC70C2F200000068002827
:1059600000F0848042F6B83AC2F2000ADAF8001079
:1059700042F60C480029C2F2000869D042F60C0930
:1059800040F29C3340F2843E4FF0000BC2F200091B
:10599000C2F20003C2F2000E4FF0010CDAF80C4024
:1059A000E668D6E90725B76A95607868356A06F132
:1059B0001804A0426A6008BF7D60C6F828B0386845
:1059C00001383860D6E90202756982606A68F46855
:1059D000371DBA42606008BF6C60C6F814B0286812
:1059E00001382860F56AD9F80000854205EB85008A
:1059F00088BFC9F8005003EB800254687261A16847
:105A0000B460F160A168A7604F6053F820100131C5
:105A100043F82010DEF80000C06A854228BFC8F8AD
:105A200000C0DAF800000028B8D18EB140F28C3006
:105A3000C2F200000168096819B10068C068006816
:105A400001E04FF0FF3042F6A431C2F200010860DD
:105A500042F6B434C2F2000425682DB1FFF7C6FD4A
:105A6000013DFBD100202060D8F80000FEF77AFE4F
:105A7000002001B0BDE8F08F70B586B0FEF762FE81
:105A800042F60446C2F20006306830BB42F64834A3
:105A9000C2F200042046FEF70FFE42F65C35C2F269
:105AA00000052846FEF708FE40F28830C2F20000EA
:105AB000046040F29830C2F2000040F2E02240F26E
:105AC000303305600025C2F20002C2F20003052057
:105AD00010210095FFF73EFA3060FEF743FE306874
