:020000040800F2
:10000000103200203D0200084502000847020008A7
:10001000490200084B0200084D02000800000000E1
:10002000000000000000000000000000613B00082C
:100030005102000800000000713A0008C53B0008AA
:10004000570200085702000857020008570200082C
:100050005702000857020008152D0008C52D00089A
:10006000D12D0008DD2D0008E92D000857020008F9
:1000700057020008570200085702000857020008FC
:1000800057020008570200085702000857020008EC
:10009000570200085702000857020008F52D000813
:1000A00057020008570200085702000857020008CC
:1000B00057020008570200085702000857020008BC
:1000C00057020008570200085702000857020008AC
:1000D00057020008F93B0008253C0008513C000885
:1000E000212D000857020008570200085702000897
:1000F000570200085702000857020008570200087C
:10010000570200080000000000000000570200082D
:10011000570200085702000857020008570200085B
:10012000570200085702000857020008570200084B
:1001300057020008570200080000000000000000FD
:10014000570200085702000857020008000000008C
:10015000000000000000000000000000000000009F
:10016000570200085702000857020008570200080B
:1001700057020008570200085702000857020008FB
:1001800057020008570200080000000000000000AD
:100190005702000800F002F800F03CF80AA090E8CE
:1001A000000C82448344AAF10107DA4501D100F032
:1001B00031F8AFF2090EBAE80F0013F0010F18BFC3
:1001C000FB1A43F001031847C45A0000E45A000028
:1001D000103A24BF78C878C1FAD8520724BF30C873
:1001E00030C144BF04680C60704700000023002445
:1001F00000250026103A28BF78C1FBD8520728BF37
:1002000030C148BF0B6070471FB505F0F9FC1FBD3A
:1002100010B510BD00F0FDF8114603B403F0C4FEA4
:1002200003BCFFF7F1FF03F0C7FE00F017F903B4BA
:10023000FFF7EEFF03BC00F01FF9000009488047FC
:1002400009480047FEE7FEE7FEE7FEE7FEE7FEE7B8
:10025000FEE7FEE7FEE7FEE704480549054A064BD0
:1002600070470000E53B000895010008102C0020B5
:1002700010320020102E0020102E0020032A40F201
:10028000308010F0030C00F0158011F8013BBCF138
:10029000020F624498BF11F801CB00F8013B38BF50
:1002A00011F8013BA2F1040298BF00F801CB38BF5E
:1002B00000F8013B11F0030300F05280083AC0F04F
:1002C000088051F8043B083A51F804CBA0E8081024
:1002D000F5E7121D5CBF51F8043B40F8043BAFF357
:1002E0000080D20724BF11F8013B11F801CB48BFB1
:1002F00011F8012B24BF00F8013B00F801CB48BFE7
:1003000000F8012B704702F0FF0343EA032242EAA0
:10031000024200F059B84FF000020429C0F01280E8
:1003200010F0030C00F05080CCF1040CBCF1020F73
:1003300018BF00F8012BA8BF20F8022BA1EB0C017D
:1003400000F042B85FEAC17C24BF00F8012B00F83E
:10035000012B48BF00F8012B70477047704770476A
:1003600010B5203AC0F00B80B1E81850A0E8185042
:10037000B1E81850A0E81850203ABFF4F5AF5FEA92
:10038000027C24BFB1E81850A0E8185044BF18C937
:1003900018C0BDE810405FEA827C24BF51F8043BDE
:1003A00040F8043B08BF7047D20728BF31F8023B32
:1003B00048BF11F8012B28BF20F8023B48BF00F8C6
:1003C000012B70474FF0000200B513469446964645
:1003D000203922BFA0E80C50A0E80C50B1F1200158
:1003E000BFF4F7AF090728BFA0E80C5048BF0CC006
:1003F0005DF804EB890028BF40F8042B08BF704764
:1004000048BF20F8022B11F0804F18BF00F8012BD5
:100410007047754600F02CF8AE4605006946534615
:1004200020F00700854618B020B5FFF715FFBDE89E
:1004300020404FF000064FF000074FF000084FF04B
:10044000000BAC46ACE8C009ACE8C009ACE8C00998
:10045000ACE8C00921F007018D46704710B504468D
:10046000AFF300802046BDE81040FFF7E0BE00007B
:10047000004870477000002001491820ABBEFEE71D
:10048000260002007047000084B040F20050C0F225
:100490000110039040F60250C0F20410029003A82D
:1004A00002F0EAFC02A802F0E7FC40F2D40740F2B6
:1004B000211A40F21C1545F67C460DF10704C2F2E4
:1004C0000007C2F2000A4FF00008C2F20005C0F6B1
:1004D00000060FF2EC090FF2FC0B16E000200521DC
:1004E00000228AF8008002F0A1FD03F019FBA7F8B2
:1004F00000809DF80700398800284FF0000008BFF1
:10050000481C3880C82004F011FC02200D2122462E
:1005100002F024FD38880F28EBD19AF8000000285B
:10052000DCD101208AF8000000200521012202F020
:100530007DFD03F027FB10202946022202F040FB3C
:100540000DA002F0FDFD13A002F0FAFD297830465F
:10055000FC2915A208BF10465A2908BF484602F0D8
:10056000EFFD584602F0ECFD6878FE2814BF3046D7
:100570001DA002F0E5FDBAE757454C434F4D45201D
:10058000544F204D414E41474D454E54204D4F4410
:10059000450D0A004D4F544F522054454D502053A5
:1005A000544154555320090053454E534F525F4E0A
:1005B0004F54524553504F4E44494E47200D090069
:1005C00054454D505F4F56455248454154200D0902
:1005D00000000000554C545241534F4E49432053A4
:1005E000544154555320090055535F4E4F545245C2
:1005F00053504F4E44494E470D09000084B04FF40C
:10060000FA7004F093FB0FA0D0E9010140F203055A
:1006100003910C4940F21E16C2F20005C2F2000618
:1006200001ACCDE9011000BF287830706878707097
:10063000A878B070204601F0A9FB4FF47A7004F05E
:1006400075FBF1E700000300000200001E0100201E
:1006500080B546F20C6CC4F2000C5CF80C3C014610
:1006600043F001004CF80C0C0B780D2B00F2738159
:10067000B1FA81F04009DFE813F00E007001B60115
:10068000FC01560042028802CE0218039C0062035D
:10069000E6002A01AC03DCF8102022F00102CCF8BD
:1006A00010208B78012B00F0AC84002B41F070827D
:1006B0005CF8082C22F001024CF8082CCB78012BB6
:1006C00000F01A86002B41F06382DCF8002022F053
:1006D0000102CCF800200A79DCF8083062F300034C
:1006E000CCF808304B78012B01F0C180002B41F091
:1006F0004F82DCF83420D1E9023E92B2DCF83410AB
:1007000042EA43121143CCF83410DCF834104FF6AF
:10071000FF729143DCF8342041EA4E511143CCF88A
:10072000341001F035BADCF8102022F01002CCF8B9
:1007300010208B78012B00F09083002B40F0C286B4
:100740005CF8082C22F010024CF8082CCB78012B16
:1007500000F0E785002B40F0B586DCF8002022F0A1
:100760001002CCF800200A79DCF8083062F3041398
:10077000CCF808304B78012B01F09080002B40F032
:10078000A186DCF85420D1E9023E92B2DCF8541084
:1007900042EA43121143CCF85410DCF854104FF6DF
:1007A000FF729143DCF8542041EA4E51114300F0AE
:1007B00087BEDCF8102022F40072CCF810208B7871
:1007C000012B00F07283002B40F096865CF8082C19
:1007D00022F400724CF8082CCB78012B00F0B7857E
:1007E000002B40F08986DCF8002022F40072CCF85F
:1007F00000200A79DCF8083002F0010223F40073CB
:1008000043EA4222CCF808204B78012B01F05F80AC
:10081000002B40F07186DCF87C20D1E9023E92B2D8
:10082000DCF87C1042EA43121143CCF87C10DCF86F
:100830007C104FF6FF729143DCF87C2041EA4E5168
:10084000114300F057BE8B78012B00F05A83002B28
:1008500040F06C865CF8082C22F400624CF8082CFE
:10086000CB78012B00F08D85002B40F05F86DCF803
:10087000002022F40062CCF800200A79DCF808306D
:1008800002F0010223F4006343EAC222CCF80820FC
:100890004B78012B01F03480002B40F04786DCF8C8
:1008A0008C20D1E9023E92B2DCF88C1042EA43126D
:1008B0001143CCF88C10DCF88C104FF6FF7291438A
:1008C000DCF88C2041EA4E51114300F02DBE8B78AC
:1008D000012B00F04283002B40F04A865CF8082C84
:1008E00022F480524CF8082CCB78012B00F0638561
:1008F000002B40F03D86DCF8002022F48052CCF83A
:1009000000200A79DCF8083002F0010223F4805359
:1009100043EA0232CCF808204B78012B01F0098021
:10092000002B40F02586DCF89420D1E9023E92B2FB
:10093000DCF8941042EA43121143CCF89410DCF82E
:1009400094104FF6FF729143DCF8942041EA4E5127
:10095000114300F00BBE022080BDDCF8102022F015
:100960000202CCF810208B78012B00F07583002B4D
:1009700040F044865CF8082C22F002024CF8082C67
:10098000CB78012B00F03185002B40F03786DCF866
:10099000002022F00202CCF800200A79DCF80830AE
:1009A00062F34103CCF808304B78012B00F0DA8772
:1009B000002B40F02386DCF83C20D1E9023E92B2C5
:1009C000DCF83C1042EA43121143CCF83C10DCF84E
:1009D0003C104FF6FF729143DCF83C2041EA4E5147
:1009E000114300F009BEDCF8102022F00402CCF81C
:1009F00010208B78012B00F0DC82002B40F0D68594
:100A00005CF8082C22F004024CF8082CCB78012B5F
:100A100000F00185002B40F0C985DCF8002022F0B1
:100A20000402CCF800200A79DCF8083062F3820373
:100A3000CCF808304B78012B00F0AD87002B40F04C
:100A4000B585DCF84420D1E9023E92B2DCF84410CE
:100A500042EA43121143CCF84410DCF844104FF63C
:100A6000FF729143DCF8442041EA4E51114300F0FB
:100A70009BBDDCF8102022F00802CCF810208B7807
:100A8000012B00F01183002B40F0CE855CF8082C80
:100A900022F008024CF8082CCB78012B00F0D1840E
:100AA000002B40F0C185DCF8002022F00802CCF8D1
:100AB00000200A79DCF8083062F3C303CCF8083070
:100AC0004B78012B00F08087002B40F0AD85DCF8DF
:100AD0004C20D1E9023E92B2DCF84C1042EA4312BB
:100AE0001143CCF84C10DCF84C104FF6FF729143D8
:100AF000DCF84C2041EA4E51114300F093BDDCF884
:100B0000102022F02002CCF810208B78012B00F06E
:100B1000F382002B40F032865CF8082C22F0200291
:100B20004CF8082CCB78012B00F09D85002B40F071
:100B30002586DCF8002022F02002CCF800200A797B
:100B4000DCF8083062F34513CCF808304B78012B01
:100B500000F05387002B40F01186DCF85C20D1E9CF
:100B6000023E92B2DCF85C1042EA43121143CCF828
:100B70005C10DCF85C104FF6FF729143DCF85C20EF
:100B800041EA4E51114300F0F7BDDCF8102022F08D
:100B90004002CCF810208B78012B00F0D582002B7E
:100BA00040F002865CF8082C22F040024CF8082C39
:100BB000CB78012B00F06D85002B40F0F585DCF83B
:100BC000002022F04002CCF800200A79DCF808303E
:100BD00062F38613CCF808304B78012B00F026879F
:100BE000002B40F0E185DCF86420D1E9023E92B2AE
:100BF000DCF8641042EA43121143CCF86410DCF8CC
:100C000064104FF6FF729143DCF8642041EA4E51C4
:100C1000114300F0C7BDDCF8102022F08002CCF8B0
:100C200010208B78012B00F0B782002B40F0168546
:100C30005CF8082C22F080024CF8082CCB78012BB1
:100C400000F01584002B40F00985DCF8002022F02C
:100C50008002CCF800200A79DCF8083002F00102AA
:100C600023F0800343EAC212CCF808204B78012B12
:100C700000F0F586002B40F0F184DCF86C20D1E91F
:100C8000023E92B2DCF86C1042EA43121143CCF8F7
:100C90006C10DCF86C104FF6FF729143DCF86C209E
:100CA00041EA4E51114300F0D7BCDCF8102022F489
:100CB0008072CCF810208B78012B00F09982002BE9
:100CC00040F08C855CF8082C22F480724CF8082CDB
:100CD000CB78012B00F0F384002B40F07F85DCF80B
:100CE000002022F48072CCF800200A79DCF8083069
:100CF00002F0010223F4807343EA0222CCF80820B8
:100D00004B78012B00F0C486002B40F06785DCF89F
:100D10007420D1E9023E92B2DCF8741042EA431228
:100D20001143CCF87410DCF874104FF6FF72914345
:100D3000DCF8742041EA4E51114300F04DBDDCF85F
:100D4000102022F48062CCF810208B78012B00F068
:100D50007B82002B40F05C855CF8082C22F48062DA
:100D60004CF8082CCB78012B00F0C384002B40F00A
:100D70004F85DCF8002022F48062CCF800200A794C
:100D8000DCF8083002F0010223F4806343EA822297
:100D9000CCF808204B78012B00F09386002B40F014
:100DA0003785DCF88420D1E9023E92B2DCF8841069
:100DB00042EA43121143CCF88410DCF884104FF659
:100DC000FF729143DCF8842041EA4E51114300F058
:100DD0001DBD8B78012B00F06382002B40F03A851B
:100DE0005CF8082C22F400524CF8082CCB78012B2C
:100DF00000F09984002B40F02D85DCF8002022F4CF
:100E00000052CCF800200A79DCF8083002F0010228
:100E100023F4005343EA4232CCF808204B78012BEC
:100E200000F06886002B40F01585DCF89C20D1E9A5
:100E3000023E92B2DCF89C1042EA43121143CCF815
:100E40009C10DCF89C104FF6FF729143DCF89C205C
:100E500041EA4E51114300F0FBBCDCF8002042F0A7
:100E60001002CCF80020CB78012B00F01A83002B65
:100E700040F02883DCF8002022F01002CCF800209B
:100E80000A79DCF8083062F30413CCF808304B78A8
:100E9000012B00F04886002B40F01483DCF854202E
:100EA000896892B242EA41110AE3DCF8002042F478
:100EB0000072CCF80020CB78012B00F00883002BC7
:100EC00040F01A83DCF8002022F40072CCF80020F5
:100ED0000A79DCF8083002F0010223F4007343EAD7
:100EE0004222CCF808204B78012B00F02586002BFD
:100EF00040F00283DCF87C20896892B242EA41111A
:100F0000F8E2DCF8002042F40062CCF80020CB7854
:100F1000012B00F0F682002B40F00883DCF8002063
:100F200022F40062CCF800200A79DCF8083002F0E4
:100F3000010223F4006343EAC222CCF808204B7874
:100F4000012B00F00286002B40F0F082DCF88C20B0
:100F5000896892B242EA4111E6E2DCF8002042F4EC
:100F60008052CCF80020CB78012B00F0EC82002BD3
:100F700040F0FE82DCF8002022F48052CCF8002001
:100F80000A79DCF8083002F0010223F4805343EAC6
:100F90000232CCF808204B78012B00F0DF85002BC3
:100FA00040F0E682DCF89420896892B242EA41116E
:100FB000DCE2DCF8002042F00402CCF80020CB7820
:100FC000012B00F0E282002B40F0F082DCF80020E0
:100FD00022F00402CCF800200A79DCF8083062F331
:100FE0008203CCF808304B78012B00F0C085002B31
:100FF00040F0DC82DCF84420896892B242EA411178
:10100000D2E2DCF8002042F00102CCF80020CB78DC
:10101000012B00F0D082002B40F0BA85DCF80020D4
:1010200022F00102CCF800200A79DCF8083062F3E3
:101030000003CCF808304B78012B00F0A185002B81
:1010400040F0A685DCF83420896892B242EA41116A
:10105000CCF8341000F09CBDDCF8002042F0020215
:10106000CCF80020CB78012B00F0B782002B40F0A9
:10107000C582DCF8002022F00202CCF800200A79B8
:10108000DCF8083062F34103CCF808304B78012BD0
:1010900000F08B85002B40F0B182DCF83C208968A1
:1010A00092B242EA4111A7E2DCF8002042F00802C5
:1010B000CCF80020CB78012B00F0A582002B40F06B
:1010C000B382DCF8002022F00802CCF800200A7974
:1010D000DCF8083062F3C303CCF808304B78012BFE
:1010E00000F06C85002B40F09F82DCF84C20896872
:1010F00092B242EA411195E2DCF8002042F020026F
:10110000CCF80020CB78012B00F02783002B40F097
:101110003583DCF8002022F02002CCF800200A7988
:10112000DCF8083062F34513CCF808304B78012B1B
:1011300000F04D85002B40F02183DCF85C208968AD
:1011400092B242EA411117E3DCF8002042F040027B
:10115000CCF80020CB78012B00F01583002B40F059
:101160002383DCF8002022F04002CCF800200A792A
:10117000DCF8083062F38613CCF808304B78012B8A
:1011800000F02E85002B40F00F83DCF86420896886
:1011900092B242EA411105E3DCF8002042F08002FD
:1011A000CCF80020CB78012B00F04382002B40F0DC
:1011B0005582DCF8002022F08002CCF800200A7969
:1011C000DCF8083002F0010223F0800343EAC21287
:1011D000CCF808204B78012B00F00A85002B40F05A
:1011E0003D82DCF86C20896892B242EA411133E218
:1011F000DCF8002042F48072CCF80020CB78012B80
:1012000000F0D782002B40F0E982DCF8002022F4C5
:101210008072CCF800200A79DCF8083002F0010274
:1012200023F4807343EA0222CCF808204B78012B88
:1012300000F0E784002B40F0D182DCF8742089684C
:1012400092B242EA4111C7E2DCF8002042F4806227
:10125000CCF80020CB78012B00F0C582002B40F0A9
:10126000D782DCF8002022F48062CCF800200A79D2
:10127000DCF8083002F0010223F4806343EA8222A2
:10128000CCF808204B78012B00F0C484002B40F0F0
:10129000BF82DCF88420896892B242EA4111B5E24B
:1012A000DCF8002042F40052CCF80020CB78012B6F
:1012B00000F0BB82002B40F0CD82DCF8002022F44D
:1012C0000052CCF800200A79DCF8083002F0010264
:1012D00023F4005343EA4232CCF808204B78012B28
:1012E00000F0A184002B40F0B582DCF89C208968D6
:1012F00092B242EA4111ABE2DCF8002042F0010276
:10130000CCF800200A79DCF8083062F30003CCF84E
:101310000830D1E902215205CCF83420490500F00B
:1013200035BCDCF8002042F01002CCF800200A792D
:10133000DCF8083062F30413CCF80830D1E902215C
:1013400052054905CCF85420CCF85810BAE0DCF826
:10135000002042F40072CCF800200A79DCF8083052
:1013600002F0010223F4007343EA4222CCF8082081
:10137000D1E9022152054905CCF87C20CCF8801037
:10138000BAE0DCF8002042F40062CCF800200A79D0
:10139000DCF8083002F0010223F4006343EAC222C1
:1013A000CCF80820D1E9022152054905CCF88C205F
:1013B000CCF89010BAE0DCF8002042F48052CCF86F
:1013C00000200A79DCF8083002F0010223F480538F
:1013D00043EA0232CCF80820D1E90221520549053E
:1013E000CCF89420CCF89810C2E0DCF8002042F051
:1013F0000202CCF800200A79DCF8083062F34103DD
:10140000CCF80830D1E9022152054905CCF83C203E
:10141000CCF84010F2E0DCF8002042F00402CCF8F6
:1014200000200A79DCF8083062F38203CCF8083037
:10143000D1E9022152054905CCF84420CCF84810E6
:10144000B4E0DCF8002042F00802CCF800200A7971
:10145000DCF8083062F3C303CCF80830D1E902218C
:1014600052054905CCF84C20CCF85010DCE0DCF8F3
:10147000002042F08002CCF800200A79DCF8083025
:1014800002F0010223F0800343EAC212CCF80820E4
:10149000D1E9022152054905CCF86C20CCF8701036
:1014A000DCE0DCF8002042F01002CCF800200A79E1
:1014B000DCF8083062F30413CCF808308968490579
:1014C000CCF85410DCF8101041F0100164E3DCF8A3
:1014D000002042F40072CCF800200A79DCF80830D1
:1014E00002F0010223F4007343EA4222CCF8082000
:1014F00089684905CCF87C10DCF8101041F40071C3
:101500004AE3DCF8002042F40062CCF800200A79BB
:10151000DCF8083002F0010223F4006343EAC2223F
:10152000CCF8082089684905CCF88C105CF80C1CB4
:1015300021F001014CF80C1CDCF8101041F40061A2
:10154000CCF8101080BDDCF8002042F48052CCF8BA
:1015500000200A79DCF8083002F0010223F48053FD
:1015600043EA0232CCF8082089684905CCF8941087
:101570005CF80C1C21F001014CF80C1CDCF810107C
:1015800041F48051CCF8101080BDDCF8002042F00E
:101590000402CCF800200A79DCF8083062F38203F8
:1015A000CCF8083089684905CCF84410DCF81010F4
:1015B00041F00401F0E2DCF8002042F00102CCF836
:1015C00000200A79DCF8083062F30003CCF8083018
:1015D00089684905CCF83410D8E2DCF8002042F0E4
:1015E0000202CCF800200A79DCF8083062F34103EB
:1015F000CCF8083089684905CCF83C10DCF81010AC
:1016000041F00201C8E2DCF8002042F00802CCF808
:1016100000200A79DCF8083062F3C303CCF8083004
:1016200089684905CCF84C10DCF8101041F008012D
:10163000B2E2DCF8002042F08002CCF800200A7907
:10164000DCF8083002F0010223F0800343EAC21202
:10165000CCF8082089684905CCF86C10DCF810102B
:1016600041F0800198E2DCF8002042F02002CCF842
:1016700000200A79DCF8083062F34513CCF8083012
:10168000D1E9022152054905CCF85C20CCF8601064
:1016900074E0DCF8002042F04002CCF800200A7927
:1016A000DCF8083062F38613CCF80830D1E9022167
:1016B00052054905CCF86420CCF8681074E0DCF8D9
:1016C000002042F48072CCF800200A79DCF808305F
:1016D00002F0010223F4807343EA0222CCF80820CE
:1016E000D1E9022152054905CCF87420CCF87810D4
:1016F00074E0DCF8002042F48062CCF800200A7923
:10170000DCF8083002F0010223F4806343EA82220D
:10171000CCF80820D1E9022152054905CCF88420F3
:10172000CCF8881074E0DCF8002042F40052CCF8C9
:1017300000200A79DCF8083002F0010223F400539B
:1017400043EA4232CCF80820D1E90221520549058A
:10175000CCF89C20CCF8A0107CE0DCF8002042F013
:101760002002CCF800200A79DCF8083062F3451337
:10177000CCF8083089684905CCF85C10DCF810100A
:1017800041F0200108E2DCF8002042F04002CCF8F1
:1017900000200A79DCF8083062F38613CCF80830B0
:1017A00089684905CCF86410DCF8101041F040015C
:1017B000F2E1DCF8002042F48072CCF800200A79D3
:1017C000DCF8083002F0010223F4807343EA0222BD
:1017D000CCF8082089684905CCF87410DCF81010A2
:1017E00041F48071D8E1DCF8002042F48062CCF84A
:1017F00000200A79DCF8083002F0010223F480634B
:1018000043EA8222CCF8082089684905CCF8841084
:101810005CF80C1C21F001014CF80C1CDCF81010D9
:1018200041F48061CCF8101080BDDCF8002042F457
:101830000052CCF800200A79DCF8083002F00102EE
:1018400023F4005343EA4232CCF808208968490562
:10185000CCF89C105CF80C1C21F001014CF80C1C1D
:10186000DCF8101041F40051CCF8101080BDDCF809
:101870003420D1E9023E92B2DCF8381042EA431239
:101880001143CCF83810DCF834104FF6FF72914356
:10189000DCF8382041EA4E51114377E1DCF854205E
:1018A000D1E9023E92B2DCF8581042EA43121143E9
:1018B000CCF85810DCF854104FF6FF729143DCF866
:1018C000582041EA4E511143CCF85810FAE5DCF8A3
:1018D0007C20D1E9023E92B2DCF8801042EA431249
:1018E0001143CCF88010DCF87C104FF6FF72914366
:1018F000DCF8802041EA4E511143CCF88010FBE522
:10190000DCF88C20D1E9023E92B2DCF8901042EA79
:1019100043121143CCF89010DCF88C104FF6FF7294
:101920009143DCF8902041EA4E511143CCF89010DD
:10193000FCE5DCF89420D1E9023E92B2DCF8981084
:1019400042EA43121143CCF89810DCF894104FF699
:10195000FF729143DCF8982041EA4E511143CCF8D4
:10196000981005E6DCF83C20D1E9023E92B2DCF8A2
:10197000401042EA43121143CCF84010DCF83C100E
:101980004FF6FF729143DCF8402041EA4E5111437B
:10199000CCF8401032E6DCF84420D1E9023E92B2A5
:1019A000DCF8481042EA43121143CCF84810DCF846
:1019B00044104FF6FF729143DCF8482041EA4E5143
:1019C0001143CCF84810F1E5DCF84C20D1E9023E97
:1019D00092B2DCF8501042EA43121143CCF8501096
:1019E000DCF84C104FF6FF729143DCF8502041EACE
:1019F0004E511143CCF8501016E6DCF85C20D1E9CA
:101A0000023E92B2DCF8601042EA43121143CCF875
:101A10006010DCF85C104FF6FF729143DCF8602038
:101A200041EA4E511143CCF86010A7E6DCF864207F
:101A3000D1E9023E92B2DCF8681042EA4312114347
:101A4000CCF86810DCF864104FF6FF729143DCF8B4
:101A5000682041EA4E511143CCF86810A4E6DCF846
:101A60006C20D1E9023E92B2DCF8701042EA4312D7
:101A70001143CCF87010DCF86C104FF6FF729143F4
:101A8000DCF8702041EA4E511143CCF87010E5E5C6
:101A9000DCF87420D1E9023E92B2DCF8781042EA18
:101AA00043121143CCF87810DCF874104FF6FF7233
:101AB0009143DCF8782041EA4E511143CCF878107C
:101AC0008CE6DCF88420D1E9023E92B2DCF8881082
:101AD00042EA43121143CCF88810DCF884104FF628
:101AE000FF729143DCF8882041EA4E511143CCF853
:101AF00088108DE6DCF89C20D1E9023E92B2DCF839
:101B0000A01042EA43121143CCF8A010DCF89C105C
:101B10004FF6FF729143DCF8A02041EA4E51114389
:101B2000CCF8A01096E6DCF85420896892B242EA1C
:101B30004111CCF85810C5E4DCF87C20896892B2D9
:101B400042EA4111CCF88010D6E4DCF88C20896898
:101B500092B242EA4111CCF89010E7E4DCF894200C
:101B6000896892B242EA4111CCF8981000E5DCF89D
:101B70004420896892B242EA4111CCF8481015E538
:101B8000DCF83420896892B242EA4111CCF838106E
:101B9000DCF8101041F00101CCF810105CF80C1CBE
:101BA00021F001014CF80C1C80BDDCF83C20896858
:101BB00092B242EA4111CCF840101FE5DCF84C200B
:101BC000896892B242EA4111CCF850102CE5DCF859
:101BD0005C20896892B242EA4111CCF86010CDE5F0
:101BE000DCF864208968C2EA4151CCF86810DBE572
:101BF000DCF86C20896892B242EA4111CCF870108E
:101C00002CE5DCF87420896892B242EA4111CCF8E4
:101C10007810E3E5DCF88420896892B242EA411149
:101C2000CCF88810F4E5DCF89C20896892B242EA8E
:101C30004111CCF8A0100DE680B546F21442C4F272
:101C4000000252F8143C014643F0010042F8140C23
:101C500052F8100CC007FBD052F8143CB1FA81F0D6
:101C6000400923F0020342F8143C00BF52F8103C34
:101C70009B07FBD44B7952F814CC03F0010E2CF4E3
:101C8000803343EA0E4342F8143C91F802C052F804
:101C9000143C6CF3451342F8143C91F803C052F81D
:101CA000143C6CF3861342F8143C91F801C052F8CE
:101CB000143C6CF3041342F8143C91F800C052F841
:101CC000143C6CF3C30342F8143C0B7952F814CC67
:101CD00003F0010E2CF0800343EACE1342F8143CCB
:101CE000D2F870319BB2C2F8703191F806C052F848
:101CF000143C6CF3820342F8143C8968936861F3E6
:101D00001D039360116821F480611160116821F452
:101D100000711160116821F400411160116821F413
:101D200080711160116821F004011160116821F0C7
:101D300020011160116821F002011160116821F089
:101D400010011160116821F008011160116821F083
:101D500040011160116821F400611160116821F4E3
:101D600000311160116821F001011160116821F446
:101D70008031116052F8141C21F0010142F8141C4A
:101D800052F8101CC907FBD180BD000080B546F297
:101D9000885E4FF68063C4F2000ECFF6FF735EF8E4
:101DA0000310844641F001014EF803105EF8031061
:101DB00041F480714EF803105EF8031041F4803056
:101DC0004EF803005EF80300BCFA8CF140014FEAC4
:101DD00051101ED45EF8031009012ED45EF80310D2
:101DE000C90058BF80BD9CF80010012900F0928006
:101DF000002940F0AB80DEF8181021F00401CEF885
:101E00001810DCF80410DEF8183049056FF35F5342
:101E100099E09CF80010012925D000293FD15EF8F7
:101E2000081C21F004014EF8081CDCF804105EF8D0
:101E3000083C49056FF35F532EE09CF80010012920
:101E400000F0B580002940F0CE80DEF8081021F0C7
:101E50000401CEF80810DCF80410DEF8083049055B
:101E60006FF35F53BCE05EF8081C4FF6FF7241F061
:101E700004014EF8081C5EF8081CC0F21F026FF344
:101E80005F514EF8081CDCF804105EF8083C073A75
:101E900002EAC1016FF3D40319434EF8081C9CF801
:101EA0000110012929D071BB5EF8081C21F0020144
:101EB0004EF8081C9CF802105EF8042C61F3030233
:101EC0004EF8042C9CF802100139072900F25182C7
:101ED000DFE811F00800D200E800090135016B01CC
:101EE000AC01F801DCF808100978DEF8002022F0D7
:101EF000FF021144CEF8001005E05EF8081C41F026
:101F000002014EF8081C5EF8081C41F001014EF871
:101F1000081C80BDDEF818104FF6FF7241F0040176
:101F2000CEF81810DEF81810C0F21F026FF35F51E0
:101F3000CEF81810DCF80410DEF81830073A02EA80
:101F4000C1016FF3D4031943CEF818109CF80110A7
:101F5000012900F07780002940F07A80DEF818101F
:101F600021F00201CEF818109CF80210DEF81C20B7
:101F700061F30302CEF81C209CF8021001390729F6
:101F800000F2F584DFE811F00800F7010D022E02DF
:101F90005A029002D1021D03DCF808100978DEF81D
:101FA000202022F0FF021144CEF8201050E0DEF88D
:101FB00008104FF6FF7241F00401CEF80810DEF869
:101FC0000810C0F21F026FF35F51CEF80810DCF862
:101FD0000410DEF80830073A02EAC1016FF3D403B7
:101FE0001943CEF808109CF80110012937D00029B8
:101FF0003BD1DEF8081021F00201CEF808109CF861
:102000000210DEF80C2061F30302CEF80C209CF8DD
:1020100002100139072900F2AD84DFE811F0080051
:1020200029033F0360038C03C20303045004DCF85C
:1020300008100978DEF8102022F0FF021144CEF8D3
:10204000101012E0DEF8181041F00201CEF818105E
:10205000DEF8181041F00101CEF8181080BDDEF84E
:10206000081041F00201CEF80810DEF8081041F027
:102070000101CEF8081080BDDCF808100978DEF800
:10208000002022F0FF021144CEF80010DCF8081006
:102090004978DEF8002022F47F4242EA0121CEF89E
:1020A000001030E7DCF808100978DEF8002022F094
:1020B000FF021144CEF80010DCF808104978DEF871
:1020C000002022F47F4242EA0121CEF80010DCF821
:1020D00008108978DEF8002022F47F0242EA0141EC
:1020E000CEF800100FE7DCF808100978DEF80020C1
:1020F00022F0FF021144CEF80010DCF808104978F5
:10210000DEF8002022F47F4242EA0121CEF80010DE
:10211000DCF808108978DEF8002022F47F0242EA19
:102120000141CEF80010DCF80810C978DEF8002074
:1021300022F07F4242EA0161CEF80010E3E6DCF8CB
:1021400008100978DEF8002022F0FF021144CEF8D2
:102150000010DCF808104978DEF8002022F47F42F5
:1021600042EA0121CEF80010DCF808108978DEF888
:10217000002022F47F0242EA0141CEF80010DCF890
:102180000810C978DEF8002022F07F4242EA01619F
:10219000CEF80010DCF808100979DEF8042022F0EF
:1021A000FF021144CEF80410ADE6DCF808100978FF
:1021B000DEF8002022F0FF021144CEF80010DCF817
:1021C00008104978DEF8002022F47F4242EA01211B
:1021D000CEF80010DCF808108978DEF8002022F430
:1021E0007F0242EA0141CEF80010DCF80810C978FD
:1021F000DEF8002022F07F4242EA0161CEF80010B2
:10220000DCF808100979DEF8042022F0FF021144FE
:10221000CEF80410DCF808104979DEF8042022F426
:102220007F4242EA0121CEF804106CE6DCF8081087
:102230000978DEF8002022F0FF021144CEF80010E9
:10224000DCF808104978DEF8002022F47F4242EAE8
:102250000121CEF80010DCF808108978DEF80020A3
:1022600022F47F0242EA0141CEF80010DCF80810A7
:10227000C978DEF8002022F07F4242EA0161CEF800
:102280000010DCF808100979DEF8042022F0FF02C3
:102290001144CEF80410DCF808104979DEF8042067
:1022A00022F47F4242EA0121CEF80410DCF8081043
:1022B0008979DEF8042022F47F0242EA0141CEF857
:1022C000041020E6DCF808100978DEF8002022F07F
:1022D000FF021144CEF80010DCF808104978DEF84F
:1022E000002022F47F4242EA0121CEF80010DCF8FF
:1022F00008108978DEF8002022F47F0242EA0141CA
:10230000CEF80010DCF80810C978DEF8002022F0C2
:102310007F4242EA0161CEF80010DCF8081009792A
:10232000DEF8042022F0FF021144CEF80410DCF89D
:1023300008104979DEF8042022F47F4242EA0121A4
:10234000CEF80410DCF808108979DEF8042022F4B5
:102350007F0242EA0141CEF80410DCF80810C97986
:10236000DEF8042022F07F4242EA0161CEF8041038
:10237000C9E50220C7E5DCF808100978DEF820205E
:1023800022F0FF021144CEF82010DCF80810497842
:10239000DEF8202022F47F4242EA0121CEF820100C
:1023A00056E6DCF808100978DEF8202022F0FF025B
:1023B0001144CEF82010DCF808104978DEF820200F
:1023C00022F47F4242EA0121CEF82010DCF8081006
:1023D0008978DEF8202022F47F0242EA0141CEF81B
:1023E000201035E6DCF808100978DEF8202022F00D
:1023F000FF021144CEF82010DCF808104978DEF80E
:10240000202022F47F4242EA0121CEF82010DCF89D
:1024100008108978DEF8202022F47F0242EA014188
:10242000CEF82010DCF80810C978DEF8202022F061
:102430007F4242EA0161CEF8201009E6DCF808107C
:102440000978DEF8202022F0FF021144CEF8201097
:10245000DCF808104978DEF8202022F47F4242EAB6
:102460000121CEF82010DCF808108978DEF8202051
:1024700022F47F0242EA0141CEF82010DCF8081075
:10248000C978DEF8202022F07F4242EA0161CEF8CE
:102490002010DCF808100979DEF8242022F0FF0271
:1024A0001144CEF82410D3E5DCF808100978DEF8E2
:1024B000202022F0FF021144CEF82010DCF8081092
:1024C0004978DEF8202022F47F4242EA0121CEF84A
:1024D0002010DCF808108978DEF8202022F47F0232
:1024E00042EA0141CEF82010DCF80810C978DEF885
:1024F000202022F07F4242EA0161CEF82010DCF871
:1025000008100979DEF8242022F0FF021144CEF8E9
:102510002410DCF808104979DEF8242022F47F42E8
:1025200042EA0121CEF8241092E5DCF8081009787F
:10253000DEF8202022F0FF021144CEF82010DCF853
:1025400008104978DEF8202022F47F4242EA012177
:10255000CEF82010DCF808108978DEF8202022F46C
:102560007F0242EA0141CEF82010DCF80810C97859
:10257000DEF8202022F07F4242EA0161CEF82010EE
:10258000DCF808100979DEF8242022F0FF0211445B
:10259000CEF82410DCF808104979DEF8242022F463
:1025A0007F4242EA0121CEF82410DCF80810897934
:1025B000DEF8242022F47F0242EA0141CEF8241002
:1025C00046E5DCF808100978DEF8202022F0FF024A
:1025D0001144CEF82010DCF808104978DEF82020ED
:1025E00022F47F4242EA0121CEF82010DCF80810E4
:1025F0008978DEF8202022F47F0242EA0141CEF8F9
:102600002010DCF80810C978DEF8202022F07F4284
:1026100042EA0161CEF82010DCF808100979DEF8F2
:10262000242022F0FF021144CEF82410DCF8081018
:102630004979DEF8242022F47F4242EA0121CEF8D3
:102640002410DCF808108979DEF8242022F47F02B7
:1026500042EA0141CEF82410DCF80810C979DEF80E
:10266000242022F07F4242EA0161CEF82410EFE4F8
:10267000DCF808100978DEF8102022F0FF0211447F
:10268000CEF81010DCF808104978DEF8102022F49B
:102690007F4242EA0121CEF81010E6E4DCF808108F
:1026A0000978DEF8102022F0FF021144CEF8101055
:1026B000DCF808104978DEF8102022F47F4242EA64
:1026C0000121CEF81010DCF808108978DEF810200F
:1026D00022F47F0242EA0141CEF81010C5E4DCF892
:1026E00008100978DEF8102022F0FF021144CEF81D
:1026F0001010DCF808104978DEF8102022F47F4230
:1027000042EA0121CEF81010DCF808108978DEF8D2
:10271000102022F47F0242EA0141CEF81010DCF8CA
:102720000810C978DEF8102022F07F4242EA0161E9
:10273000CEF8101099E4DCF808100978DEF81020C3
:1027400022F0FF021144CEF81010DCF8081049788E
:10275000DEF8102022F47F4242EA0121CEF8101068
:10276000DCF808108978DEF8102022F47F0242EAB3
:102770000141CEF81010DCF80810C978DEF81020FE
:1027800022F07F4242EA0161CEF81010DCF8081016
:102790000979DEF8142022F0FF021144CEF814105B
:1027A00063E4DCF808100978DEF8102022F0FF025C
:1027B0001144CEF81010DCF808104978DEF810202B
:1027C00022F47F4242EA0121CEF81010DCF8081012
:1027D0008978DEF8102022F47F0242EA0141CEF827
:1027E0001010DCF80810C978DEF8102022F07F42C3
:1027F00042EA0161CEF81010DCF808100979DEF821
:10280000142022F0FF021144CEF81410DCF8081056
:102810004979DEF8142022F47F4242EA0121CEF801
:10282000141022E4DCF808100978DEF8102022F0F9
:10283000FF021144CEF81010DCF808104978DEF8D9
:10284000102022F47F4242EA0121CEF81010DCF879
:1028500008108978DEF8102022F47F0242EA014154
:10286000CEF81010DCF80810C978DEF8102022F03D
:102870007F4242EA0161CEF81010DCF808100979B5
:10288000DEF8142022F0FF021144CEF81410DCF818
:1028900008104979DEF8142022F47F4242EA01212F
:1028A000CEF81410DCF808108979DEF8142022F430
:1028B0007F0242EA0141CEF81410FFF7D6BBDCF8E4
:1028C00008100978DEF8102022F0FF021144CEF83B
:1028D0001010DCF808104978DEF8102022F47F424E
:1028E00042EA0121CEF81010DCF808108978DEF8F1
:1028F000102022F47F0242EA0141CEF81010DCF8E9
:102900000810C978DEF8102022F07F4242EA016107
:10291000CEF81010DCF808100979DEF8142022F047
:10292000FF021144CEF81410DCF808104979DEF8E3
:10293000142022F47F4242EA0121CEF81410DCF880
:1029400008108979DEF8142022F47F0242EA01415E
:10295000CEF81410DCF80810C979DEF8142022F043
:102960007F4242EA0161CEF81410FFF77EBB0220DD
:10297000FFF76EBB0220FFF778BB000010B58AB0EE
:1029800040F60100C0F2023000F58071CDE9080187
:1029900009A800F071FA08A800F06EFA01200921D8
:1029A0000922012400F000FB01200821092200F087
:1029B000FBFA0020C0F2011005900020ADF81800CD
:1029C0004FF4E0208DF81A40079008A0C268D0E9C3
:1029D0000110CDE903020548CDE9010101A8FDF789
:1029E00037FE05A8FFF728F90AB010BD0000010165
:1029F00000000000000100000000000080B540F26F
:102A00005C00C2F2000000F037FA40F26400C2F24B
:102A1000000000F031FA40F26000C2F2000000F065
:102A20002BFA40F26800C2F2000000F025FA022002
:102A30000021002200F0FAFA02200321002200F017
:102A4000F5FA02200121002200F0F0FA0220022112
:102A5000002200F0EBFA0020002100F017FF022016
:102A60000021BDE8804000F011BF000080B500F0FB
:102A70004FFD02200121012200F0D8FA022003219B
:102A8000012200F0D3FA02200021002200F0CEFA49
:102A9000022002210022BDE8804000F0C7BA0000F9
:102AA00080B500F035FD02200221012200F0BEFABF
:102AB00002200021012200F0B9FA022001210022A7
:102AC00000F0B4FA022003210022BDE8804000F0AB
:102AD000ADBA000080B500F01BFD022001210022EC
:102AE00000F0A4FA02200221002200F09FFA022046
:102AF0000321012200F09AFA022000210122BDE800
:102B0000804000F093BA000080B500F001FD022083
:102B10000321002200F08AFA02200021002200F0A6
:102B200085FA02200121012200F080FA0220022110
:102B30000122BDE8804000F079BA000080B5002095
:102B400000F0E6FC02200021002200F06FFA0220D3
:102B50000321002200F06AFA02200121002200F085
:102B600065FA022002210022BDE8804000F05EBA32
:102B700070B582B00C460546012601200021A02236
:102B80000023009600F0F8FA012000F03BFB012042
:102B9000294600F0E5FA01200021A0220123009639
:102BA00000F0EAFA012000F02DFB0120214600F0A0
:102BB000CBFA012002B0BDE8704000F033BB00004A
:102BC0002DE9F04782B04FF00008CDF8048002B341
:102BD00092460D46064642F20F7942F210770024E3
:102BE00006E000BF01340136544505F1010510D25D
:102BF000F0B22946FFF7BCFFCDF8048001984845A4
:102C0000F0D800BF0198013001900198B842F9D383
:102C1000E8E702B0BDE8F087B0B582B00C460546E3
:102C20004FF0020C01200021A0220023CDF800C0AB
:102C300000F0A2FA012000F0E5FA0120294600F098
:102C40008FFA0120214600F08BFA012002B0BDE886
:102C5000B04000F0E7BA00002DE9F04782B04FF035
:102C60000008CDF8048002B314468A46064642F2B4
:102C70000F7942F21077002505E000BF0135A5422B
:102C800006F1010611D01AF80510F0B2FFF7C4FFE3
:102C9000CDF8048001984845F0D800BF0198013074
:102CA00001900198B842F9D3E8E702B0BDE8F08797
:102CB00040F20104C2F200044FF4FA7002F036F858
:102CC000102021460222FFF7C7FFF5E780B500205C
:102CD000112100F0FFFE0220162100F0FBFE40F261
:102CE0001500C2F2000000F0C7F840F21100C2F275
:102CF000000000F0C1F800200921042200F054F97E
:102D000000200A21042200F04FF90120BDE8804094
:102D100000F09EBA40F2DC00C2F2000000680047FA
:102D200010B540F21444C4F201042068400518D4E0
:102D3000206800051ED42068C00424D420688004C4
:102D40002AD42068400430D42068000458BF10BD45
:102D500040F2DC00C2F20000C06B80474FF400403C
:102D60002BE040F2DC00C2F20000806A80474FF4A2
:102D7000806022E040F2DC00C2F20000C06A8047BE
:102D80004FF4006019E040F2DC00C2F20000006B7A
:102D900080474FF4805010E040F2DC00C2F20000A7
:102DA000406B80474FF4005007E040F2DC00C2F275
:102DB0000000806B80474FF480402168084320600A
:102DC00010BD000040F2DC00C2F200004068004785
:102DD00040F2DC00C2F200008068004740F2DC00F4
:102DE000C2F20000C068004740F2DC00C2F20000FE
:102DF0000069004710B540F21444C4F20104206891
:102E0000800615D4206840061AD4206800061FD416
:102E10002068C00524D42068800558BF10BD40F24A
:102E2000DC00C2F20000406A80474FF400701FE0EF
:102E300040F2DC00C2F2000040698047202017E029
:102E400040F2DC00C2F200008069804740200FE0C1
:102E500040F2DC00C2F20000C0698047802007E039
:102E600040F2DC00C2F20000006A80474FF480703C
:102E700021680843206010BD70B5002846D0037853
:102E8000072B84BF022070BD42780F2A84BF032025
:102E900070BDC478032C84BF052070BD81780729DC
:102EA00047D226A050F823C04FEA420EDCF80000BB
:102EB000032303FA0EF301F00305984305FA0EF518
:102EC0002843CCF8000008294FF000001DD8012548
:102ED00005FA01F616F0660F6FEA030318D0DCF866
:102EE0000800184004F0030303FA0EF31843CCF86B
:102EF0000800DCF8040005FA02F3C1F380019843EE
:102F000091400843CCF80400002070BD012070BD42
:102F100040F21112164208BF70BDDCF80C00C1F37C
:102F20008101184001FA0EF10843CCF80C00002092
:102F300070BD08291CBF042070BDB2E70000004826
:102F40000004004800080048000C00480010004839
:102F50000014004800180048001C0048002A04BF64
:102F600001207047072884BF022070470F2984BFC3
:102F70000320704704A353F820000069C84000F004
:102F80000100107000207047000000480004004855
:102F900000080048000C00480010004800140048D9
:102FA00000180048001C0048072884BF0220704712
:102FB0000F2984BF032070470F2A84BF0720704762
:102FC00012A353F8200007290ED8D0F820C089009A
:102FD0000F238B4002F00F022CEA030302FA01F1E7
:102FE00019430162002070476FF01F03D0F824C01E
:102FF00003EB81010F238B4002F00F022CEA030345
:1030000002FA01F1194341620020704700000048B4
:103010000004004800080048000C00480010004868
:103020000014004800180048001C0048072884BF0E
:10303000022070470F2984BF03207047012A84BFF4
:103040000620704708A353F820000123D0F814C0CD
:103050008B4002F001022CEA030302FA01F119434A
:1030600041610020704700BF000000480004004894
:1030700000080048000C00480010004800140048F8
:1030800000180048001C004840F20001C2F2000194
:103090000870704740F20001C2F200010978FF2970
:1030A0001EBF017040F20000C2F20000FF2101705B
:1030B0007047000080B540F24800C2F20000FFF700
:1030C000DBFE40F24000C2F20000FFF7D5FE022016
:1030D00004210722FFF768FF022005210722FFF7DE
:1030E00063FF40F24C00C2F20000FFF7C5FE40F261
:1030F0004400C2F20000FFF7BFFE01200A210722B0
:10310000FFF752FF01200B210722FFF74DFF40F28E
:103110002C00C2F2000000F049FA40F23600C2F280
:10312000000000F043FA43F28901C0F600010020DC
:1031300000F024FA01202021BDE8804000F0C4B94D
:103140000146022000F008BA45F61C42C0F6000213
:1031500052F8200082695207FCD5406A0870704717
:1031600045F62842C0F6000252F82000816200BFF6
:103170008169C907FCD0704710B545F6344C012968
:10318000C0F6000C09D001BB5CF820E05EF8041F1B
:1031900021F40061CEF8001012E05CF820E040F26B
:1031A000FF345EF8041F41F40061CEF80010DEF831
:1031B0000010A143CEF8001040F2FE7101EA420275
:1031C000DEF800101143CEF800100299012B07D051
:1031D00063B95CF82020536823F48063536005E0F2
:1031E0005CF82020536843F4806353605CF820004F
:1031F000426822F47F024260426842EA0141416033
:1032000010BD0000022884BF0120704745F64041F0
:10321000C0F6000151F82000416841F400514160BE
:1032200000207047022884BF0120704745F64C41BA
:10323000C0F6000151F82000416841F4804141602E
:1032400081698906FCD52021C161002070470000FA
:10325000022884BF0120704745F65841C0F600019E
:1032600051F82010002008600A6842F444320A60D5
:1032700040F61372C1F2420248600A6188600A682F
:1032800042F001020A60704740F22002C2F20002DE
:1032900052F8211002220B6902FA00F023EA000022
:1032A0000861704740F22001C2F2000151F820008D
:1032B000016921F0010101617047000040F2200125
:1032C000C2F2000151F82000016821F00101016003
:1032D0007047000040F22001C2F2000151F82000C6
:1032E000016841F0010101607047000003280BD81C
:1032F000DFE800F0020C141C40F22000C2F20000D3
:1033000050F82100343018E01060704740F220007F
:10331000C2F2000050F8210038300EE040F22000E8
:10332000C2F2000050F821003C3006E040F22000DC
:10333000C2F2000050F82100403000681060704771
:1033400040F22003C2F2000353F821100130096952
:1033500021FA00F000F001001070704740F22002E6
:10336000C2F2000252F82000007C00F00100087058
:1033700070470000F0B581B040F22007C2F20007AC
:103380000C4657F8211005460868CA6840F0080046
:1033900008600220A84022EA000020F00100C86076
:1033A00028462146002200F049F8032D2DD8DFE8F9
:1033B00005F0020B111B57F82400012200F118013F
:1033C0006FF0FF05012319E057F82400102300F1E6
:1033D00018010FE057F824004FF4807300F11C012E
:1033E00001226FF0FF0509E057F824004FF48053E5
:1033F00000F11C014FF480726FF47F450E682E407F
:1034000032430A60016A1943016257F82400072118
:1034100049F65602C0E90A1201B0F0BD40F220029E
:10342000C2F2000252F82000C162704740F220024E
:10343000C2F2000252F8200041627047022A19D0FD
:10344000012A2BD0002A18BF704740F22003C2F295
:10345000000353F821108000421C4FF0010C0B6A4E
:103460000CFA02F203301A430CFA00F022EA0000D0
:103470000862704740F22003C2F20003800053F854
:103480002110421C4FF0010C03300CFA02F20B6ABF
:103490000CFA00F0104318430862704740F2200312
:1034A000C2F20003800053F82110421C4FF0010CBF
:1034B00003300CFA02F20B6A0CFA00F0104323EA14
:1034C000000008627047000002280ED0012815D0C5
:1034D00000281CBF012070474EF20010CEF2000001
:1034E000026811430160002070474EF20010CEF2D6
:1034F0000000826811438160002070474EF2001086
:10350000CEF2000042681143416000207047000085
:1035100010B50446002818BF0538C2B202200021A9
:1035200000F084FA002000212246BDE8104000F09F
:103530007DBA000040F25002C2F2000252F8203080
:10354000996252F8200000BFC1694906FCD5016AA2
:1035500041F040010162704770B50C4609780029BE
:1035600008BF70BD05460026C9B22846FFF7E2FF36
:103570000136F0B2215C0029F6D170BD002908BFE8
:10358000704740F2281240F22C13C2F20002C2F23D
:103590000003012808BF134640F22412C2F20002C1
:1035A000002818BF1A4611607047000080B54178A6
:1035B00040F2500EC2F2000E11B14FF0010C0FE0BC
:1035C00001784FF0000C5EF821100B6823F0805357
:1035D0000B6001785EF821100B6823F480530B60B8
:1035E0008378012B0CD0F3B903785EF82330196887
:1035F00021F40041196041F20023C0F27A030AE08D
:1036000001785EF821100B6843F400430B6042F22E
:103610000043C0F2F403C1880278B3FBF1F15EF815
:103620002220D16001E04FF0020CC378022B09D0B8
:10363000012B15D01BBB01785EF821100A6822F41B
:1036400080621AE001785EF821100A6842F4806214
:103650000A6001785EF821100A6842F400720CE0FA
:1036600001785EF821100A6842F480620A600178ED
:103670005EF821100A6822F400720A6001E04FF03F
:10368000030C01785EF821104A6822F480124A6027
:103690000379022B08D0032B0DD101785EF821109D
:1036A0004A6822F4002205E001785EF821104A6899
:1036B00042F400224A604379032B0AD8DFE803F082
:1036C000020C1A2101785EF821104A6822F4805217
:1036D00008E04FF0040C22E001785EF821104A68FF
:1036E00042F480524A6001785EF821104A6822F460
:1036F000005213E001785EF821104A6822F48052EB
:1037000005E001785EF821104A6842F480524A6070
:1037100001785EF821104A6842F400524A60037A48
:10372000032B12D8DFE803F00214232B01785EF894
:1037300021100A6822F020020A6001785EF8211048
:103740000A6822F080020A6020E04FF0030C1DE0BE
:1037500001785EF821100A6842F020020A600178C0
:103760005EF821100A6842F080020A600EE00178DB
:103770005EF821100A6842F080020A6006E00178D3
:103780005EF821100A6842F020020A6001785EF8B3
:1037900021100A6842F004020A6001785EF82110E4
:1037A0000A6842F008020A6000785EF82010086893
:1037B00040F0010260460A6080BD000082B04FF414
:1037C000FA7001F0B3FA40F2030540F20E06002051
:1037D0000DF10704C2F20005C2F2000601278DF8C0
:1037E000070002E0642001F0A1FA2046FFF752FC36
:1037F0009DF807002B2809D0FF280FD02D2808D1CD
:10380000697831B16878143807E000BF69786429B5
:1038100001D1287002E0687814306870B078A97817
:10382000884207D130782978884203D17078697846
:103830008842D7D02878423811280DD8DFE800F028
:10384000110C0C0C150C0C0C0C0C1A0C0C0C0C0C9C
:103850001E09FFF773F9AF70A878B0702888308020
:10386000C0E76878FFF702F9F6E7A87850B1FFF7EC
:1038700065F9F1E71E20FFF72DF9EDE71E20FFF7B0
:1038800043F9E9E76878FFF70BF9E5E7022884BF19
:1038900001207047032984BF0220704770B545F6A8
:1038A0006442C0F6000252F820404FF084436601A3
:1038B00006F11C020125D55006F118020025D5504D
:1038C00006F11402D55006F11002D5500722A2626B
:1038D0004CF24F320329E26200F29E80DFE801F0F1
:1038E0000212182202283DD0012844D0002847D1D6
:1038F00040F20600C2F20000FFF7BEFA00200021ED
:1039000001223BE0012817D002281AD1012014E03F
:10391000022845D0012846D0002849D100200221A4
:10392000012243E0022853D0012854D0002857D167
:1039300003200621012251E0022007210222FFF785
:1039400033FB40F20C30C4F2002031180122C1F8E0
:10395000042120304FF0380C4FF4DC226FF4E043A8
:1039600018214DE040F20A00C2F20000FFF784FA8D
:103970000120062101E0012004210222FFF714FBAF
:1039800040F20C30C4F2002031180122C1F8F420BA
:103990004FF0340C4FF4DC626FF0700318212FE00D
:1039A00003200E2101E0022008210222FFF7FCFA89
:1039B00040F20C30C4F2002031180122C1F8142169
:1039C00080304FF03C0C4FF4DC626FF0700316E077
:1039D00003200F2101E0012001210222FFF7E4FA78
:1039E00040F20C30C4F2002031180122C1F8242129
:1039F000A0304FF0400C4FF4DC226FF4E0431C2168
:103A00000125355060581840605060581043605090
:103A10004CF2503044F80C00606940F001006061E5
:103A2000206840F001002060002070BD022884BFA3
:103A300001207047032984BF02207047642A84BF95
:103A40000320704745F6704C0329C0F6000C07D8D8
:103A50005CF8203003EB81014FF4FA735A434A6358
:103A60005CF82000416941F001014161002070478C
:103A7000EFF30980BFF36F8F154B1A681EF0100F1C
:103A800008BF20ED108A20E9F04F10602DE90900F1
:103A90004FF0100080F31188BFF34F8FBFF36F8F8B
:103AA00001F0D6FA4FF0000080F31188BDE809005C
:103AB00019680868B0E8F04F1EF0100F08BFB0ECAE
:103AC000108A80F30988BFF36F8F704700BF00BF73
:103AD0008403002002280ED0012816D0002818BF29
:103AE000704741F21402C4F20202012013688840B8
:103AF00018431060704741F21402C4F20202012020
:103B00009368884018439060704741F21402C4F2F1
:103B1000020201205368884018435060704700003B
:103B200080B540F23010C2F20000006801F0AAF93E
:103B300040F2D800C2F20000006801F0A3F940F2A0
:103B40003410C2F20000006801F09CF940F2181035
:103B5000C2F200000068BDE8804001F093B90000A7
:103B6000074B19680868B0E8F04F80F30988BFF385
:103B70006F8F4FF0000080F31188704700BF00BFC7
:103B80008403002080B540F23010C2F200000068CB
:103B900001F0FEF940F2D800C2F20000006801F026
:103BA000F7F940F23410C2F20000006801F0F0F9B9
:103BB00040F21810C2F200000068BDE8804001F039
:103BC000E7B9000080B54EF21000CEF200000068A8
:103BD00001F094FD012808BF80BDBDE8804001F0E0
:103BE000B3BA00004EF68850CEF20000016841F4EE
:103BF000700101607047000010B540F2241043F6D8
:103C00001804C2F20000C4F201040168E0688847A9
:103C1000A06840F05800A060206840F018002060C4
:103C200010BD000010B540F2241044F21844C2F256
:103C30000000C4F200040168E0688847A06840F012
:103C40005800A060206840F01800206010BD0000FF
:103C500010B540F2241044F61804C2F20000C4F279
:103C600000040168E0688847A06840F05800A06040
:103C7000206840F01800206010BD000040F23814A9
:103C800040F2010740F2030AC2F200044DF6DD558E
:103C90004FF6FE66C2F200074FF0FE084FF0120921
:103CA000C2F2000A4FF0010B05E000BF87F8018067
:103CB0000A2001F03BF800F001F9322001F036F85B
:103CC000204600F039F82088A842F1D0B042EDD06B
:103CD000312887F8019002D88AF802B0E8E79AF80C
:103CE000000053281CBF00208AF80200E0E7000013
:103CF00010B582B0044601AA00200121FFF7F6FAB0
:103D0000019838B14CF60931C8F63D51A0FB0101CC
:103D1000480901E04FF6FE6020800120FFF7C2FA5B
:103D200002B010BD024600200121FFF709BB0000D0
:103D300001460120FFF712BB70B540F23B15C2F2FD
:103D4000000504462846FFF7F3FF40F23A16C2F298
:103D500000063046FFF7E6FF2978307849B10128A0
:103D600013D12046FFF7C4FF00200121FFF78CFA92
:103D70000EE0012818BF70BD2046FFF7B9FF0020F4
:103D80000121BDE87040FFF77FBA4DF6DD5020807D
:103D90000120BDE87040FFF785BA000080B582B011
:103DA00040F60200C0F20110019001A8FFF764F88C
:103DB00040F20260C0F2021000906846FFF75CF823
:103DC000022006210222FFF7EFF800200121FFF771
:103DD000D1FA02B080BD000080B5012049F6404113
:103DE000FFF71CFB01200021FFF720FB0120FFF75C
:103DF00059FA00200121FFF747FA0120BDE8804071
:103E0000FFF768BAB0B582B0002502200821002271
:103E10008DF80750FFF70AF90120FFF74FFA01204C
:103E20000021FFF703FB01200221FFF7F7FA012031
:103E3000FFF738FA0120FFF74DFA0DF107010120D5
:103E4000FFF78CFA9DF8070050B90DF1070400BF89
:103E500001202146FFF782FA9DF807000028F7D0DD
:103E60000220082101228DF80750FFF7DFF801201A
:103E70000C21FFF7D3FA0120FFF714FA0120FFF716
:103E800029FA0DF107010120FFF768FA9DF80700F4
:103E900050B90DF1070400BF01202146FFF75EFA7B
:103EA0009DF807000028F7D000208DF807000220B9
:103EB00008210022FFF7BAF802B0B0BD80B5FFF7C5
:103EC000A1FFBDE88040FFF787BF000010B50446A2
:103ED00000F0F8F8002808BF10BD00F067F830B116
:103EE00020684FF0FF31BDE8104001F0E1BA10BD8D
:103EF00010B50446006800F0EDFE216840F2CC22C7
:103F00000020C2F2000200BF52F82030994204D0D3
:103F10000130052808BF10BDF6E7002142F8201047
:103F200010BD000070B540F23C1140F2CC260446B2
:103F30000025C2F20001C2F20006056056F8250015
:103F400038B10135052D01F15001F7D1206870B964
:103F500006E0012001F01CF946F82500206030B988
:103F600000F0B0F818B1012001F006F9206000203F
:103F700080F311882068002818BF012070BD000060
:103F800010B5044600F09EF8002808BF10BD00F0F0
:103F90000DF838B12068002100220023BDE8104050
:103FA00001F080B910BD000070470000EFF30580FC
:103FB000B0FA80F040097047B0B582B000201121FE
:103FC000FFF788FD00201221FFF784FD0020132158
:103FD000FFF780FD00201421FFF77CFD0220002167
:103FE000FFF778FD022001210125FFF773FD022074
:103FF0000221FFF76FFD01200E21FFF76BFD02206C
:104000001221FFF767FD02201921FFF763FDFEF77C
:10401000B5FCFEF7F3FCFFF7C1FEFFF74BF8FEF728
:1040200055FE40F23010C2F20000019043F2BD7024
:10403000C0F60000002150220023009501F002FB91
:1040400040F2D000C2F20000019040F28940C0F678
:104050000000002150220023009501F0F3FA40F205
:10406000D800C2F20000019040F2FD50C0F60000FE
:10407000002150220023009501F0E4FA042040F2D0
:104080003414009043F67D40C2F20004C0F60000F4
:10409000002150220023019401F0D4FA40F21814B8
:1040A00042F6B140C2F20004C0F6000000215022E6
:1040B00000230095019401F0C5FA00F01FFF0020D5
:1040C00002B0B0BD80B501F019FB0238B0FA80F043
:1040D000400980BDF0B581B00D4642F6004140F286
:1040E0008436C2F20001C2F200060F68316804464D
:1040F000081D00F013FD601C18D1BDB142F6D83088
:10410000C2F200004168326891608A683368DA6000
:1041100032688B6804325A60326804328A603168CF
:10412000486101680131016001B0F0BD3068E419F7
:1041300044600BD340F29430C2F200000068316852
:10414000043101B0BDE8F04000F02ABD40F28C30EF
:10415000C2F2000000683168043100F021FD42F62F
:10416000A430C2F2000001688C4238BF046001B084
:10417000F0BD00002DE9F041044600F047FD42F299
:10418000FC70C2F20000016840F284350131016028
:10419000C2F20005296842F6CC38C2F2000849B1E3
:1041A000D8F8000060B92868E16AC06A884298BF00
:1041B0002C6005E02C600068012801D100F0B0F906
:1041C00042F60800C2F200000168271D01310160BB
:1041D000616442F60C01C2F20001E06A0A68904292
:1041E00088BF086040F29C3100EB8000C2F2000101
:1041F00001EB800253689E68E6609E68A36077606A
:104200009F60626151F82020013241F8202000F0C7
:104210000DFDD8F80000002818BF2868BDE8F0811F
:1042200070B582B000F0F2FC42F60446C2F200061D
:10423000306830BB42F64834C2F20004204600F039
:104240009FFC42F65C35C2F20005284600F098FC5F
:1042500040F28830C2F20000046040F29830C2F2AE
:10426000000040F2E02240F2303305600025C2F247
:104270000002C2F2000305201021009500F0C0FFEB
:10428000306002B0BDE8704000F0D0BCF0B581B045
:1042900042F60005C2F200052868E0B142F6EC36AD
:1042A00042F2FC77C2F20006C2F2000700F0AEFC58
:1042B000F068C468201D00F031FC386801383860AF
:1042C00028680138286000F0B1FC204600F052F860
:1042D00028680028EAD101B0F0BD0000026C002A75
:1042E00008BF7047D0E902C31344C360634524BFCD
:1042F0000368C360C36808461946FBF7BFBF0000E8
:1043000070B5866B036C0446DBB115460AB3E068F2
:104310001A46FBF7B3FFE168206C2268091A914244
:10432000E16003D2A16840420844E060A81EB0FAF0
:1043300080F040093146002E18BF01210840361A8E
:1043400014E0206890B9A06801F096FA0020A060FF
:104350000CE060681A46FBF791FF216CD4E901027A
:1043600008449042606001D320686060701CA063C4
:1043700070BD000010B5044690F85900012805D022
:10438000002818BF10BD206B00F05EFC2046BDE881
:10439000104000F059BC0000416A00290FBF002006
:1043A000006B0068C0F138007047000040F28831AF
:1043B000C2F2000109680A68B2FA82F35B0903607D
:1043C000002A0EBF0020C8680068704740F2FC70E9
:1043D000C2F20000C21D22F0070210F0070CA0EB91
:1043E000020318BF104642F6D032C2F2000200218A
:1043F000C2E900014FF40052BCF1000F18BF03F5F1
:1044000000520244083A40F2903322F00702C2F20E
:1044100000031A60C2E90011111A1A68C0E90021EC
:1044200042F6A030C2F20000016042F69830C2F2BB
:1044300000000160704700004EF60454CEF2000404
:104440004FF08055FFF722FF2560BFF34F8FBFF37A
:104450006F8FF7E7002808BF70474FF0000C00216E
:1044600000220023C0F800C0C0F808C0C0F80CC08B
:1044700000F018BFB0B5049D002914BF2A602D605C
:10448000C5E90F01284601211C4600F0D7FE85F83A
:104490004C40B0BD2DE9F0470A9C8246206B164681
:1044A0000F46DDE908599100A5229846FBF72BFF3E
:1044B000206B00EB8600A0F1040020F0070687B116
:1044C000781E04F13301012210F8013F01F8013F89
:1044D00003781BB1102A02F10102F5D3002084F801
:1044E0004300201D372D28BF3725E562E56400F025
:1044F00053FB04F1180000F04FFBC5F138002461B4
:10450000A061304651464246646200F0F3FAB9F1C8
:10451000000F206018BFC9F80040BDE8F087000018
:10452000B0B540F29C350024C2F20005281900F015
:1045300027FB1434B4F58C6FF8D142F67034C2F214
:104540000004204600F01CFB42F68435C2F2000550
:10455000284600F015FB42F6B830C2F2000000F029
:104560000FFB42F6EC30C2F2000000F009FB42F60D
:10457000D830C2F2000000F003FB40F28C30C2F2EF
:104580000000046040F29430C2F200000560B0BD4B
:1045900080B542F6D032C2F2000200BF1146126866
:1045A0008242FBD3D1F804C001EB0C03834203D158
:1045B0004068604448600846D0F804E000EB0E0311
:1045C000934201D0026010E040F29033C2F2000347
:1045D000D3F800C0624506D00B6852681B6872446D
:1045E000C0E9003201E0C0F800C0814218BF086095
:1045F00080BD000080B58C46014641F804CF94454B
:10460000006108D99A4201D29C4511D240F288300B
:10461000C2F2000007E08069D21A824208D240F25A
:104620009830C2F20000006800F0BAFA002080BDA5
:10463000012080BD10B5044600F0E8FAA06BB0FA86
:1046400080F0440900F0F2FA204610BD10B504468F
:1046500000F0DCFAA06BE16B401AB0FA80F044097C
:1046600000F0E4FA204610BD08480068006880F3B6
:1046700008884FF0000080F3148862B661B6BFF37B
:104680004F8FBFF36F8F00DF00BF00BF08ED00E06A
:1046900070B540F28832C2F2000212680646D26853
:1046A0000D46D468201D00F039FA94F8280041071F
:1046B00004D400F0FE0084F8280004E020463146CF
:1046C0002A4600F0C3F8216A2046BDE8704008473A
:1046D0002DE9F04186B042F60444C2F2000420689D
:1046E00002A9002200F05EFE00286BD00DF1040844
:1046F00002AD06E020682946002200F053FE0028A3
:1047000060D00298B0F1FF3F06DCDDE90320059997
:10471000904702980028EDD4049E706910B1301DB6
:1047200000F0FCF9404600F0C3F80299013908296D
:10473000E0D80746DFE801F014142C053E14142CD1
:10474000050096F82800039940F0010086F828003B
:10475000B161394430463A463B46FFF74BFFC9E763
:1047600096F82800039BB16940F0010086F8280004
:10477000194430463A46FFF73DFF0028BAD096F874
:10478000280041070BD400F0FE0086F828000DE059
:1047900096F8280000F0FE0086F82800AAE70398A3
:1047A000B1693A460144304600F050F8316A30466B
:1047B00088479FE796F828008107EBD4304600F041
:1047C00043FA97E706B0BDE8F081000070B582B00B
:1047D0000E46044600F034FC01A800F069F8019987
:1047E00019B101F045F902B070BD05464EB9A542B8
:1047F00007D301F03DF920462946FFF749FF02B0F3
:1048000070BD4EB140F29830C2F2000000680068FE
:10481000B0FA80F0420900E0002242F60440C2F201
:1048200000000068611B00F05DFA01F021F900282A
:10483000D9D14EF60450CEF200004FF08051016005
:10484000BFF34F8FBFF36F8F02B070BD70B50546D9
:1048500080690E460144284633461446FFF7CAFED7
:10486000002808BF70BD00BFA869296A0644284611
:104870008847A8692246811928463346FFF7BAFEC1
:104880000028F1D170BD000040F28C30C2F200006F
:104890000168096819B10068C068006801E04FF05C
:1048A000FF3042F6A431C2F20001086070470000F8
:1048B00070B5044600F036FF40F28036C2F20006C2
:1048C00031680546884203D200F008F8012000E074
:1048D000002020602846356070BD000010B540F211
:1048E0008834C2F200042068016849B1C0684FF002
:1048F000FF310068FFF7CCFE206801680029F5D180
:1049000040F29831C2F200010A680860226010BDCE
:1049100081B0002000904FF0100080F31188BFF3A9
:104920006F8FBFF34F8F00BF00980028FCD001B0FD
:1049300070470000416942F6D832C2F2000291424B
:104940001CBF00207047806A42F6B831C2F20001F5
:10495000411AB0FA80F04FEA501018BF0121084008
:104960007047000082B001AC2046FFF71FFD01999F
:10497000FFF72CFFFFF7ACFEF6E70000F0B581B0C3
:10498000044600F043F994F94560012E0FDB04F171
:10499000240500BF286850B1284600F0F9FF002820
:1049A00018BF00F0E9F9701E46B2002EF2DCFF26B7
:1049B00084F8456000F03AF900F028F994F9447061
:1049C000012F0EDB04F11005286850B1284600F0D5
:1049D000DFFF002818BF00F0CFF9781E47B2002F84
:1049E000F2DC84F8446001B0BDE8F04000F01EB98C
:1049F0002DE9F04381B0044600F022FB40F29036EE
:104A0000C2F200063068002808BFFFF7DFFC3CB1A7
:104A100004F00700A0F11101A14203D2002456E0E6
:104A2000002454E0201A00F1100101294FF0000485
:104A30004DDB42F69838C2F20008D8F8009049459C
:104A400045D842F6D030C2F2000007683D4655F81E
:104A5000042F8A4211D2386858B100BF38463F68E7
:104A60003D4655F8042F8A4207D23B68002BF5D10A
:104A700003E042F6D030C2F2000033689F4225D0F6
:104A800004683B68521A112A036004D37818426004
:104A90002960FFF77DFD42F6A0312868C2F20001CF
:104AA0000B68A9EB00029A42C8F8002038BF0A60E0
:104AB00040F0004042F6AC312860C2F200010A68C2
:104AC000002008343860501C086000E0002400F02A
:104AD000CFFF204601B0BDE8F083000040F28430F3
:104AE000C2F20000016819B101680A6D01320A655D
:104AF00000687047034644F61110C0F600004FF0FE
:104B0000807C21F0010103E903106FF0020043F8FB
:104B1000240CA3F1440043F8202C7047D0E9012372
:104B2000016993604B68D0F808C08342CCF8042038
:104B300001D182684A600022026108680138086079
:104B40000868704742F65013C2F20003036042F651
:104B50001000C2F200000860502010607047000092
:104B600042F6EC23C2F20003036042F6AC10C2F23C
:104B7000000008605020106070470000704700007F
:104B80004FF0FF31024642F8081F00214260C0E9A1
:104B9000032201607047000000210161704700009E
:104BA00080B5D1F800C01CF1010207D000F1080364
:104BB0009E465B681A686245FAD901E0D0F810E0B9
:104BC000DEF804204A609160C1F808E0CEF80410D5
:104BD000086101680131016080BD0000D0F800C0AB
:104BE00043689A688A609A684B605160996008616E
:104BF0000CF1010101607047DFF80C00016841F41D
:104C000070010160704700BF88ED00E04FF01000B8
:104C100080F31188BFF36F8FBFF34F8F40F26C00AA
:104C2000C2F20000016801310160704740F26C007F
:104C3000C2F2000001680139016018BF704700200E
:104C400080F3118870470000B0B550B1044650F8A9
:104C5000040CB0F1FF3FC8BFB0BDA4F1080529683E
:104C600001B1B0BD20F0004044F8040C00F0E8F9B8
:104C700042F69831C2F2000154F8040C0A6810445C
:104C800008602846FFF784FC42F6B030C2F200000C
:104C9000016801310160BDE8B04000F0E9BE0000EC
:104CA0004EF21000CEF2000000210160816040F25F
:104CB0001C01C2F20001096844F6D352C1F262023B
:104CC000A1FB02124FF0FF3101EB9211416007216D
:104CD0000160704790F84610002908BFFFF7B4BF85
:104CE0007047000070B515460E460446FFF78EFF6C
:104CF00094F84400FF2804BF002084F8440094F88E
:104D00004500FF2804BF002084F84500FFF78EFF10
:104D1000A06B28B904F1240031462A4600F044F87B
:104D20002046BDE87040FFF729BE000010B540B135
:104D3000044600F085F920460021FFF7CBF900F08A
:104D400097FE4EF60450CEF200004FF08051016005
:104D5000BFF34F8FBFF36F8F10BD000042F6A83135
:104D6000C2F200010968016042F60041C2F200018E
:104D7000096841607047000042F60C40C2F2000032
:104D8000012101607047000010B50C4640F28431EB
:104D9000C2F2000109681831FFF702FF2046012125
:104DA000BDE81040FFF796B910B540F2843CC2F25E
:104DB000000C86464068DCF80030002AD861836821
:104DC000DCF800402362DCF80030846803F118034B
:104DD0006360DCF8003003F118038360DCF8000046
:104DE000C0F828E0DEF80030084603F1010318BFE0
:104DF0004FF0FF301146CEF80030BDE81040FFF70D
:104E000069B9000070B5E8B1C26C0446C06A8A4254
:104E100038BF0A46904208BF70BD216D012911D1EB
:104E2000A169E26200295CBFC2F13801A16140F2D0
:104E30009C36616900EB8000C2F2000606EB800040
:104E4000814200D070BD251D2846FFF767FE42F65F
:104E50000C01C2F20001E06A0A68904288BF086053
:104E600000EB800006EB80014A689368E36093687A
:104E7000A2605D609560616156F82010013146F8CE
:104E8000201070BDF0B581B0044640F28437C2F204
:104E90000007002C386818BFA04201D101B0F0BD56
:104EA000FFF7B4FE2046FFF745FD10B3251D284649
:104EB000FFF734FE42F60C01C2F20001E06A0A6814
:104EC000904288BF086040F29C3100EB8000C2F243
:104ED000000101EB800253689E68E6609E68A36053
:104EE00075609D60626151F82020013241F82020F8
:104EF000386801B0BDE8F040FFF798BEB0B586B0A5
:104F0000002505A804A903AACDE90455FFF71AFE58
:104F1000DDE90320059CCDE9005044F23940C0F69C
:104F2000000019A10023029400F0BEFB42F69C3160
:104F3000C2F20001086000B300F02EFE01281CD16F
:104F40004FF0100080F31188BFF36F8FBFF34F8FC6
:104F500042F6A430C2F200004FF0FF31016042F689
:104F6000CC30C2F200000121016042F60040C2F2E2
:104F700000000021016000F0C1F845F68840C0F64D
:104F80000000006806B0B0BD49444C450000000078
:104F9000F0B581B00446FFF739FE40F28437002CAB
:104FA000C2F2000708BF3C68261D3046FFF7B6FD79
:104FB000A06A18B104F11800FFF7B0FD42F6D83529
:104FC000C2F2000528463146FFF708FE94F8580063
:104FD000012804BF002084F85800FFF727FE42F69E
:104FE000CC36C2F20006306828B1FFF70FFEFFF79B
:104FF0004BFCFFF71BFE3868844201D001B0F0BDC6
:10500000306860B14EF60450CEF200004FF080518F
:105010000160BFF34F8FBFF36F8F01B0F0BD42F25D
:10502000FC71C2F2000128680968884203D100209F
:10503000386001B0F0BD01B0BDE8F04000F008B844
:1050400042F60400C2F200000168013101607047BD
:1050500010B542F60400C2F20000006830B142F61A
:105060000C40C2F200000121016010BD42F60C406C
:10507000C2F20000002140F284340160C2F2000458
:105080002068006B0168B1F1A53F0BD14168B1F117
:10509000A53F07D18168B1F1A53F03D1C068B0F148
:1050A000A53F04D0206821683431FFF767FD42F640
:1050B0000C00C2F20000016840F29C33013101EBA8
:1050C0008102C2F2000303EB8202083252F81C3C58
:1050D000143A002BA1F10101F8D052F8043C5B68AE
:1050E000934242F8043C02D15B6842F8043C52F817
:1050F000042CD2682260016010BD000010B54EF68D
:105100002054CEF20004206840F47F002060206824
:1051100040F07F402060FFF7C3FD40F26C00C2F218
:10512000000000210160FFF767FDD4F8140240F091
:105130004040C4F81402FFF797FAFFF789FFFFF722
:10514000E7FB002010BD000080B54FF0100080F399
:105150001188BFF36F8FBFF34F8F00F0E9FA30B1C2
:105160004EF60450CEF200004FF080510160002056
:1051700080F3118880BD000010B502460120002197
:1051800000F018F80446FFF765F9204610BD00004E
:1051900010B582B00B468446012000210022CDF8D4
:1051A00000C000F02DF80446FFF754F9204602B085
:1051B00010BD0000F0B581B0F8B105460E46A0FB69
:1051C0000101D1B906FB05F010F1510F15D850308F
:1051D0001446FFF70DFC074600284FF000000AD0E8
:1051E00007F1500287F846002846314623460097CB
:1051F000FFF740F9384601B0F0BD002001B0F0BD26
:10520000B0B582B01D4600284FF0000318BF002D36
:1052100002D1184602B0B0BD11B90AB10023F8E7B7
:1052200011B10AB90023F4E7069B012485F8464032
:105230000095FFF71FF92B46EBE7000070B528B388
:105240000446C06B10B30D46216C0026A0FB010183
:1052500031BBFFF7DBFC2068D4E90F12A66302FB29
:105260000103013901FB0201C4E90103FF20E160F0
:1052700084F8440084F8450004F110004DB1FFF7B4
:105280007FFC04F12400FFF77BFC06E0002630469B
:1052900070BD016809B100F07BFBFFF7C7FC012678
:1052A000304670BD2DE9F04F83B01D468846044658
:1052B0000292FFF7ABFCA06B022D56D0E16B884247
:1052C00053D304F110074FF0000A6E460DF10809A0
:1052D0004FF0000B0298002858D0BBF1000F04D10A
:1052E0003046FFF73BFD4FF0010BFFF79FFCFFF748
:1052F000A7FEFFF78BFC94F84400FF2808BF84F852
:1053000044A094F84500FF2808BF84F845A0FFF7A3
:105310008DFC3046494600F065F9D0BB2046FFF7CA
:1053200095F9A8B102993846FFF72EFD2046FFF700
:1053300025FB00F09DFB80B94EF60450CEF2000034
:105340004FF080510160BFF34F8FBFF36F8F04E0C8
:105350002046FFF713FB00F08BFBFFF757FCA06B19
:10536000022D02D0E16B8842B4D2204641462A4643
:10537000FEF7C6FF54F8240F10B1204600F008FBDA
:10538000FFF754FC012003B0BDE8F08FFFF74EFC9F
:1053900004E02046FFF7F2FA00F06AFB002003B0B9
:1053A000BDE8F08F2DE9F04F83B0894604460292A4
:1053B000FFF72CFCD4F838B0BBF1000F13D0204617
:1053C0004946FEF78BFFABF10100A06354F8100FC4
:1053D00010B1204600F0DCFA0124FFF727FC20463C
:1053E00003B0BDE8F08F04F1240800256F4602AE3B
:1053F0004FF0000A11E000BF2046FFF7BFFA00F0AF
:1054000037FB2046FFF716F900284ED1FFF7FEFBC9
:10541000D4F838B0BBF1000FD1D10298002842D0A7
:10542000BAF1000F04D13846FFF798FC4FF0010A9B
:10543000FFF7FCFBFFF704FEFFF7E8FB94F84400DE
:10544000FF2808BF84F8445094F84500FF2808BF9F
:1054500084F84550FFF7EAFB3846314600F0C2F8C1
:105460000028C9D12046FFF7E5F8B0B102994046BF
:10547000FFF78AFC2046FFF781FA00F0F9FA0028CE
:10548000C4D14EF60450CEF200004FF080510160BE
:10549000BFF34F8FBFF36F8FB8E72046FFF76EFA69
:1054A00000F0E6FAB2E7002497E7002497E700004F
:1054B0002DE9F04F83B004460291FFF7A7FBA06BE4
:1054C00070B10138A063206810B9FFF707FBA06036
:1054D00054F8100F10B1204600F05AFA012478E079
:1054E00004F1240900256E4602AF4FF0805B4FF0B7
:1054F000000A4FF000080EE02046FFF73FFA00F0E8
:10550000B7FA2046FFF796F8002853D1FFF77EFB45
:10551000A06B0028D5D10298002859D0BAF1000F0D
:1055200004D13046FFF71AFC4FF0010AFFF77EFB6B
:10553000FFF786FDFFF76AFB94F84400FF2808BFD9
:1055400084F8445094F84500FF2808BF84F845507B
:10555000FFF76CFB3046394600F044F80028CBD109
:105560002046FFF767F8F8B1206838B9FFF74EFB1F
:10557000A06800F0B9F98046FFF758FB0299484649
:10558000FFF702FC2046FFF7F9F900F071FA002856
:10559000BCD14EF60450CEF20000C0F800B0BFF30C
:1055A0004F8FBFF36F8FB1E72046FFF7E7F900F0A9
:1055B0005FFAABE7B8F1000F11D0FFF727FB2046E9
:1055C000FEF7EAFEA168024608461146FFF71AFCFC
:1055D0000024FFF72BFB204603B0BDE8F08F00242A
:1055E000F9E70000B0B50C460546FFF70FFB42F6A1
:1055F0000040C2F2000001682068421C0FD042F651
:10560000A8336A68C2F20003D3F800C0914208D3FD
:105610002B689C4505D00020206001240EE000246A
:105620000CE0891A884206D9401A20602846FFF704
:1056300095FB002402E0002020600124FFF7F6FA29
:105640002046B0BD2DE9F04F83B007469000984644
:1056500015468946FFF7CCF908B306465C20FFF7EC
:10566000C7F9C8B1DDE90CBA5C210446FAF753FE6C
:105670000020266384F85900384649462A464346A6
:10568000CDE900BA0294FEF705FF2046FEF772FD51
:10569000012003B0BDE8F08F3046FFF7D5FA4FF098
:1056A000FF3003B0BDE8F08F2DE9F04784B00D9DC9
:1056B000EDB10E9EDEB10F460446DDF830A0304657
:1056C0005C2198469146FAF726FE0220356386F85B
:1056D000590003A8CDE900A0204639464A46434672
:1056E0000296FEF7D7FE3046FEF744FD01E00020AB
:1056F0000390039804B0BDE8F087000042F6CC3078
:10570000C2F200000068002804BF0120704742F682
:105710000400C2F200000068B0FA80F040094000C6
:105720007047000042F60040C2F200000068704777
:105730002DE9F04742F60400C2F20000006848B1CB
:1057400042F6B430C2F2000001680131016000206D
:10575000BDE8F08742F60040C2F20000016840F266
:105760008C3911F1010AC2F20009C0F800A012D36D
:1057700040F29431C2F20001D9F800000A68C9F879
:105780000020086042F6A830C2F200000168013132
:105790000160FFF779F842F6A43CC2F2000CDCF895
:1057A0000000824502D20020BDE8F087D9F8000051
:1057B0000068002854D042F60C0E40F29C334FF0A3
:1057C0000008C2F2000EC2F2000320E0C0F82880F8
:1057D000316801393160C66ADEF800108E4206EB8E
:1057E000860188BFCEF8006003EB81046568AE686F
:1057F000C660AE6885607260AA60446153F821009B
:10580000013043F82100D9F80000006840B3D9F80E
:105810000000C068C068024652F8046FB24526D343
:10582000D0E902714669B9607168C56891426F60DC
:1058300001D1C1687160C0F81480316801393160EC
:10584000866A002EC7D0D0E9071500F118078D60D1
:105850007568046ABD426160B8D1016A7160B5E7DC
:105860004FF0FF30CCF800000020BDE8F0870020AA
:10587000CCF80060BDE8F087B0B598B30446C16AC3
:10588000006DE26C013820654FF0000018BFB0BD1C
:10589000914226D0251D2846FFF740F9E06C40F2E2
:1058A0009C3CC0F13801E062A16142F60C01C2F2F9
:1058B00000010A68C2F2000C904288BF086000EB49
:1058C00080000CEB800253689968E1609968A360DE
:1058D0004D609D6062615CF8201001314CF8201031
:1058E0000120B0BD0020B0BDF0B581B000B340F2E2
:1058F0008437C2F200070446C06A3968C96A884220
:1059000019D2A169002904D43968C96AC1F13801E2
:10591000A16140F29C36616900EB8000C2F2000692
:1059200006EB800081420FD03868C06AE0622BE04D
:10593000002001B0F0BDE16C3868C26A00209142DD
:1059400038BF012001B0F0BD251D2846FFF7E6F85D
:10595000386842F60C01C06AC2F20001E0620A68CF
:10596000904288BF086000EB800006EB80014A6827
:105970009368E3609368A2605D609560616156F82A
:105980002010013146F82010012001B0F0BD0000C8
:1059900080B5C068C068D0E90731826A99605168F3
:1059A00000F1180CD0F820E06145CEF8043001D1A8
:1059B000016A51600021816211680139116042F66B
:1059C0000401C2F20001096871B142F6B832C2F2B4
:1059D000000251688B6803628B68C161C3F804C020
:1059E000C1F808C082622EE0D0E9023142699960B4
:1059F000516800F1040CD0F80CE06145CEF8043099
:105A000001D1C168516000214161116842F60C0367
:105A100001391160C2F20003C26A19688A4288BF64
:105A20001A6002EB820140F29C32C2F2000202EBE9
:105A3000810251688B68C3608B688160C3F804C0C1
:105A4000C1F808C0426111680131116040F284312F
:105A5000C2F20001C06A0968C96A884291BF002089
:105A600042F60C41C2F20001012088BF086080BDEF
:105A70002DE9F04F81B0FFF7C9F842F60400C2F2F9
:105A80000000016801390160006800287ED142F2FF
:105A9000FC70C2F200000068002877D042F6B83AE5
:105AA000C2F2000ADAF8001042F60C480029C2F2ED
:105AB00000085CD042F60C0940F29C3340F2843E70
:105AC0004FF0000BC2F20009C2F20003C2F2000E56
:105AD0004FF0010C27E000BFC6F814B02868013869
