:020000040800F2
:100000000000012039110008891100088911000839
:1000100089110008891100088911000800000000FA
:10002000000000000000000000000000891100082E
:100030008911000800000000891100081D0C00084B
:100040008911000889110008891100088911000828
:100050008911000889110008891100088911000818
:100060008911000889110008891100088911000808
:1000700089110008891100088911000889110008F8
:1000800089110008891100088911000889110008E8
:1000900089110008891100088911000889110008D8
:1000A00089110008891100088911000889110008C8
:1000B00089110008891100088911000889110008B8
:1000C00089110008891100088911000889110008A8
:1000D0008911000889110008891100088911000898
:1000E0008911000889110008891100088911000888
:1000F0008911000889110008891100088911000878
:1001000089110008000000000000000089110008AB
:100110008911000889110008891100088911000857
:100120008911000889110008891100088911000847
:10013000891100088911000800000000000000007B
:1001400089110008891100088911000800000000C9
:10015000000000000000000000000000000000009F
:100160008911000889110008891100088911000807
:1001700089110008891100088911000889110008F7
:1001800089110008000000000000000000000000CD
:0401900089110008C9
:1001940010B5054C237833B9044B13B10448AFF3BD
:1001A40000800123237010BD140000200000000013
:1001B400D411000808B5034B1BB103490348AFF33E
:1001C400008008BD0000000018000020D4110008C1
:1001D40080B485B000AF0346FB71FB792F2B06D9A1
:1001E400FB79392B03D8FB79303BFB7302E0FB79B5
:1001F400373BFB73FB7B18461437BD465DF8047B25
:100204007047000080B586B000AF78600023BB75EE
:100214007B6801331B781846FFF7DAFF03467B75CA
:100224007B6802331B781846FFF7D2FF03463B7501
:100234007B7D1B015AB297F9143013435BB2FB74F4
:100244007B6803331B781846FFF7C2FF0346BB7471
:100254007B6804331B781846FFF7BAFF03467B74A8
:100264007B6805331B781846FFF7B2FF03463B74DF
:100274007B6806331B781846FFF7AAFF0346FB7317
:10028400394B1B681B0C1B04374A1360FA7B364B33
:100294001B6813433A7C120113437A7C1202134302
:1002A400BA7C12031343304A13600023FB7547E002
:1002B400FB7D9B0009337A6813441B781846FFF7CB
:1002C40087FF0346BB74FB7D9B000A337A681344A3
:1002D4001B781846FFF77CFF03467B74FB7D9B006D
:1002E4000B337A6813441B781846FFF771FF0346F3
:1002F4003B74FB7D9B000C337A6813441B781846CF
:10030400FFF766FF0346FB73FB7B1B021AB23B7CC1
:100314001B031BB213431AB27B7C1BB213431AB2E6
:10032400BB7C1B011BB213431AB2BB7D91B20F4AB3
:1003340022F81310BB7D0133BB75FB7D0133FB75C4
:10034400FB7C5B08DBB2FA7D9A42B1D3064B18689A
:10035400FB7C5B08DBB21A46044900F075F900BF68
:100364001837BD4680BD00BF0000002030000020CB
:1003740080B483B000AF786000BF0C37BD465DF831
:10038400047B704780B582B000AF78607B68083327
:100394001B78302B02D0342B04D007E07868FFF7A9
:1003A40031FF03E07868FFF7E3FF00BF00BF0837C1
:1003B400BD4680BD80B500AF054B064A1A60064BAA
:1003C4001B68064A1360054B1B68984700BF80BD35
:1003D40008ED00E00018000804180008600100207F
:1003E40080B483B000AF0C4B00221A7000237B60F2
:1003F40007E00A4A7B68134400221A707B680133C1
:100404007B607B68632BF4D900BF00BF0C37BD460B
:100414005DF8047B704700BF5C010020F8000020F9
:1004240080B586B000AF264A07F10C0307CA03C3A0
:100434001A80244B1B68BB60234B1B687B60234BD7
:100444001B683B6000F028FB0E21012000F04EFBEE
:100454001221022000F04AFB1121002000F046FB8B
:100464001321002000F042FB0421002000F03EFB99
:100474003B46184600F044F900220521002000F014
:1004840041FA07220421022000F090FA07220521F4
:10049400022000F08BFA07F10803184600F030F947
:1004A4003B1D184600F02CF907F10C03184600F028
:1004B400E1FB00F057FB00BF1837BD4680BD00BF0D
:1004C400EC110008F8110008FC11000800120008E3
:1004D40080B582B000AFFFF7A3FF2449244800F0A1
:1004E4004DFB38E0234B1B78DBB21A46224B1344F6
:1004F4001946002000F0FCFD0346FB71FB79002B3C
:1005040029D100F06DFB1B4B1B78DBB21A461A4B4A
:100514009B5CDBB20A2B13D1184B1B78DBB2012B8B
:1005240004D100F031F8154B00221A701248FFF77D
:1005340029FF1349002000F0BBFDFFF751FF06E03F
:100544000C4B1B78DBB20133DAB20A4B1A70074941
:10055400074800F013FB0B4B1B78DBB2002BC1D018
:10056400002318460837BD4680BD00BFB903000804
:10057400C0E1E4005C010020F80000200400002039
:10058400041200085D01002080B582B000AF06238C
:10059400FB7106E0FB79184600F00CF8FB79013397
:1005A400FB71FB79FF2BF5D100BF00BF0837BD46B7
:1005B40080BD000080B483B000AF0346FB7100BF70
:1005C4001E4BDB6803F00103012BF9D01B4B1B69A5
:1005D400DB0903F00103012B05D1184B184A5A60BB
:1005E400164B184A5A60154B1B69144A43F0020310
:1005F4001361FB799B02114A03F1006353610F4BB2
:100604001B690E4A43F04003136100BF0B4BDB68C8
:1006140003F00103012BF9D0084BDB68074A43F0D0
:100624002003D360054B1B69044A23F002031361C2
:1006340000BF0C37BD465DF8047B704700200240C4
:1006440023016745AB89EFCD80B487B000AFF86074
:10065400B9601346FB7100BF264BDB6803F001034E
:10066400012BF9D0234B1B69DB0903F00103012B98
:1006740005D1204B204A5A601E4B204A5A60002361
:10068400FB752BE01B4B1B691A4A43F001031361F2
:10069400FB7D5B00BA6813441B88BB82FB7D5B0057
:1006A400BA681A44FB6812881A80FB680233FB603C
:1006B40000BF104BDB6803F00103012BF9D00D4B95
:1006C400DB680C4A43F02003D3600A4B1B69094AD8
:1006D40023F001031361FB7D0133FB75FA7DFB7984
:1006E4009A42CFD300BF00BF1C37BD465DF8047BE0
:1006F400704700BF0020024023016745AB89EFCD5E
:10070400B0B48DB000AF7860002387F82F307C4BF5
:1007140007F10C041D460FCD0FC495E80F0084E8C3
:100724000F007B68002B03D1012387F82F30DFE013
:100734007B681B78072B03D9022387F82F30D7E077
:100744007B685B780F2B03D9032387F82F30CFE026
:100754007B68DB78032B03D9052387F82F30C7E0A8
:100764007B689B78062B07D97B689B78082B03D082
:10077400042387F82F30BBE07B681B789B0007F1CC
:100784000C0213441B681B687A68527852000321D8
:1007940001FA02F2D2431A407B689B7803F003010A
:1007A4007B685B785B0001FA03F318467B681B786F
:1007B4009B0007F10C010B441B6802431A607B6821
:1007C4009B78082B8CBF01220022D2B2002A40F071
:1007D4008C80012202FA03F303F06602002A14BF9C
:1007E40001220022D2B2002A39D140F211121A4059
:1007F400002A14BF01220022D2B2002A09D103F038
:100804000803002B14BF01230023DBB2002B6ED19D
:100814006BE07B681B789B0007F10C0213441B6898
:10082400DB687A6852785200032101FA02F2D2435B
:100834001A407B689B789B08DBB203F003017B685A
:100844005B785B0001FA03F318467B681B789B0016
:1008540007F10C010B441B680243DA6048E07B6833
:100864001B789B0007F10C0213441B689B687A6891
:1008740052785200032101FA02F2D2431A407B68F3
:10088400DB7803F003017B685B785B0001FA03F318
:1008940018467B681B789B0007F10C010B441B680E
:1008A40002439A607B681B789B0007F10C02134497
:1008B4001B685B687A685278114601228A40D243E9
:1008C4001A407B689B789B08DBB203F001037968CC
:1008D40049788B4018467B681B789B0007F10C0114
:1008E4000B441B6802435A6002E000BF00E000BFF3
:1008F40097F82F3018463437BD46B0BC704700BF58
:1009040008120008B0B48DB000AF0346FB710B466B
:10091400BB7113467B71002387F82F30224B07F1FC
:100924000C041D460FCD0FC495E80F0084E80F009A
:10093400FB79072B03D9022387F82F302CE0BB79EE
:100944000F2B03D9032387F82F3025E07B79002B65
:1009540006D07B79012B03D0062387F82F301BE0C8
:10096400FB799B0007F10C0213441B685B69BA799D
:10097400012101FA02F2D2431A407B7903F001010A
:10098400BB7901FA03F31846FB799B0007F10C01CC
:100994000B441B6802435A6197F82F3018463437CA
:1009A400BD46B0BC704700BF08120008B0B48DB09B
:1009B40000AF0346FB710B46BB7113467B710023EA
:1009C40087F82F30334B07F10C041D460FCD0FC4AD
:1009D40095E80F0084E80F00FB79072B03D9022365
:1009E40087F82F304FE0BB790F2B03D9032387F807
:1009F4002F3048E07B790F2B03D9072387F82F305A
:100A040041E0BB79072B1ED8FB799B0007F10C0250
:100A140013441B681B6ABA7992000F2101FA02F28F
:100A2400D2431A407B7903F00F01BB799B0001FA92
:100A340003F31846FB799B0007F10C010B441B6878
:100A440002431A621FE0FB799B0007F10C02134476
:100A54001B685B6ABA79083A92000F2101FA02F224
:100A6400D2431A407B7903F00F01BB79083B9B000A
:100A740001FA03F31846FB799B0007F10C010B44C0
:100A84001B6802435A6297F82F3018463437BD4624
:100A9400B0BC70470812000880B483B000AF0023D4
:100AA4007B60104B01221A6002E07B6801337B609B
:100AB4000C4B1B6803F40033002B03D17B680A4AF8
:100AC4009342F2D9074B1B6803F40033002B02D086
:100AD400044B00225A6000BF0C37BD465DF8047B0E
:100AE400704700BF001002403F420F0080B483B043
:100AF40000AF03460A46FB711346BB71FB79022B18
:100B040011D0022B25DC002B02D0012B16D020E0C3
:100B1400134B5B69BA79012101FA02F21146104ABA
:100B24000B43536115E00E4BDB69BA79012101FADD
:100B340002F211460A4A0B43D3610AE0084B9B694F
:100B4400BA79012101FA02F21146054A0B43936175
:100B540000BF00BF0C37BD465DF8047B704700BF83
:100B64000010024080B400AF034B00221A6000BFA3
:100B7400BD465DF8047B704710E000E080B483B0AC
:100B840000AF78603960134B1B68124A23F00103ED
:100B94001360104B00225A600E4B00229A600D4ADB
:100BA4007B6853600B4B1B680A4A43F001031360D4
:100BB400094A3B681360094B00221A70054B1B68F5
:100BC400044A43F00203136000BF0C37BD465DF8CE
:100BD400047B704710E000E06401002068010020FD
:100BE40080B400AF0B4B1B680A4A23F00203136066
:100BF400084B1B68074A43F001031360054B0022AE
:100C04005A60044B00229A6000BFBD465DF8047B25
:100C1400704700BF10E000E080B582B000AF124B17
:100C24001B78002B11D1114B1B68104A23F00203CF
:100C340013600E4B1B680D4A43F0010313600B4B0A
:100C440000225A60094B00229A60094B1B6898479E
:100C5400064B1B681B0CDBB203F00103FB7100BFE6
:100C64000837BD4680BD00BF6801002010E000E0E9
:100C74006401002080B485B000AF78600023FB736A
:100C84007B685B78DBB2002B18D17B681B78DBB206
:100C94001A46A54B53F8222013461B6823F08053B1
:100CA40013607B681B78DBB21A469F4B53F82220F3
:100CB40013461B6823F48053136002E00123FB7383
:100CC40000BF7B689B78DBB2002B02D0012B1CD0C9
:100CD40037E07B681B78DBB21A46934B53F822202B
:100CE40013461B6823F4004313607B68DB889BB2C4
:100CF4001A468E4B93FBF2F27B681B78DBB21946E3
:100D0400894B53F82130DA601EE07B681B78DBB234
:100D14001A46854B53F8222013461B6843F40043BC
:100D240013607B68DB889BB21A46814B93FBF2F21B
:100D34007B681B78DBB219467B4B53F82130DA60B1
:100D440002E00223FB7300BF7B68DB78DBB2022B7B
:100D54002CD0022B43DC002B02D0012B0DD03EE023
:100D64007B681B78DBB21A466F4B53F8222013467C
:100D74001B6823F48063136034E07B681B78DBB268
:100D84001A46694B53F8222013461B6843F48063C8
:100D940013607B681B78DBB21A46634B53F822203E
:100DA40013461B6823F4007313601BE07B681B78F5
:100DB400DBB21A465C4B53F8222013461B6843F4FB
:100DC400806313607B681B78DBB21A46564B53F87A
:100DD400222013461B6843F40073136002E00323CC
:100DE400FB7300BF7B681B78DBB21A464E4B53F88B
:100DF400222013465B6823F4801353607B681B79BD
:100E0400DBB2022B0ED0032B19D17B681B78DBB22B
:100E14001A46454B53F8222013465B6823F40023FB
:100E240053600CE07B681B78DBB21A463E4B53F8E8
:100E3400222013465B6843F40023536000BF7B68A1
:100E44005B79DBB2032B75D801A252F823F000BF03
:100E5400650E0008970E0008C90E0008FB0E000876
:100E64007B681B78DBB21A462F4B53F822201346BB
:100E74005B6823F4805353607B681B78DBB21A46AB
:100E8400294B53F8222013465B6823F40053536024
:100E940053E07B681B78DBB21A46234B53F82220BD
:100EA40013465B6843F4805353607B681B78DBB262
:100EB4001A461D4B53F8222013465B6823F4005353
:100EC40053603AE07B681B78DBB21A46164B53F842
:100ED400222013465B6823F4805353607B681B789D
:100EE400DBB21A46104B53F8222013465B6843F4D6
:100EF4000053536021E07B681B78DBB21A460A4B2F
:100F040053F8222013465B6843F4805353607B6894
:100F14001B78DBB21A46044B53F8222013465B6855
:100F240043F40053536008E00800002000127A00E4
:100F34000024F4000423FB7300BF7B681B7ADBB23C
:100F4400032B57D801A252F823F000BF610F000809
:100F5400930F0008C50F0008DF0F00087B681B789B
:100F6400DBB21A463A4B53F8222013461B6823F08F
:100F7400200313607B681B78DBB21A46344B53F8AA
:100F8400222013461B6823F08003136035E07B683E
:100F94001B78DBB21A462E4B53F8222013461B68EB
:100FA40043F0200313607B681B78DBB21A46284B9E
:100FB40053F8222013461B6843F0800313601CE09F
:100FC4007B681B78DBB21A46214B53F82220134668
:100FD4001B6843F0800313600FE07B681B78DBB26F
:100FE4001A461B4B53F8222013461B6843F0200378
:100FF400136002E00323FB7300BF7B681B78DBB242
:101004001A46134B53F8222013461B6843F004037B
:1010140013607B681B78DBB21A460D4B53F8222011
:1010240013461B6843F0080313607B681B78DBB22C
:101034001A46074B53F8222013461B6843F001035A
:101044001360FB7B18461437BD465DF8047B70477C
:101054000800002080B483B000AF03460A46FB7149
:101064001346BB71FB79114A52F823301A46BB79F7
:10107400936200BFFB790D4A52F82330DB6903F019
:101084004003002BF6D0FB79084A52F823301B6A40
:10109400FA79064951F8222043F04003136200BF55
:1010A4000C37BD465DF8047B704700BF0800002084
:1010B40080B584B000AF03463960FB710023FB7335
:1010C4000BE0FB7B3A6813441A78FB791146184607
:1010D400FFF7C0FFFB7B0133FB73FB7B3A681344D0
:1010E4001B78002BEDD100BF00BF1037BD4680BD7B
:1010F40080B485B000AF03463960FB710023FB73F5
:1011040000BFFB790A4A52F82330DB6903F020035D
:10111400002BF6D0FB79064A52F823305A6A3B6812
:101124001A60FB7B18461437BD465DF8047B704794
:10113400080000200D488546AFF300800C480D4997
:101144000D4A002302E0D458C4500433C4188C421E
:10115400F9D30A4A0A4C002301E013600432A24284
:10116400FBD300F011F8FFF7B3F9FEE7000001200C
:101174000000002014000020B01200081400002019
:101184006C010020FEE7000070B50D4D0D4C641B92
:10119400A4100026A64209D10B4D0C4C00F018F8FF
:1011A400641BA4100026A64205D170BD55F8043B6B
:1011B40098470136EEE755F8043B98470136F2E7C5
:1011C400A8120008A8120008A8120008AC1200080F
:1011D400F8B500BFF8BC08BC9E467047F8B500BF20
:0811E400F8BC08BC9E467047F0
:1011EC000000000003008025000000000204020142
:1011FC0002050201000501016F6B000000000048B0
:10120C000004004800080048000C0048001000488A
:10121C000014004800180048001C0048020101019D
:10122C0001010101010101010101010101010101A2
:10123C000101010101010101010101010101010192
:10124C000101010101010101010101010101010182
:10125C000101010101010101010101010101010172
:10126C000101010101010101010101010101010162
:10127C000101010101010101010101010101010152
:10128C000101010101010101010101010101010142
:0C129C000101010101010101010101013A
:0412A800B901000880
:0412AC0095010008A0
:1012B0000000000801000000003801400044004028
:0412C00000480040A2
:0400000508001139A5
:00000001FF
